{
  "_format": "hh-sol-artifact-1",
  "contractName": "Flappymon",
  "sourceName": "contracts/Flappymon.sol",
  "abi": [
    {
      "inputs": [
        {
          "internalType": "address",
          "name": "initialOwner",
          "type": "address"
        },
        {
          "internalType": "string",
          "name": "_baseTokenURI",
          "type": "string"
        }
      ],
      "stateMutability": "nonpayable",
      "type": "constructor"
    },
    {
      "inputs": [
        {
          "internalType": "address",
          "name": "sender",
          "type": "address"
        },
        {
          "internalType": "uint256",
          "name": "tokenId",
          "type": "uint256"
        },
        {
          "internalType": "address",
          "name": "owner",
          "type": "address"
        }
      ],
      "name": "ERC721IncorrectOwner",
      "type": "error"
    },
    {
      "inputs": [
        {
          "internalType": "address",
          "name": "operator",
          "type": "address"
        },
        {
          "internalType": "uint256",
          "name": "tokenId",
          "type": "uint256"
        }
      ],
      "name": "ERC721InsufficientApproval",
      "type": "error"
    },
    {
      "inputs": [
        {
          "internalType": "address",
          "name": "approver",
          "type": "address"
        }
      ],
      "name": "ERC721InvalidApprover",
      "type": "error"
    },
    {
      "inputs": [
        {
          "internalType": "address",
          "name": "operator",
          "type": "address"
        }
      ],
      "name": "ERC721InvalidOperator",
      "type": "error"
    },
    {
      "inputs": [
        {
          "internalType": "address",
          "name": "owner",
          "type": "address"
        }
      ],
      "name": "ERC721InvalidOwner",
      "type": "error"
    },
    {
      "inputs": [
        {
          "internalType": "address",
          "name": "receiver",
          "type": "address"
        }
      ],
      "name": "ERC721InvalidReceiver",
      "type": "error"
    },
    {
      "inputs": [
        {
          "internalType": "address",
          "name": "sender",
          "type": "address"
        }
      ],
      "name": "ERC721InvalidSender",
      "type": "error"
    },
    {
      "inputs": [
        {
          "internalType": "uint256",
          "name": "tokenId",
          "type": "uint256"
        }
      ],
      "name": "ERC721NonexistentToken",
      "type": "error"
    },
    {
      "inputs": [
        {
          "internalType": "address",
          "name": "owner",
          "type": "address"
        }
      ],
      "name": "OwnableInvalidOwner",
      "type": "error"
    },
    {
      "inputs": [
        {
          "internalType": "address",
          "name": "account",
          "type": "address"
        }
      ],
      "name": "OwnableUnauthorizedAccount",
      "type": "error"
    },
    {
      "anonymous": false,
      "inputs": [
        {
          "indexed": true,
          "internalType": "address",
          "name": "owner",
          "type": "address"
        },
        {
          "indexed": true,
          "internalType": "address",
          "name": "approved",
          "type": "address"
        },
        {
          "indexed": true,
          "internalType": "uint256",
          "name": "tokenId",
          "type": "uint256"
        }
      ],
      "name": "Approval",
      "type": "event"
    },
    {
      "anonymous": false,
      "inputs": [
        {
          "indexed": true,
          "internalType": "address",
          "name": "owner",
          "type": "address"
        },
        {
          "indexed": true,
          "internalType": "address",
          "name": "operator",
          "type": "address"
        },
        {
          "indexed": false,
          "internalType": "bool",
          "name": "approved",
          "type": "bool"
        }
      ],
      "name": "ApprovalForAll",
      "type": "event"
    },
    {
      "anonymous": false,
      "inputs": [
        {
          "indexed": true,
          "internalType": "address",
          "name": "previousOwner",
          "type": "address"
        },
        {
          "indexed": true,
          "internalType": "address",
          "name": "newOwner",
          "type": "address"
        }
      ],
      "name": "OwnershipTransferred",
      "type": "event"
    },
    {
      "anonymous": false,
      "inputs": [
        {
          "indexed": true,
          "internalType": "address",
          "name": "from",
          "type": "address"
        },
        {
          "indexed": true,
          "internalType": "address",
          "name": "to",
          "type": "address"
        },
        {
          "indexed": true,
          "internalType": "uint256",
          "name": "tokenId",
          "type": "uint256"
        }
      ],
      "name": "Transfer",
      "type": "event"
    },
    {
      "inputs": [
        {
          "internalType": "address",
          "name": "to",
          "type": "address"
        },
        {
          "internalType": "uint256",
          "name": "tokenId",
          "type": "uint256"
        }
      ],
      "name": "approve",
      "outputs": [],
      "stateMutability": "nonpayable",
      "type": "function"
    },
    {
      "inputs": [
        {
          "internalType": "address",
          "name": "owner",
          "type": "address"
        }
      ],
      "name": "balanceOf",
      "outputs": [
        {
          "internalType": "uint256",
          "name": "",
          "type": "uint256"
        }
      ],
      "stateMutability": "view",
      "type": "function"
    },
    {
      "inputs": [],
      "name": "baseTokenURI",
      "outputs": [
        {
          "internalType": "string",
          "name": "",
          "type": "string"
        }
      ],
      "stateMutability": "view",
      "type": "function"
    },
    {
      "inputs": [
        {
          "internalType": "uint256",
          "name": "tokenId",
          "type": "uint256"
        }
      ],
      "name": "getApproved",
      "outputs": [
        {
          "internalType": "address",
          "name": "",
          "type": "address"
        }
      ],
      "stateMutability": "view",
      "type": "function"
    },
    {
      "inputs": [
        {
          "internalType": "uint8",
          "name": "rarity",
          "type": "uint8"
        }
      ],
      "name": "getItemSlots",
      "outputs": [
        {
          "internalType": "uint8",
          "name": "",
          "type": "uint8"
        }
      ],
      "stateMutability": "pure",
      "type": "function"
    },
    {
      "inputs": [
        {
          "internalType": "uint8",
          "name": "rarity",
          "type": "uint8"
        }
      ],
      "name": "getSkillSlots",
      "outputs": [
        {
          "internalType": "uint8",
          "name": "",
          "type": "uint8"
        }
      ],
      "stateMutability": "pure",
      "type": "function"
    },
    {
      "inputs": [
        {
          "internalType": "address",
          "name": "owner",
          "type": "address"
        },
        {
          "internalType": "address",
          "name": "operator",
          "type": "address"
        }
      ],
      "name": "isApprovedForAll",
      "outputs": [
        {
          "internalType": "bool",
          "name": "",
          "type": "bool"
        }
      ],
      "stateMutability": "view",
      "type": "function"
    },
    {
      "inputs": [],
      "name": "name",
      "outputs": [
        {
          "internalType": "string",
          "name": "",
          "type": "string"
        }
      ],
      "stateMutability": "view",
      "type": "function"
    },
    {
      "inputs": [],
      "name": "nextTokenId",
      "outputs": [
        {
          "internalType": "uint256",
          "name": "",
          "type": "uint256"
        }
      ],
      "stateMutability": "view",
      "type": "function"
    },
    {
      "inputs": [],
      "name": "owner",
      "outputs": [
        {
          "internalType": "address",
          "name": "",
          "type": "address"
        }
      ],
      "stateMutability": "view",
      "type": "function"
    },
    {
      "inputs": [
        {
          "internalType": "uint256",
          "name": "tokenId",
          "type": "uint256"
        }
      ],
      "name": "ownerOf",
      "outputs": [
        {
          "internalType": "address",
          "name": "",
          "type": "address"
        }
      ],
      "stateMutability": "view",
      "type": "function"
    },
    {
      "inputs": [],
      "name": "renounceOwnership",
      "outputs": [],
      "stateMutability": "nonpayable",
      "type": "function"
    },
    {
      "inputs": [
        {
          "internalType": "address",
          "name": "to",
          "type": "address"
        },
        {
          "internalType": "uint8",
          "name": "rarity",
          "type": "uint8"
        }
      ],
      "name": "safeMint",
      "outputs": [
        {
          "internalType": "uint256",
          "name": "",
          "type": "uint256"
        }
      ],
      "stateMutability": "nonpayable",
      "type": "function"
    },
    {
      "inputs": [
        {
          "internalType": "address",
          "name": "from",
          "type": "address"
        },
        {
          "internalType": "address",
          "name": "to",
          "type": "address"
        },
        {
          "internalType": "uint256",
          "name": "tokenId",
          "type": "uint256"
        }
      ],
      "name": "safeTransferFrom",
      "outputs": [],
      "stateMutability": "nonpayable",
      "type": "function"
    },
    {
      "inputs": [
        {
          "internalType": "address",
          "name": "from",
          "type": "address"
        },
        {
          "internalType": "address",
          "name": "to",
          "type": "address"
        },
        {
          "internalType": "uint256",
          "name": "tokenId",
          "type": "uint256"
        },
        {
          "internalType": "bytes",
          "name": "data",
          "type": "bytes"
        }
      ],
      "name": "safeTransferFrom",
      "outputs": [],
      "stateMutability": "nonpayable",
      "type": "function"
    },
    {
      "inputs": [
        {
          "internalType": "address",
          "name": "operator",
          "type": "address"
        },
        {
          "internalType": "bool",
          "name": "approved",
          "type": "bool"
        }
      ],
      "name": "setApprovalForAll",
      "outputs": [],
      "stateMutability": "nonpayable",
      "type": "function"
    },
    {
      "inputs": [
        {
          "internalType": "string",
          "name": "_uri",
          "type": "string"
        }
      ],
      "name": "setBaseURI",
      "outputs": [],
      "stateMutability": "nonpayable",
      "type": "function"
    },
    {
      "inputs": [
        {
          "internalType": "bytes4",
          "name": "interfaceId",
          "type": "bytes4"
        }
      ],
      "name": "supportsInterface",
      "outputs": [
        {
          "internalType": "bool",
          "name": "",
          "type": "bool"
        }
      ],
      "stateMutability": "view",
      "type": "function"
    },
    {
      "inputs": [],
      "name": "symbol",
      "outputs": [
        {
          "internalType": "string",
          "name": "",
          "type": "string"
        }
      ],
      "stateMutability": "view",
      "type": "function"
    },
    {
      "inputs": [
        {
          "internalType": "uint256",
          "name": "",
          "type": "uint256"
        }
      ],
      "name": "tokenRarity",
      "outputs": [
        {
          "internalType": "uint8",
          "name": "",
          "type": "uint8"
        }
      ],
      "stateMutability": "view",
      "type": "function"
    },
    {
      "inputs": [
        {
          "internalType": "uint256",
          "name": "tokenId",
          "type": "uint256"
        }
      ],
      "name": "tokenURI",
      "outputs": [
        {
          "internalType": "string",
          "name": "",
          "type": "string"
        }
      ],
      "stateMutability": "view",
      "type": "function"
    },
    {
      "inputs": [
        {
          "internalType": "address",
          "name": "owner",
          "type": "address"
        }
      ],
      "name": "tokensOfOwner",
      "outputs": [
        {
          "internalType": "uint256[]",
          "name": "",
          "type": "uint256[]"
        }
      ],
      "stateMutability": "view",
      "type": "function"
    },
    {
      "inputs": [
        {
          "internalType": "address",
          "name": "from",
          "type": "address"
        },
        {
          "internalType": "address",
          "name": "to",
          "type": "address"
        },
        {
          "internalType": "uint256",
          "name": "tokenId",
          "type": "uint256"
        }
      ],
      "name": "transferFrom",
      "outputs": [],
      "stateMutability": "nonpayable",
      "type": "function"
    },
    {
      "inputs": [
        {
          "internalType": "address",
          "name": "newOwner",
          "type": "address"
        }
      ],
      "name": "transferOwnership",
      "outputs": [],
      "stateMutability": "nonpayable",
      "type": "function"
    }
  ],
  "bytecode": "0x608060405234801561001057600080fd5b50604051613395380380613395833981810160405281019061003291906103f3565b816040518060400160405280600981526020017f466c617070796d6f6e00000000000000000000000000000000000000000000008152506040518060400160405280600481526020017f464c414d0000000000000000000000000000000000000000000000000000000081525081600090816100ae9190610670565b5080600190816100be9190610670565b505050600073ffffffffffffffffffffffffffffffffffffffff168173ffffffffffffffffffffffffffffffffffffffff16036101335760006040517f1e4fbdf700000000000000000000000000000000000000000000000000000000815260040161012a9190610751565b60405180910390fd5b6101428161015a60201b60201c565b5080600890816101529190610670565b50505061076c565b6000600660009054906101000a900473ffffffffffffffffffffffffffffffffffffffff16905081600660006101000a81548173ffffffffffffffffffffffffffffffffffffffff021916908373ffffffffffffffffffffffffffffffffffffffff1602179055508173ffffffffffffffffffffffffffffffffffffffff168173ffffffffffffffffffffffffffffffffffffffff167f8be0079c531659141344cd1fd0a4f28419497f9722a3daafe3b4186f6b6457e060405160405180910390a35050565b6000604051905090565b600080fd5b600080fd5b600073ffffffffffffffffffffffffffffffffffffffff82169050919050565b600061025f82610234565b9050919050565b61026f81610254565b811461027a57600080fd5b50565b60008151905061028c81610266565b92915050565b600080fd5b600080fd5b6000601f19601f8301169050919050565b7f4e487b7100000000000000000000000000000000000000000000000000000000600052604160045260246000fd5b6102e58261029c565b810181811067ffffffffffffffff82111715610304576103036102ad565b5b80604052505050565b6000610317610220565b905061032382826102dc565b919050565b600067ffffffffffffffff821115610343576103426102ad565b5b61034c8261029c565b9050602081019050919050565b60005b8381101561037757808201518184015260208101905061035c565b60008484015250505050565b600061039661039184610328565b61030d565b9050828152602081018484840111156103b2576103b1610297565b5b6103bd848285610359565b509392505050565b600082601f8301126103da576103d9610292565b5b81516103ea848260208601610383565b91505092915050565b6000806040838503121561040a5761040961022a565b5b60006104188582860161027d565b925050602083015167ffffffffffffffff8111156104395761043861022f565b5b610445858286016103c5565b9150509250929050565b600081519050919050565b7f4e487b7100000000000000000000000000000000000000000000000000000000600052602260045260246000fd5b600060028204905060018216806104a157607f821691505b6020821081036104b4576104b361045a565b5b50919050565b60008190508160005260206000209050919050565b60006020601f8301049050919050565b600082821b905092915050565b60006008830261051c7fffffffffffffffffffffffffffffffffffffffffffffffffffffffffffffffff826104df565b61052686836104df565b95508019841693508086168417925050509392505050565b6000819050919050565b6000819050919050565b600061056d6105686105638461053e565b610548565b61053e565b9050919050565b6000819050919050565b61058783610552565b61059b61059382610574565b8484546104ec565b825550505050565b600090565b6105b06105a3565b6105bb81848461057e565b505050565b5b818110156105df576105d46000826105a8565b6001810190506105c1565b5050565b601f821115610624576105f5816104ba565b6105fe846104cf565b8101602085101561060d578190505b610621610619856104cf565b8301826105c0565b50505b505050565b600082821c905092915050565b600061064760001984600802610629565b1980831691505092915050565b60006106608383610636565b9150826002028217905092915050565b6106798261044f565b67ffffffffffffffff811115610692576106916102ad565b5b61069c8254610489565b6106a78282856105e3565b600060209050601f8311600181146106da57600084156106c8578287015190505b6106d28582610654565b86555061073a565b601f1984166106e8866104ba565b60005b82811015610710578489015182556001820191506020850194506020810190506106eb565b8683101561072d5784890151610729601f891682610636565b8355505b6001600288020188555050505b505050505050565b61074b81610254565b82525050565b60006020820190506107666000830184610742565b92915050565b612c1a8061077b6000396000f3fe608060405234801561001057600080fd5b50600436106101585760003560e01c8063761c4c40116100c3578063afb0a3691161007c578063afb0a369146103eb578063b88d4fde1461041b578063c87b56dd14610437578063d547cfb714610467578063e985e9c514610485578063f2fde38b146104b557610158565b8063761c4c40146103035780638462151c1461033357806388f168f5146103635780638da5cb5b1461039357806395d89b41146103b1578063a22cb465146103cf57610158565b806342842e0e1161011557806342842e0e1461024357806355f804b31461025f5780636352211e1461027b57806370a08231146102ab578063715018a6146102db57806375794a3c146102e557610158565b806301ffc9a71461015d57806306fdde031461018d578063081812fc146101ab578063095ea7b3146101db5780631eea7c48146101f757806323b872dd14610227575b600080fd5b61017760048036038101906101729190611d28565b6104d1565b6040516101849190611d70565b60405180910390f35b6101956105b3565b6040516101a29190611e1b565b60405180910390f35b6101c560048036038101906101c09190611e73565b610645565b6040516101d29190611ee1565b60405180910390f35b6101f560048036038101906101f09190611f28565b610661565b005b610211600480360381019061020c9190611fa1565b610677565b60405161021e9190611fdd565b60405180910390f35b610241600480360381019061023c9190611ff8565b6106ab565b005b61025d60048036038101906102589190611ff8565b6107ad565b005b610279600480360381019061027491906120b0565b6107cd565b005b61029560048036038101906102909190611e73565b6107eb565b6040516102a29190611ee1565b60405180910390f35b6102c560048036038101906102c091906120fd565b6107fd565b6040516102d29190612139565b60405180910390f35b6102e36108b7565b005b6102ed6108cb565b6040516102fa9190612139565b60405180910390f35b61031d60048036038101906103189190612154565b6108d1565b60405161032a9190612139565b60405180910390f35b61034d600480360381019061034891906120fd565b61093a565b60405161035a9190612252565b60405180910390f35b61037d60048036038101906103789190611fa1565b610a27565b60405161038a9190611fdd565b60405180910390f35b61039b610ab8565b6040516103a89190611ee1565b60405180910390f35b6103b9610ae2565b6040516103c69190611e1b565b60405180910390f35b6103e960048036038101906103e491906122a0565b610b74565b005b61040560048036038101906104009190611e73565b610b8a565b6040516104129190611fdd565b60405180910390f35b61043560048036038101906104309190612410565b610baa565b005b610451600480360381019061044c9190611e73565b610bcf565b60405161045e9190611e1b565b60405180910390f35b61046f610ca3565b60405161047c9190611e1b565b60405180910390f35b61049f600480360381019061049a9190612493565b610d31565b6040516104ac9190611d70565b60405180910390f35b6104cf60048036038101906104ca91906120fd565b610dc5565b005b60007f80ac58cd000000000000000000000000000000000000000000000000000000007bffffffffffffffffffffffffffffffffffffffffffffffffffffffff1916827bffffffffffffffffffffffffffffffffffffffffffffffffffffffff1916148061059c57507f5b5e139f000000000000000000000000000000000000000000000000000000007bffffffffffffffffffffffffffffffffffffffffffffffffffffffff1916827bffffffffffffffffffffffffffffffffffffffffffffffffffffffff1916145b806105ac57506105ab82610e4b565b5b9050919050565b6060600080546105c290612502565b80601f01602080910402602001604051908101604052809291908181526020018280546105ee90612502565b801561063b5780601f106106105761010080835404028352916020019161063b565b820191906000526020600020905b81548152906001019060200180831161061e57829003601f168201915b5050505050905090565b600061065082610eb5565b5061065a82610f3d565b9050919050565b610673828261066e610f7a565b610f82565b5050565b600060028260ff160361068d57600190506106a6565b60038260ff16036106a157600290506106a6565b600090505b919050565b600073ffffffffffffffffffffffffffffffffffffffff168273ffffffffffffffffffffffffffffffffffffffff160361071d5760006040517f64a0ae920000000000000000000000000000000000000000000000000000000081526004016107149190611ee1565b60405180910390fd5b6000610731838361072c610f7a565b610f94565b90508373ffffffffffffffffffffffffffffffffffffffff168173ffffffffffffffffffffffffffffffffffffffff16146107a7578382826040517f64283d7b00000000000000000000000000000000000000000000000000000000815260040161079e93929190612533565b60405180910390fd5b50505050565b6107c883838360405180602001604052806000815250610baa565b505050565b6107d56111ae565b8181600891826107e6929190612721565b505050565b60006107f682610eb5565b9050919050565b60008073ffffffffffffffffffffffffffffffffffffffff168273ffffffffffffffffffffffffffffffffffffffff16036108705760006040517f89c62b640000000000000000000000000000000000000000000000000000000081526004016108679190611ee1565b60405180910390fd5b600360008373ffffffffffffffffffffffffffffffffffffffff1673ffffffffffffffffffffffffffffffffffffffff168152602001908152602001600020549050919050565b6108bf6111ae565b6108c96000611235565b565b60075481565b60006108db6111ae565b60006007549050600760008154809291906108f590612820565b919050555061090484826112fb565b826009600083815260200190815260200160002060006101000a81548160ff021916908360ff1602179055508091505092915050565b60606000610947836107fd565b905060008167ffffffffffffffff811115610965576109646122e5565b5b6040519080825280602002602001820160405280156109935781602001602082028036833780820191505090505b5090506000805b600754811015610a1b578573ffffffffffffffffffffffffffffffffffffffff166109c4826113f4565b73ffffffffffffffffffffffffffffffffffffffff1603610a0e57808383815181106109f3576109f2612868565b5b6020026020010181815250508180610a0a90612820565b9250505b808060010191505061099a565b50819350505050919050565b6000808260ff1603610a3c5760019050610ab3565b60018260ff1603610a505760029050610ab3565b60028260ff1603610a645760039050610ab3565b60038260ff1603610a785760049050610ab3565b6040517f08c379a0000000000000000000000000000000000000000000000000000000008152600401610aaa906128e3565b60405180910390fd5b919050565b6000600660009054906101000a900473ffffffffffffffffffffffffffffffffffffffff16905090565b606060018054610af190612502565b80601f0160208091040260200160405190810160405280929190818152602001828054610b1d90612502565b8015610b6a5780601f10610b3f57610100808354040283529160200191610b6a565b820191906000526020600020905b815481529060010190602001808311610b4d57829003601f168201915b5050505050905090565b610b86610b7f610f7a565b8383611431565b5050565b60096020528060005260406000206000915054906101000a900460ff1681565b610bb58484846106ab565b610bc9610bc0610f7a565b858585856115a0565b50505050565b6060600073ffffffffffffffffffffffffffffffffffffffff16610bf2836113f4565b73ffffffffffffffffffffffffffffffffffffffff1603610c48576040517f08c379a0000000000000000000000000000000000000000000000000000000008152600401610c3f9061294f565b60405180910390fd5b60006009600084815260200190815260200160002060009054906101000a900460ff1690506008610c7b8260ff16611751565b604051602001610c8c929190612a7a565b604051602081830303815290604052915050919050565b60088054610cb090612502565b80601f0160208091040260200160405190810160405280929190818152602001828054610cdc90612502565b8015610d295780601f10610cfe57610100808354040283529160200191610d29565b820191906000526020600020905b815481529060010190602001808311610d0c57829003601f168201915b505050505081565b6000600560008473ffffffffffffffffffffffffffffffffffffffff1673ffffffffffffffffffffffffffffffffffffffff16815260200190815260200160002060008373ffffffffffffffffffffffffffffffffffffffff1673ffffffffffffffffffffffffffffffffffffffff16815260200190815260200160002060009054906101000a900460ff16905092915050565b610dcd6111ae565b600073ffffffffffffffffffffffffffffffffffffffff168173ffffffffffffffffffffffffffffffffffffffff1603610e3f5760006040517f1e4fbdf7000000000000000000000000000000000000000000000000000000008152600401610e369190611ee1565b60405180910390fd5b610e4881611235565b50565b60007f01ffc9a7000000000000000000000000000000000000000000000000000000007bffffffffffffffffffffffffffffffffffffffffffffffffffffffff1916827bffffffffffffffffffffffffffffffffffffffffffffffffffffffff1916149050919050565b600080610ec1836113f4565b9050600073ffffffffffffffffffffffffffffffffffffffff168173ffffffffffffffffffffffffffffffffffffffff1603610f3457826040517f7e273289000000000000000000000000000000000000000000000000000000008152600401610f2b9190612139565b60405180910390fd5b80915050919050565b60006004600083815260200190815260200160002060009054906101000a900473ffffffffffffffffffffffffffffffffffffffff169050919050565b600033905090565b610f8f838383600161181f565b505050565b600080610fa0846113f4565b9050600073ffffffffffffffffffffffffffffffffffffffff168373ffffffffffffffffffffffffffffffffffffffff1614610fe257610fe18184866119e4565b5b600073ffffffffffffffffffffffffffffffffffffffff168173ffffffffffffffffffffffffffffffffffffffff16146110735761102460008560008061181f565b6001600360008373ffffffffffffffffffffffffffffffffffffffff1673ffffffffffffffffffffffffffffffffffffffff168152602001908152602001600020600082825403925050819055505b600073ffffffffffffffffffffffffffffffffffffffff168573ffffffffffffffffffffffffffffffffffffffff16146110f6576001600360008773ffffffffffffffffffffffffffffffffffffffff1673ffffffffffffffffffffffffffffffffffffffff168152602001908152602001600020600082825401925050819055505b846002600086815260200190815260200160002060006101000a81548173ffffffffffffffffffffffffffffffffffffffff021916908373ffffffffffffffffffffffffffffffffffffffff160217905550838573ffffffffffffffffffffffffffffffffffffffff168273ffffffffffffffffffffffffffffffffffffffff167fddf252ad1be2c89b69c2b068fc378daa952ba7f163c4a11628f55a4df523b3ef60405160405180910390a4809150509392505050565b6111b6610f7a565b73ffffffffffffffffffffffffffffffffffffffff166111d4610ab8565b73ffffffffffffffffffffffffffffffffffffffff1614611233576111f7610f7a565b6040517f118cdaa700000000000000000000000000000000000000000000000000000000815260040161122a9190611ee1565b60405180910390fd5b565b6000600660009054906101000a900473ffffffffffffffffffffffffffffffffffffffff16905081600660006101000a81548173ffffffffffffffffffffffffffffffffffffffff021916908373ffffffffffffffffffffffffffffffffffffffff1602179055508173ffffffffffffffffffffffffffffffffffffffff168173ffffffffffffffffffffffffffffffffffffffff167f8be0079c531659141344cd1fd0a4f28419497f9722a3daafe3b4186f6b6457e060405160405180910390a35050565b600073ffffffffffffffffffffffffffffffffffffffff168273ffffffffffffffffffffffffffffffffffffffff160361136d5760006040517f64a0ae920000000000000000000000000000000000000000000000000000000081526004016113649190611ee1565b60405180910390fd5b600061137b83836000610f94565b9050600073ffffffffffffffffffffffffffffffffffffffff168173ffffffffffffffffffffffffffffffffffffffff16146113ef5760006040517f73c6ac6e0000000000000000000000000000000000000000000000000000000081526004016113e69190611ee1565b60405180910390fd5b505050565b60006002600083815260200190815260200160002060009054906101000a900473ffffffffffffffffffffffffffffffffffffffff169050919050565b600073ffffffffffffffffffffffffffffffffffffffff168273ffffffffffffffffffffffffffffffffffffffff16036114a257816040517f5b08ba180000000000000000000000000000000000000000000000000000000081526004016114999190611ee1565b60405180910390fd5b80600560008573ffffffffffffffffffffffffffffffffffffffff1673ffffffffffffffffffffffffffffffffffffffff16815260200190815260200160002060008473ffffffffffffffffffffffffffffffffffffffff1673ffffffffffffffffffffffffffffffffffffffff16815260200190815260200160002060006101000a81548160ff0219169083151502179055508173ffffffffffffffffffffffffffffffffffffffff168373ffffffffffffffffffffffffffffffffffffffff167f17307eab39ab6107e8899845ad3d59bd9653f200f220920489ca2b5937696c31836040516115939190611d70565b60405180910390a3505050565b60008373ffffffffffffffffffffffffffffffffffffffff163b111561174a578273ffffffffffffffffffffffffffffffffffffffff1663150b7a02868685856040518563ffffffff1660e01b81526004016115ff9493929190612afe565b6020604051808303816000875af192505050801561163b57506040513d601f19601f820116820180604052508101906116389190612b5f565b60015b6116bf573d806000811461166b576040519150601f19603f3d011682016040523d82523d6000602084013e611670565b606091505b5060008151036116b757836040517f64a0ae920000000000000000000000000000000000000000000000000000000081526004016116ae9190611ee1565b60405180910390fd5b805181602001fd5b63150b7a0260e01b7bffffffffffffffffffffffffffffffffffffffffffffffffffffffff1916817bffffffffffffffffffffffffffffffffffffffffffffffffffffffff19161461174857836040517f64a0ae9200000000000000000000000000000000000000000000000000000000815260040161173f9190611ee1565b60405180910390fd5b505b5050505050565b60606000600161176084611aa8565b01905060008167ffffffffffffffff81111561177f5761177e6122e5565b5b6040519080825280601f01601f1916602001820160405280156117b15781602001600182028036833780820191505090505b509050600082602001820190505b600115611814578080600190039150507f3031323334353637383961626364656600000000000000000000000000000000600a86061a8153600a858161180857611807612b8c565b5b049450600085036117bf575b819350505050919050565b80806118585750600073ffffffffffffffffffffffffffffffffffffffff168273ffffffffffffffffffffffffffffffffffffffff1614155b1561198c57600061186884610eb5565b9050600073ffffffffffffffffffffffffffffffffffffffff168373ffffffffffffffffffffffffffffffffffffffff16141580156118d357508273ffffffffffffffffffffffffffffffffffffffff168173ffffffffffffffffffffffffffffffffffffffff1614155b80156118e657506118e48184610d31565b155b1561192857826040517fa9fbf51f00000000000000000000000000000000000000000000000000000000815260040161191f9190611ee1565b60405180910390fd5b811561198a57838573ffffffffffffffffffffffffffffffffffffffff168273ffffffffffffffffffffffffffffffffffffffff167f8c5be1e5ebec7d5bd14f71427d1e84f3dd0314c0f7b2291e5b200ac8c7c3b92560405160405180910390a45b505b836004600085815260200190815260200160002060006101000a81548173ffffffffffffffffffffffffffffffffffffffff021916908373ffffffffffffffffffffffffffffffffffffffff16021790555050505050565b6119ef838383611bfb565b611aa357600073ffffffffffffffffffffffffffffffffffffffff168373ffffffffffffffffffffffffffffffffffffffff1603611a6457806040517f7e273289000000000000000000000000000000000000000000000000000000008152600401611a5b9190612139565b60405180910390fd5b81816040517f177e802f000000000000000000000000000000000000000000000000000000008152600401611a9a929190612bbb565b60405180910390fd5b505050565b600080600090507a184f03e93ff9f4daa797ed6e38ed64bf6a1f0100000000000000008310611b06577a184f03e93ff9f4daa797ed6e38ed64bf6a1f0100000000000000008381611afc57611afb612b8c565b5b0492506040810190505b6d04ee2d6d415b85acef81000000008310611b43576d04ee2d6d415b85acef81000000008381611b3957611b38612b8c565b5b0492506020810190505b662386f26fc100008310611b7257662386f26fc100008381611b6857611b67612b8c565b5b0492506010810190505b6305f5e1008310611b9b576305f5e1008381611b9157611b90612b8c565b5b0492506008810190505b6127108310611bc0576127108381611bb657611bb5612b8c565b5b0492506004810190505b60648310611be35760648381611bd957611bd8612b8c565b5b0492506002810190505b600a8310611bf2576001810190505b80915050919050565b60008073ffffffffffffffffffffffffffffffffffffffff168373ffffffffffffffffffffffffffffffffffffffff1614158015611cb357508273ffffffffffffffffffffffffffffffffffffffff168473ffffffffffffffffffffffffffffffffffffffff161480611c745750611c738484610d31565b5b80611cb257508273ffffffffffffffffffffffffffffffffffffffff16611c9a83610f3d565b73ffffffffffffffffffffffffffffffffffffffff16145b5b90509392505050565b6000604051905090565b600080fd5b600080fd5b60007fffffffff0000000000000000000000000000000000000000000000000000000082169050919050565b611d0581611cd0565b8114611d1057600080fd5b50565b600081359050611d2281611cfc565b92915050565b600060208284031215611d3e57611d3d611cc6565b5b6000611d4c84828501611d13565b91505092915050565b60008115159050919050565b611d6a81611d55565b82525050565b6000602082019050611d856000830184611d61565b92915050565b600081519050919050565b600082825260208201905092915050565b60005b83811015611dc5578082015181840152602081019050611daa565b60008484015250505050565b6000601f19601f8301169050919050565b6000611ded82611d8b565b611df78185611d96565b9350611e07818560208601611da7565b611e1081611dd1565b840191505092915050565b60006020820190508181036000830152611e358184611de2565b905092915050565b6000819050919050565b611e5081611e3d565b8114611e5b57600080fd5b50565b600081359050611e6d81611e47565b92915050565b600060208284031215611e8957611e88611cc6565b5b6000611e9784828501611e5e565b91505092915050565b600073ffffffffffffffffffffffffffffffffffffffff82169050919050565b6000611ecb82611ea0565b9050919050565b611edb81611ec0565b82525050565b6000602082019050611ef66000830184611ed2565b92915050565b611f0581611ec0565b8114611f1057600080fd5b50565b600081359050611f2281611efc565b92915050565b60008060408385031215611f3f57611f3e611cc6565b5b6000611f4d85828601611f13565b9250506020611f5e85828601611e5e565b9150509250929050565b600060ff82169050919050565b611f7e81611f68565b8114611f8957600080fd5b50565b600081359050611f9b81611f75565b92915050565b600060208284031215611fb757611fb6611cc6565b5b6000611fc584828501611f8c565b91505092915050565b611fd781611f68565b82525050565b6000602082019050611ff26000830184611fce565b92915050565b60008060006060848603121561201157612010611cc6565b5b600061201f86828701611f13565b935050602061203086828701611f13565b925050604061204186828701611e5e565b9150509250925092565b600080fd5b600080fd5b600080fd5b60008083601f8401126120705761206f61204b565b5b8235905067ffffffffffffffff81111561208d5761208c612050565b5b6020830191508360018202830111156120a9576120a8612055565b5b9250929050565b600080602083850312156120c7576120c6611cc6565b5b600083013567ffffffffffffffff8111156120e5576120e4611ccb565b5b6120f18582860161205a565b92509250509250929050565b60006020828403121561211357612112611cc6565b5b600061212184828501611f13565b91505092915050565b61213381611e3d565b82525050565b600060208201905061214e600083018461212a565b92915050565b6000806040838503121561216b5761216a611cc6565b5b600061217985828601611f13565b925050602061218a85828601611f8c565b9150509250929050565b600081519050919050565b600082825260208201905092915050565b6000819050602082019050919050565b6121c981611e3d565b82525050565b60006121db83836121c0565b60208301905092915050565b6000602082019050919050565b60006121ff82612194565b612209818561219f565b9350612214836121b0565b8060005b8381101561224557815161222c88826121cf565b9750612237836121e7565b925050600181019050612218565b5085935050505092915050565b6000602082019050818103600083015261226c81846121f4565b905092915050565b61227d81611d55565b811461228857600080fd5b50565b60008135905061229a81612274565b92915050565b600080604083850312156122b7576122b6611cc6565b5b60006122c585828601611f13565b92505060206122d68582860161228b565b9150509250929050565b600080fd5b7f4e487b7100000000000000000000000000000000000000000000000000000000600052604160045260246000fd5b61231d82611dd1565b810181811067ffffffffffffffff8211171561233c5761233b6122e5565b5b80604052505050565b600061234f611cbc565b905061235b8282612314565b919050565b600067ffffffffffffffff82111561237b5761237a6122e5565b5b61238482611dd1565b9050602081019050919050565b82818337600083830152505050565b60006123b36123ae84612360565b612345565b9050828152602081018484840111156123cf576123ce6122e0565b5b6123da848285612391565b509392505050565b600082601f8301126123f7576123f661204b565b5b81356124078482602086016123a0565b91505092915050565b6000806000806080858703121561242a57612429611cc6565b5b600061243887828801611f13565b945050602061244987828801611f13565b935050604061245a87828801611e5e565b925050606085013567ffffffffffffffff81111561247b5761247a611ccb565b5b612487878288016123e2565b91505092959194509250565b600080604083850312156124aa576124a9611cc6565b5b60006124b885828601611f13565b92505060206124c985828601611f13565b9150509250929050565b7f4e487b7100000000000000000000000000000000000000000000000000000000600052602260045260246000fd5b6000600282049050600182168061251a57607f821691505b60208210810361252d5761252c6124d3565b5b50919050565b60006060820190506125486000830186611ed2565b612555602083018561212a565b6125626040830184611ed2565b949350505050565b600082905092915050565b60008190508160005260206000209050919050565b60006020601f8301049050919050565b600082821b905092915050565b6000600883026125d77fffffffffffffffffffffffffffffffffffffffffffffffffffffffffffffffff8261259a565b6125e1868361259a565b95508019841693508086168417925050509392505050565b6000819050919050565b600061261e61261961261484611e3d565b6125f9565b611e3d565b9050919050565b6000819050919050565b61263883612603565b61264c61264482612625565b8484546125a7565b825550505050565b600090565b612661612654565b61266c81848461262f565b505050565b5b8181101561269057612685600082612659565b600181019050612672565b5050565b601f8211156126d5576126a681612575565b6126af8461258a565b810160208510156126be578190505b6126d26126ca8561258a565b830182612671565b50505b505050565b600082821c905092915050565b60006126f8600019846008026126da565b1980831691505092915050565b600061271183836126e7565b9150826002028217905092915050565b61272b838361256a565b67ffffffffffffffff811115612744576127436122e5565b5b61274e8254612502565b612759828285612694565b6000601f8311600181146127885760008415612776578287013590505b6127808582612705565b8655506127e8565b601f19841661279686612575565b60005b828110156127be57848901358255600182019150602085019450602081019050612799565b868310156127db57848901356127d7601f8916826126e7565b8355505b6001600288020188555050505b50505050505050565b7f4e487b7100000000000000000000000000000000000000000000000000000000600052601160045260246000fd5b600061282b82611e3d565b91507fffffffffffffffffffffffffffffffffffffffffffffffffffffffffffffffff820361285d5761285c6127f1565b5b600182019050919050565b7f4e487b7100000000000000000000000000000000000000000000000000000000600052603260045260246000fd5b7f496e76616c696420726172697479000000000000000000000000000000000000600082015250565b60006128cd600e83611d96565b91506128d882612897565b602082019050919050565b600060208201905081810360008301526128fc816128c0565b9050919050565b7f546f6b656e20646f6573206e6f74206578697374000000000000000000000000600082015250565b6000612939601483611d96565b915061294482612903565b602082019050919050565b600060208201905081810360008301526129688161292c565b9050919050565b600081905092915050565b6000815461298781612502565b612991818661296f565b945060018216600081146129ac57600181146129c1576129f4565b60ff19831686528115158202860193506129f4565b6129ca85612575565b60005b838110156129ec578154818901526001820191506020810190506129cd565b838801955050505b50505092915050565b6000612a0882611d8b565b612a12818561296f565b9350612a22818560208601611da7565b80840191505092915050565b7f2e6a736f6e000000000000000000000000000000000000000000000000000000600082015250565b6000612a6460058361296f565b9150612a6f82612a2e565b600582019050919050565b6000612a86828561297a565b9150612a9282846129fd565b9150612a9d82612a57565b91508190509392505050565b600081519050919050565b600082825260208201905092915050565b6000612ad082612aa9565b612ada8185612ab4565b9350612aea818560208601611da7565b612af381611dd1565b840191505092915050565b6000608082019050612b136000830187611ed2565b612b206020830186611ed2565b612b2d604083018561212a565b8181036060830152612b3f8184612ac5565b905095945050505050565b600081519050612b5981611cfc565b92915050565b600060208284031215612b7557612b74611cc6565b5b6000612b8384828501612b4a565b91505092915050565b7f4e487b7100000000000000000000000000000000000000000000000000000000600052601260045260246000fd5b6000604082019050612bd06000830185611ed2565b612bdd602083018461212a565b939250505056fea2646970667358221220de76ddebf6fa6c1fe922aee15fd8a3385a81df4ac6d5512812d4642cdcc9734264736f6c634300081c0033",
  "linkReferences": {},
  "deployedLinkReferences": {}
}