{
  "_format": "hh-sol-artifact-1",
  "contractName": "FLAPTOKEN",
  "sourceName": "contracts/FlapToken.sol",
  "abi": [
    {
      "inputs": [
        {
          "internalType": "address",
          "name": "recipient",
          "type": "address"
        },
        {
          "internalType": "address",
          "name": "initialOwner",
          "type": "address"
        }
      ],
      "stateMutability": "nonpayable",
      "type": "constructor"
    },
    {
      "inputs": [],
      "name": "ECDSAInvalidSignature",
      "type": "error"
    },
    {
      "inputs": [
        {
          "internalType": "uint256",
          "name": "length",
          "type": "uint256"
        }
      ],
      "name": "ECDSAInvalidSignatureLength",
      "type": "error"
    },
    {
      "inputs": [
        {
          "internalType": "bytes32",
          "name": "s",
          "type": "bytes32"
        }
      ],
      "name": "ECDSAInvalidSignatureS",
      "type": "error"
    },
    {
      "inputs": [
        {
          "internalType": "address",
          "name": "spender",
          "type": "address"
        },
        {
          "internalType": "uint256",
          "name": "allowance",
          "type": "uint256"
        },
        {
          "internalType": "uint256",
          "name": "needed",
          "type": "uint256"
        }
      ],
      "name": "ERC20InsufficientAllowance",
      "type": "error"
    },
    {
      "inputs": [
        {
          "internalType": "address",
          "name": "sender",
          "type": "address"
        },
        {
          "internalType": "uint256",
          "name": "balance",
          "type": "uint256"
        },
        {
          "internalType": "uint256",
          "name": "needed",
          "type": "uint256"
        }
      ],
      "name": "ERC20InsufficientBalance",
      "type": "error"
    },
    {
      "inputs": [
        {
          "internalType": "address",
          "name": "approver",
          "type": "address"
        }
      ],
      "name": "ERC20InvalidApprover",
      "type": "error"
    },
    {
      "inputs": [
        {
          "internalType": "address",
          "name": "receiver",
          "type": "address"
        }
      ],
      "name": "ERC20InvalidReceiver",
      "type": "error"
    },
    {
      "inputs": [
        {
          "internalType": "address",
          "name": "sender",
          "type": "address"
        }
      ],
      "name": "ERC20InvalidSender",
      "type": "error"
    },
    {
      "inputs": [
        {
          "internalType": "address",
          "name": "spender",
          "type": "address"
        }
      ],
      "name": "ERC20InvalidSpender",
      "type": "error"
    },
    {
      "inputs": [
        {
          "internalType": "uint256",
          "name": "deadline",
          "type": "uint256"
        }
      ],
      "name": "ERC2612ExpiredSignature",
      "type": "error"
    },
    {
      "inputs": [
        {
          "internalType": "address",
          "name": "signer",
          "type": "address"
        },
        {
          "internalType": "address",
          "name": "owner",
          "type": "address"
        }
      ],
      "name": "ERC2612InvalidSigner",
      "type": "error"
    },
    {
      "inputs": [],
      "name": "EnforcedPause",
      "type": "error"
    },
    {
      "inputs": [],
      "name": "ExpectedPause",
      "type": "error"
    },
    {
      "inputs": [
        {
          "internalType": "address",
          "name": "account",
          "type": "address"
        },
        {
          "internalType": "uint256",
          "name": "currentNonce",
          "type": "uint256"
        }
      ],
      "name": "InvalidAccountNonce",
      "type": "error"
    },
    {
      "inputs": [],
      "name": "InvalidShortString",
      "type": "error"
    },
    {
      "inputs": [
        {
          "internalType": "address",
          "name": "owner",
          "type": "address"
        }
      ],
      "name": "OwnableInvalidOwner",
      "type": "error"
    },
    {
      "inputs": [
        {
          "internalType": "address",
          "name": "account",
          "type": "address"
        }
      ],
      "name": "OwnableUnauthorizedAccount",
      "type": "error"
    },
    {
      "inputs": [
        {
          "internalType": "string",
          "name": "str",
          "type": "string"
        }
      ],
      "name": "StringTooLong",
      "type": "error"
    },
    {
      "anonymous": false,
      "inputs": [
        {
          "indexed": true,
          "internalType": "address",
          "name": "owner",
          "type": "address"
        },
        {
          "indexed": true,
          "internalType": "address",
          "name": "spender",
          "type": "address"
        },
        {
          "indexed": false,
          "internalType": "uint256",
          "name": "value",
          "type": "uint256"
        }
      ],
      "name": "Approval",
      "type": "event"
    },
    {
      "anonymous": false,
      "inputs": [],
      "name": "EIP712DomainChanged",
      "type": "event"
    },
    {
      "anonymous": false,
      "inputs": [
        {
          "indexed": true,
          "internalType": "address",
          "name": "previousOwner",
          "type": "address"
        },
        {
          "indexed": true,
          "internalType": "address",
          "name": "newOwner",
          "type": "address"
        }
      ],
      "name": "OwnershipTransferred",
      "type": "event"
    },
    {
      "anonymous": false,
      "inputs": [
        {
          "indexed": false,
          "internalType": "address",
          "name": "account",
          "type": "address"
        }
      ],
      "name": "Paused",
      "type": "event"
    },
    {
      "anonymous": false,
      "inputs": [
        {
          "indexed": true,
          "internalType": "address",
          "name": "from",
          "type": "address"
        },
        {
          "indexed": true,
          "internalType": "address",
          "name": "to",
          "type": "address"
        },
        {
          "indexed": false,
          "internalType": "uint256",
          "name": "value",
          "type": "uint256"
        }
      ],
      "name": "Transfer",
      "type": "event"
    },
    {
      "anonymous": false,
      "inputs": [
        {
          "indexed": false,
          "internalType": "address",
          "name": "account",
          "type": "address"
        }
      ],
      "name": "Unpaused",
      "type": "event"
    },
    {
      "inputs": [],
      "name": "DOMAIN_SEPARATOR",
      "outputs": [
        {
          "internalType": "bytes32",
          "name": "",
          "type": "bytes32"
        }
      ],
      "stateMutability": "view",
      "type": "function"
    },
    {
      "inputs": [
        {
          "internalType": "address",
          "name": "owner",
          "type": "address"
        },
        {
          "internalType": "address",
          "name": "spender",
          "type": "address"
        }
      ],
      "name": "allowance",
      "outputs": [
        {
          "internalType": "uint256",
          "name": "",
          "type": "uint256"
        }
      ],
      "stateMutability": "view",
      "type": "function"
    },
    {
      "inputs": [
        {
          "internalType": "address",
          "name": "spender",
          "type": "address"
        },
        {
          "internalType": "uint256",
          "name": "value",
          "type": "uint256"
        }
      ],
      "name": "approve",
      "outputs": [
        {
          "internalType": "bool",
          "name": "",
          "type": "bool"
        }
      ],
      "stateMutability": "nonpayable",
      "type": "function"
    },
    {
      "inputs": [
        {
          "internalType": "address",
          "name": "account",
          "type": "address"
        }
      ],
      "name": "balanceOf",
      "outputs": [
        {
          "internalType": "uint256",
          "name": "",
          "type": "uint256"
        }
      ],
      "stateMutability": "view",
      "type": "function"
    },
    {
      "inputs": [
        {
          "internalType": "uint256",
          "name": "value",
          "type": "uint256"
        }
      ],
      "name": "burn",
      "outputs": [],
      "stateMutability": "nonpayable",
      "type": "function"
    },
    {
      "inputs": [
        {
          "internalType": "address",
          "name": "account",
          "type": "address"
        },
        {
          "internalType": "uint256",
          "name": "value",
          "type": "uint256"
        }
      ],
      "name": "burnFrom",
      "outputs": [],
      "stateMutability": "nonpayable",
      "type": "function"
    },
    {
      "inputs": [],
      "name": "decimals",
      "outputs": [
        {
          "internalType": "uint8",
          "name": "",
          "type": "uint8"
        }
      ],
      "stateMutability": "view",
      "type": "function"
    },
    {
      "inputs": [],
      "name": "eip712Domain",
      "outputs": [
        {
          "internalType": "bytes1",
          "name": "fields",
          "type": "bytes1"
        },
        {
          "internalType": "string",
          "name": "name",
          "type": "string"
        },
        {
          "internalType": "string",
          "name": "version",
          "type": "string"
        },
        {
          "internalType": "uint256",
          "name": "chainId",
          "type": "uint256"
        },
        {
          "internalType": "address",
          "name": "verifyingContract",
          "type": "address"
        },
        {
          "internalType": "bytes32",
          "name": "salt",
          "type": "bytes32"
        },
        {
          "internalType": "uint256[]",
          "name": "extensions",
          "type": "uint256[]"
        }
      ],
      "stateMutability": "view",
      "type": "function"
    },
    {
      "inputs": [
        {
          "internalType": "address",
          "name": "to",
          "type": "address"
        },
        {
          "internalType": "uint256",
          "name": "amount",
          "type": "uint256"
        }
      ],
      "name": "mint",
      "outputs": [],
      "stateMutability": "nonpayable",
      "type": "function"
    },
    {
      "inputs": [],
      "name": "name",
      "outputs": [
        {
          "internalType": "string",
          "name": "",
          "type": "string"
        }
      ],
      "stateMutability": "view",
      "type": "function"
    },
    {
      "inputs": [
        {
          "internalType": "address",
          "name": "owner",
          "type": "address"
        }
      ],
      "name": "nonces",
      "outputs": [
        {
          "internalType": "uint256",
          "name": "",
          "type": "uint256"
        }
      ],
      "stateMutability": "view",
      "type": "function"
    },
    {
      "inputs": [],
      "name": "owner",
      "outputs": [
        {
          "internalType": "address",
          "name": "",
          "type": "address"
        }
      ],
      "stateMutability": "view",
      "type": "function"
    },
    {
      "inputs": [],
      "name": "pause",
      "outputs": [],
      "stateMutability": "nonpayable",
      "type": "function"
    },
    {
      "inputs": [],
      "name": "paused",
      "outputs": [
        {
          "internalType": "bool",
          "name": "",
          "type": "bool"
        }
      ],
      "stateMutability": "view",
      "type": "function"
    },
    {
      "inputs": [
        {
          "internalType": "address",
          "name": "owner",
          "type": "address"
        },
        {
          "internalType": "address",
          "name": "spender",
          "type": "address"
        },
        {
          "internalType": "uint256",
          "name": "value",
          "type": "uint256"
        },
        {
          "internalType": "uint256",
          "name": "deadline",
          "type": "uint256"
        },
        {
          "internalType": "uint8",
          "name": "v",
          "type": "uint8"
        },
        {
          "internalType": "bytes32",
          "name": "r",
          "type": "bytes32"
        },
        {
          "internalType": "bytes32",
          "name": "s",
          "type": "bytes32"
        }
      ],
      "name": "permit",
      "outputs": [],
      "stateMutability": "nonpayable",
      "type": "function"
    },
    {
      "inputs": [],
      "name": "renounceOwnership",
      "outputs": [],
      "stateMutability": "nonpayable",
      "type": "function"
    },
    {
      "inputs": [],
      "name": "symbol",
      "outputs": [
        {
          "internalType": "string",
          "name": "",
          "type": "string"
        }
      ],
      "stateMutability": "view",
      "type": "function"
    },
    {
      "inputs": [],
      "name": "totalSupply",
      "outputs": [
        {
          "internalType": "uint256",
          "name": "",
          "type": "uint256"
        }
      ],
      "stateMutability": "view",
      "type": "function"
    },
    {
      "inputs": [
        {
          "internalType": "address",
          "name": "to",
          "type": "address"
        },
        {
          "internalType": "uint256",
          "name": "value",
          "type": "uint256"
        }
      ],
      "name": "transfer",
      "outputs": [
        {
          "internalType": "bool",
          "name": "",
          "type": "bool"
        }
      ],
      "stateMutability": "nonpayable",
      "type": "function"
    },
    {
      "inputs": [
        {
          "internalType": "address",
          "name": "from",
          "type": "address"
        },
        {
          "internalType": "address",
          "name": "to",
          "type": "address"
        },
        {
          "internalType": "uint256",
          "name": "value",
          "type": "uint256"
        }
      ],
      "name": "transferFrom",
      "outputs": [
        {
          "internalType": "bool",
          "name": "",
          "type": "bool"
        }
      ],
      "stateMutability": "nonpayable",
      "type": "function"
    },
    {
      "inputs": [
        {
          "internalType": "address",
          "name": "newOwner",
          "type": "address"
        }
      ],
      "name": "transferOwnership",
      "outputs": [],
      "stateMutability": "nonpayable",
      "type": "function"
    },
    {
      "inputs": [],
      "name": "unpause",
      "outputs": [],
      "stateMutability": "nonpayable",
      "type": "function"
    }
  ],
  "bytecode": "0x61016060405234801561001157600080fd5b506040516132da3803806132da8339818101604052810190610033919061082e565b6040518060400160405280600981526020017f464c4150544f4b454e0000000000000000000000000000000000000000000000815250806040518060400160405280600181526020017f3100000000000000000000000000000000000000000000000000000000000000815250836040518060400160405280600981526020017f464c4150544f4b454e00000000000000000000000000000000000000000000008152506040518060400160405280600481526020017f464c415000000000000000000000000000000000000000000000000000000000815250816003908161011c9190610abe565b50806004908161012c9190610abe565b505050600073ffffffffffffffffffffffffffffffffffffffff168173ffffffffffffffffffffffffffffffffffffffff16036101a15760006040517f1e4fbdf70000000000000000000000000000000000000000000000000000000081526004016101989190610b9f565b60405180910390fd5b6101b08161029a60201b60201c565b506101c560068361036060201b90919060201c565b61012081815250506101e160078261036060201b90919060201c565b6101408181525050818051906020012060e08181525050808051906020012061010081815250504660a0818152505061021e6103b060201b60201c565b608081815250503073ffffffffffffffffffffffffffffffffffffffff1660c08173ffffffffffffffffffffffffffffffffffffffff16815250505050506102938261026e61040b60201b60201c565b600a61027a9190610d29565b620f42406102889190610d74565b61041460201b60201c565b5050610ff5565b6000600560019054906101000a900473ffffffffffffffffffffffffffffffffffffffff16905081600560016101000a81548173ffffffffffffffffffffffffffffffffffffffff021916908373ffffffffffffffffffffffffffffffffffffffff1602179055508173ffffffffffffffffffffffffffffffffffffffff168173ffffffffffffffffffffffffffffffffffffffff167f8be0079c531659141344cd1fd0a4f28419497f9722a3daafe3b4186f6b6457e060405160405180910390a35050565b60006020835110156103825761037b8361049c60201b60201c565b90506103aa565b826103928361050460201b60201c565b60000190816103a19190610abe565b5060ff60001b90505b92915050565b60007f8b73c3c69bb8fe3d512ecc4cf759cc79239f7b179b0ffacaa9a75d522b39400f60e0516101005146306040516020016103f0959493929190610dde565b60405160208183030381529060405280519060200120905090565b60006012905090565b600073ffffffffffffffffffffffffffffffffffffffff168273ffffffffffffffffffffffffffffffffffffffff16036104865760006040517fec442f0500000000000000000000000000000000000000000000000000000000815260040161047d9190610b9f565b60405180910390fd5b6104986000838361050e60201b60201c565b5050565b600080829050601f815111156104e957826040517f305a27a90000000000000000000000000000000000000000000000000000000081526004016104e09190610eb6565b60405180910390fd5b8051816104f590610f08565b60001c1760001b915050919050565b6000819050919050565b61051f83838361052460201b60201c565b505050565b61053261054860201b60201c565b61054383838361058f60201b60201c565b505050565b6105566107b460201b60201c565b1561058d576040517fd93c066500000000000000000000000000000000000000000000000000000000815260040160405180910390fd5b565b600073ffffffffffffffffffffffffffffffffffffffff168373ffffffffffffffffffffffffffffffffffffffff16036105e15780600260008282546105d59190610f6f565b925050819055506106b4565b60008060008573ffffffffffffffffffffffffffffffffffffffff1673ffffffffffffffffffffffffffffffffffffffff1681526020019081526020016000205490508181101561066d578381836040517fe450d38c00000000000000000000000000000000000000000000000000000000815260040161066493929190610fa3565b60405180910390fd5b8181036000808673ffffffffffffffffffffffffffffffffffffffff1673ffffffffffffffffffffffffffffffffffffffff16815260200190815260200160002081905550505b600073ffffffffffffffffffffffffffffffffffffffff168273ffffffffffffffffffffffffffffffffffffffff16036106fd578060026000828254039250508190555061074a565b806000808473ffffffffffffffffffffffffffffffffffffffff1673ffffffffffffffffffffffffffffffffffffffff168152602001908152602001600020600082825401925050819055505b8173ffffffffffffffffffffffffffffffffffffffff168373ffffffffffffffffffffffffffffffffffffffff167fddf252ad1be2c89b69c2b068fc378daa952ba7f163c4a11628f55a4df523b3ef836040516107a79190610fda565b60405180910390a3505050565b6000600560009054906101000a900460ff16905090565b600080fd5b600073ffffffffffffffffffffffffffffffffffffffff82169050919050565b60006107fb826107d0565b9050919050565b61080b816107f0565b811461081657600080fd5b50565b60008151905061082881610802565b92915050565b60008060408385031215610845576108446107cb565b5b600061085385828601610819565b925050602061086485828601610819565b9150509250929050565b600081519050919050565b7f4e487b7100000000000000000000000000000000000000000000000000000000600052604160045260246000fd5b7f4e487b7100000000000000000000000000000000000000000000000000000000600052602260045260246000fd5b600060028204905060018216806108ef57607f821691505b602082108103610902576109016108a8565b5b50919050565b60008190508160005260206000209050919050565b60006020601f8301049050919050565b600082821b905092915050565b60006008830261096a7fffffffffffffffffffffffffffffffffffffffffffffffffffffffffffffffff8261092d565b610974868361092d565b95508019841693508086168417925050509392505050565b6000819050919050565b6000819050919050565b60006109bb6109b66109b18461098c565b610996565b61098c565b9050919050565b6000819050919050565b6109d5836109a0565b6109e96109e1826109c2565b84845461093a565b825550505050565b600090565b6109fe6109f1565b610a098184846109cc565b505050565b5b81811015610a2d57610a226000826109f6565b600181019050610a0f565b5050565b601f821115610a7257610a4381610908565b610a4c8461091d565b81016020851015610a5b578190505b610a6f610a678561091d565b830182610a0e565b50505b505050565b600082821c905092915050565b6000610a9560001984600802610a77565b1980831691505092915050565b6000610aae8383610a84565b9150826002028217905092915050565b610ac78261086e565b67ffffffffffffffff811115610ae057610adf610879565b5b610aea82546108d7565b610af5828285610a31565b600060209050601f831160018114610b285760008415610b16578287015190505b610b208582610aa2565b865550610b88565b601f198416610b3686610908565b60005b82811015610b5e57848901518255600182019150602085019450602081019050610b39565b86831015610b7b5784890151610b77601f891682610a84565b8355505b6001600288020188555050505b505050505050565b610b99816107f0565b82525050565b6000602082019050610bb46000830184610b90565b92915050565b7f4e487b7100000000000000000000000000000000000000000000000000000000600052601160045260246000fd5b60008160011c9050919050565b6000808291508390505b6001851115610c4057808604811115610c1c57610c1b610bba565b5b6001851615610c2b5780820291505b8081029050610c3985610be9565b9450610c00565b94509492505050565b600082610c595760019050610d15565b81610c675760009050610d15565b8160018114610c7d5760028114610c8757610cb6565b6001915050610d15565b60ff841115610c9957610c98610bba565b5b8360020a915084821115610cb057610caf610bba565b5b50610d15565b5060208310610133831016604e8410600b8410161715610ceb5782820a905083811115610ce657610ce5610bba565b5b610d15565b610cf88484846001610bf6565b92509050818404811115610d0f57610d0e610bba565b5b81810290505b9392505050565b600060ff82169050919050565b6000610d348261098c565b9150610d3f83610d1c565b9250610d6c7fffffffffffffffffffffffffffffffffffffffffffffffffffffffffffffffff8484610c49565b905092915050565b6000610d7f8261098c565b9150610d8a8361098c565b9250828202610d988161098c565b91508282048414831517610daf57610dae610bba565b5b5092915050565b6000819050919050565b610dc981610db6565b82525050565b610dd88161098c565b82525050565b600060a082019050610df36000830188610dc0565b610e006020830187610dc0565b610e0d6040830186610dc0565b610e1a6060830185610dcf565b610e276080830184610b90565b9695505050505050565b600082825260208201905092915050565b60005b83811015610e60578082015181840152602081019050610e45565b60008484015250505050565b6000601f19601f8301169050919050565b6000610e888261086e565b610e928185610e31565b9350610ea2818560208601610e42565b610eab81610e6c565b840191505092915050565b60006020820190508181036000830152610ed08184610e7d565b905092915050565b600081519050919050565b6000819050602082019050919050565b6000610eff8251610db6565b80915050919050565b6000610f1382610ed8565b82610f1d84610ee3565b9050610f2881610ef3565b92506020821015610f6857610f637fffffffffffffffffffffffffffffffffffffffffffffffffffffffffffffffff8360200360080261092d565b831692505b5050919050565b6000610f7a8261098c565b9150610f858361098c565b9250828201905080821115610f9d57610f9c610bba565b5b92915050565b6000606082019050610fb86000830186610b90565b610fc56020830185610dcf565b610fd26040830184610dcf565b949350505050565b6000602082019050610fef6000830184610dcf565b92915050565b60805160a05160c05160e05161010051610120516101405161228b61104f6000396000610fdc01526000610fa1015260006112dc015260006112bb01526000610b8501526000610bdb01526000610c04015261228b6000f3fe608060405234801561001057600080fd5b50600436106101425760003560e01c8063715018a6116100b85780638da5cb5b1161007c5780638da5cb5b1461033357806395d89b4114610351578063a9059cbb1461036f578063d505accf1461039f578063dd62ed3e146103bb578063f2fde38b146103eb57610142565b8063715018a6146102af57806379cc6790146102b95780637ecebe00146102d55780638456cb591461030557806384b0196e1461030f57610142565b80633644e5151161010a5780633644e515146102015780633f4ba83a1461021f57806340c10f191461022957806342966c68146102455780635c975abb1461026157806370a082311461027f57610142565b806306fdde0314610147578063095ea7b31461016557806318160ddd1461019557806323b872dd146101b3578063313ce567146101e3575b600080fd5b61014f610407565b60405161015c9190611a87565b60405180910390f35b61017f600480360381019061017a9190611b42565b610499565b60405161018c9190611b9d565b60405180910390f35b61019d6104bc565b6040516101aa9190611bc7565b60405180910390f35b6101cd60048036038101906101c89190611be2565b6104c6565b6040516101da9190611b9d565b60405180910390f35b6101eb6104f5565b6040516101f89190611c51565b60405180910390f35b6102096104fe565b6040516102169190611c85565b60405180910390f35b61022761050d565b005b610243600480360381019061023e9190611b42565b61051f565b005b61025f600480360381019061025a9190611ca0565b610535565b005b610269610549565b6040516102769190611b9d565b60405180910390f35b61029960048036038101906102949190611ccd565b610560565b6040516102a69190611bc7565b60405180910390f35b6102b76105a8565b005b6102d360048036038101906102ce9190611b42565b6105bc565b005b6102ef60048036038101906102ea9190611ccd565b6105dc565b6040516102fc9190611bc7565b60405180910390f35b61030d6105ee565b005b610317610600565b60405161032a9796959493929190611e02565b60405180910390f35b61033b6106aa565b6040516103489190611e86565b60405180910390f35b6103596106d4565b6040516103669190611a87565b60405180910390f35b61038960048036038101906103849190611b42565b610766565b6040516103969190611b9d565b60405180910390f35b6103b960048036038101906103b49190611ef9565b610789565b005b6103d560048036038101906103d09190611f9b565b6108d1565b6040516103e29190611bc7565b60405180910390f35b61040560048036038101906104009190611ccd565b610958565b005b6060600380546104169061200a565b80601f01602080910402602001604051908101604052809291908181526020018280546104429061200a565b801561048f5780601f106104645761010080835404028352916020019161048f565b820191906000526020600020905b81548152906001019060200180831161047257829003601f168201915b5050505050905090565b6000806104a46109de565b90506104b18185856109e6565b600191505092915050565b6000600254905090565b6000806104d16109de565b90506104de8582856109f8565b6104e9858585610a8d565b60019150509392505050565b60006012905090565b6000610508610b81565b905090565b610515610c38565b61051d610cbf565b565b610527610c38565b6105318282610d22565b5050565b6105466105406109de565b82610da4565b50565b6000600560009054906101000a900460ff16905090565b60008060008373ffffffffffffffffffffffffffffffffffffffff1673ffffffffffffffffffffffffffffffffffffffff168152602001908152602001600020549050919050565b6105b0610c38565b6105ba6000610e26565b565b6105ce826105c86109de565b836109f8565b6105d88282610da4565b5050565b60006105e782610eec565b9050919050565b6105f6610c38565b6105fe610f35565b565b600060608060008060006060610614610f98565b61061c610fd3565b46306000801b600067ffffffffffffffff81111561063d5761063c61203b565b5b60405190808252806020026020018201604052801561066b5781602001602082028036833780820191505090505b507f0f00000000000000000000000000000000000000000000000000000000000000959493929190965096509650965096509650965090919293949596565b6000600560019054906101000a900473ffffffffffffffffffffffffffffffffffffffff16905090565b6060600480546106e39061200a565b80601f016020809104026020016040519081016040528092919081815260200182805461070f9061200a565b801561075c5780601f106107315761010080835404028352916020019161075c565b820191906000526020600020905b81548152906001019060200180831161073f57829003601f168201915b5050505050905090565b6000806107716109de565b905061077e818585610a8d565b600191505092915050565b834211156107ce57836040517f627913020000000000000000000000000000000000000000000000000000000081526004016107c59190611bc7565b60405180910390fd5b60007f6e71edae12b1b97f4d1f60370fef10105fa2faae0126114a169c64845d6126c98888886107fd8c61100e565b896040516020016108139695949392919061206a565b604051602081830303815290604052805190602001209050600061083682611065565b905060006108468287878761107f565b90508973ffffffffffffffffffffffffffffffffffffffff168173ffffffffffffffffffffffffffffffffffffffff16146108ba57808a6040517f4b800e460000000000000000000000000000000000000000000000000000000081526004016108b19291906120cb565b60405180910390fd5b6108c58a8a8a6109e6565b50505050505050505050565b6000600160008473ffffffffffffffffffffffffffffffffffffffff1673ffffffffffffffffffffffffffffffffffffffff16815260200190815260200160002060008373ffffffffffffffffffffffffffffffffffffffff1673ffffffffffffffffffffffffffffffffffffffff16815260200190815260200160002054905092915050565b610960610c38565b600073ffffffffffffffffffffffffffffffffffffffff168173ffffffffffffffffffffffffffffffffffffffff16036109d25760006040517f1e4fbdf70000000000000000000000000000000000000000000000000000000081526004016109c99190611e86565b60405180910390fd5b6109db81610e26565b50565b600033905090565b6109f383838360016110af565b505050565b6000610a0484846108d1565b90507fffffffffffffffffffffffffffffffffffffffffffffffffffffffffffffffff811015610a875781811015610a77578281836040517ffb8f41b2000000000000000000000000000000000000000000000000000000008152600401610a6e939291906120f4565b60405180910390fd5b610a86848484840360006110af565b5b50505050565b600073ffffffffffffffffffffffffffffffffffffffff168373ffffffffffffffffffffffffffffffffffffffff1603610aff5760006040517f96c6fd1e000000000000000000000000000000000000000000000000000000008152600401610af69190611e86565b60405180910390fd5b600073ffffffffffffffffffffffffffffffffffffffff168273ffffffffffffffffffffffffffffffffffffffff1603610b715760006040517fec442f05000000000000000000000000000000000000000000000000000000008152600401610b689190611e86565b60405180910390fd5b610b7c838383611286565b505050565b60007f000000000000000000000000000000000000000000000000000000000000000073ffffffffffffffffffffffffffffffffffffffff163073ffffffffffffffffffffffffffffffffffffffff16148015610bfd57507f000000000000000000000000000000000000000000000000000000000000000046145b15610c2a577f00000000000000000000000000000000000000000000000000000000000000009050610c35565b610c32611296565b90505b90565b610c406109de565b73ffffffffffffffffffffffffffffffffffffffff16610c5e6106aa565b73ffffffffffffffffffffffffffffffffffffffff1614610cbd57610c816109de565b6040517f118cdaa7000000000000000000000000000000000000000000000000000000008152600401610cb49190611e86565b60405180910390fd5b565b610cc761132c565b6000600560006101000a81548160ff0219169083151502179055507f5db9ee0a495bf2e6ff9c91a7834c1ba4fdd244a5e8aa4e537bd38aeae4b073aa610d0b6109de565b604051610d189190611e86565b60405180910390a1565b600073ffffffffffffffffffffffffffffffffffffffff168273ffffffffffffffffffffffffffffffffffffffff1603610d945760006040517fec442f05000000000000000000000000000000000000000000000000000000008152600401610d8b9190611e86565b60405180910390fd5b610da060008383611286565b5050565b600073ffffffffffffffffffffffffffffffffffffffff168273ffffffffffffffffffffffffffffffffffffffff1603610e165760006040517f96c6fd1e000000000000000000000000000000000000000000000000000000008152600401610e0d9190611e86565b60405180910390fd5b610e2282600083611286565b5050565b6000600560019054906101000a900473ffffffffffffffffffffffffffffffffffffffff16905081600560016101000a81548173ffffffffffffffffffffffffffffffffffffffff021916908373ffffffffffffffffffffffffffffffffffffffff1602179055508173ffffffffffffffffffffffffffffffffffffffff168173ffffffffffffffffffffffffffffffffffffffff167f8be0079c531659141344cd1fd0a4f28419497f9722a3daafe3b4186f6b6457e060405160405180910390a35050565b6000600860008373ffffffffffffffffffffffffffffffffffffffff1673ffffffffffffffffffffffffffffffffffffffff168152602001908152602001600020549050919050565b610f3d61136c565b6001600560006101000a81548160ff0219169083151502179055507f62e78cea01bee320cd4e420270b5ea74000d11b0c9f74754ebdbfc544b05a258610f816109de565b604051610f8e9190611e86565b60405180910390a1565b6060610fce60067f00000000000000000000000000000000000000000000000000000000000000006113ad90919063ffffffff16565b905090565b606061100960077f00000000000000000000000000000000000000000000000000000000000000006113ad90919063ffffffff16565b905090565b6000600860008373ffffffffffffffffffffffffffffffffffffffff1673ffffffffffffffffffffffffffffffffffffffff1681526020019081526020016000206000815480929190600101919050559050919050565b6000611078611072610b81565b8361145d565b9050919050565b6000806000806110918888888861149e565b9250925092506110a18282611592565b829350505050949350505050565b600073ffffffffffffffffffffffffffffffffffffffff168473ffffffffffffffffffffffffffffffffffffffff16036111215760006040517fe602df050000000000000000000000000000000000000000000000000000000081526004016111189190611e86565b60405180910390fd5b600073ffffffffffffffffffffffffffffffffffffffff168373ffffffffffffffffffffffffffffffffffffffff16036111935760006040517f94280d6200000000000000000000000000000000000000000000000000000000815260040161118a9190611e86565b60405180910390fd5b81600160008673ffffffffffffffffffffffffffffffffffffffff1673ffffffffffffffffffffffffffffffffffffffff16815260200190815260200160002060008573ffffffffffffffffffffffffffffffffffffffff1673ffffffffffffffffffffffffffffffffffffffff168152602001908152602001600020819055508015611280578273ffffffffffffffffffffffffffffffffffffffff168473ffffffffffffffffffffffffffffffffffffffff167f8c5be1e5ebec7d5bd14f71427d1e84f3dd0314c0f7b2291e5b200ac8c7c3b925846040516112779190611bc7565b60405180910390a35b50505050565b6112918383836116f6565b505050565b60007f8b73c3c69bb8fe3d512ecc4cf759cc79239f7b179b0ffacaa9a75d522b39400f7f00000000000000000000000000000000000000000000000000000000000000007f0000000000000000000000000000000000000000000000000000000000000000463060405160200161131195949392919061212b565b60405160208183030381529060405280519060200120905090565b611334610549565b61136a576040517f8dfc202b00000000000000000000000000000000000000000000000000000000815260040160405180910390fd5b565b611374610549565b156113ab576040517fd93c066500000000000000000000000000000000000000000000000000000000815260040160405180910390fd5b565b606060ff60001b83146113ca576113c38361170e565b9050611457565b8180546113d69061200a565b80601f01602080910402602001604051908101604052809291908181526020018280546114029061200a565b801561144f5780601f106114245761010080835404028352916020019161144f565b820191906000526020600020905b81548152906001019060200180831161143257829003601f168201915b505050505090505b92915050565b60006040517f190100000000000000000000000000000000000000000000000000000000000081528360028201528260228201526042812091505092915050565b60008060007f7fffffffffffffffffffffffffffffff5d576e7357a4501ddfe92f46681b20a08460001c11156114de576000600385925092509250611588565b600060018888888860405160008152602001604052604051611503949392919061217e565b6020604051602081039080840390855afa158015611525573d6000803e3d6000fd5b505050602060405103519050600073ffffffffffffffffffffffffffffffffffffffff168173ffffffffffffffffffffffffffffffffffffffff160361157957600060016000801b93509350935050611588565b8060008060001b935093509350505b9450945094915050565b600060038111156115a6576115a56121c3565b5b8260038111156115b9576115b86121c3565b5b03156116f257600160038111156115d3576115d26121c3565b5b8260038111156115e6576115e56121c3565b5b0361161d576040517ff645eedf00000000000000000000000000000000000000000000000000000000815260040160405180910390fd5b60026003811115611631576116306121c3565b5b826003811115611644576116436121c3565b5b03611689578060001c6040517ffce698f70000000000000000000000000000000000000000000000000000000081526004016116809190611bc7565b60405180910390fd5b60038081111561169c5761169b6121c3565b5b8260038111156116af576116ae6121c3565b5b036116f157806040517fd78bce0c0000000000000000000000000000000000000000000000000000000081526004016116e89190611c85565b60405180910390fd5b5b5050565b6116fe61136c565b611709838383611782565b505050565b6060600061171b836119a7565b90506000602067ffffffffffffffff81111561173a5761173961203b565b5b6040519080825280601f01601f19166020018201604052801561176c5781602001600182028036833780820191505090505b5090508181528360208201528092505050919050565b600073ffffffffffffffffffffffffffffffffffffffff168373ffffffffffffffffffffffffffffffffffffffff16036117d45780600260008282546117c89190612221565b925050819055506118a7565b60008060008573ffffffffffffffffffffffffffffffffffffffff1673ffffffffffffffffffffffffffffffffffffffff16815260200190815260200160002054905081811015611860578381836040517fe450d38c000000000000000000000000000000000000000000000000000000008152600401611857939291906120f4565b60405180910390fd5b8181036000808673ffffffffffffffffffffffffffffffffffffffff1673ffffffffffffffffffffffffffffffffffffffff16815260200190815260200160002081905550505b600073ffffffffffffffffffffffffffffffffffffffff168273ffffffffffffffffffffffffffffffffffffffff16036118f0578060026000828254039250508190555061193d565b806000808473ffffffffffffffffffffffffffffffffffffffff1673ffffffffffffffffffffffffffffffffffffffff168152602001908152602001600020600082825401925050819055505b8173ffffffffffffffffffffffffffffffffffffffff168373ffffffffffffffffffffffffffffffffffffffff167fddf252ad1be2c89b69c2b068fc378daa952ba7f163c4a11628f55a4df523b3ef8360405161199a9190611bc7565b60405180910390a3505050565b60008060ff8360001c169050601f8111156119ee576040517fb3512b0c00000000000000000000000000000000000000000000000000000000815260040160405180910390fd5b80915050919050565b600081519050919050565b600082825260208201905092915050565b60005b83811015611a31578082015181840152602081019050611a16565b60008484015250505050565b6000601f19601f8301169050919050565b6000611a59826119f7565b611a638185611a02565b9350611a73818560208601611a13565b611a7c81611a3d565b840191505092915050565b60006020820190508181036000830152611aa18184611a4e565b905092915050565b600080fd5b600073ffffffffffffffffffffffffffffffffffffffff82169050919050565b6000611ad982611aae565b9050919050565b611ae981611ace565b8114611af457600080fd5b50565b600081359050611b0681611ae0565b92915050565b6000819050919050565b611b1f81611b0c565b8114611b2a57600080fd5b50565b600081359050611b3c81611b16565b92915050565b60008060408385031215611b5957611b58611aa9565b5b6000611b6785828601611af7565b9250506020611b7885828601611b2d565b9150509250929050565b60008115159050919050565b611b9781611b82565b82525050565b6000602082019050611bb26000830184611b8e565b92915050565b611bc181611b0c565b82525050565b6000602082019050611bdc6000830184611bb8565b92915050565b600080600060608486031215611bfb57611bfa611aa9565b5b6000611c0986828701611af7565b9350506020611c1a86828701611af7565b9250506040611c2b86828701611b2d565b9150509250925092565b600060ff82169050919050565b611c4b81611c35565b82525050565b6000602082019050611c666000830184611c42565b92915050565b6000819050919050565b611c7f81611c6c565b82525050565b6000602082019050611c9a6000830184611c76565b92915050565b600060208284031215611cb657611cb5611aa9565b5b6000611cc484828501611b2d565b91505092915050565b600060208284031215611ce357611ce2611aa9565b5b6000611cf184828501611af7565b91505092915050565b60007fff0000000000000000000000000000000000000000000000000000000000000082169050919050565b611d2f81611cfa565b82525050565b611d3e81611ace565b82525050565b600081519050919050565b600082825260208201905092915050565b6000819050602082019050919050565b611d7981611b0c565b82525050565b6000611d8b8383611d70565b60208301905092915050565b6000602082019050919050565b6000611daf82611d44565b611db98185611d4f565b9350611dc483611d60565b8060005b83811015611df5578151611ddc8882611d7f565b9750611de783611d97565b925050600181019050611dc8565b5085935050505092915050565b600060e082019050611e17600083018a611d26565b8181036020830152611e298189611a4e565b90508181036040830152611e3d8188611a4e565b9050611e4c6060830187611bb8565b611e596080830186611d35565b611e6660a0830185611c76565b81810360c0830152611e788184611da4565b905098975050505050505050565b6000602082019050611e9b6000830184611d35565b92915050565b611eaa81611c35565b8114611eb557600080fd5b50565b600081359050611ec781611ea1565b92915050565b611ed681611c6c565b8114611ee157600080fd5b50565b600081359050611ef381611ecd565b92915050565b600080600080600080600060e0888a031215611f1857611f17611aa9565b5b6000611f268a828b01611af7565b9750506020611f378a828b01611af7565b9650506040611f488a828b01611b2d565b9550506060611f598a828b01611b2d565b9450506080611f6a8a828b01611eb8565b93505060a0611f7b8a828b01611ee4565b92505060c0611f8c8a828b01611ee4565b91505092959891949750929550565b60008060408385031215611fb257611fb1611aa9565b5b6000611fc085828601611af7565b9250506020611fd185828601611af7565b9150509250929050565b7f4e487b7100000000000000000000000000000000000000000000000000000000600052602260045260246000fd5b6000600282049050600182168061202257607f821691505b60208210810361203557612034611fdb565b5b50919050565b7f4e487b7100000000000000000000000000000000000000000000000000000000600052604160045260246000fd5b600060c08201905061207f6000830189611c76565b61208c6020830188611d35565b6120996040830187611d35565b6120a66060830186611bb8565b6120b36080830185611bb8565b6120c060a0830184611bb8565b979650505050505050565b60006040820190506120e06000830185611d35565b6120ed6020830184611d35565b9392505050565b60006060820190506121096000830186611d35565b6121166020830185611bb8565b6121236040830184611bb8565b949350505050565b600060a0820190506121406000830188611c76565b61214d6020830187611c76565b61215a6040830186611c76565b6121676060830185611bb8565b6121746080830184611d35565b9695505050505050565b60006080820190506121936000830187611c76565b6121a06020830186611c42565b6121ad6040830185611c76565b6121ba6060830184611c76565b95945050505050565b7f4e487b7100000000000000000000000000000000000000000000000000000000600052602160045260246000fd5b7f4e487b7100000000000000000000000000000000000000000000000000000000600052601160045260246000fd5b600061222c82611b0c565b915061223783611b0c565b925082820190508082111561224f5761224e6121f2565b5b9291505056fea2646970667358221220bbc682044c86639af03da4f5073a5d0bbdc30efa90a2366e08a5b55880a85a1c64736f6c634300081c0033",
  "linkReferences": {},
  "deployedLinkReferences": {}
}