{
  "_format": "hh-sol-artifact-1",
  "contractName": "Flappymon",
  "sourceName": "contracts/Flappymon.sol",
  "abi": [
    {
      "inputs": [
        {
          "internalType": "address",
          "name": "initialOwner",
          "type": "address"
        },
        {
          "internalType": "string",
          "name": "_baseTokenURI",
          "type": "string"
        }
      ],
      "stateMutability": "nonpayable",
      "type": "constructor"
    },
    {
      "inputs": [
        {
          "internalType": "address",
          "name": "sender",
          "type": "address"
        },
        {
          "internalType": "uint256",
          "name": "tokenId",
          "type": "uint256"
        },
        {
          "internalType": "address",
          "name": "owner",
          "type": "address"
        }
      ],
      "name": "ERC721IncorrectOwner",
      "type": "error"
    },
    {
      "inputs": [
        {
          "internalType": "address",
          "name": "operator",
          "type": "address"
        },
        {
          "internalType": "uint256",
          "name": "tokenId",
          "type": "uint256"
        }
      ],
      "name": "ERC721InsufficientApproval",
      "type": "error"
    },
    {
      "inputs": [
        {
          "internalType": "address",
          "name": "approver",
          "type": "address"
        }
      ],
      "name": "ERC721InvalidApprover",
      "type": "error"
    },
    {
      "inputs": [
        {
          "internalType": "address",
          "name": "operator",
          "type": "address"
        }
      ],
      "name": "ERC721InvalidOperator",
      "type": "error"
    },
    {
      "inputs": [
        {
          "internalType": "address",
          "name": "owner",
          "type": "address"
        }
      ],
      "name": "ERC721InvalidOwner",
      "type": "error"
    },
    {
      "inputs": [
        {
          "internalType": "address",
          "name": "receiver",
          "type": "address"
        }
      ],
      "name": "ERC721InvalidReceiver",
      "type": "error"
    },
    {
      "inputs": [
        {
          "internalType": "address",
          "name": "sender",
          "type": "address"
        }
      ],
      "name": "ERC721InvalidSender",
      "type": "error"
    },
    {
      "inputs": [
        {
          "internalType": "uint256",
          "name": "tokenId",
          "type": "uint256"
        }
      ],
      "name": "ERC721NonexistentToken",
      "type": "error"
    },
    {
      "inputs": [
        {
          "internalType": "address",
          "name": "owner",
          "type": "address"
        }
      ],
      "name": "OwnableInvalidOwner",
      "type": "error"
    },
    {
      "inputs": [
        {
          "internalType": "address",
          "name": "account",
          "type": "address"
        }
      ],
      "name": "OwnableUnauthorizedAccount",
      "type": "error"
    },
    {
      "anonymous": false,
      "inputs": [
        {
          "indexed": true,
          "internalType": "address",
          "name": "owner",
          "type": "address"
        },
        {
          "indexed": true,
          "internalType": "address",
          "name": "approved",
          "type": "address"
        },
        {
          "indexed": true,
          "internalType": "uint256",
          "name": "tokenId",
          "type": "uint256"
        }
      ],
      "name": "Approval",
      "type": "event"
    },
    {
      "anonymous": false,
      "inputs": [
        {
          "indexed": true,
          "internalType": "address",
          "name": "owner",
          "type": "address"
        },
        {
          "indexed": true,
          "internalType": "address",
          "name": "operator",
          "type": "address"
        },
        {
          "indexed": false,
          "internalType": "bool",
          "name": "approved",
          "type": "bool"
        }
      ],
      "name": "ApprovalForAll",
      "type": "event"
    },
    {
      "anonymous": false,
      "inputs": [
        {
          "indexed": true,
          "internalType": "address",
          "name": "previousOwner",
          "type": "address"
        },
        {
          "indexed": true,
          "internalType": "address",
          "name": "newOwner",
          "type": "address"
        }
      ],
      "name": "OwnershipTransferred",
      "type": "event"
    },
    {
      "anonymous": false,
      "inputs": [
        {
          "indexed": true,
          "internalType": "address",
          "name": "from",
          "type": "address"
        },
        {
          "indexed": true,
          "internalType": "address",
          "name": "to",
          "type": "address"
        },
        {
          "indexed": true,
          "internalType": "uint256",
          "name": "tokenId",
          "type": "uint256"
        }
      ],
      "name": "Transfer",
      "type": "event"
    },
    {
      "inputs": [
        {
          "internalType": "address",
          "name": "to",
          "type": "address"
        },
        {
          "internalType": "uint256",
          "name": "tokenId",
          "type": "uint256"
        }
      ],
      "name": "approve",
      "outputs": [],
      "stateMutability": "nonpayable",
      "type": "function"
    },
    {
      "inputs": [
        {
          "internalType": "address",
          "name": "owner",
          "type": "address"
        }
      ],
      "name": "balanceOf",
      "outputs": [
        {
          "internalType": "uint256",
          "name": "",
          "type": "uint256"
        }
      ],
      "stateMutability": "view",
      "type": "function"
    },
    {
      "inputs": [],
      "name": "baseTokenURI",
      "outputs": [
        {
          "internalType": "string",
          "name": "",
          "type": "string"
        }
      ],
      "stateMutability": "view",
      "type": "function"
    },
    {
      "inputs": [
        {
          "internalType": "uint256",
          "name": "tokenId",
          "type": "uint256"
        }
      ],
      "name": "getApproved",
      "outputs": [
        {
          "internalType": "address",
          "name": "",
          "type": "address"
        }
      ],
      "stateMutability": "view",
      "type": "function"
    },
    {
      "inputs": [
        {
          "internalType": "uint8",
          "name": "rarity",
          "type": "uint8"
        }
      ],
      "name": "getItemSlots",
      "outputs": [
        {
          "internalType": "uint8",
          "name": "",
          "type": "uint8"
        }
      ],
      "stateMutability": "pure",
      "type": "function"
    },
    {
      "inputs": [
        {
          "internalType": "uint8",
          "name": "rarity",
          "type": "uint8"
        }
      ],
      "name": "getSkillSlots",
      "outputs": [
        {
          "internalType": "uint8",
          "name": "",
          "type": "uint8"
        }
      ],
      "stateMutability": "pure",
      "type": "function"
    },
    {
      "inputs": [
        {
          "internalType": "address",
          "name": "owner",
          "type": "address"
        },
        {
          "internalType": "address",
          "name": "operator",
          "type": "address"
        }
      ],
      "name": "isApprovedForAll",
      "outputs": [
        {
          "internalType": "bool",
          "name": "",
          "type": "bool"
        }
      ],
      "stateMutability": "view",
      "type": "function"
    },
    {
      "inputs": [],
      "name": "name",
      "outputs": [
        {
          "internalType": "string",
          "name": "",
          "type": "string"
        }
      ],
      "stateMutability": "view",
      "type": "function"
    },
    {
      "inputs": [],
      "name": "nextTokenId",
      "outputs": [
        {
          "internalType": "uint256",
          "name": "",
          "type": "uint256"
        }
      ],
      "stateMutability": "view",
      "type": "function"
    },
    {
      "inputs": [],
      "name": "owner",
      "outputs": [
        {
          "internalType": "address",
          "name": "",
          "type": "address"
        }
      ],
      "stateMutability": "view",
      "type": "function"
    },
    {
      "inputs": [
        {
          "internalType": "uint256",
          "name": "tokenId",
          "type": "uint256"
        }
      ],
      "name": "ownerOf",
      "outputs": [
        {
          "internalType": "address",
          "name": "",
          "type": "address"
        }
      ],
      "stateMutability": "view",
      "type": "function"
    },
    {
      "inputs": [],
      "name": "renounceOwnership",
      "outputs": [],
      "stateMutability": "nonpayable",
      "type": "function"
    },
    {
      "inputs": [
        {
          "internalType": "address",
          "name": "to",
          "type": "address"
        },
        {
          "internalType": "uint8",
          "name": "rarity",
          "type": "uint8"
        }
      ],
      "name": "safeMint",
      "outputs": [
        {
          "internalType": "uint256",
          "name": "",
          "type": "uint256"
        }
      ],
      "stateMutability": "nonpayable",
      "type": "function"
    },
    {
      "inputs": [
        {
          "internalType": "address",
          "name": "from",
          "type": "address"
        },
        {
          "internalType": "address",
          "name": "to",
          "type": "address"
        },
        {
          "internalType": "uint256",
          "name": "tokenId",
          "type": "uint256"
        }
      ],
      "name": "safeTransferFrom",
      "outputs": [],
      "stateMutability": "nonpayable",
      "type": "function"
    },
    {
      "inputs": [
        {
          "internalType": "address",
          "name": "from",
          "type": "address"
        },
        {
          "internalType": "address",
          "name": "to",
          "type": "address"
        },
        {
          "internalType": "uint256",
          "name": "tokenId",
          "type": "uint256"
        },
        {
          "internalType": "bytes",
          "name": "data",
          "type": "bytes"
        }
      ],
      "name": "safeTransferFrom",
      "outputs": [],
      "stateMutability": "nonpayable",
      "type": "function"
    },
    {
      "inputs": [
        {
          "internalType": "address",
          "name": "operator",
          "type": "address"
        },
        {
          "internalType": "bool",
          "name": "approved",
          "type": "bool"
        }
      ],
      "name": "setApprovalForAll",
      "outputs": [],
      "stateMutability": "nonpayable",
      "type": "function"
    },
    {
      "inputs": [
        {
          "internalType": "string",
          "name": "_uri",
          "type": "string"
        }
      ],
      "name": "setBaseURI",
      "outputs": [],
      "stateMutability": "nonpayable",
      "type": "function"
    },
    {
      "inputs": [
        {
          "internalType": "bytes4",
          "name": "interfaceId",
          "type": "bytes4"
        }
      ],
      "name": "supportsInterface",
      "outputs": [
        {
          "internalType": "bool",
          "name": "",
          "type": "bool"
        }
      ],
      "stateMutability": "view",
      "type": "function"
    },
    {
      "inputs": [],
      "name": "symbol",
      "outputs": [
        {
          "internalType": "string",
          "name": "",
          "type": "string"
        }
      ],
      "stateMutability": "view",
      "type": "function"
    },
    {
      "inputs": [
        {
          "internalType": "uint256",
          "name": "",
          "type": "uint256"
        }
      ],
      "name": "tokenRarity",
      "outputs": [
        {
          "internalType": "uint8",
          "name": "",
          "type": "uint8"
        }
      ],
      "stateMutability": "view",
      "type": "function"
    },
    {
      "inputs": [
        {
          "internalType": "uint256",
          "name": "tokenId",
          "type": "uint256"
        }
      ],
      "name": "tokenURI",
      "outputs": [
        {
          "internalType": "string",
          "name": "",
          "type": "string"
        }
      ],
      "stateMutability": "view",
      "type": "function"
    },
    {
      "inputs": [
        {
          "internalType": "address",
          "name": "owner",
          "type": "address"
        }
      ],
      "name": "tokensOfOwner",
      "outputs": [
        {
          "internalType": "uint256[]",
          "name": "",
          "type": "uint256[]"
        }
      ],
      "stateMutability": "view",
      "type": "function"
    },
    {
      "inputs": [
        {
          "internalType": "address",
          "name": "from",
          "type": "address"
        },
        {
          "internalType": "address",
          "name": "to",
          "type": "address"
        },
        {
          "internalType": "uint256",
          "name": "tokenId",
          "type": "uint256"
        }
      ],
      "name": "transferFrom",
      "outputs": [],
      "stateMutability": "nonpayable",
      "type": "function"
    },
    {
      "inputs": [
        {
          "internalType": "address",
          "name": "newOwner",
          "type": "address"
        }
      ],
      "name": "transferOwnership",
      "outputs": [],
      "stateMutability": "nonpayable",
      "type": "function"
    }
  ],
  "bytecode": "0x608060405234801561001057600080fd5b5060405161336c38038061336c833981810160405281019061003291906103f3565b816040518060400160405280600981526020017f466c617070796d6f6e00000000000000000000000000000000000000000000008152506040518060400160405280600481526020017f464c414d0000000000000000000000000000000000000000000000000000000081525081600090816100ae9190610670565b5080600190816100be9190610670565b505050600073ffffffffffffffffffffffffffffffffffffffff168173ffffffffffffffffffffffffffffffffffffffff16036101335760006040517f1e4fbdf700000000000000000000000000000000000000000000000000000000815260040161012a9190610751565b60405180910390fd5b6101428161015a60201b60201c565b5080600890816101529190610670565b50505061076c565b6000600660009054906101000a900473ffffffffffffffffffffffffffffffffffffffff16905081600660006101000a81548173ffffffffffffffffffffffffffffffffffffffff021916908373ffffffffffffffffffffffffffffffffffffffff1602179055508173ffffffffffffffffffffffffffffffffffffffff168173ffffffffffffffffffffffffffffffffffffffff167f8be0079c531659141344cd1fd0a4f28419497f9722a3daafe3b4186f6b6457e060405160405180910390a35050565b6000604051905090565b600080fd5b600080fd5b600073ffffffffffffffffffffffffffffffffffffffff82169050919050565b600061025f82610234565b9050919050565b61026f81610254565b811461027a57600080fd5b50565b60008151905061028c81610266565b92915050565b600080fd5b600080fd5b6000601f19601f8301169050919050565b7f4e487b7100000000000000000000000000000000000000000000000000000000600052604160045260246000fd5b6102e58261029c565b810181811067ffffffffffffffff82111715610304576103036102ad565b5b80604052505050565b6000610317610220565b905061032382826102dc565b919050565b600067ffffffffffffffff821115610343576103426102ad565b5b61034c8261029c565b9050602081019050919050565b60005b8381101561037757808201518184015260208101905061035c565b60008484015250505050565b600061039661039184610328565b61030d565b9050828152602081018484840111156103b2576103b1610297565b5b6103bd848285610359565b509392505050565b600082601f8301126103da576103d9610292565b5b81516103ea848260208601610383565b91505092915050565b6000806040838503121561040a5761040961022a565b5b60006104188582860161027d565b925050602083015167ffffffffffffffff8111156104395761043861022f565b5b610445858286016103c5565b9150509250929050565b600081519050919050565b7f4e487b7100000000000000000000000000000000000000000000000000000000600052602260045260246000fd5b600060028204905060018216806104a157607f821691505b6020821081036104b4576104b361045a565b5b50919050565b60008190508160005260206000209050919050565b60006020601f8301049050919050565b600082821b905092915050565b60006008830261051c7fffffffffffffffffffffffffffffffffffffffffffffffffffffffffffffffff826104df565b61052686836104df565b95508019841693508086168417925050509392505050565b6000819050919050565b6000819050919050565b600061056d6105686105638461053e565b610548565b61053e565b9050919050565b6000819050919050565b61058783610552565b61059b61059382610574565b8484546104ec565b825550505050565b600090565b6105b06105a3565b6105bb81848461057e565b505050565b5b818110156105df576105d46000826105a8565b6001810190506105c1565b5050565b601f821115610624576105f5816104ba565b6105fe846104cf565b8101602085101561060d578190505b610621610619856104cf565b8301826105c0565b50505b505050565b600082821c905092915050565b600061064760001984600802610629565b1980831691505092915050565b60006106608383610636565b9150826002028217905092915050565b6106798261044f565b67ffffffffffffffff811115610692576106916102ad565b5b61069c8254610489565b6106a78282856105e3565b600060209050601f8311600181146106da57600084156106c8578287015190505b6106d28582610654565b86555061073a565b601f1984166106e8866104ba565b60005b82811015610710578489015182556001820191506020850194506020810190506106eb565b8683101561072d5784890151610729601f891682610636565b8355505b6001600288020188555050505b505050505050565b61074b81610254565b82525050565b60006020820190506107666000830184610742565b92915050565b612bf18061077b6000396000f3fe608060405234801561001057600080fd5b50600436106101585760003560e01c8063761c4c40116100c3578063afb0a3691161007c578063afb0a369146103eb578063b88d4fde1461041b578063c87b56dd14610437578063d547cfb714610467578063e985e9c514610485578063f2fde38b146104b557610158565b8063761c4c40146103035780638462151c1461033357806388f168f5146103635780638da5cb5b1461039357806395d89b41146103b1578063a22cb465146103cf57610158565b806342842e0e1161011557806342842e0e1461024357806355f804b31461025f5780636352211e1461027b57806370a08231146102ab578063715018a6146102db57806375794a3c146102e557610158565b806301ffc9a71461015d57806306fdde031461018d578063081812fc146101ab578063095ea7b3146101db5780631eea7c48146101f757806323b872dd14610227575b600080fd5b61017760048036038101906101729190611cff565b6104d1565b6040516101849190611d47565b60405180910390f35b6101956105b3565b6040516101a29190611df2565b60405180910390f35b6101c560048036038101906101c09190611e4a565b610645565b6040516101d29190611eb8565b60405180910390f35b6101f560048036038101906101f09190611eff565b610661565b005b610211600480360381019061020c9190611f78565b610677565b60405161021e9190611fb4565b60405180910390f35b610241600480360381019061023c9190611fcf565b6106ab565b005b61025d60048036038101906102589190611fcf565b6107ad565b005b61027960048036038101906102749190612087565b6107cd565b005b61029560048036038101906102909190611e4a565b6107eb565b6040516102a29190611eb8565b60405180910390f35b6102c560048036038101906102c091906120d4565b6107fd565b6040516102d29190612110565b60405180910390f35b6102e36108b7565b005b6102ed6108cb565b6040516102fa9190612110565b60405180910390f35b61031d6004803603810190610318919061212b565b6108d1565b60405161032a9190612110565b60405180910390f35b61034d600480360381019061034891906120d4565b61093a565b60405161035a9190612229565b60405180910390f35b61037d60048036038101906103789190611f78565b610a27565b60405161038a9190611fb4565b60405180910390f35b61039b610ab8565b6040516103a89190611eb8565b60405180910390f35b6103b9610ae2565b6040516103c69190611df2565b60405180910390f35b6103e960048036038101906103e49190612277565b610b74565b005b61040560048036038101906104009190611e4a565b610b8a565b6040516104129190611fb4565b60405180910390f35b610435600480360381019061043091906123e7565b610baa565b005b610451600480360381019061044c9190611e4a565b610bcf565b60405161045e9190611df2565b60405180910390f35b61046f610c7a565b60405161047c9190611df2565b60405180910390f35b61049f600480360381019061049a919061246a565b610d08565b6040516104ac9190611d47565b60405180910390f35b6104cf60048036038101906104ca91906120d4565b610d9c565b005b60007f80ac58cd000000000000000000000000000000000000000000000000000000007bffffffffffffffffffffffffffffffffffffffffffffffffffffffff1916827bffffffffffffffffffffffffffffffffffffffffffffffffffffffff1916148061059c57507f5b5e139f000000000000000000000000000000000000000000000000000000007bffffffffffffffffffffffffffffffffffffffffffffffffffffffff1916827bffffffffffffffffffffffffffffffffffffffffffffffffffffffff1916145b806105ac57506105ab82610e22565b5b9050919050565b6060600080546105c2906124d9565b80601f01602080910402602001604051908101604052809291908181526020018280546105ee906124d9565b801561063b5780601f106106105761010080835404028352916020019161063b565b820191906000526020600020905b81548152906001019060200180831161061e57829003601f168201915b5050505050905090565b600061065082610e8c565b5061065a82610f14565b9050919050565b610673828261066e610f51565b610f59565b5050565b600060028260ff160361068d57600190506106a6565b60038260ff16036106a157600290506106a6565b600090505b919050565b600073ffffffffffffffffffffffffffffffffffffffff168273ffffffffffffffffffffffffffffffffffffffff160361071d5760006040517f64a0ae920000000000000000000000000000000000000000000000000000000081526004016107149190611eb8565b60405180910390fd5b6000610731838361072c610f51565b610f6b565b90508373ffffffffffffffffffffffffffffffffffffffff168173ffffffffffffffffffffffffffffffffffffffff16146107a7578382826040517f64283d7b00000000000000000000000000000000000000000000000000000000815260040161079e9392919061250a565b60405180910390fd5b50505050565b6107c883838360405180602001604052806000815250610baa565b505050565b6107d5611185565b8181600891826107e69291906126f8565b505050565b60006107f682610e8c565b9050919050565b60008073ffffffffffffffffffffffffffffffffffffffff168273ffffffffffffffffffffffffffffffffffffffff16036108705760006040517f89c62b640000000000000000000000000000000000000000000000000000000081526004016108679190611eb8565b60405180910390fd5b600360008373ffffffffffffffffffffffffffffffffffffffff1673ffffffffffffffffffffffffffffffffffffffff168152602001908152602001600020549050919050565b6108bf611185565b6108c9600061120c565b565b60075481565b60006108db611185565b60006007549050600760008154809291906108f5906127f7565b919050555061090484826112d2565b826009600083815260200190815260200160002060006101000a81548160ff021916908360ff1602179055508091505092915050565b60606000610947836107fd565b905060008167ffffffffffffffff811115610965576109646122bc565b5b6040519080825280602002602001820160405280156109935781602001602082028036833780820191505090505b5090506000805b600754811015610a1b578573ffffffffffffffffffffffffffffffffffffffff166109c4826113cb565b73ffffffffffffffffffffffffffffffffffffffff1603610a0e57808383815181106109f3576109f261283f565b5b6020026020010181815250508180610a0a906127f7565b9250505b808060010191505061099a565b50819350505050919050565b6000808260ff1603610a3c5760019050610ab3565b60018260ff1603610a505760029050610ab3565b60028260ff1603610a645760039050610ab3565b60038260ff1603610a785760049050610ab3565b6040517f08c379a0000000000000000000000000000000000000000000000000000000008152600401610aaa906128ba565b60405180910390fd5b919050565b6000600660009054906101000a900473ffffffffffffffffffffffffffffffffffffffff16905090565b606060018054610af1906124d9565b80601f0160208091040260200160405190810160405280929190818152602001828054610b1d906124d9565b8015610b6a5780601f10610b3f57610100808354040283529160200191610b6a565b820191906000526020600020905b815481529060010190602001808311610b4d57829003601f168201915b5050505050905090565b610b86610b7f610f51565b8383611408565b5050565b60096020528060005260406000206000915054906101000a900460ff1681565b610bb58484846106ab565b610bc9610bc0610f51565b85858585611577565b50505050565b6060600073ffffffffffffffffffffffffffffffffffffffff16610bf2836113cb565b73ffffffffffffffffffffffffffffffffffffffff1603610c48576040517f08c379a0000000000000000000000000000000000000000000000000000000008152600401610c3f90612926565b60405180910390fd5b6008610c5383611728565b604051602001610c64929190612a51565b6040516020818303038152906040529050919050565b60088054610c87906124d9565b80601f0160208091040260200160405190810160405280929190818152602001828054610cb3906124d9565b8015610d005780601f10610cd557610100808354040283529160200191610d00565b820191906000526020600020905b815481529060010190602001808311610ce357829003601f168201915b505050505081565b6000600560008473ffffffffffffffffffffffffffffffffffffffff1673ffffffffffffffffffffffffffffffffffffffff16815260200190815260200160002060008373ffffffffffffffffffffffffffffffffffffffff1673ffffffffffffffffffffffffffffffffffffffff16815260200190815260200160002060009054906101000a900460ff16905092915050565b610da4611185565b600073ffffffffffffffffffffffffffffffffffffffff168173ffffffffffffffffffffffffffffffffffffffff1603610e165760006040517f1e4fbdf7000000000000000000000000000000000000000000000000000000008152600401610e0d9190611eb8565b60405180910390fd5b610e1f8161120c565b50565b60007f01ffc9a7000000000000000000000000000000000000000000000000000000007bffffffffffffffffffffffffffffffffffffffffffffffffffffffff1916827bffffffffffffffffffffffffffffffffffffffffffffffffffffffff1916149050919050565b600080610e98836113cb565b9050600073ffffffffffffffffffffffffffffffffffffffff168173ffffffffffffffffffffffffffffffffffffffff1603610f0b57826040517f7e273289000000000000000000000000000000000000000000000000000000008152600401610f029190612110565b60405180910390fd5b80915050919050565b60006004600083815260200190815260200160002060009054906101000a900473ffffffffffffffffffffffffffffffffffffffff169050919050565b600033905090565b610f6683838360016117f6565b505050565b600080610f77846113cb565b9050600073ffffffffffffffffffffffffffffffffffffffff168373ffffffffffffffffffffffffffffffffffffffff1614610fb957610fb88184866119bb565b5b600073ffffffffffffffffffffffffffffffffffffffff168173ffffffffffffffffffffffffffffffffffffffff161461104a57610ffb6000856000806117f6565b6001600360008373ffffffffffffffffffffffffffffffffffffffff1673ffffffffffffffffffffffffffffffffffffffff168152602001908152602001600020600082825403925050819055505b600073ffffffffffffffffffffffffffffffffffffffff168573ffffffffffffffffffffffffffffffffffffffff16146110cd576001600360008773ffffffffffffffffffffffffffffffffffffffff1673ffffffffffffffffffffffffffffffffffffffff168152602001908152602001600020600082825401925050819055505b846002600086815260200190815260200160002060006101000a81548173ffffffffffffffffffffffffffffffffffffffff021916908373ffffffffffffffffffffffffffffffffffffffff160217905550838573ffffffffffffffffffffffffffffffffffffffff168273ffffffffffffffffffffffffffffffffffffffff167fddf252ad1be2c89b69c2b068fc378daa952ba7f163c4a11628f55a4df523b3ef60405160405180910390a4809150509392505050565b61118d610f51565b73ffffffffffffffffffffffffffffffffffffffff166111ab610ab8565b73ffffffffffffffffffffffffffffffffffffffff161461120a576111ce610f51565b6040517f118cdaa70000000000000000000000000000000000000000000000000000000081526004016112019190611eb8565b60405180910390fd5b565b6000600660009054906101000a900473ffffffffffffffffffffffffffffffffffffffff16905081600660006101000a81548173ffffffffffffffffffffffffffffffffffffffff021916908373ffffffffffffffffffffffffffffffffffffffff1602179055508173ffffffffffffffffffffffffffffffffffffffff168173ffffffffffffffffffffffffffffffffffffffff167f8be0079c531659141344cd1fd0a4f28419497f9722a3daafe3b4186f6b6457e060405160405180910390a35050565b600073ffffffffffffffffffffffffffffffffffffffff168273ffffffffffffffffffffffffffffffffffffffff16036113445760006040517f64a0ae9200000000000000000000000000000000000000000000000000000000815260040161133b9190611eb8565b60405180910390fd5b600061135283836000610f6b565b9050600073ffffffffffffffffffffffffffffffffffffffff168173ffffffffffffffffffffffffffffffffffffffff16146113c65760006040517f73c6ac6e0000000000000000000000000000000000000000000000000000000081526004016113bd9190611eb8565b60405180910390fd5b505050565b60006002600083815260200190815260200160002060009054906101000a900473ffffffffffffffffffffffffffffffffffffffff169050919050565b600073ffffffffffffffffffffffffffffffffffffffff168273ffffffffffffffffffffffffffffffffffffffff160361147957816040517f5b08ba180000000000000000000000000000000000000000000000000000000081526004016114709190611eb8565b60405180910390fd5b80600560008573ffffffffffffffffffffffffffffffffffffffff1673ffffffffffffffffffffffffffffffffffffffff16815260200190815260200160002060008473ffffffffffffffffffffffffffffffffffffffff1673ffffffffffffffffffffffffffffffffffffffff16815260200190815260200160002060006101000a81548160ff0219169083151502179055508173ffffffffffffffffffffffffffffffffffffffff168373ffffffffffffffffffffffffffffffffffffffff167f17307eab39ab6107e8899845ad3d59bd9653f200f220920489ca2b5937696c318360405161156a9190611d47565b60405180910390a3505050565b60008373ffffffffffffffffffffffffffffffffffffffff163b1115611721578273ffffffffffffffffffffffffffffffffffffffff1663150b7a02868685856040518563ffffffff1660e01b81526004016115d69493929190612ad5565b6020604051808303816000875af192505050801561161257506040513d601f19601f8201168201806040525081019061160f9190612b36565b60015b611696573d8060008114611642576040519150601f19603f3d011682016040523d82523d6000602084013e611647565b606091505b50600081510361168e57836040517f64a0ae920000000000000000000000000000000000000000000000000000000081526004016116859190611eb8565b60405180910390fd5b805181602001fd5b63150b7a0260e01b7bffffffffffffffffffffffffffffffffffffffffffffffffffffffff1916817bffffffffffffffffffffffffffffffffffffffffffffffffffffffff19161461171f57836040517f64a0ae920000000000000000000000000000000000000000000000000000000081526004016117169190611eb8565b60405180910390fd5b505b5050505050565b60606000600161173784611a7f565b01905060008167ffffffffffffffff811115611756576117556122bc565b5b6040519080825280601f01601f1916602001820160405280156117885781602001600182028036833780820191505090505b509050600082602001820190505b6001156117eb578080600190039150507f3031323334353637383961626364656600000000000000000000000000000000600a86061a8153600a85816117df576117de612b63565b5b04945060008503611796575b819350505050919050565b808061182f5750600073ffffffffffffffffffffffffffffffffffffffff168273ffffffffffffffffffffffffffffffffffffffff1614155b1561196357600061183f84610e8c565b9050600073ffffffffffffffffffffffffffffffffffffffff168373ffffffffffffffffffffffffffffffffffffffff16141580156118aa57508273ffffffffffffffffffffffffffffffffffffffff168173ffffffffffffffffffffffffffffffffffffffff1614155b80156118bd57506118bb8184610d08565b155b156118ff57826040517fa9fbf51f0000000000000000000000000000000000000000000000000000000081526004016118f69190611eb8565b60405180910390fd5b811561196157838573ffffffffffffffffffffffffffffffffffffffff168273ffffffffffffffffffffffffffffffffffffffff167f8c5be1e5ebec7d5bd14f71427d1e84f3dd0314c0f7b2291e5b200ac8c7c3b92560405160405180910390a45b505b836004600085815260200190815260200160002060006101000a81548173ffffffffffffffffffffffffffffffffffffffff021916908373ffffffffffffffffffffffffffffffffffffffff16021790555050505050565b6119c6838383611bd2565b611a7a57600073ffffffffffffffffffffffffffffffffffffffff168373ffffffffffffffffffffffffffffffffffffffff1603611a3b57806040517f7e273289000000000000000000000000000000000000000000000000000000008152600401611a329190612110565b60405180910390fd5b81816040517f177e802f000000000000000000000000000000000000000000000000000000008152600401611a71929190612b92565b60405180910390fd5b505050565b600080600090507a184f03e93ff9f4daa797ed6e38ed64bf6a1f0100000000000000008310611add577a184f03e93ff9f4daa797ed6e38ed64bf6a1f0100000000000000008381611ad357611ad2612b63565b5b0492506040810190505b6d04ee2d6d415b85acef81000000008310611b1a576d04ee2d6d415b85acef81000000008381611b1057611b0f612b63565b5b0492506020810190505b662386f26fc100008310611b4957662386f26fc100008381611b3f57611b3e612b63565b5b0492506010810190505b6305f5e1008310611b72576305f5e1008381611b6857611b67612b63565b5b0492506008810190505b6127108310611b97576127108381611b8d57611b8c612b63565b5b0492506004810190505b60648310611bba5760648381611bb057611baf612b63565b5b0492506002810190505b600a8310611bc9576001810190505b80915050919050565b60008073ffffffffffffffffffffffffffffffffffffffff168373ffffffffffffffffffffffffffffffffffffffff1614158015611c8a57508273ffffffffffffffffffffffffffffffffffffffff168473ffffffffffffffffffffffffffffffffffffffff161480611c4b5750611c4a8484610d08565b5b80611c8957508273ffffffffffffffffffffffffffffffffffffffff16611c7183610f14565b73ffffffffffffffffffffffffffffffffffffffff16145b5b90509392505050565b6000604051905090565b600080fd5b600080fd5b60007fffffffff0000000000000000000000000000000000000000000000000000000082169050919050565b611cdc81611ca7565b8114611ce757600080fd5b50565b600081359050611cf981611cd3565b92915050565b600060208284031215611d1557611d14611c9d565b5b6000611d2384828501611cea565b91505092915050565b60008115159050919050565b611d4181611d2c565b82525050565b6000602082019050611d5c6000830184611d38565b92915050565b600081519050919050565b600082825260208201905092915050565b60005b83811015611d9c578082015181840152602081019050611d81565b60008484015250505050565b6000601f19601f8301169050919050565b6000611dc482611d62565b611dce8185611d6d565b9350611dde818560208601611d7e565b611de781611da8565b840191505092915050565b60006020820190508181036000830152611e0c8184611db9565b905092915050565b6000819050919050565b611e2781611e14565b8114611e3257600080fd5b50565b600081359050611e4481611e1e565b92915050565b600060208284031215611e6057611e5f611c9d565b5b6000611e6e84828501611e35565b91505092915050565b600073ffffffffffffffffffffffffffffffffffffffff82169050919050565b6000611ea282611e77565b9050919050565b611eb281611e97565b82525050565b6000602082019050611ecd6000830184611ea9565b92915050565b611edc81611e97565b8114611ee757600080fd5b50565b600081359050611ef981611ed3565b92915050565b60008060408385031215611f1657611f15611c9d565b5b6000611f2485828601611eea565b9250506020611f3585828601611e35565b9150509250929050565b600060ff82169050919050565b611f5581611f3f565b8114611f6057600080fd5b50565b600081359050611f7281611f4c565b92915050565b600060208284031215611f8e57611f8d611c9d565b5b6000611f9c84828501611f63565b91505092915050565b611fae81611f3f565b82525050565b6000602082019050611fc96000830184611fa5565b92915050565b600080600060608486031215611fe857611fe7611c9d565b5b6000611ff686828701611eea565b935050602061200786828701611eea565b925050604061201886828701611e35565b9150509250925092565b600080fd5b600080fd5b600080fd5b60008083601f84011261204757612046612022565b5b8235905067ffffffffffffffff81111561206457612063612027565b5b6020830191508360018202830111156120805761207f61202c565b5b9250929050565b6000806020838503121561209e5761209d611c9d565b5b600083013567ffffffffffffffff8111156120bc576120bb611ca2565b5b6120c885828601612031565b92509250509250929050565b6000602082840312156120ea576120e9611c9d565b5b60006120f884828501611eea565b91505092915050565b61210a81611e14565b82525050565b60006020820190506121256000830184612101565b92915050565b6000806040838503121561214257612141611c9d565b5b600061215085828601611eea565b925050602061216185828601611f63565b9150509250929050565b600081519050919050565b600082825260208201905092915050565b6000819050602082019050919050565b6121a081611e14565b82525050565b60006121b28383612197565b60208301905092915050565b6000602082019050919050565b60006121d68261216b565b6121e08185612176565b93506121eb83612187565b8060005b8381101561221c57815161220388826121a6565b975061220e836121be565b9250506001810190506121ef565b5085935050505092915050565b6000602082019050818103600083015261224381846121cb565b905092915050565b61225481611d2c565b811461225f57600080fd5b50565b6000813590506122718161224b565b92915050565b6000806040838503121561228e5761228d611c9d565b5b600061229c85828601611eea565b92505060206122ad85828601612262565b9150509250929050565b600080fd5b7f4e487b7100000000000000000000000000000000000000000000000000000000600052604160045260246000fd5b6122f482611da8565b810181811067ffffffffffffffff82111715612313576123126122bc565b5b80604052505050565b6000612326611c93565b905061233282826122eb565b919050565b600067ffffffffffffffff821115612352576123516122bc565b5b61235b82611da8565b9050602081019050919050565b82818337600083830152505050565b600061238a61238584612337565b61231c565b9050828152602081018484840111156123a6576123a56122b7565b5b6123b1848285612368565b509392505050565b600082601f8301126123ce576123cd612022565b5b81356123de848260208601612377565b91505092915050565b6000806000806080858703121561240157612400611c9d565b5b600061240f87828801611eea565b945050602061242087828801611eea565b935050604061243187828801611e35565b925050606085013567ffffffffffffffff81111561245257612451611ca2565b5b61245e878288016123b9565b91505092959194509250565b6000806040838503121561248157612480611c9d565b5b600061248f85828601611eea565b92505060206124a085828601611eea565b9150509250929050565b7f4e487b7100000000000000000000000000000000000000000000000000000000600052602260045260246000fd5b600060028204905060018216806124f157607f821691505b602082108103612504576125036124aa565b5b50919050565b600060608201905061251f6000830186611ea9565b61252c6020830185612101565b6125396040830184611ea9565b949350505050565b600082905092915050565b60008190508160005260206000209050919050565b60006020601f8301049050919050565b600082821b905092915050565b6000600883026125ae7fffffffffffffffffffffffffffffffffffffffffffffffffffffffffffffffff82612571565b6125b88683612571565b95508019841693508086168417925050509392505050565b6000819050919050565b60006125f56125f06125eb84611e14565b6125d0565b611e14565b9050919050565b6000819050919050565b61260f836125da565b61262361261b826125fc565b84845461257e565b825550505050565b600090565b61263861262b565b612643818484612606565b505050565b5b818110156126675761265c600082612630565b600181019050612649565b5050565b601f8211156126ac5761267d8161254c565b61268684612561565b81016020851015612695578190505b6126a96126a185612561565b830182612648565b50505b505050565b600082821c905092915050565b60006126cf600019846008026126b1565b1980831691505092915050565b60006126e883836126be565b9150826002028217905092915050565b6127028383612541565b67ffffffffffffffff81111561271b5761271a6122bc565b5b61272582546124d9565b61273082828561266b565b6000601f83116001811461275f576000841561274d578287013590505b61275785826126dc565b8655506127bf565b601f19841661276d8661254c565b60005b8281101561279557848901358255600182019150602085019450602081019050612770565b868310156127b257848901356127ae601f8916826126be565b8355505b6001600288020188555050505b50505050505050565b7f4e487b7100000000000000000000000000000000000000000000000000000000600052601160045260246000fd5b600061280282611e14565b91507fffffffffffffffffffffffffffffffffffffffffffffffffffffffffffffffff8203612834576128336127c8565b5b600182019050919050565b7f4e487b7100000000000000000000000000000000000000000000000000000000600052603260045260246000fd5b7f496e76616c696420726172697479000000000000000000000000000000000000600082015250565b60006128a4600e83611d6d565b91506128af8261286e565b602082019050919050565b600060208201905081810360008301526128d381612897565b9050919050565b7f546f6b656e20646f6573206e6f74206578697374000000000000000000000000600082015250565b6000612910601483611d6d565b915061291b826128da565b602082019050919050565b6000602082019050818103600083015261293f81612903565b9050919050565b600081905092915050565b6000815461295e816124d9565b6129688186612946565b945060018216600081146129835760018114612998576129cb565b60ff19831686528115158202860193506129cb565b6129a18561254c565b60005b838110156129c3578154818901526001820191506020810190506129a4565b838801955050505b50505092915050565b60006129df82611d62565b6129e98185612946565b93506129f9818560208601611d7e565b80840191505092915050565b7f2e6a736f6e000000000000000000000000000000000000000000000000000000600082015250565b6000612a3b600583612946565b9150612a4682612a05565b600582019050919050565b6000612a5d8285612951565b9150612a6982846129d4565b9150612a7482612a2e565b91508190509392505050565b600081519050919050565b600082825260208201905092915050565b6000612aa782612a80565b612ab18185612a8b565b9350612ac1818560208601611d7e565b612aca81611da8565b840191505092915050565b6000608082019050612aea6000830187611ea9565b612af76020830186611ea9565b612b046040830185612101565b8181036060830152612b168184612a9c565b905095945050505050565b600081519050612b3081611cd3565b92915050565b600060208284031215612b4c57612b4b611c9d565b5b6000612b5a84828501612b21565b91505092915050565b7f4e487b7100000000000000000000000000000000000000000000000000000000600052601260045260246000fd5b6000604082019050612ba76000830185611ea9565b612bb46020830184612101565b939250505056fea2646970667358221220f9236a8cf44a85eda155923fbfd0992357ed72a54e174ca081ed60119f10c43564736f6c634300081c0033",
  "linkReferences": {},
  "deployedLinkReferences": {}
}