{
  "_format": "hh-sol-artifact-1",
  "contractName": "SkillMarketplace",
  "sourceName": "contracts/SkillMarketplace.sol",
  "abi": [
    {
      "inputs": [
        {
          "internalType": "address",
          "name": "_skillNFT",
          "type": "address"
        },
        {
          "internalType": "address",
          "name": "_flapToken",
          "type": "address"
        }
      ],
      "stateMutability": "nonpayable",
      "type": "constructor"
    },
    {
      "inputs": [],
      "name": "ReentrancyGuardReentrantCall",
      "type": "error"
    },
    {
      "anonymous": false,
      "inputs": [
        {
          "indexed": true,
          "internalType": "address",
          "name": "seller",
          "type": "address"
        },
        {
          "indexed": true,
          "internalType": "uint256",
          "name": "tokenId",
          "type": "uint256"
        }
      ],
      "name": "Cancelled",
      "type": "event"
    },
    {
      "anonymous": false,
      "inputs": [
        {
          "indexed": true,
          "internalType": "address",
          "name": "buyer",
          "type": "address"
        },
        {
          "indexed": true,
          "internalType": "address",
          "name": "seller",
          "type": "address"
        },
        {
          "indexed": true,
          "internalType": "uint256",
          "name": "tokenId",
          "type": "uint256"
        },
        {
          "indexed": false,
          "internalType": "uint256",
          "name": "price",
          "type": "uint256"
        }
      ],
      "name": "Purchased",
      "type": "event"
    },
    {
      "anonymous": false,
      "inputs": [
        {
          "indexed": true,
          "internalType": "address",
          "name": "seller",
          "type": "address"
        },
        {
          "indexed": true,
          "internalType": "uint256",
          "name": "tokenId",
          "type": "uint256"
        },
        {
          "indexed": false,
          "internalType": "uint256",
          "name": "price",
          "type": "uint256"
        }
      ],
      "name": "SkillListed",
      "type": "event"
    },
    {
      "inputs": [
        {
          "internalType": "uint256",
          "name": "tokenId",
          "type": "uint256"
        }
      ],
      "name": "buySkill",
      "outputs": [],
      "stateMutability": "nonpayable",
      "type": "function"
    },
    {
      "inputs": [
        {
          "internalType": "uint256",
          "name": "tokenId",
          "type": "uint256"
        },
        {
          "internalType": "uint256",
          "name": "value",
          "type": "uint256"
        },
        {
          "internalType": "uint256",
          "name": "deadline",
          "type": "uint256"
        },
        {
          "internalType": "uint8",
          "name": "v",
          "type": "uint8"
        },
        {
          "internalType": "bytes32",
          "name": "r",
          "type": "bytes32"
        },
        {
          "internalType": "bytes32",
          "name": "s",
          "type": "bytes32"
        }
      ],
      "name": "buySkillWithPermit",
      "outputs": [],
      "stateMutability": "nonpayable",
      "type": "function"
    },
    {
      "inputs": [
        {
          "internalType": "uint256",
          "name": "tokenId",
          "type": "uint256"
        }
      ],
      "name": "cancelListing",
      "outputs": [],
      "stateMutability": "nonpayable",
      "type": "function"
    },
    {
      "inputs": [],
      "name": "flapToken",
      "outputs": [
        {
          "internalType": "contract IERC20",
          "name": "",
          "type": "address"
        }
      ],
      "stateMutability": "view",
      "type": "function"
    },
    {
      "inputs": [
        {
          "internalType": "uint256",
          "name": "tokenId",
          "type": "uint256"
        }
      ],
      "name": "getListing",
      "outputs": [
        {
          "internalType": "address",
          "name": "seller",
          "type": "address"
        },
        {
          "internalType": "uint256",
          "name": "price",
          "type": "uint256"
        }
      ],
      "stateMutability": "view",
      "type": "function"
    },
    {
      "inputs": [
        {
          "internalType": "address",
          "name": "seller",
          "type": "address"
        },
        {
          "internalType": "uint256",
          "name": "tokenId",
          "type": "uint256"
        },
        {
          "internalType": "uint256",
          "name": "price",
          "type": "uint256"
        }
      ],
      "name": "listSkill",
      "outputs": [],
      "stateMutability": "nonpayable",
      "type": "function"
    },
    {
      "inputs": [
        {
          "internalType": "uint256",
          "name": "",
          "type": "uint256"
        }
      ],
      "name": "listings",
      "outputs": [
        {
          "internalType": "address",
          "name": "seller",
          "type": "address"
        },
        {
          "internalType": "uint256",
          "name": "price",
          "type": "uint256"
        }
      ],
      "stateMutability": "view",
      "type": "function"
    },
    {
      "inputs": [],
      "name": "skillNFT",
      "outputs": [
        {
          "internalType": "contract IERC721",
          "name": "",
          "type": "address"
        }
      ],
      "stateMutability": "view",
      "type": "function"
    }
  ],
  "bytecode": "0x60c060405234801561001057600080fd5b506040516118543803806118548339818101604052810190610032919061010c565b60016000819055508173ffffffffffffffffffffffffffffffffffffffff1660808173ffffffffffffffffffffffffffffffffffffffff16815250508073ffffffffffffffffffffffffffffffffffffffff1660a08173ffffffffffffffffffffffffffffffffffffffff1681525050505061014c565b600080fd5b600073ffffffffffffffffffffffffffffffffffffffff82169050919050565b60006100d9826100ae565b9050919050565b6100e9816100ce565b81146100f457600080fd5b50565b600081519050610106816100e0565b92915050565b60008060408385031215610123576101226100a9565b5b6000610131858286016100f7565b9250506020610142858286016100f7565b9150509250929050565b60805160a0516116a46101b0600039600081816102360152818161032b015281816107fd01526108940152600081816104120152818161097b01528181610ad201528181610b0d01528181610bc401528181610c000152610d1701526116a46000f3fe608060405234801561001057600080fd5b50600436106100885760003560e01c8063501aa3771161005b578063501aa3771461011457806392ca4bb914610130578063c3b8820c1461014e578063de74e57b1461016a57610088565b8063107a274a1461008d5780632be64d85146100be5780632d0674c7146100dc578063305a67a8146100f8575b600080fd5b6100a760048036038101906100a29190610fbb565b61019b565b6040516100b5929190611038565b60405180910390f35b6100c6610234565b6040516100d391906110c0565b60405180910390f35b6100f660048036038101906100f19190610fbb565b610258565b005b610112600480360381019061010d9190610fbb565b610562565b005b61012e6004803603810190610129919061114a565b6106e3565b005b610138610ad0565b60405161014591906111f8565b60405180910390f35b6101686004803603810190610163919061123f565b610af4565b005b610184600480360381019061017f9190610fbb565b610eec565b604051610192929190611038565b60405180910390f35b6000806000600160008581526020019081526020016000206040518060400160405290816000820160009054906101000a900473ffffffffffffffffffffffffffffffffffffffff1673ffffffffffffffffffffffffffffffffffffffff1673ffffffffffffffffffffffffffffffffffffffff1681526020016001820154815250509050806000015181602001519250925050915091565b7f000000000000000000000000000000000000000000000000000000000000000081565b610260610f30565b6000600160008381526020019081526020016000206040518060400160405290816000820160009054906101000a900473ffffffffffffffffffffffffffffffffffffffff1673ffffffffffffffffffffffffffffffffffffffff1673ffffffffffffffffffffffffffffffffffffffff16815260200160018201548152505090506000816020015111610329576040517f08c379a0000000000000000000000000000000000000000000000000000000008152600401610320906112ef565b60405180910390fd5b7f000000000000000000000000000000000000000000000000000000000000000073ffffffffffffffffffffffffffffffffffffffff166323b872dd33836000015184602001516040518463ffffffff1660e01b815260040161038e9392919061130f565b6020604051808303816000875af11580156103ad573d6000803e3d6000fd5b505050506040513d601f19601f820116820180604052508101906103d1919061137e565b610410576040517f08c379a0000000000000000000000000000000000000000000000000000000008152600401610407906113f7565b60405180910390fd5b7f000000000000000000000000000000000000000000000000000000000000000073ffffffffffffffffffffffffffffffffffffffff166342842e0e826000015133856040518463ffffffff1660e01b81526004016104719392919061130f565b600060405180830381600087803b15801561048b57600080fd5b505af115801561049f573d6000803e3d6000fd5b5050505060016000838152602001908152602001600020600080820160006101000a81549073ffffffffffffffffffffffffffffffffffffffff02191690556001820160009055505081816000015173ffffffffffffffffffffffffffffffffffffffff163373ffffffffffffffffffffffffffffffffffffffff167fa326259ec721617acd3cb2a00bcbeac91eefe409880e49aa2bbf473ed648da49846020015160405161054e9190611417565b60405180910390a45061055f610f76565b50565b6000600160008381526020019081526020016000206040518060400160405290816000820160009054906101000a900473ffffffffffffffffffffffffffffffffffffffff1673ffffffffffffffffffffffffffffffffffffffff1673ffffffffffffffffffffffffffffffffffffffff16815260200160018201548152505090503373ffffffffffffffffffffffffffffffffffffffff16816000015173ffffffffffffffffffffffffffffffffffffffff1614610656576040517f08c379a000000000000000000000000000000000000000000000000000000000815260040161064d9061147e565b60405180910390fd5b60016000838152602001908152602001600020600080820160006101000a81549073ffffffffffffffffffffffffffffffffffffffff021916905560018201600090555050813373ffffffffffffffffffffffffffffffffffffffff167f36ea5cd5608625e789af0282eecdb4eae1cb7c1cf6d0ec3f9a84f35be850260b60405160405180910390a35050565b6106eb610f30565b6000600160008881526020019081526020016000206040518060400160405290816000820160009054906101000a900473ffffffffffffffffffffffffffffffffffffffff1673ffffffffffffffffffffffffffffffffffffffff1673ffffffffffffffffffffffffffffffffffffffff168152602001600182015481525050905060008160200151116107b4576040517f08c379a00000000000000000000000000000000000000000000000000000000081526004016107ab906112ef565b60405180910390fd5b80602001518610156107fb576040517f08c379a00000000000000000000000000000000000000000000000000000000081526004016107f2906114ea565b60405180910390fd5b7f000000000000000000000000000000000000000000000000000000000000000073ffffffffffffffffffffffffffffffffffffffff1663d505accf333089898989896040518863ffffffff1660e01b81526004016108609796959493929190611528565b600060405180830381600087803b15801561087a57600080fd5b505af115801561088e573d6000803e3d6000fd5b505050507f000000000000000000000000000000000000000000000000000000000000000073ffffffffffffffffffffffffffffffffffffffff166323b872dd33836000015184602001516040518463ffffffff1660e01b81526004016108f79392919061130f565b6020604051808303816000875af1158015610916573d6000803e3d6000fd5b505050506040513d601f19601f8201168201806040525081019061093a919061137e565b610979576040517f08c379a0000000000000000000000000000000000000000000000000000000008152600401610970906113f7565b60405180910390fd5b7f000000000000000000000000000000000000000000000000000000000000000073ffffffffffffffffffffffffffffffffffffffff166342842e0e8260000151338a6040518463ffffffff1660e01b81526004016109da9392919061130f565b600060405180830381600087803b1580156109f457600080fd5b505af1158015610a08573d6000803e3d6000fd5b5050505060016000888152602001908152602001600020600080820160006101000a81549073ffffffffffffffffffffffffffffffffffffffff02191690556001820160009055505086816000015173ffffffffffffffffffffffffffffffffffffffff163373ffffffffffffffffffffffffffffffffffffffff167fa326259ec721617acd3cb2a00bcbeac91eefe409880e49aa2bbf473ed648da498460200151604051610ab79190611417565b60405180910390a450610ac8610f76565b505050505050565b7f000000000000000000000000000000000000000000000000000000000000000081565b8273ffffffffffffffffffffffffffffffffffffffff167f000000000000000000000000000000000000000000000000000000000000000073ffffffffffffffffffffffffffffffffffffffff16636352211e846040518263ffffffff1660e01b8152600401610b649190611417565b602060405180830381865afa158015610b81573d6000803e3d6000fd5b505050506040513d601f19601f82011682018060405250810190610ba591906115ac565b73ffffffffffffffffffffffffffffffffffffffff161480610cf857507f000000000000000000000000000000000000000000000000000000000000000073ffffffffffffffffffffffffffffffffffffffff1663e985e9c57f000000000000000000000000000000000000000000000000000000000000000073ffffffffffffffffffffffffffffffffffffffff16636352211e856040518263ffffffff1660e01b8152600401610c579190611417565b602060405180830381865afa158015610c74573d6000803e3d6000fd5b505050506040513d601f19601f82011682018060405250810190610c9891906115ac565b336040518363ffffffff1660e01b8152600401610cb69291906115d9565b602060405180830381865afa158015610cd3573d6000803e3d6000fd5b505050506040513d601f19601f82011682018060405250810190610cf7919061137e565b5b80610dc757503373ffffffffffffffffffffffffffffffffffffffff167f000000000000000000000000000000000000000000000000000000000000000073ffffffffffffffffffffffffffffffffffffffff1663081812fc846040518263ffffffff1660e01b8152600401610d6e9190611417565b602060405180830381865afa158015610d8b573d6000803e3d6000fd5b505050506040513d601f19601f82011682018060405250810190610daf91906115ac565b73ffffffffffffffffffffffffffffffffffffffff16145b610e06576040517f08c379a0000000000000000000000000000000000000000000000000000000008152600401610dfd9061164e565b60405180910390fd5b60405180604001604052808473ffffffffffffffffffffffffffffffffffffffff168152602001828152506001600084815260200190815260200160002060008201518160000160006101000a81548173ffffffffffffffffffffffffffffffffffffffff021916908373ffffffffffffffffffffffffffffffffffffffff16021790555060208201518160010155905050818373ffffffffffffffffffffffffffffffffffffffff167f5075d85cfb7d5a531bbcf02991b27744b0ac3ce66c735fd9e7ed17786881704a83604051610edf9190611417565b60405180910390a3505050565b60016020528060005260406000206000915090508060000160009054906101000a900473ffffffffffffffffffffffffffffffffffffffff16908060010154905082565b600260005403610f6c576040517f3ee5aeb500000000000000000000000000000000000000000000000000000000815260040160405180910390fd5b6002600081905550565b6001600081905550565b600080fd5b6000819050919050565b610f9881610f85565b8114610fa357600080fd5b50565b600081359050610fb581610f8f565b92915050565b600060208284031215610fd157610fd0610f80565b5b6000610fdf84828501610fa6565b91505092915050565b600073ffffffffffffffffffffffffffffffffffffffff82169050919050565b600061101382610fe8565b9050919050565b61102381611008565b82525050565b61103281610f85565b82525050565b600060408201905061104d600083018561101a565b61105a6020830184611029565b9392505050565b6000819050919050565b600061108661108161107c84610fe8565b611061565b610fe8565b9050919050565b60006110988261106b565b9050919050565b60006110aa8261108d565b9050919050565b6110ba8161109f565b82525050565b60006020820190506110d560008301846110b1565b92915050565b600060ff82169050919050565b6110f1816110db565b81146110fc57600080fd5b50565b60008135905061110e816110e8565b92915050565b6000819050919050565b61112781611114565b811461113257600080fd5b50565b6000813590506111448161111e565b92915050565b60008060008060008060c0878903121561116757611166610f80565b5b600061117589828a01610fa6565b965050602061118689828a01610fa6565b955050604061119789828a01610fa6565b94505060606111a889828a016110ff565b93505060806111b989828a01611135565b92505060a06111ca89828a01611135565b9150509295509295509295565b60006111e28261108d565b9050919050565b6111f2816111d7565b82525050565b600060208201905061120d60008301846111e9565b92915050565b61121c81611008565b811461122757600080fd5b50565b60008135905061123981611213565b92915050565b60008060006060848603121561125857611257610f80565b5b60006112668682870161122a565b935050602061127786828701610fa6565b925050604061128886828701610fa6565b9150509250925092565b600082825260208201905092915050565b7f4e6f74206c697374656400000000000000000000000000000000000000000000600082015250565b60006112d9600a83611292565b91506112e4826112a3565b602082019050919050565b60006020820190508181036000830152611308816112cc565b9050919050565b6000606082019050611324600083018661101a565b611331602083018561101a565b61133e6040830184611029565b949350505050565b60008115159050919050565b61135b81611346565b811461136657600080fd5b50565b60008151905061137881611352565b92915050565b60006020828403121561139457611393610f80565b5b60006113a284828501611369565b91505092915050565b7f464c4150207472616e73666572206661696c6564000000000000000000000000600082015250565b60006113e1601483611292565b91506113ec826113ab565b602082019050919050565b60006020820190508181036000830152611410816113d4565b9050919050565b600060208201905061142c6000830184611029565b92915050565b7f4e6f7420796f7572206c697374696e6700000000000000000000000000000000600082015250565b6000611468601083611292565b915061147382611432565b602082019050919050565b600060208201905081810360008301526114978161145b565b9050919050565b7f496e73756666696369656e74207065726d69742076616c756500000000000000600082015250565b60006114d4601983611292565b91506114df8261149e565b602082019050919050565b60006020820190508181036000830152611503816114c7565b9050919050565b611513816110db565b82525050565b61152281611114565b82525050565b600060e08201905061153d600083018a61101a565b61154a602083018961101a565b6115576040830188611029565b6115646060830187611029565b611571608083018661150a565b61157e60a0830185611519565b61158b60c0830184611519565b98975050505050505050565b6000815190506115a681611213565b92915050565b6000602082840312156115c2576115c1610f80565b5b60006115d084828501611597565b91505092915050565b60006040820190506115ee600083018561101a565b6115fb602083018461101a565b9392505050565b7f4e6f7420796f7572204e46540000000000000000000000000000000000000000600082015250565b6000611638600c83611292565b915061164382611602565b602082019050919050565b600060208201905081810360008301526116678161162b565b905091905056fea2646970667358221220ca822d8801c632ac9812995b6abf1740a4dedbd68c88f37d4577d5a4e670aa0e64736f6c634300081c0033",
  "linkReferences": {},
  "deployedLinkReferences": {}
}