{
  "_format": "hh-sol-artifact-1",
  "contractName": "Flappymon",
  "sourceName": "contracts/Flappymon.sol",
  "abi": [
    {
      "inputs": [
        {
          "internalType": "address",
          "name": "initialOwner",
          "type": "address"
        },
        {
          "internalType": "string",
          "name": "_baseTokenURI",
          "type": "string"
        }
      ],
      "stateMutability": "nonpayable",
      "type": "constructor"
    },
    {
      "inputs": [
        {
          "internalType": "address",
          "name": "sender",
          "type": "address"
        },
        {
          "internalType": "uint256",
          "name": "tokenId",
          "type": "uint256"
        },
        {
          "internalType": "address",
          "name": "owner",
          "type": "address"
        }
      ],
      "name": "ERC721IncorrectOwner",
      "type": "error"
    },
    {
      "inputs": [
        {
          "internalType": "address",
          "name": "operator",
          "type": "address"
        },
        {
          "internalType": "uint256",
          "name": "tokenId",
          "type": "uint256"
        }
      ],
      "name": "ERC721InsufficientApproval",
      "type": "error"
    },
    {
      "inputs": [
        {
          "internalType": "address",
          "name": "approver",
          "type": "address"
        }
      ],
      "name": "ERC721InvalidApprover",
      "type": "error"
    },
    {
      "inputs": [
        {
          "internalType": "address",
          "name": "operator",
          "type": "address"
        }
      ],
      "name": "ERC721InvalidOperator",
      "type": "error"
    },
    {
      "inputs": [
        {
          "internalType": "address",
          "name": "owner",
          "type": "address"
        }
      ],
      "name": "ERC721InvalidOwner",
      "type": "error"
    },
    {
      "inputs": [
        {
          "internalType": "address",
          "name": "receiver",
          "type": "address"
        }
      ],
      "name": "ERC721InvalidReceiver",
      "type": "error"
    },
    {
      "inputs": [
        {
          "internalType": "address",
          "name": "sender",
          "type": "address"
        }
      ],
      "name": "ERC721InvalidSender",
      "type": "error"
    },
    {
      "inputs": [
        {
          "internalType": "uint256",
          "name": "tokenId",
          "type": "uint256"
        }
      ],
      "name": "ERC721NonexistentToken",
      "type": "error"
    },
    {
      "inputs": [
        {
          "internalType": "address",
          "name": "owner",
          "type": "address"
        }
      ],
      "name": "OwnableInvalidOwner",
      "type": "error"
    },
    {
      "inputs": [
        {
          "internalType": "address",
          "name": "account",
          "type": "address"
        }
      ],
      "name": "OwnableUnauthorizedAccount",
      "type": "error"
    },
    {
      "anonymous": false,
      "inputs": [
        {
          "indexed": true,
          "internalType": "address",
          "name": "owner",
          "type": "address"
        },
        {
          "indexed": true,
          "internalType": "address",
          "name": "approved",
          "type": "address"
        },
        {
          "indexed": true,
          "internalType": "uint256",
          "name": "tokenId",
          "type": "uint256"
        }
      ],
      "name": "Approval",
      "type": "event"
    },
    {
      "anonymous": false,
      "inputs": [
        {
          "indexed": true,
          "internalType": "address",
          "name": "owner",
          "type": "address"
        },
        {
          "indexed": true,
          "internalType": "address",
          "name": "operator",
          "type": "address"
        },
        {
          "indexed": false,
          "internalType": "bool",
          "name": "approved",
          "type": "bool"
        }
      ],
      "name": "ApprovalForAll",
      "type": "event"
    },
    {
      "anonymous": false,
      "inputs": [
        {
          "indexed": true,
          "internalType": "address",
          "name": "previousOwner",
          "type": "address"
        },
        {
          "indexed": true,
          "internalType": "address",
          "name": "newOwner",
          "type": "address"
        }
      ],
      "name": "OwnershipTransferred",
      "type": "event"
    },
    {
      "anonymous": false,
      "inputs": [
        {
          "indexed": true,
          "internalType": "address",
          "name": "from",
          "type": "address"
        },
        {
          "indexed": true,
          "internalType": "address",
          "name": "to",
          "type": "address"
        },
        {
          "indexed": true,
          "internalType": "uint256",
          "name": "tokenId",
          "type": "uint256"
        }
      ],
      "name": "Transfer",
      "type": "event"
    },
    {
      "inputs": [
        {
          "internalType": "address",
          "name": "to",
          "type": "address"
        },
        {
          "internalType": "uint256",
          "name": "tokenId",
          "type": "uint256"
        }
      ],
      "name": "approve",
      "outputs": [],
      "stateMutability": "nonpayable",
      "type": "function"
    },
    {
      "inputs": [
        {
          "internalType": "address",
          "name": "owner",
          "type": "address"
        }
      ],
      "name": "balanceOf",
      "outputs": [
        {
          "internalType": "uint256",
          "name": "",
          "type": "uint256"
        }
      ],
      "stateMutability": "view",
      "type": "function"
    },
    {
      "inputs": [],
      "name": "baseTokenURI",
      "outputs": [
        {
          "internalType": "string",
          "name": "",
          "type": "string"
        }
      ],
      "stateMutability": "view",
      "type": "function"
    },
    {
      "inputs": [
        {
          "internalType": "uint256",
          "name": "tokenId",
          "type": "uint256"
        }
      ],
      "name": "getApproved",
      "outputs": [
        {
          "internalType": "address",
          "name": "",
          "type": "address"
        }
      ],
      "stateMutability": "view",
      "type": "function"
    },
    {
      "inputs": [
        {
          "internalType": "uint8",
          "name": "rarity",
          "type": "uint8"
        }
      ],
      "name": "getItemSlots",
      "outputs": [
        {
          "internalType": "uint8",
          "name": "",
          "type": "uint8"
        }
      ],
      "stateMutability": "pure",
      "type": "function"
    },
    {
      "inputs": [
        {
          "internalType": "uint8",
          "name": "rarity",
          "type": "uint8"
        }
      ],
      "name": "getSkillSlots",
      "outputs": [
        {
          "internalType": "uint8",
          "name": "",
          "type": "uint8"
        }
      ],
      "stateMutability": "pure",
      "type": "function"
    },
    {
      "inputs": [
        {
          "internalType": "address",
          "name": "owner",
          "type": "address"
        },
        {
          "internalType": "address",
          "name": "operator",
          "type": "address"
        }
      ],
      "name": "isApprovedForAll",
      "outputs": [
        {
          "internalType": "bool",
          "name": "",
          "type": "bool"
        }
      ],
      "stateMutability": "view",
      "type": "function"
    },
    {
      "inputs": [],
      "name": "name",
      "outputs": [
        {
          "internalType": "string",
          "name": "",
          "type": "string"
        }
      ],
      "stateMutability": "view",
      "type": "function"
    },
    {
      "inputs": [],
      "name": "nextTokenId",
      "outputs": [
        {
          "internalType": "uint256",
          "name": "",
          "type": "uint256"
        }
      ],
      "stateMutability": "view",
      "type": "function"
    },
    {
      "inputs": [],
      "name": "owner",
      "outputs": [
        {
          "internalType": "address",
          "name": "",
          "type": "address"
        }
      ],
      "stateMutability": "view",
      "type": "function"
    },
    {
      "inputs": [
        {
          "internalType": "uint256",
          "name": "tokenId",
          "type": "uint256"
        }
      ],
      "name": "ownerOf",
      "outputs": [
        {
          "internalType": "address",
          "name": "",
          "type": "address"
        }
      ],
      "stateMutability": "view",
      "type": "function"
    },
    {
      "inputs": [],
      "name": "renounceOwnership",
      "outputs": [],
      "stateMutability": "nonpayable",
      "type": "function"
    },
    {
      "inputs": [
        {
          "internalType": "address",
          "name": "to",
          "type": "address"
        },
        {
          "internalType": "uint8",
          "name": "rarity",
          "type": "uint8"
        }
      ],
      "name": "safeMint",
      "outputs": [
        {
          "internalType": "uint256",
          "name": "",
          "type": "uint256"
        }
      ],
      "stateMutability": "nonpayable",
      "type": "function"
    },
    {
      "inputs": [
        {
          "internalType": "address",
          "name": "from",
          "type": "address"
        },
        {
          "internalType": "address",
          "name": "to",
          "type": "address"
        },
        {
          "internalType": "uint256",
          "name": "tokenId",
          "type": "uint256"
        }
      ],
      "name": "safeTransferFrom",
      "outputs": [],
      "stateMutability": "nonpayable",
      "type": "function"
    },
    {
      "inputs": [
        {
          "internalType": "address",
          "name": "from",
          "type": "address"
        },
        {
          "internalType": "address",
          "name": "to",
          "type": "address"
        },
        {
          "internalType": "uint256",
          "name": "tokenId",
          "type": "uint256"
        },
        {
          "internalType": "bytes",
          "name": "data",
          "type": "bytes"
        }
      ],
      "name": "safeTransferFrom",
      "outputs": [],
      "stateMutability": "nonpayable",
      "type": "function"
    },
    {
      "inputs": [
        {
          "internalType": "address",
          "name": "operator",
          "type": "address"
        },
        {
          "internalType": "bool",
          "name": "approved",
          "type": "bool"
        }
      ],
      "name": "setApprovalForAll",
      "outputs": [],
      "stateMutability": "nonpayable",
      "type": "function"
    },
    {
      "inputs": [
        {
          "internalType": "string",
          "name": "_uri",
          "type": "string"
        }
      ],
      "name": "setBaseURI",
      "outputs": [],
      "stateMutability": "nonpayable",
      "type": "function"
    },
    {
      "inputs": [
        {
          "internalType": "bytes4",
          "name": "interfaceId",
          "type": "bytes4"
        }
      ],
      "name": "supportsInterface",
      "outputs": [
        {
          "internalType": "bool",
          "name": "",
          "type": "bool"
        }
      ],
      "stateMutability": "view",
      "type": "function"
    },
    {
      "inputs": [],
      "name": "symbol",
      "outputs": [
        {
          "internalType": "string",
          "name": "",
          "type": "string"
        }
      ],
      "stateMutability": "view",
      "type": "function"
    },
    {
      "inputs": [
        {
          "internalType": "uint256",
          "name": "",
          "type": "uint256"
        }
      ],
      "name": "tokenRarity",
      "outputs": [
        {
          "internalType": "uint8",
          "name": "",
          "type": "uint8"
        }
      ],
      "stateMutability": "view",
      "type": "function"
    },
    {
      "inputs": [
        {
          "internalType": "uint256",
          "name": "tokenId",
          "type": "uint256"
        }
      ],
      "name": "tokenURI",
      "outputs": [
        {
          "internalType": "string",
          "name": "",
          "type": "string"
        }
      ],
      "stateMutability": "view",
      "type": "function"
    },
    {
      "inputs": [
        {
          "internalType": "address",
          "name": "from",
          "type": "address"
        },
        {
          "internalType": "address",
          "name": "to",
          "type": "address"
        },
        {
          "internalType": "uint256",
          "name": "tokenId",
          "type": "uint256"
        }
      ],
      "name": "transferFrom",
      "outputs": [],
      "stateMutability": "nonpayable",
      "type": "function"
    },
    {
      "inputs": [
        {
          "internalType": "address",
          "name": "newOwner",
          "type": "address"
        }
      ],
      "name": "transferOwnership",
      "outputs": [],
      "stateMutability": "nonpayable",
      "type": "function"
    }
  ],
  "bytecode": "0x608060405234801561001057600080fd5b50604051613135380380613135833981810160405281019061003291906103f3565b816040518060400160405280600981526020017f466c617070796d6f6e00000000000000000000000000000000000000000000008152506040518060400160405280600481526020017f464c414d0000000000000000000000000000000000000000000000000000000081525081600090816100ae9190610670565b5080600190816100be9190610670565b505050600073ffffffffffffffffffffffffffffffffffffffff168173ffffffffffffffffffffffffffffffffffffffff16036101335760006040517f1e4fbdf700000000000000000000000000000000000000000000000000000000815260040161012a9190610751565b60405180910390fd5b6101428161015a60201b60201c565b5080600890816101529190610670565b50505061076c565b6000600660009054906101000a900473ffffffffffffffffffffffffffffffffffffffff16905081600660006101000a81548173ffffffffffffffffffffffffffffffffffffffff021916908373ffffffffffffffffffffffffffffffffffffffff1602179055508173ffffffffffffffffffffffffffffffffffffffff168173ffffffffffffffffffffffffffffffffffffffff167f8be0079c531659141344cd1fd0a4f28419497f9722a3daafe3b4186f6b6457e060405160405180910390a35050565b6000604051905090565b600080fd5b600080fd5b600073ffffffffffffffffffffffffffffffffffffffff82169050919050565b600061025f82610234565b9050919050565b61026f81610254565b811461027a57600080fd5b50565b60008151905061028c81610266565b92915050565b600080fd5b600080fd5b6000601f19601f8301169050919050565b7f4e487b7100000000000000000000000000000000000000000000000000000000600052604160045260246000fd5b6102e58261029c565b810181811067ffffffffffffffff82111715610304576103036102ad565b5b80604052505050565b6000610317610220565b905061032382826102dc565b919050565b600067ffffffffffffffff821115610343576103426102ad565b5b61034c8261029c565b9050602081019050919050565b60005b8381101561037757808201518184015260208101905061035c565b60008484015250505050565b600061039661039184610328565b61030d565b9050828152602081018484840111156103b2576103b1610297565b5b6103bd848285610359565b509392505050565b600082601f8301126103da576103d9610292565b5b81516103ea848260208601610383565b91505092915050565b6000806040838503121561040a5761040961022a565b5b60006104188582860161027d565b925050602083015167ffffffffffffffff8111156104395761043861022f565b5b610445858286016103c5565b9150509250929050565b600081519050919050565b7f4e487b7100000000000000000000000000000000000000000000000000000000600052602260045260246000fd5b600060028204905060018216806104a157607f821691505b6020821081036104b4576104b361045a565b5b50919050565b60008190508160005260206000209050919050565b60006020601f8301049050919050565b600082821b905092915050565b60006008830261051c7fffffffffffffffffffffffffffffffffffffffffffffffffffffffffffffffff826104df565b61052686836104df565b95508019841693508086168417925050509392505050565b6000819050919050565b6000819050919050565b600061056d6105686105638461053e565b610548565b61053e565b9050919050565b6000819050919050565b61058783610552565b61059b61059382610574565b8484546104ec565b825550505050565b600090565b6105b06105a3565b6105bb81848461057e565b505050565b5b818110156105df576105d46000826105a8565b6001810190506105c1565b5050565b601f821115610624576105f5816104ba565b6105fe846104cf565b8101602085101561060d578190505b610621610619856104cf565b8301826105c0565b50505b505050565b600082821c905092915050565b600061064760001984600802610629565b1980831691505092915050565b60006106608383610636565b9150826002028217905092915050565b6106798261044f565b67ffffffffffffffff811115610692576106916102ad565b5b61069c8254610489565b6106a78282856105e3565b600060209050601f8311600181146106da57600084156106c8578287015190505b6106d28582610654565b86555061073a565b601f1984166106e8866104ba565b60005b82811015610710578489015182556001820191506020850194506020810190506106eb565b8683101561072d5784890151610729601f891682610636565b8355505b6001600288020188555050505b505050505050565b61074b81610254565b82525050565b60006020820190506107666000830184610742565b92915050565b6129ba8061077b6000396000f3fe608060405234801561001057600080fd5b506004361061014d5760003560e01c806375794a3c116100c3578063afb0a3691161007c578063afb0a369146103b0578063b88d4fde146103e0578063c87b56dd146103fc578063d547cfb71461042c578063e985e9c51461044a578063f2fde38b1461047a5761014d565b806375794a3c146102da578063761c4c40146102f857806388f168f5146103285780638da5cb5b1461035857806395d89b4114610376578063a22cb465146103945761014d565b806323b872dd1161011557806323b872dd1461021c57806342842e0e1461023857806355f804b3146102545780636352211e1461027057806370a08231146102a0578063715018a6146102d05761014d565b806301ffc9a71461015257806306fdde0314610182578063081812fc146101a0578063095ea7b3146101d05780631eea7c48146101ec575b600080fd5b61016c60048036038101906101679190611bd7565b610496565b6040516101799190611c1f565b60405180910390f35b61018a610578565b6040516101979190611cca565b60405180910390f35b6101ba60048036038101906101b59190611d22565b61060a565b6040516101c79190611d90565b60405180910390f35b6101ea60048036038101906101e59190611dd7565b610626565b005b61020660048036038101906102019190611e50565b61063c565b6040516102139190611e8c565b60405180910390f35b61023660048036038101906102319190611ea7565b610670565b005b610252600480360381019061024d9190611ea7565b610772565b005b61026e60048036038101906102699190611f5f565b610792565b005b61028a60048036038101906102859190611d22565b6107b0565b6040516102979190611d90565b60405180910390f35b6102ba60048036038101906102b59190611fac565b6107c2565b6040516102c79190611fe8565b60405180910390f35b6102d861087c565b005b6102e2610890565b6040516102ef9190611fe8565b60405180910390f35b610312600480360381019061030d9190612003565b610896565b60405161031f9190611fe8565b60405180910390f35b610342600480360381019061033d9190611e50565b6108ff565b60405161034f9190611e8c565b60405180910390f35b610360610990565b60405161036d9190611d90565b60405180910390f35b61037e6109ba565b60405161038b9190611cca565b60405180910390f35b6103ae60048036038101906103a9919061206f565b610a4c565b005b6103ca60048036038101906103c59190611d22565b610a62565b6040516103d79190611e8c565b60405180910390f35b6103fa60048036038101906103f591906121df565b610a82565b005b61041660048036038101906104119190611d22565b610aa7565b6040516104239190611cca565b60405180910390f35b610434610b52565b6040516104419190611cca565b60405180910390f35b610464600480360381019061045f9190612262565b610be0565b6040516104719190611c1f565b60405180910390f35b610494600480360381019061048f9190611fac565b610c74565b005b60007f80ac58cd000000000000000000000000000000000000000000000000000000007bffffffffffffffffffffffffffffffffffffffffffffffffffffffff1916827bffffffffffffffffffffffffffffffffffffffffffffffffffffffff1916148061056157507f5b5e139f000000000000000000000000000000000000000000000000000000007bffffffffffffffffffffffffffffffffffffffffffffffffffffffff1916827bffffffffffffffffffffffffffffffffffffffffffffffffffffffff1916145b80610571575061057082610cfa565b5b9050919050565b606060008054610587906122d1565b80601f01602080910402602001604051908101604052809291908181526020018280546105b3906122d1565b80156106005780601f106105d557610100808354040283529160200191610600565b820191906000526020600020905b8154815290600101906020018083116105e357829003601f168201915b5050505050905090565b600061061582610d64565b5061061f82610dec565b9050919050565b6106388282610633610e29565b610e31565b5050565b600060028260ff1603610652576001905061066b565b60038260ff1603610666576002905061066b565b600090505b919050565b600073ffffffffffffffffffffffffffffffffffffffff168273ffffffffffffffffffffffffffffffffffffffff16036106e25760006040517f64a0ae920000000000000000000000000000000000000000000000000000000081526004016106d99190611d90565b60405180910390fd5b60006106f683836106f1610e29565b610e43565b90508373ffffffffffffffffffffffffffffffffffffffff168173ffffffffffffffffffffffffffffffffffffffff161461076c578382826040517f64283d7b00000000000000000000000000000000000000000000000000000000815260040161076393929190612302565b60405180910390fd5b50505050565b61078d83838360405180602001604052806000815250610a82565b505050565b61079a61105d565b8181600891826107ab9291906124f0565b505050565b60006107bb82610d64565b9050919050565b60008073ffffffffffffffffffffffffffffffffffffffff168273ffffffffffffffffffffffffffffffffffffffff16036108355760006040517f89c62b6400000000000000000000000000000000000000000000000000000000815260040161082c9190611d90565b60405180910390fd5b600360008373ffffffffffffffffffffffffffffffffffffffff1673ffffffffffffffffffffffffffffffffffffffff168152602001908152602001600020549050919050565b61088461105d565b61088e60006110e4565b565b60075481565b60006108a061105d565b60006007549050600760008154809291906108ba906125ef565b91905055506108c984826111aa565b826009600083815260200190815260200160002060006101000a81548160ff021916908360ff1602179055508091505092915050565b6000808260ff1603610914576001905061098b565b60018260ff1603610928576002905061098b565b60028260ff160361093c576003905061098b565b60038260ff1603610950576004905061098b565b6040517f08c379a000000000000000000000000000000000000000000000000000000000815260040161098290612683565b60405180910390fd5b919050565b6000600660009054906101000a900473ffffffffffffffffffffffffffffffffffffffff16905090565b6060600180546109c9906122d1565b80601f01602080910402602001604051908101604052809291908181526020018280546109f5906122d1565b8015610a425780601f10610a1757610100808354040283529160200191610a42565b820191906000526020600020905b815481529060010190602001808311610a2557829003601f168201915b5050505050905090565b610a5e610a57610e29565b83836112a3565b5050565b60096020528060005260406000206000915054906101000a900460ff1681565b610a8d848484610670565b610aa1610a98610e29565b85858585611412565b50505050565b6060600073ffffffffffffffffffffffffffffffffffffffff16610aca836115c3565b73ffffffffffffffffffffffffffffffffffffffff1603610b20576040517f08c379a0000000000000000000000000000000000000000000000000000000008152600401610b17906126ef565b60405180910390fd5b6008610b2b83611600565b604051602001610b3c92919061281a565b6040516020818303038152906040529050919050565b60088054610b5f906122d1565b80601f0160208091040260200160405190810160405280929190818152602001828054610b8b906122d1565b8015610bd85780601f10610bad57610100808354040283529160200191610bd8565b820191906000526020600020905b815481529060010190602001808311610bbb57829003601f168201915b505050505081565b6000600560008473ffffffffffffffffffffffffffffffffffffffff1673ffffffffffffffffffffffffffffffffffffffff16815260200190815260200160002060008373ffffffffffffffffffffffffffffffffffffffff1673ffffffffffffffffffffffffffffffffffffffff16815260200190815260200160002060009054906101000a900460ff16905092915050565b610c7c61105d565b600073ffffffffffffffffffffffffffffffffffffffff168173ffffffffffffffffffffffffffffffffffffffff1603610cee5760006040517f1e4fbdf7000000000000000000000000000000000000000000000000000000008152600401610ce59190611d90565b60405180910390fd5b610cf7816110e4565b50565b60007f01ffc9a7000000000000000000000000000000000000000000000000000000007bffffffffffffffffffffffffffffffffffffffffffffffffffffffff1916827bffffffffffffffffffffffffffffffffffffffffffffffffffffffff1916149050919050565b600080610d70836115c3565b9050600073ffffffffffffffffffffffffffffffffffffffff168173ffffffffffffffffffffffffffffffffffffffff1603610de357826040517f7e273289000000000000000000000000000000000000000000000000000000008152600401610dda9190611fe8565b60405180910390fd5b80915050919050565b60006004600083815260200190815260200160002060009054906101000a900473ffffffffffffffffffffffffffffffffffffffff169050919050565b600033905090565b610e3e83838360016116ce565b505050565b600080610e4f846115c3565b9050600073ffffffffffffffffffffffffffffffffffffffff168373ffffffffffffffffffffffffffffffffffffffff1614610e9157610e90818486611893565b5b600073ffffffffffffffffffffffffffffffffffffffff168173ffffffffffffffffffffffffffffffffffffffff1614610f2257610ed36000856000806116ce565b6001600360008373ffffffffffffffffffffffffffffffffffffffff1673ffffffffffffffffffffffffffffffffffffffff168152602001908152602001600020600082825403925050819055505b600073ffffffffffffffffffffffffffffffffffffffff168573ffffffffffffffffffffffffffffffffffffffff1614610fa5576001600360008773ffffffffffffffffffffffffffffffffffffffff1673ffffffffffffffffffffffffffffffffffffffff168152602001908152602001600020600082825401925050819055505b846002600086815260200190815260200160002060006101000a81548173ffffffffffffffffffffffffffffffffffffffff021916908373ffffffffffffffffffffffffffffffffffffffff160217905550838573ffffffffffffffffffffffffffffffffffffffff168273ffffffffffffffffffffffffffffffffffffffff167fddf252ad1be2c89b69c2b068fc378daa952ba7f163c4a11628f55a4df523b3ef60405160405180910390a4809150509392505050565b611065610e29565b73ffffffffffffffffffffffffffffffffffffffff16611083610990565b73ffffffffffffffffffffffffffffffffffffffff16146110e2576110a6610e29565b6040517f118cdaa70000000000000000000000000000000000000000000000000000000081526004016110d99190611d90565b60405180910390fd5b565b6000600660009054906101000a900473ffffffffffffffffffffffffffffffffffffffff16905081600660006101000a81548173ffffffffffffffffffffffffffffffffffffffff021916908373ffffffffffffffffffffffffffffffffffffffff1602179055508173ffffffffffffffffffffffffffffffffffffffff168173ffffffffffffffffffffffffffffffffffffffff167f8be0079c531659141344cd1fd0a4f28419497f9722a3daafe3b4186f6b6457e060405160405180910390a35050565b600073ffffffffffffffffffffffffffffffffffffffff168273ffffffffffffffffffffffffffffffffffffffff160361121c5760006040517f64a0ae920000000000000000000000000000000000000000000000000000000081526004016112139190611d90565b60405180910390fd5b600061122a83836000610e43565b9050600073ffffffffffffffffffffffffffffffffffffffff168173ffffffffffffffffffffffffffffffffffffffff161461129e5760006040517f73c6ac6e0000000000000000000000000000000000000000000000000000000081526004016112959190611d90565b60405180910390fd5b505050565b600073ffffffffffffffffffffffffffffffffffffffff168273ffffffffffffffffffffffffffffffffffffffff160361131457816040517f5b08ba1800000000000000000000000000000000000000000000000000000000815260040161130b9190611d90565b60405180910390fd5b80600560008573ffffffffffffffffffffffffffffffffffffffff1673ffffffffffffffffffffffffffffffffffffffff16815260200190815260200160002060008473ffffffffffffffffffffffffffffffffffffffff1673ffffffffffffffffffffffffffffffffffffffff16815260200190815260200160002060006101000a81548160ff0219169083151502179055508173ffffffffffffffffffffffffffffffffffffffff168373ffffffffffffffffffffffffffffffffffffffff167f17307eab39ab6107e8899845ad3d59bd9653f200f220920489ca2b5937696c31836040516114059190611c1f565b60405180910390a3505050565b60008373ffffffffffffffffffffffffffffffffffffffff163b11156115bc578273ffffffffffffffffffffffffffffffffffffffff1663150b7a02868685856040518563ffffffff1660e01b8152600401611471949392919061289e565b6020604051808303816000875af19250505080156114ad57506040513d601f19601f820116820180604052508101906114aa91906128ff565b60015b611531573d80600081146114dd576040519150601f19603f3d011682016040523d82523d6000602084013e6114e2565b606091505b50600081510361152957836040517f64a0ae920000000000000000000000000000000000000000000000000000000081526004016115209190611d90565b60405180910390fd5b805181602001fd5b63150b7a0260e01b7bffffffffffffffffffffffffffffffffffffffffffffffffffffffff1916817bffffffffffffffffffffffffffffffffffffffffffffffffffffffff1916146115ba57836040517f64a0ae920000000000000000000000000000000000000000000000000000000081526004016115b19190611d90565b60405180910390fd5b505b5050505050565b60006002600083815260200190815260200160002060009054906101000a900473ffffffffffffffffffffffffffffffffffffffff169050919050565b60606000600161160f84611957565b01905060008167ffffffffffffffff81111561162e5761162d6120b4565b5b6040519080825280601f01601f1916602001820160405280156116605781602001600182028036833780820191505090505b509050600082602001820190505b6001156116c3578080600190039150507f3031323334353637383961626364656600000000000000000000000000000000600a86061a8153600a85816116b7576116b661292c565b5b0494506000850361166e575b819350505050919050565b80806117075750600073ffffffffffffffffffffffffffffffffffffffff168273ffffffffffffffffffffffffffffffffffffffff1614155b1561183b57600061171784610d64565b9050600073ffffffffffffffffffffffffffffffffffffffff168373ffffffffffffffffffffffffffffffffffffffff161415801561178257508273ffffffffffffffffffffffffffffffffffffffff168173ffffffffffffffffffffffffffffffffffffffff1614155b801561179557506117938184610be0565b155b156117d757826040517fa9fbf51f0000000000000000000000000000000000000000000000000000000081526004016117ce9190611d90565b60405180910390fd5b811561183957838573ffffffffffffffffffffffffffffffffffffffff168273ffffffffffffffffffffffffffffffffffffffff167f8c5be1e5ebec7d5bd14f71427d1e84f3dd0314c0f7b2291e5b200ac8c7c3b92560405160405180910390a45b505b836004600085815260200190815260200160002060006101000a81548173ffffffffffffffffffffffffffffffffffffffff021916908373ffffffffffffffffffffffffffffffffffffffff16021790555050505050565b61189e838383611aaa565b61195257600073ffffffffffffffffffffffffffffffffffffffff168373ffffffffffffffffffffffffffffffffffffffff160361191357806040517f7e27328900000000000000000000000000000000000000000000000000000000815260040161190a9190611fe8565b60405180910390fd5b81816040517f177e802f00000000000000000000000000000000000000000000000000000000815260040161194992919061295b565b60405180910390fd5b505050565b600080600090507a184f03e93ff9f4daa797ed6e38ed64bf6a1f01000000000000000083106119b5577a184f03e93ff9f4daa797ed6e38ed64bf6a1f01000000000000000083816119ab576119aa61292c565b5b0492506040810190505b6d04ee2d6d415b85acef810000000083106119f2576d04ee2d6d415b85acef810000000083816119e8576119e761292c565b5b0492506020810190505b662386f26fc100008310611a2157662386f26fc100008381611a1757611a1661292c565b5b0492506010810190505b6305f5e1008310611a4a576305f5e1008381611a4057611a3f61292c565b5b0492506008810190505b6127108310611a6f576127108381611a6557611a6461292c565b5b0492506004810190505b60648310611a925760648381611a8857611a8761292c565b5b0492506002810190505b600a8310611aa1576001810190505b80915050919050565b60008073ffffffffffffffffffffffffffffffffffffffff168373ffffffffffffffffffffffffffffffffffffffff1614158015611b6257508273ffffffffffffffffffffffffffffffffffffffff168473ffffffffffffffffffffffffffffffffffffffff161480611b235750611b228484610be0565b5b80611b6157508273ffffffffffffffffffffffffffffffffffffffff16611b4983610dec565b73ffffffffffffffffffffffffffffffffffffffff16145b5b90509392505050565b6000604051905090565b600080fd5b600080fd5b60007fffffffff0000000000000000000000000000000000000000000000000000000082169050919050565b611bb481611b7f565b8114611bbf57600080fd5b50565b600081359050611bd181611bab565b92915050565b600060208284031215611bed57611bec611b75565b5b6000611bfb84828501611bc2565b91505092915050565b60008115159050919050565b611c1981611c04565b82525050565b6000602082019050611c346000830184611c10565b92915050565b600081519050919050565b600082825260208201905092915050565b60005b83811015611c74578082015181840152602081019050611c59565b60008484015250505050565b6000601f19601f8301169050919050565b6000611c9c82611c3a565b611ca68185611c45565b9350611cb6818560208601611c56565b611cbf81611c80565b840191505092915050565b60006020820190508181036000830152611ce48184611c91565b905092915050565b6000819050919050565b611cff81611cec565b8114611d0a57600080fd5b50565b600081359050611d1c81611cf6565b92915050565b600060208284031215611d3857611d37611b75565b5b6000611d4684828501611d0d565b91505092915050565b600073ffffffffffffffffffffffffffffffffffffffff82169050919050565b6000611d7a82611d4f565b9050919050565b611d8a81611d6f565b82525050565b6000602082019050611da56000830184611d81565b92915050565b611db481611d6f565b8114611dbf57600080fd5b50565b600081359050611dd181611dab565b92915050565b60008060408385031215611dee57611ded611b75565b5b6000611dfc85828601611dc2565b9250506020611e0d85828601611d0d565b9150509250929050565b600060ff82169050919050565b611e2d81611e17565b8114611e3857600080fd5b50565b600081359050611e4a81611e24565b92915050565b600060208284031215611e6657611e65611b75565b5b6000611e7484828501611e3b565b91505092915050565b611e8681611e17565b82525050565b6000602082019050611ea16000830184611e7d565b92915050565b600080600060608486031215611ec057611ebf611b75565b5b6000611ece86828701611dc2565b9350506020611edf86828701611dc2565b9250506040611ef086828701611d0d565b9150509250925092565b600080fd5b600080fd5b600080fd5b60008083601f840112611f1f57611f1e611efa565b5b8235905067ffffffffffffffff811115611f3c57611f3b611eff565b5b602083019150836001820283011115611f5857611f57611f04565b5b9250929050565b60008060208385031215611f7657611f75611b75565b5b600083013567ffffffffffffffff811115611f9457611f93611b7a565b5b611fa085828601611f09565b92509250509250929050565b600060208284031215611fc257611fc1611b75565b5b6000611fd084828501611dc2565b91505092915050565b611fe281611cec565b82525050565b6000602082019050611ffd6000830184611fd9565b92915050565b6000806040838503121561201a57612019611b75565b5b600061202885828601611dc2565b925050602061203985828601611e3b565b9150509250929050565b61204c81611c04565b811461205757600080fd5b50565b60008135905061206981612043565b92915050565b6000806040838503121561208657612085611b75565b5b600061209485828601611dc2565b92505060206120a58582860161205a565b9150509250929050565b600080fd5b7f4e487b7100000000000000000000000000000000000000000000000000000000600052604160045260246000fd5b6120ec82611c80565b810181811067ffffffffffffffff8211171561210b5761210a6120b4565b5b80604052505050565b600061211e611b6b565b905061212a82826120e3565b919050565b600067ffffffffffffffff82111561214a576121496120b4565b5b61215382611c80565b9050602081019050919050565b82818337600083830152505050565b600061218261217d8461212f565b612114565b90508281526020810184848401111561219e5761219d6120af565b5b6121a9848285612160565b509392505050565b600082601f8301126121c6576121c5611efa565b5b81356121d684826020860161216f565b91505092915050565b600080600080608085870312156121f9576121f8611b75565b5b600061220787828801611dc2565b945050602061221887828801611dc2565b935050604061222987828801611d0d565b925050606085013567ffffffffffffffff81111561224a57612249611b7a565b5b612256878288016121b1565b91505092959194509250565b6000806040838503121561227957612278611b75565b5b600061228785828601611dc2565b925050602061229885828601611dc2565b9150509250929050565b7f4e487b7100000000000000000000000000000000000000000000000000000000600052602260045260246000fd5b600060028204905060018216806122e957607f821691505b6020821081036122fc576122fb6122a2565b5b50919050565b60006060820190506123176000830186611d81565b6123246020830185611fd9565b6123316040830184611d81565b949350505050565b600082905092915050565b60008190508160005260206000209050919050565b60006020601f8301049050919050565b600082821b905092915050565b6000600883026123a67fffffffffffffffffffffffffffffffffffffffffffffffffffffffffffffffff82612369565b6123b08683612369565b95508019841693508086168417925050509392505050565b6000819050919050565b60006123ed6123e86123e384611cec565b6123c8565b611cec565b9050919050565b6000819050919050565b612407836123d2565b61241b612413826123f4565b848454612376565b825550505050565b600090565b612430612423565b61243b8184846123fe565b505050565b5b8181101561245f57612454600082612428565b600181019050612441565b5050565b601f8211156124a45761247581612344565b61247e84612359565b8101602085101561248d578190505b6124a161249985612359565b830182612440565b50505b505050565b600082821c905092915050565b60006124c7600019846008026124a9565b1980831691505092915050565b60006124e083836124b6565b9150826002028217905092915050565b6124fa8383612339565b67ffffffffffffffff811115612513576125126120b4565b5b61251d82546122d1565b612528828285612463565b6000601f8311600181146125575760008415612545578287013590505b61254f85826124d4565b8655506125b7565b601f19841661256586612344565b60005b8281101561258d57848901358255600182019150602085019450602081019050612568565b868310156125aa57848901356125a6601f8916826124b6565b8355505b6001600288020188555050505b50505050505050565b7f4e487b7100000000000000000000000000000000000000000000000000000000600052601160045260246000fd5b60006125fa82611cec565b91507fffffffffffffffffffffffffffffffffffffffffffffffffffffffffffffffff820361262c5761262b6125c0565b5b600182019050919050565b7f496e76616c696420726172697479000000000000000000000000000000000000600082015250565b600061266d600e83611c45565b915061267882612637565b602082019050919050565b6000602082019050818103600083015261269c81612660565b9050919050565b7f546f6b656e20646f6573206e6f74206578697374000000000000000000000000600082015250565b60006126d9601483611c45565b91506126e4826126a3565b602082019050919050565b60006020820190508181036000830152612708816126cc565b9050919050565b600081905092915050565b60008154612727816122d1565b612731818661270f565b9450600182166000811461274c576001811461276157612794565b60ff1983168652811515820286019350612794565b61276a85612344565b60005b8381101561278c5781548189015260018201915060208101905061276d565b838801955050505b50505092915050565b60006127a882611c3a565b6127b2818561270f565b93506127c2818560208601611c56565b80840191505092915050565b7f2e6a736f6e000000000000000000000000000000000000000000000000000000600082015250565b600061280460058361270f565b915061280f826127ce565b600582019050919050565b6000612826828561271a565b9150612832828461279d565b915061283d826127f7565b91508190509392505050565b600081519050919050565b600082825260208201905092915050565b600061287082612849565b61287a8185612854565b935061288a818560208601611c56565b61289381611c80565b840191505092915050565b60006080820190506128b36000830187611d81565b6128c06020830186611d81565b6128cd6040830185611fd9565b81810360608301526128df8184612865565b905095945050505050565b6000815190506128f981611bab565b92915050565b60006020828403121561291557612914611b75565b5b6000612923848285016128ea565b91505092915050565b7f4e487b7100000000000000000000000000000000000000000000000000000000600052601260045260246000fd5b60006040820190506129706000830185611d81565b61297d6020830184611fd9565b939250505056fea26469706673582212208898ed2935e36cd3b936cd4ad78fa7bc0aea53a04db2b46610e21e3e06a2e39064736f6c634300081c0033",
  "linkReferences": {},
  "deployedLinkReferences": {}
}