{
  "_format": "hh-sol-artifact-1",
  "contractName": "Flappymon",
  "sourceName": "contracts/Flappymon.sol",
  "abi": [
    {
      "inputs": [
        {
          "internalType": "address",
          "name": "initialOwner",
          "type": "address"
        },
        {
          "internalType": "string",
          "name": "_baseTokenURI",
          "type": "string"
        }
      ],
      "stateMutability": "nonpayable",
      "type": "constructor"
    },
    {
      "inputs": [
        {
          "internalType": "address",
          "name": "sender",
          "type": "address"
        },
        {
          "internalType": "uint256",
          "name": "tokenId",
          "type": "uint256"
        },
        {
          "internalType": "address",
          "name": "owner",
          "type": "address"
        }
      ],
      "name": "ERC721IncorrectOwner",
      "type": "error"
    },
    {
      "inputs": [
        {
          "internalType": "address",
          "name": "operator",
          "type": "address"
        },
        {
          "internalType": "uint256",
          "name": "tokenId",
          "type": "uint256"
        }
      ],
      "name": "ERC721InsufficientApproval",
      "type": "error"
    },
    {
      "inputs": [
        {
          "internalType": "address",
          "name": "approver",
          "type": "address"
        }
      ],
      "name": "ERC721InvalidApprover",
      "type": "error"
    },
    {
      "inputs": [
        {
          "internalType": "address",
          "name": "operator",
          "type": "address"
        }
      ],
      "name": "ERC721InvalidOperator",
      "type": "error"
    },
    {
      "inputs": [
        {
          "internalType": "address",
          "name": "owner",
          "type": "address"
        }
      ],
      "name": "ERC721InvalidOwner",
      "type": "error"
    },
    {
      "inputs": [
        {
          "internalType": "address",
          "name": "receiver",
          "type": "address"
        }
      ],
      "name": "ERC721InvalidReceiver",
      "type": "error"
    },
    {
      "inputs": [
        {
          "internalType": "address",
          "name": "sender",
          "type": "address"
        }
      ],
      "name": "ERC721InvalidSender",
      "type": "error"
    },
    {
      "inputs": [
        {
          "internalType": "uint256",
          "name": "tokenId",
          "type": "uint256"
        }
      ],
      "name": "ERC721NonexistentToken",
      "type": "error"
    },
    {
      "inputs": [
        {
          "internalType": "address",
          "name": "owner",
          "type": "address"
        }
      ],
      "name": "OwnableInvalidOwner",
      "type": "error"
    },
    {
      "inputs": [
        {
          "internalType": "address",
          "name": "account",
          "type": "address"
        }
      ],
      "name": "OwnableUnauthorizedAccount",
      "type": "error"
    },
    {
      "anonymous": false,
      "inputs": [
        {
          "indexed": true,
          "internalType": "address",
          "name": "owner",
          "type": "address"
        },
        {
          "indexed": true,
          "internalType": "address",
          "name": "approved",
          "type": "address"
        },
        {
          "indexed": true,
          "internalType": "uint256",
          "name": "tokenId",
          "type": "uint256"
        }
      ],
      "name": "Approval",
      "type": "event"
    },
    {
      "anonymous": false,
      "inputs": [
        {
          "indexed": true,
          "internalType": "address",
          "name": "owner",
          "type": "address"
        },
        {
          "indexed": true,
          "internalType": "address",
          "name": "operator",
          "type": "address"
        },
        {
          "indexed": false,
          "internalType": "bool",
          "name": "approved",
          "type": "bool"
        }
      ],
      "name": "ApprovalForAll",
      "type": "event"
    },
    {
      "anonymous": false,
      "inputs": [
        {
          "indexed": true,
          "internalType": "address",
          "name": "previousOwner",
          "type": "address"
        },
        {
          "indexed": true,
          "internalType": "address",
          "name": "newOwner",
          "type": "address"
        }
      ],
      "name": "OwnershipTransferred",
      "type": "event"
    },
    {
      "anonymous": false,
      "inputs": [
        {
          "indexed": true,
          "internalType": "address",
          "name": "from",
          "type": "address"
        },
        {
          "indexed": true,
          "internalType": "address",
          "name": "to",
          "type": "address"
        },
        {
          "indexed": true,
          "internalType": "uint256",
          "name": "tokenId",
          "type": "uint256"
        }
      ],
      "name": "Transfer",
      "type": "event"
    },
    {
      "inputs": [
        {
          "internalType": "address",
          "name": "to",
          "type": "address"
        },
        {
          "internalType": "uint256",
          "name": "tokenId",
          "type": "uint256"
        }
      ],
      "name": "approve",
      "outputs": [],
      "stateMutability": "nonpayable",
      "type": "function"
    },
    {
      "inputs": [
        {
          "internalType": "address",
          "name": "owner",
          "type": "address"
        }
      ],
      "name": "balanceOf",
      "outputs": [
        {
          "internalType": "uint256",
          "name": "",
          "type": "uint256"
        }
      ],
      "stateMutability": "view",
      "type": "function"
    },
    {
      "inputs": [],
      "name": "baseTokenURI",
      "outputs": [
        {
          "internalType": "string",
          "name": "",
          "type": "string"
        }
      ],
      "stateMutability": "view",
      "type": "function"
    },
    {
      "inputs": [
        {
          "internalType": "uint256",
          "name": "tokenId",
          "type": "uint256"
        }
      ],
      "name": "getApproved",
      "outputs": [
        {
          "internalType": "address",
          "name": "",
          "type": "address"
        }
      ],
      "stateMutability": "view",
      "type": "function"
    },
    {
      "inputs": [
        {
          "internalType": "uint8",
          "name": "rarity",
          "type": "uint8"
        }
      ],
      "name": "getItemSlots",
      "outputs": [
        {
          "internalType": "uint8",
          "name": "",
          "type": "uint8"
        }
      ],
      "stateMutability": "pure",
      "type": "function"
    },
    {
      "inputs": [
        {
          "internalType": "uint8",
          "name": "rarity",
          "type": "uint8"
        }
      ],
      "name": "getSkillSlots",
      "outputs": [
        {
          "internalType": "uint8",
          "name": "",
          "type": "uint8"
        }
      ],
      "stateMutability": "pure",
      "type": "function"
    },
    {
      "inputs": [
        {
          "internalType": "address",
          "name": "owner",
          "type": "address"
        },
        {
          "internalType": "address",
          "name": "operator",
          "type": "address"
        }
      ],
      "name": "isApprovedForAll",
      "outputs": [
        {
          "internalType": "bool",
          "name": "",
          "type": "bool"
        }
      ],
      "stateMutability": "view",
      "type": "function"
    },
    {
      "inputs": [],
      "name": "name",
      "outputs": [
        {
          "internalType": "string",
          "name": "",
          "type": "string"
        }
      ],
      "stateMutability": "view",
      "type": "function"
    },
    {
      "inputs": [],
      "name": "nextTokenId",
      "outputs": [
        {
          "internalType": "uint256",
          "name": "",
          "type": "uint256"
        }
      ],
      "stateMutability": "view",
      "type": "function"
    },
    {
      "inputs": [],
      "name": "owner",
      "outputs": [
        {
          "internalType": "address",
          "name": "",
          "type": "address"
        }
      ],
      "stateMutability": "view",
      "type": "function"
    },
    {
      "inputs": [
        {
          "internalType": "uint256",
          "name": "tokenId",
          "type": "uint256"
        }
      ],
      "name": "ownerOf",
      "outputs": [
        {
          "internalType": "address",
          "name": "",
          "type": "address"
        }
      ],
      "stateMutability": "view",
      "type": "function"
    },
    {
      "inputs": [],
      "name": "renounceOwnership",
      "outputs": [],
      "stateMutability": "nonpayable",
      "type": "function"
    },
    {
      "inputs": [
        {
          "internalType": "address",
          "name": "to",
          "type": "address"
        },
        {
          "internalType": "uint8",
          "name": "rarity",
          "type": "uint8"
        }
      ],
      "name": "safeMint",
      "outputs": [
        {
          "internalType": "uint256",
          "name": "",
          "type": "uint256"
        }
      ],
      "stateMutability": "nonpayable",
      "type": "function"
    },
    {
      "inputs": [
        {
          "internalType": "address",
          "name": "from",
          "type": "address"
        },
        {
          "internalType": "address",
          "name": "to",
          "type": "address"
        },
        {
          "internalType": "uint256",
          "name": "tokenId",
          "type": "uint256"
        }
      ],
      "name": "safeTransferFrom",
      "outputs": [],
      "stateMutability": "nonpayable",
      "type": "function"
    },
    {
      "inputs": [
        {
          "internalType": "address",
          "name": "from",
          "type": "address"
        },
        {
          "internalType": "address",
          "name": "to",
          "type": "address"
        },
        {
          "internalType": "uint256",
          "name": "tokenId",
          "type": "uint256"
        },
        {
          "internalType": "bytes",
          "name": "data",
          "type": "bytes"
        }
      ],
      "name": "safeTransferFrom",
      "outputs": [],
      "stateMutability": "nonpayable",
      "type": "function"
    },
    {
      "inputs": [
        {
          "internalType": "address",
          "name": "operator",
          "type": "address"
        },
        {
          "internalType": "bool",
          "name": "approved",
          "type": "bool"
        }
      ],
      "name": "setApprovalForAll",
      "outputs": [],
      "stateMutability": "nonpayable",
      "type": "function"
    },
    {
      "inputs": [
        {
          "internalType": "string",
          "name": "_uri",
          "type": "string"
        }
      ],
      "name": "setBaseURI",
      "outputs": [],
      "stateMutability": "nonpayable",
      "type": "function"
    },
    {
      "inputs": [
        {
          "internalType": "bytes4",
          "name": "interfaceId",
          "type": "bytes4"
        }
      ],
      "name": "supportsInterface",
      "outputs": [
        {
          "internalType": "bool",
          "name": "",
          "type": "bool"
        }
      ],
      "stateMutability": "view",
      "type": "function"
    },
    {
      "inputs": [],
      "name": "symbol",
      "outputs": [
        {
          "internalType": "string",
          "name": "",
          "type": "string"
        }
      ],
      "stateMutability": "view",
      "type": "function"
    },
    {
      "inputs": [
        {
          "internalType": "uint256",
          "name": "",
          "type": "uint256"
        }
      ],
      "name": "tokenRarity",
      "outputs": [
        {
          "internalType": "uint8",
          "name": "",
          "type": "uint8"
        }
      ],
      "stateMutability": "view",
      "type": "function"
    },
    {
      "inputs": [
        {
          "internalType": "uint256",
          "name": "tokenId",
          "type": "uint256"
        }
      ],
      "name": "tokenURI",
      "outputs": [
        {
          "internalType": "string",
          "name": "",
          "type": "string"
        }
      ],
      "stateMutability": "view",
      "type": "function"
    },
    {
      "inputs": [
        {
          "internalType": "address",
          "name": "from",
          "type": "address"
        },
        {
          "internalType": "address",
          "name": "to",
          "type": "address"
        },
        {
          "internalType": "uint256",
          "name": "tokenId",
          "type": "uint256"
        }
      ],
      "name": "transferFrom",
      "outputs": [],
      "stateMutability": "nonpayable",
      "type": "function"
    },
    {
      "inputs": [
        {
          "internalType": "address",
          "name": "newOwner",
          "type": "address"
        }
      ],
      "name": "transferOwnership",
      "outputs": [],
      "stateMutability": "nonpayable",
      "type": "function"
    }
  ],
  "bytecode": "0x6080604052600060075534801561001557600080fd5b50604051613040380380613040833981810160405281019061003791906103f8565b816040518060400160405280600981526020017f466c617070796d6f6e00000000000000000000000000000000000000000000008152506040518060400160405280600481526020017f464c414d0000000000000000000000000000000000000000000000000000000081525081600090816100b39190610675565b5080600190816100c39190610675565b505050600073ffffffffffffffffffffffffffffffffffffffff168173ffffffffffffffffffffffffffffffffffffffff16036101385760006040517f1e4fbdf700000000000000000000000000000000000000000000000000000000815260040161012f9190610756565b60405180910390fd5b6101478161015f60201b60201c565b5080600890816101579190610675565b505050610771565b6000600660009054906101000a900473ffffffffffffffffffffffffffffffffffffffff16905081600660006101000a81548173ffffffffffffffffffffffffffffffffffffffff021916908373ffffffffffffffffffffffffffffffffffffffff1602179055508173ffffffffffffffffffffffffffffffffffffffff168173ffffffffffffffffffffffffffffffffffffffff167f8be0079c531659141344cd1fd0a4f28419497f9722a3daafe3b4186f6b6457e060405160405180910390a35050565b6000604051905090565b600080fd5b600080fd5b600073ffffffffffffffffffffffffffffffffffffffff82169050919050565b600061026482610239565b9050919050565b61027481610259565b811461027f57600080fd5b50565b6000815190506102918161026b565b92915050565b600080fd5b600080fd5b6000601f19601f8301169050919050565b7f4e487b7100000000000000000000000000000000000000000000000000000000600052604160045260246000fd5b6102ea826102a1565b810181811067ffffffffffffffff82111715610309576103086102b2565b5b80604052505050565b600061031c610225565b905061032882826102e1565b919050565b600067ffffffffffffffff821115610348576103476102b2565b5b610351826102a1565b9050602081019050919050565b60005b8381101561037c578082015181840152602081019050610361565b60008484015250505050565b600061039b6103968461032d565b610312565b9050828152602081018484840111156103b7576103b661029c565b5b6103c284828561035e565b509392505050565b600082601f8301126103df576103de610297565b5b81516103ef848260208601610388565b91505092915050565b6000806040838503121561040f5761040e61022f565b5b600061041d85828601610282565b925050602083015167ffffffffffffffff81111561043e5761043d610234565b5b61044a858286016103ca565b9150509250929050565b600081519050919050565b7f4e487b7100000000000000000000000000000000000000000000000000000000600052602260045260246000fd5b600060028204905060018216806104a657607f821691505b6020821081036104b9576104b861045f565b5b50919050565b60008190508160005260206000209050919050565b60006020601f8301049050919050565b600082821b905092915050565b6000600883026105217fffffffffffffffffffffffffffffffffffffffffffffffffffffffffffffffff826104e4565b61052b86836104e4565b95508019841693508086168417925050509392505050565b6000819050919050565b6000819050919050565b600061057261056d61056884610543565b61054d565b610543565b9050919050565b6000819050919050565b61058c83610557565b6105a061059882610579565b8484546104f1565b825550505050565b600090565b6105b56105a8565b6105c0818484610583565b505050565b5b818110156105e4576105d96000826105ad565b6001810190506105c6565b5050565b601f821115610629576105fa816104bf565b610603846104d4565b81016020851015610612578190505b61062661061e856104d4565b8301826105c5565b50505b505050565b600082821c905092915050565b600061064c6000198460080261062e565b1980831691505092915050565b6000610665838361063b565b9150826002028217905092915050565b61067e82610454565b67ffffffffffffffff811115610697576106966102b2565b5b6106a1825461048e565b6106ac8282856105e8565b600060209050601f8311600181146106df57600084156106cd578287015190505b6106d78582610659565b86555061073f565b601f1984166106ed866104bf565b60005b82811015610715578489015182556001820191506020850194506020810190506106f0565b86831015610732578489015161072e601f89168261063b565b8355505b6001600288020188555050505b505050505050565b61075081610259565b82525050565b600060208201905061076b6000830184610747565b92915050565b6128c0806107806000396000f3fe608060405234801561001057600080fd5b506004361061014d5760003560e01c806375794a3c116100c3578063afb0a3691161007c578063afb0a369146103b0578063b88d4fde146103e0578063c87b56dd146103fc578063d547cfb71461042c578063e985e9c51461044a578063f2fde38b1461047a5761014d565b806375794a3c146102da578063761c4c40146102f857806388f168f5146103285780638da5cb5b1461035857806395d89b4114610376578063a22cb465146103945761014d565b806323b872dd1161011557806323b872dd1461021c57806342842e0e1461023857806355f804b3146102545780636352211e1461027057806370a08231146102a0578063715018a6146102d05761014d565b806301ffc9a71461015257806306fdde0314610182578063081812fc146101a0578063095ea7b3146101d05780631eea7c48146101ec575b600080fd5b61016c60048036038101906101679190611c23565b610496565b6040516101799190611c6b565b60405180910390f35b61018a610578565b6040516101979190611d16565b60405180910390f35b6101ba60048036038101906101b59190611d6e565b61060a565b6040516101c79190611ddc565b60405180910390f35b6101ea60048036038101906101e59190611e23565b610626565b005b61020660048036038101906102019190611e9c565b61063c565b6040516102139190611ed8565b60405180910390f35b61023660048036038101906102319190611ef3565b610670565b005b610252600480360381019061024d9190611ef3565b610772565b005b61026e60048036038101906102699190611fab565b610792565b005b61028a60048036038101906102859190611d6e565b6107b0565b6040516102979190611ddc565b60405180910390f35b6102ba60048036038101906102b59190611ff8565b6107c2565b6040516102c79190612034565b60405180910390f35b6102d861087c565b005b6102e2610890565b6040516102ef9190612034565b60405180910390f35b610312600480360381019061030d919061204f565b610896565b60405161031f9190612034565b60405180910390f35b610342600480360381019061033d9190611e9c565b6108fb565b60405161034f9190611ed8565b60405180910390f35b61036061098c565b60405161036d9190611ddc565b60405180910390f35b61037e6109b6565b60405161038b9190611d16565b60405180910390f35b6103ae60048036038101906103a991906120bb565b610a48565b005b6103ca60048036038101906103c59190611d6e565b610a5e565b6040516103d79190611ed8565b60405180910390f35b6103fa60048036038101906103f5919061222b565b610a7e565b005b61041660048036038101906104119190611d6e565b610aa3565b6040516104239190611d16565b60405180910390f35b610434610b0c565b6040516104419190611d16565b60405180910390f35b610464600480360381019061045f91906122ae565b610b9a565b6040516104719190611c6b565b60405180910390f35b610494600480360381019061048f9190611ff8565b610c2e565b005b60007f80ac58cd000000000000000000000000000000000000000000000000000000007bffffffffffffffffffffffffffffffffffffffffffffffffffffffff1916827bffffffffffffffffffffffffffffffffffffffffffffffffffffffff1916148061056157507f5b5e139f000000000000000000000000000000000000000000000000000000007bffffffffffffffffffffffffffffffffffffffffffffffffffffffff1916827bffffffffffffffffffffffffffffffffffffffffffffffffffffffff1916145b80610571575061057082610cb4565b5b9050919050565b6060600080546105879061231d565b80601f01602080910402602001604051908101604052809291908181526020018280546105b39061231d565b80156106005780601f106105d557610100808354040283529160200191610600565b820191906000526020600020905b8154815290600101906020018083116105e357829003601f168201915b5050505050905090565b600061061582610d1e565b5061061f82610da6565b9050919050565b6106388282610633610de3565b610deb565b5050565b600060028260ff1603610652576001905061066b565b60038260ff1603610666576002905061066b565b600090505b919050565b600073ffffffffffffffffffffffffffffffffffffffff168273ffffffffffffffffffffffffffffffffffffffff16036106e25760006040517f64a0ae920000000000000000000000000000000000000000000000000000000081526004016106d99190611ddc565b60405180910390fd5b60006106f683836106f1610de3565b610dfd565b90508373ffffffffffffffffffffffffffffffffffffffff168173ffffffffffffffffffffffffffffffffffffffff161461076c578382826040517f64283d7b0000000000000000000000000000000000000000000000000000000081526004016107639392919061234e565b60405180910390fd5b50505050565b61078d83838360405180602001604052806000815250610a7e565b505050565b61079a611017565b8181600891826107ab92919061253c565b505050565b60006107bb82610d1e565b9050919050565b60008073ffffffffffffffffffffffffffffffffffffffff168273ffffffffffffffffffffffffffffffffffffffff16036108355760006040517f89c62b6400000000000000000000000000000000000000000000000000000000815260040161082c9190611ddc565b60405180910390fd5b600360008373ffffffffffffffffffffffffffffffffffffffff1673ffffffffffffffffffffffffffffffffffffffff168152602001908152602001600020549050919050565b610884611017565b61088e600061109e565b565b60075481565b60006108a0611017565b6000600760008154809291906108b59061263b565b9190505590506108c58482611164565b826009600083815260200190815260200160002060006101000a81548160ff021916908360ff1602179055508091505092915050565b6000808260ff16036109105760019050610987565b60018260ff16036109245760029050610987565b60028260ff16036109385760039050610987565b60038260ff160361094c5760049050610987565b6040517f08c379a000000000000000000000000000000000000000000000000000000000815260040161097e906126cf565b60405180910390fd5b919050565b6000600660009054906101000a900473ffffffffffffffffffffffffffffffffffffffff16905090565b6060600180546109c59061231d565b80601f01602080910402602001604051908101604052809291908181526020018280546109f19061231d565b8015610a3e5780601f10610a1357610100808354040283529160200191610a3e565b820191906000526020600020905b815481529060010190602001808311610a2157829003601f168201915b5050505050905090565b610a5a610a53610de3565b838361125d565b5050565b60096020528060005260406000206000915054906101000a900460ff1681565b610a89848484610670565b610a9d610a94610de3565b858585856113cc565b50505050565b6060610aae82610d1e565b506000610ab961157d565b90506000815111610ad95760405180602001604052806000815250610b04565b80610ae38461160f565b604051602001610af492919061272b565b6040516020818303038152906040525b915050919050565b60088054610b199061231d565b80601f0160208091040260200160405190810160405280929190818152602001828054610b459061231d565b8015610b925780601f10610b6757610100808354040283529160200191610b92565b820191906000526020600020905b815481529060010190602001808311610b7557829003601f168201915b505050505081565b6000600560008473ffffffffffffffffffffffffffffffffffffffff1673ffffffffffffffffffffffffffffffffffffffff16815260200190815260200160002060008373ffffffffffffffffffffffffffffffffffffffff1673ffffffffffffffffffffffffffffffffffffffff16815260200190815260200160002060009054906101000a900460ff16905092915050565b610c36611017565b600073ffffffffffffffffffffffffffffffffffffffff168173ffffffffffffffffffffffffffffffffffffffff1603610ca85760006040517f1e4fbdf7000000000000000000000000000000000000000000000000000000008152600401610c9f9190611ddc565b60405180910390fd5b610cb18161109e565b50565b60007f01ffc9a7000000000000000000000000000000000000000000000000000000007bffffffffffffffffffffffffffffffffffffffffffffffffffffffff1916827bffffffffffffffffffffffffffffffffffffffffffffffffffffffff1916149050919050565b600080610d2a836116dd565b9050600073ffffffffffffffffffffffffffffffffffffffff168173ffffffffffffffffffffffffffffffffffffffff1603610d9d57826040517f7e273289000000000000000000000000000000000000000000000000000000008152600401610d949190612034565b60405180910390fd5b80915050919050565b60006004600083815260200190815260200160002060009054906101000a900473ffffffffffffffffffffffffffffffffffffffff169050919050565b600033905090565b610df8838383600161171a565b505050565b600080610e09846116dd565b9050600073ffffffffffffffffffffffffffffffffffffffff168373ffffffffffffffffffffffffffffffffffffffff1614610e4b57610e4a8184866118df565b5b600073ffffffffffffffffffffffffffffffffffffffff168173ffffffffffffffffffffffffffffffffffffffff1614610edc57610e8d60008560008061171a565b6001600360008373ffffffffffffffffffffffffffffffffffffffff1673ffffffffffffffffffffffffffffffffffffffff168152602001908152602001600020600082825403925050819055505b600073ffffffffffffffffffffffffffffffffffffffff168573ffffffffffffffffffffffffffffffffffffffff1614610f5f576001600360008773ffffffffffffffffffffffffffffffffffffffff1673ffffffffffffffffffffffffffffffffffffffff168152602001908152602001600020600082825401925050819055505b846002600086815260200190815260200160002060006101000a81548173ffffffffffffffffffffffffffffffffffffffff021916908373ffffffffffffffffffffffffffffffffffffffff160217905550838573ffffffffffffffffffffffffffffffffffffffff168273ffffffffffffffffffffffffffffffffffffffff167fddf252ad1be2c89b69c2b068fc378daa952ba7f163c4a11628f55a4df523b3ef60405160405180910390a4809150509392505050565b61101f610de3565b73ffffffffffffffffffffffffffffffffffffffff1661103d61098c565b73ffffffffffffffffffffffffffffffffffffffff161461109c57611060610de3565b6040517f118cdaa70000000000000000000000000000000000000000000000000000000081526004016110939190611ddc565b60405180910390fd5b565b6000600660009054906101000a900473ffffffffffffffffffffffffffffffffffffffff16905081600660006101000a81548173ffffffffffffffffffffffffffffffffffffffff021916908373ffffffffffffffffffffffffffffffffffffffff1602179055508173ffffffffffffffffffffffffffffffffffffffff168173ffffffffffffffffffffffffffffffffffffffff167f8be0079c531659141344cd1fd0a4f28419497f9722a3daafe3b4186f6b6457e060405160405180910390a35050565b600073ffffffffffffffffffffffffffffffffffffffff168273ffffffffffffffffffffffffffffffffffffffff16036111d65760006040517f64a0ae920000000000000000000000000000000000000000000000000000000081526004016111cd9190611ddc565b60405180910390fd5b60006111e483836000610dfd565b9050600073ffffffffffffffffffffffffffffffffffffffff168173ffffffffffffffffffffffffffffffffffffffff16146112585760006040517f73c6ac6e00000000000000000000000000000000000000000000000000000000815260040161124f9190611ddc565b60405180910390fd5b505050565b600073ffffffffffffffffffffffffffffffffffffffff168273ffffffffffffffffffffffffffffffffffffffff16036112ce57816040517f5b08ba180000000000000000000000000000000000000000000000000000000081526004016112c59190611ddc565b60405180910390fd5b80600560008573ffffffffffffffffffffffffffffffffffffffff1673ffffffffffffffffffffffffffffffffffffffff16815260200190815260200160002060008473ffffffffffffffffffffffffffffffffffffffff1673ffffffffffffffffffffffffffffffffffffffff16815260200190815260200160002060006101000a81548160ff0219169083151502179055508173ffffffffffffffffffffffffffffffffffffffff168373ffffffffffffffffffffffffffffffffffffffff167f17307eab39ab6107e8899845ad3d59bd9653f200f220920489ca2b5937696c31836040516113bf9190611c6b565b60405180910390a3505050565b60008373ffffffffffffffffffffffffffffffffffffffff163b1115611576578273ffffffffffffffffffffffffffffffffffffffff1663150b7a02868685856040518563ffffffff1660e01b815260040161142b94939291906127a4565b6020604051808303816000875af192505050801561146757506040513d601f19601f820116820180604052508101906114649190612805565b60015b6114eb573d8060008114611497576040519150601f19603f3d011682016040523d82523d6000602084013e61149c565b606091505b5060008151036114e357836040517f64a0ae920000000000000000000000000000000000000000000000000000000081526004016114da9190611ddc565b60405180910390fd5b805181602001fd5b63150b7a0260e01b7bffffffffffffffffffffffffffffffffffffffffffffffffffffffff1916817bffffffffffffffffffffffffffffffffffffffffffffffffffffffff19161461157457836040517f64a0ae9200000000000000000000000000000000000000000000000000000000815260040161156b9190611ddc565b60405180910390fd5b505b5050505050565b60606008805461158c9061231d565b80601f01602080910402602001604051908101604052809291908181526020018280546115b89061231d565b80156116055780601f106115da57610100808354040283529160200191611605565b820191906000526020600020905b8154815290600101906020018083116115e857829003601f168201915b5050505050905090565b60606000600161161e846119a3565b01905060008167ffffffffffffffff81111561163d5761163c612100565b5b6040519080825280601f01601f19166020018201604052801561166f5781602001600182028036833780820191505090505b509050600082602001820190505b6001156116d2578080600190039150507f3031323334353637383961626364656600000000000000000000000000000000600a86061a8153600a85816116c6576116c5612832565b5b0494506000850361167d575b819350505050919050565b60006002600083815260200190815260200160002060009054906101000a900473ffffffffffffffffffffffffffffffffffffffff169050919050565b80806117535750600073ffffffffffffffffffffffffffffffffffffffff168273ffffffffffffffffffffffffffffffffffffffff1614155b1561188757600061176384610d1e565b9050600073ffffffffffffffffffffffffffffffffffffffff168373ffffffffffffffffffffffffffffffffffffffff16141580156117ce57508273ffffffffffffffffffffffffffffffffffffffff168173ffffffffffffffffffffffffffffffffffffffff1614155b80156117e157506117df8184610b9a565b155b1561182357826040517fa9fbf51f00000000000000000000000000000000000000000000000000000000815260040161181a9190611ddc565b60405180910390fd5b811561188557838573ffffffffffffffffffffffffffffffffffffffff168273ffffffffffffffffffffffffffffffffffffffff167f8c5be1e5ebec7d5bd14f71427d1e84f3dd0314c0f7b2291e5b200ac8c7c3b92560405160405180910390a45b505b836004600085815260200190815260200160002060006101000a81548173ffffffffffffffffffffffffffffffffffffffff021916908373ffffffffffffffffffffffffffffffffffffffff16021790555050505050565b6118ea838383611af6565b61199e57600073ffffffffffffffffffffffffffffffffffffffff168373ffffffffffffffffffffffffffffffffffffffff160361195f57806040517f7e2732890000000000000000000000000000000000000000000000000000000081526004016119569190612034565b60405180910390fd5b81816040517f177e802f000000000000000000000000000000000000000000000000000000008152600401611995929190612861565b60405180910390fd5b505050565b600080600090507a184f03e93ff9f4daa797ed6e38ed64bf6a1f0100000000000000008310611a01577a184f03e93ff9f4daa797ed6e38ed64bf6a1f01000000000000000083816119f7576119f6612832565b5b0492506040810190505b6d04ee2d6d415b85acef81000000008310611a3e576d04ee2d6d415b85acef81000000008381611a3457611a33612832565b5b0492506020810190505b662386f26fc100008310611a6d57662386f26fc100008381611a6357611a62612832565b5b0492506010810190505b6305f5e1008310611a96576305f5e1008381611a8c57611a8b612832565b5b0492506008810190505b6127108310611abb576127108381611ab157611ab0612832565b5b0492506004810190505b60648310611ade5760648381611ad457611ad3612832565b5b0492506002810190505b600a8310611aed576001810190505b80915050919050565b60008073ffffffffffffffffffffffffffffffffffffffff168373ffffffffffffffffffffffffffffffffffffffff1614158015611bae57508273ffffffffffffffffffffffffffffffffffffffff168473ffffffffffffffffffffffffffffffffffffffff161480611b6f5750611b6e8484610b9a565b5b80611bad57508273ffffffffffffffffffffffffffffffffffffffff16611b9583610da6565b73ffffffffffffffffffffffffffffffffffffffff16145b5b90509392505050565b6000604051905090565b600080fd5b600080fd5b60007fffffffff0000000000000000000000000000000000000000000000000000000082169050919050565b611c0081611bcb565b8114611c0b57600080fd5b50565b600081359050611c1d81611bf7565b92915050565b600060208284031215611c3957611c38611bc1565b5b6000611c4784828501611c0e565b91505092915050565b60008115159050919050565b611c6581611c50565b82525050565b6000602082019050611c806000830184611c5c565b92915050565b600081519050919050565b600082825260208201905092915050565b60005b83811015611cc0578082015181840152602081019050611ca5565b60008484015250505050565b6000601f19601f8301169050919050565b6000611ce882611c86565b611cf28185611c91565b9350611d02818560208601611ca2565b611d0b81611ccc565b840191505092915050565b60006020820190508181036000830152611d308184611cdd565b905092915050565b6000819050919050565b611d4b81611d38565b8114611d5657600080fd5b50565b600081359050611d6881611d42565b92915050565b600060208284031215611d8457611d83611bc1565b5b6000611d9284828501611d59565b91505092915050565b600073ffffffffffffffffffffffffffffffffffffffff82169050919050565b6000611dc682611d9b565b9050919050565b611dd681611dbb565b82525050565b6000602082019050611df16000830184611dcd565b92915050565b611e0081611dbb565b8114611e0b57600080fd5b50565b600081359050611e1d81611df7565b92915050565b60008060408385031215611e3a57611e39611bc1565b5b6000611e4885828601611e0e565b9250506020611e5985828601611d59565b9150509250929050565b600060ff82169050919050565b611e7981611e63565b8114611e8457600080fd5b50565b600081359050611e9681611e70565b92915050565b600060208284031215611eb257611eb1611bc1565b5b6000611ec084828501611e87565b91505092915050565b611ed281611e63565b82525050565b6000602082019050611eed6000830184611ec9565b92915050565b600080600060608486031215611f0c57611f0b611bc1565b5b6000611f1a86828701611e0e565b9350506020611f2b86828701611e0e565b9250506040611f3c86828701611d59565b9150509250925092565b600080fd5b600080fd5b600080fd5b60008083601f840112611f6b57611f6a611f46565b5b8235905067ffffffffffffffff811115611f8857611f87611f4b565b5b602083019150836001820283011115611fa457611fa3611f50565b5b9250929050565b60008060208385031215611fc257611fc1611bc1565b5b600083013567ffffffffffffffff811115611fe057611fdf611bc6565b5b611fec85828601611f55565b92509250509250929050565b60006020828403121561200e5761200d611bc1565b5b600061201c84828501611e0e565b91505092915050565b61202e81611d38565b82525050565b60006020820190506120496000830184612025565b92915050565b6000806040838503121561206657612065611bc1565b5b600061207485828601611e0e565b925050602061208585828601611e87565b9150509250929050565b61209881611c50565b81146120a357600080fd5b50565b6000813590506120b58161208f565b92915050565b600080604083850312156120d2576120d1611bc1565b5b60006120e085828601611e0e565b92505060206120f1858286016120a6565b9150509250929050565b600080fd5b7f4e487b7100000000000000000000000000000000000000000000000000000000600052604160045260246000fd5b61213882611ccc565b810181811067ffffffffffffffff8211171561215757612156612100565b5b80604052505050565b600061216a611bb7565b9050612176828261212f565b919050565b600067ffffffffffffffff82111561219657612195612100565b5b61219f82611ccc565b9050602081019050919050565b82818337600083830152505050565b60006121ce6121c98461217b565b612160565b9050828152602081018484840111156121ea576121e96120fb565b5b6121f58482856121ac565b509392505050565b600082601f83011261221257612211611f46565b5b81356122228482602086016121bb565b91505092915050565b6000806000806080858703121561224557612244611bc1565b5b600061225387828801611e0e565b945050602061226487828801611e0e565b935050604061227587828801611d59565b925050606085013567ffffffffffffffff81111561229657612295611bc6565b5b6122a2878288016121fd565b91505092959194509250565b600080604083850312156122c5576122c4611bc1565b5b60006122d385828601611e0e565b92505060206122e485828601611e0e565b9150509250929050565b7f4e487b7100000000000000000000000000000000000000000000000000000000600052602260045260246000fd5b6000600282049050600182168061233557607f821691505b602082108103612348576123476122ee565b5b50919050565b60006060820190506123636000830186611dcd565b6123706020830185612025565b61237d6040830184611dcd565b949350505050565b600082905092915050565b60008190508160005260206000209050919050565b60006020601f8301049050919050565b600082821b905092915050565b6000600883026123f27fffffffffffffffffffffffffffffffffffffffffffffffffffffffffffffffff826123b5565b6123fc86836123b5565b95508019841693508086168417925050509392505050565b6000819050919050565b600061243961243461242f84611d38565b612414565b611d38565b9050919050565b6000819050919050565b6124538361241e565b61246761245f82612440565b8484546123c2565b825550505050565b600090565b61247c61246f565b61248781848461244a565b505050565b5b818110156124ab576124a0600082612474565b60018101905061248d565b5050565b601f8211156124f0576124c181612390565b6124ca846123a5565b810160208510156124d9578190505b6124ed6124e5856123a5565b83018261248c565b50505b505050565b600082821c905092915050565b6000612513600019846008026124f5565b1980831691505092915050565b600061252c8383612502565b9150826002028217905092915050565b6125468383612385565b67ffffffffffffffff81111561255f5761255e612100565b5b612569825461231d565b6125748282856124af565b6000601f8311600181146125a35760008415612591578287013590505b61259b8582612520565b865550612603565b601f1984166125b186612390565b60005b828110156125d9578489013582556001820191506020850194506020810190506125b4565b868310156125f657848901356125f2601f891682612502565b8355505b6001600288020188555050505b50505050505050565b7f4e487b7100000000000000000000000000000000000000000000000000000000600052601160045260246000fd5b600061264682611d38565b91507fffffffffffffffffffffffffffffffffffffffffffffffffffffffffffffffff82036126785761267761260c565b5b600182019050919050565b7f496e76616c696420726172697479000000000000000000000000000000000000600082015250565b60006126b9600e83611c91565b91506126c482612683565b602082019050919050565b600060208201905081810360008301526126e8816126ac565b9050919050565b600081905092915050565b600061270582611c86565b61270f81856126ef565b935061271f818560208601611ca2565b80840191505092915050565b600061273782856126fa565b915061274382846126fa565b91508190509392505050565b600081519050919050565b600082825260208201905092915050565b60006127768261274f565b612780818561275a565b9350612790818560208601611ca2565b61279981611ccc565b840191505092915050565b60006080820190506127b96000830187611dcd565b6127c66020830186611dcd565b6127d36040830185612025565b81810360608301526127e5818461276b565b905095945050505050565b6000815190506127ff81611bf7565b92915050565b60006020828403121561281b5761281a611bc1565b5b6000612829848285016127f0565b91505092915050565b7f4e487b7100000000000000000000000000000000000000000000000000000000600052601260045260246000fd5b60006040820190506128766000830185611dcd565b6128836020830184612025565b939250505056fea264697066735822122073f636b85e0eec8382b5e3d4d521dab6160217b9d38e66b36d79618d5e8053e664736f6c634300081c0033",
  "linkReferences": {},
  "deployedLinkReferences": {}
}