{
  "_format": "hh-sol-artifact-1",
  "contractName": "Flappymon",
  "sourceName": "contracts/Flappymon.sol",
  "abi": [
    {
      "inputs": [
        {
          "internalType": "address",
          "name": "initialOwner",
          "type": "address"
        }
      ],
      "stateMutability": "nonpayable",
      "type": "constructor"
    },
    {
      "inputs": [
        {
          "internalType": "address",
          "name": "sender",
          "type": "address"
        },
        {
          "internalType": "uint256",
          "name": "tokenId",
          "type": "uint256"
        },
        {
          "internalType": "address",
          "name": "owner",
          "type": "address"
        }
      ],
      "name": "ERC721IncorrectOwner",
      "type": "error"
    },
    {
      "inputs": [
        {
          "internalType": "address",
          "name": "operator",
          "type": "address"
        },
        {
          "internalType": "uint256",
          "name": "tokenId",
          "type": "uint256"
        }
      ],
      "name": "ERC721InsufficientApproval",
      "type": "error"
    },
    {
      "inputs": [
        {
          "internalType": "address",
          "name": "approver",
          "type": "address"
        }
      ],
      "name": "ERC721InvalidApprover",
      "type": "error"
    },
    {
      "inputs": [
        {
          "internalType": "address",
          "name": "operator",
          "type": "address"
        }
      ],
      "name": "ERC721InvalidOperator",
      "type": "error"
    },
    {
      "inputs": [
        {
          "internalType": "address",
          "name": "owner",
          "type": "address"
        }
      ],
      "name": "ERC721InvalidOwner",
      "type": "error"
    },
    {
      "inputs": [
        {
          "internalType": "address",
          "name": "receiver",
          "type": "address"
        }
      ],
      "name": "ERC721InvalidReceiver",
      "type": "error"
    },
    {
      "inputs": [
        {
          "internalType": "address",
          "name": "sender",
          "type": "address"
        }
      ],
      "name": "ERC721InvalidSender",
      "type": "error"
    },
    {
      "inputs": [
        {
          "internalType": "uint256",
          "name": "tokenId",
          "type": "uint256"
        }
      ],
      "name": "ERC721NonexistentToken",
      "type": "error"
    },
    {
      "inputs": [
        {
          "internalType": "address",
          "name": "owner",
          "type": "address"
        }
      ],
      "name": "OwnableInvalidOwner",
      "type": "error"
    },
    {
      "inputs": [
        {
          "internalType": "address",
          "name": "account",
          "type": "address"
        }
      ],
      "name": "OwnableUnauthorizedAccount",
      "type": "error"
    },
    {
      "anonymous": false,
      "inputs": [
        {
          "indexed": true,
          "internalType": "address",
          "name": "owner",
          "type": "address"
        },
        {
          "indexed": true,
          "internalType": "address",
          "name": "approved",
          "type": "address"
        },
        {
          "indexed": true,
          "internalType": "uint256",
          "name": "tokenId",
          "type": "uint256"
        }
      ],
      "name": "Approval",
      "type": "event"
    },
    {
      "anonymous": false,
      "inputs": [
        {
          "indexed": true,
          "internalType": "address",
          "name": "owner",
          "type": "address"
        },
        {
          "indexed": true,
          "internalType": "address",
          "name": "operator",
          "type": "address"
        },
        {
          "indexed": false,
          "internalType": "bool",
          "name": "approved",
          "type": "bool"
        }
      ],
      "name": "ApprovalForAll",
      "type": "event"
    },
    {
      "anonymous": false,
      "inputs": [
        {
          "indexed": false,
          "internalType": "uint256",
          "name": "_fromTokenId",
          "type": "uint256"
        },
        {
          "indexed": false,
          "internalType": "uint256",
          "name": "_toTokenId",
          "type": "uint256"
        }
      ],
      "name": "BatchMetadataUpdate",
      "type": "event"
    },
    {
      "anonymous": false,
      "inputs": [
        {
          "indexed": false,
          "internalType": "uint256",
          "name": "_tokenId",
          "type": "uint256"
        }
      ],
      "name": "MetadataUpdate",
      "type": "event"
    },
    {
      "anonymous": false,
      "inputs": [
        {
          "indexed": true,
          "internalType": "address",
          "name": "previousOwner",
          "type": "address"
        },
        {
          "indexed": true,
          "internalType": "address",
          "name": "newOwner",
          "type": "address"
        }
      ],
      "name": "OwnershipTransferred",
      "type": "event"
    },
    {
      "anonymous": false,
      "inputs": [
        {
          "indexed": true,
          "internalType": "address",
          "name": "from",
          "type": "address"
        },
        {
          "indexed": true,
          "internalType": "address",
          "name": "to",
          "type": "address"
        },
        {
          "indexed": true,
          "internalType": "uint256",
          "name": "tokenId",
          "type": "uint256"
        }
      ],
      "name": "Transfer",
      "type": "event"
    },
    {
      "inputs": [
        {
          "internalType": "address",
          "name": "to",
          "type": "address"
        },
        {
          "internalType": "uint256",
          "name": "tokenId",
          "type": "uint256"
        }
      ],
      "name": "approve",
      "outputs": [],
      "stateMutability": "nonpayable",
      "type": "function"
    },
    {
      "inputs": [
        {
          "internalType": "address",
          "name": "owner",
          "type": "address"
        }
      ],
      "name": "balanceOf",
      "outputs": [
        {
          "internalType": "uint256",
          "name": "",
          "type": "uint256"
        }
      ],
      "stateMutability": "view",
      "type": "function"
    },
    {
      "inputs": [
        {
          "internalType": "uint256",
          "name": "tokenId",
          "type": "uint256"
        }
      ],
      "name": "getApproved",
      "outputs": [
        {
          "internalType": "address",
          "name": "",
          "type": "address"
        }
      ],
      "stateMutability": "view",
      "type": "function"
    },
    {
      "inputs": [
        {
          "internalType": "uint256",
          "name": "tokenId",
          "type": "uint256"
        }
      ],
      "name": "getItemSlots",
      "outputs": [
        {
          "internalType": "uint8",
          "name": "",
          "type": "uint8"
        }
      ],
      "stateMutability": "view",
      "type": "function"
    },
    {
      "inputs": [
        {
          "internalType": "uint256",
          "name": "tokenId",
          "type": "uint256"
        }
      ],
      "name": "getSkillSlots",
      "outputs": [
        {
          "internalType": "uint8",
          "name": "",
          "type": "uint8"
        }
      ],
      "stateMutability": "view",
      "type": "function"
    },
    {
      "inputs": [
        {
          "internalType": "address",
          "name": "owner",
          "type": "address"
        },
        {
          "internalType": "address",
          "name": "operator",
          "type": "address"
        }
      ],
      "name": "isApprovedForAll",
      "outputs": [
        {
          "internalType": "bool",
          "name": "",
          "type": "bool"
        }
      ],
      "stateMutability": "view",
      "type": "function"
    },
    {
      "inputs": [],
      "name": "minter",
      "outputs": [
        {
          "internalType": "address",
          "name": "",
          "type": "address"
        }
      ],
      "stateMutability": "view",
      "type": "function"
    },
    {
      "inputs": [],
      "name": "name",
      "outputs": [
        {
          "internalType": "string",
          "name": "",
          "type": "string"
        }
      ],
      "stateMutability": "view",
      "type": "function"
    },
    {
      "inputs": [],
      "name": "nextTokenId",
      "outputs": [
        {
          "internalType": "uint256",
          "name": "",
          "type": "uint256"
        }
      ],
      "stateMutability": "view",
      "type": "function"
    },
    {
      "inputs": [],
      "name": "owner",
      "outputs": [
        {
          "internalType": "address",
          "name": "",
          "type": "address"
        }
      ],
      "stateMutability": "view",
      "type": "function"
    },
    {
      "inputs": [
        {
          "internalType": "uint256",
          "name": "tokenId",
          "type": "uint256"
        }
      ],
      "name": "ownerOf",
      "outputs": [
        {
          "internalType": "address",
          "name": "",
          "type": "address"
        }
      ],
      "stateMutability": "view",
      "type": "function"
    },
    {
      "inputs": [],
      "name": "renounceOwnership",
      "outputs": [],
      "stateMutability": "nonpayable",
      "type": "function"
    },
    {
      "inputs": [
        {
          "internalType": "address",
          "name": "to",
          "type": "address"
        },
        {
          "internalType": "enum Flappymon.Rarity",
          "name": "rarity",
          "type": "uint8"
        },
        {
          "internalType": "string",
          "name": "uri",
          "type": "string"
        }
      ],
      "name": "safeMint",
      "outputs": [],
      "stateMutability": "nonpayable",
      "type": "function"
    },
    {
      "inputs": [
        {
          "internalType": "address",
          "name": "from",
          "type": "address"
        },
        {
          "internalType": "address",
          "name": "to",
          "type": "address"
        },
        {
          "internalType": "uint256",
          "name": "tokenId",
          "type": "uint256"
        }
      ],
      "name": "safeTransferFrom",
      "outputs": [],
      "stateMutability": "nonpayable",
      "type": "function"
    },
    {
      "inputs": [
        {
          "internalType": "address",
          "name": "from",
          "type": "address"
        },
        {
          "internalType": "address",
          "name": "to",
          "type": "address"
        },
        {
          "internalType": "uint256",
          "name": "tokenId",
          "type": "uint256"
        },
        {
          "internalType": "bytes",
          "name": "data",
          "type": "bytes"
        }
      ],
      "name": "safeTransferFrom",
      "outputs": [],
      "stateMutability": "nonpayable",
      "type": "function"
    },
    {
      "inputs": [
        {
          "internalType": "address",
          "name": "operator",
          "type": "address"
        },
        {
          "internalType": "bool",
          "name": "approved",
          "type": "bool"
        }
      ],
      "name": "setApprovalForAll",
      "outputs": [],
      "stateMutability": "nonpayable",
      "type": "function"
    },
    {
      "inputs": [
        {
          "internalType": "address",
          "name": "_minter",
          "type": "address"
        }
      ],
      "name": "setMinter",
      "outputs": [],
      "stateMutability": "nonpayable",
      "type": "function"
    },
    {
      "inputs": [
        {
          "internalType": "bytes4",
          "name": "interfaceId",
          "type": "bytes4"
        }
      ],
      "name": "supportsInterface",
      "outputs": [
        {
          "internalType": "bool",
          "name": "",
          "type": "bool"
        }
      ],
      "stateMutability": "view",
      "type": "function"
    },
    {
      "inputs": [],
      "name": "symbol",
      "outputs": [
        {
          "internalType": "string",
          "name": "",
          "type": "string"
        }
      ],
      "stateMutability": "view",
      "type": "function"
    },
    {
      "inputs": [
        {
          "internalType": "uint256",
          "name": "",
          "type": "uint256"
        }
      ],
      "name": "tokenRarity",
      "outputs": [
        {
          "internalType": "enum Flappymon.Rarity",
          "name": "",
          "type": "uint8"
        }
      ],
      "stateMutability": "view",
      "type": "function"
    },
    {
      "inputs": [
        {
          "internalType": "uint256",
          "name": "tokenId",
          "type": "uint256"
        }
      ],
      "name": "tokenURI",
      "outputs": [
        {
          "internalType": "string",
          "name": "",
          "type": "string"
        }
      ],
      "stateMutability": "view",
      "type": "function"
    },
    {
      "inputs": [
        {
          "internalType": "address",
          "name": "from",
          "type": "address"
        },
        {
          "internalType": "address",
          "name": "to",
          "type": "address"
        },
        {
          "internalType": "uint256",
          "name": "tokenId",
          "type": "uint256"
        }
      ],
      "name": "transferFrom",
      "outputs": [],
      "stateMutability": "nonpayable",
      "type": "function"
    },
    {
      "inputs": [
        {
          "internalType": "address",
          "name": "newOwner",
          "type": "address"
        }
      ],
      "name": "transferOwnership",
      "outputs": [],
      "stateMutability": "nonpayable",
      "type": "function"
    }
  ],
  "bytecode": "0x608060405234801561001057600080fd5b506040516132ba3803806132ba83398181016040528101906100329190610272565b806040518060400160405280600981526020017f466c617070796d6f6e00000000000000000000000000000000000000000000008152506040518060400160405280600481526020017f464c414d0000000000000000000000000000000000000000000000000000000081525081600090816100ae91906104ef565b5080600190816100be91906104ef565b505050600073ffffffffffffffffffffffffffffffffffffffff168173ffffffffffffffffffffffffffffffffffffffff16036101335760006040517f1e4fbdf700000000000000000000000000000000000000000000000000000000815260040161012a91906105d0565b60405180910390fd5b6101428161014960201b60201c565b50506105eb565b6000600760009054906101000a900473ffffffffffffffffffffffffffffffffffffffff16905081600760006101000a81548173ffffffffffffffffffffffffffffffffffffffff021916908373ffffffffffffffffffffffffffffffffffffffff1602179055508173ffffffffffffffffffffffffffffffffffffffff168173ffffffffffffffffffffffffffffffffffffffff167f8be0079c531659141344cd1fd0a4f28419497f9722a3daafe3b4186f6b6457e060405160405180910390a35050565b600080fd5b600073ffffffffffffffffffffffffffffffffffffffff82169050919050565b600061023f82610214565b9050919050565b61024f81610234565b811461025a57600080fd5b50565b60008151905061026c81610246565b92915050565b6000602082840312156102885761028761020f565b5b60006102968482850161025d565b91505092915050565b600081519050919050565b7f4e487b7100000000000000000000000000000000000000000000000000000000600052604160045260246000fd5b7f4e487b7100000000000000000000000000000000000000000000000000000000600052602260045260246000fd5b6000600282049050600182168061032057607f821691505b602082108103610333576103326102d9565b5b50919050565b60008190508160005260206000209050919050565b60006020601f8301049050919050565b600082821b905092915050565b60006008830261039b7fffffffffffffffffffffffffffffffffffffffffffffffffffffffffffffffff8261035e565b6103a5868361035e565b95508019841693508086168417925050509392505050565b6000819050919050565b6000819050919050565b60006103ec6103e76103e2846103bd565b6103c7565b6103bd565b9050919050565b6000819050919050565b610406836103d1565b61041a610412826103f3565b84845461036b565b825550505050565b600090565b61042f610422565b61043a8184846103fd565b505050565b5b8181101561045e57610453600082610427565b600181019050610440565b5050565b601f8211156104a35761047481610339565b61047d8461034e565b8101602085101561048c578190505b6104a06104988561034e565b83018261043f565b50505b505050565b600082821c905092915050565b60006104c6600019846008026104a8565b1980831691505092915050565b60006104df83836104b5565b9150826002028217905092915050565b6104f88261029f565b67ffffffffffffffff811115610511576105106102aa565b5b61051b8254610308565b610526828285610462565b600060209050601f8311600181146105595760008415610547578287015190505b61055185826104d3565b8655506105b9565b601f19841661056786610339565b60005b8281101561058f5784890151825560018201915060208501945060208101905061056a565b868310156105ac57848901516105a8601f8916826104b5565b8355505b6001600288020188555050505b505050505050565b6105ca81610234565b82525050565b60006020820190506105e560008301846105c1565b92915050565b612cc0806105fa6000396000f3fe608060405234801561001057600080fd5b506004361061014d5760003560e01c8063715018a6116100c3578063b88d4fde1161007c578063b88d4fde1461039e578063c87b56dd146103ba578063e985e9c5146103ea578063ed7b87911461041a578063f2fde38b1461044a578063fca3b5aa146104665761014d565b8063715018a6146102ee57806375794a3c146102f85780638da5cb5b1461031657806395d89b4114610334578063a22cb46514610352578063afb0a3691461036e5761014d565b8063095ea7b311610115578063095ea7b31461020a57806323b872dd146102265780633483a05f1461024257806342842e0e146102725780636352211e1461028e57806370a08231146102be5761014d565b806301ffc9a71461015257806302e8a3371461018257806306fdde031461019e57806307546172146101bc578063081812fc146101da575b600080fd5b61016c60048036038101906101679190611f3f565b610482565b6040516101799190611f87565b60405180910390f35b61019c6004803603810190610197919061216b565b610494565b005b6101a6610594565b6040516101b39190612259565b60405180910390f35b6101c4610626565b6040516101d1919061228a565b60405180910390f35b6101f460048036038101906101ef91906122db565b61064c565b604051610201919061228a565b60405180910390f35b610224600480360381019061021f9190612308565b610668565b005b610240600480360381019061023b9190612348565b61067e565b005b61025c600480360381019061025791906122db565b610780565b60405161026991906123b7565b60405180910390f35b61028c60048036038101906102879190612348565b6108bd565b005b6102a860048036038101906102a391906122db565b6108dd565b6040516102b5919061228a565b60405180910390f35b6102d860048036038101906102d391906123d2565b6108ef565b6040516102e5919061240e565b60405180910390f35b6102f66109a9565b005b6103006109bd565b60405161030d919061240e565b60405180910390f35b61031e6109c3565b60405161032b919061228a565b60405180910390f35b61033c6109ed565b6040516103499190612259565b60405180910390f35b61036c60048036038101906103679190612455565b610a7f565b005b610388600480360381019061038391906122db565b610a95565b604051610395919061250c565b60405180910390f35b6103b860048036038101906103b391906125c8565b610ab5565b005b6103d460048036038101906103cf91906122db565b610ada565b6040516103e19190612259565b60405180910390f35b61040460048036038101906103ff919061264b565b610aec565b6040516104119190611f87565b60405180910390f35b610434600480360381019061042f91906122db565b610b80565b60405161044191906123b7565b60405180910390f35b610464600480360381019061045f91906123d2565b610c1c565b005b610480600480360381019061047b91906123d2565b610ca2565b005b600061048d82610cee565b9050919050565b600a60009054906101000a900473ffffffffffffffffffffffffffffffffffffffff1673ffffffffffffffffffffffffffffffffffffffff163373ffffffffffffffffffffffffffffffffffffffff1614610524576040517f08c379a000000000000000000000000000000000000000000000000000000000815260040161051b906126d7565b60405180910390fd5b60006008600081548092919061053990612726565b9190505590506105498482610d4f565b6105538183610d6d565b826009600083815260200190815260200160002060006101000a81548160ff0219169083600381111561058957610588612495565b5b021790555050505050565b6060600080546105a39061279d565b80601f01602080910402602001604051908101604052809291908181526020018280546105cf9061279d565b801561061c5780601f106105f15761010080835404028352916020019161061c565b820191906000526020600020905b8154815290600101906020018083116105ff57829003601f168201915b5050505050905090565b600a60009054906101000a900473ffffffffffffffffffffffffffffffffffffffff1681565b600061065782610dc9565b5061066182610e51565b9050919050565b61067a8282610675610e8e565b610e96565b5050565b600073ffffffffffffffffffffffffffffffffffffffff168273ffffffffffffffffffffffffffffffffffffffff16036106f05760006040517f64a0ae920000000000000000000000000000000000000000000000000000000081526004016106e7919061228a565b60405180910390fd5b600061070483836106ff610e8e565b610ea8565b90508373ffffffffffffffffffffffffffffffffffffffff168173ffffffffffffffffffffffffffffffffffffffff161461077a578382826040517f64283d7b000000000000000000000000000000000000000000000000000000008152600401610771939291906127ce565b60405180910390fd5b50505050565b6000806009600084815260200190815260200160002060009054906101000a900460ff169050600060038111156107ba576107b9612495565b5b8160038111156107cd576107cc612495565b5b036107dc5760019150506108b8565b600160038111156107f0576107ef612495565b5b81600381111561080357610802612495565b5b036108125760029150506108b8565b6002600381111561082657610825612495565b5b81600381111561083957610838612495565b5b036108485760039150506108b8565b60038081111561085b5761085a612495565b5b81600381111561086e5761086d612495565b5b0361087d5760049150506108b8565b6040517f08c379a00000000000000000000000000000000000000000000000000000000081526004016108af90612851565b60405180910390fd5b919050565b6108d883838360405180602001604052806000815250610ab5565b505050565b60006108e882610dc9565b9050919050565b60008073ffffffffffffffffffffffffffffffffffffffff168273ffffffffffffffffffffffffffffffffffffffff16036109625760006040517f89c62b64000000000000000000000000000000000000000000000000000000008152600401610959919061228a565b60405180910390fd5b600360008373ffffffffffffffffffffffffffffffffffffffff1673ffffffffffffffffffffffffffffffffffffffff168152602001908152602001600020549050919050565b6109b16110c2565b6109bb6000611149565b565b60085481565b6000600760009054906101000a900473ffffffffffffffffffffffffffffffffffffffff16905090565b6060600180546109fc9061279d565b80601f0160208091040260200160405190810160405280929190818152602001828054610a289061279d565b8015610a755780601f10610a4a57610100808354040283529160200191610a75565b820191906000526020600020905b815481529060010190602001808311610a5857829003601f168201915b5050505050905090565b610a91610a8a610e8e565b838361120f565b5050565b60096020528060005260406000206000915054906101000a900460ff1681565b610ac084848461067e565b610ad4610acb610e8e565b8585858561137e565b50505050565b6060610ae58261152f565b9050919050565b6000600560008473ffffffffffffffffffffffffffffffffffffffff1673ffffffffffffffffffffffffffffffffffffffff16815260200190815260200160002060008373ffffffffffffffffffffffffffffffffffffffff1673ffffffffffffffffffffffffffffffffffffffff16815260200190815260200160002060009054906101000a900460ff16905092915050565b6000806009600084815260200190815260200160002060009054906101000a900460ff16905060026003811115610bba57610bb9612495565b5b816003811115610bcd57610bcc612495565b5b03610bdc576001915050610c17565b600380811115610bef57610bee612495565b5b816003811115610c0257610c01612495565b5b03610c11576002915050610c17565b60009150505b919050565b610c246110c2565b600073ffffffffffffffffffffffffffffffffffffffff168173ffffffffffffffffffffffffffffffffffffffff1603610c965760006040517f1e4fbdf7000000000000000000000000000000000000000000000000000000008152600401610c8d919061228a565b60405180910390fd5b610c9f81611149565b50565b610caa6110c2565b80600a60006101000a81548173ffffffffffffffffffffffffffffffffffffffff021916908373ffffffffffffffffffffffffffffffffffffffff16021790555050565b6000634906490660e01b7bffffffffffffffffffffffffffffffffffffffffffffffffffffffff1916827bffffffffffffffffffffffffffffffffffffffffffffffffffffffff19161480610d485750610d4782611642565b5b9050919050565b610d69828260405180602001604052806000815250611724565b5050565b80600660008481526020019081526020016000209081610d8d9190612a1d565b507ff8e1a15aba9398e019f0b49df1a4fde98ee17ae345cb5f6b5e2c27f5033e8ce782604051610dbd919061240e565b60405180910390a15050565b600080610dd583611748565b9050600073ffffffffffffffffffffffffffffffffffffffff168173ffffffffffffffffffffffffffffffffffffffff1603610e4857826040517f7e273289000000000000000000000000000000000000000000000000000000008152600401610e3f919061240e565b60405180910390fd5b80915050919050565b60006004600083815260200190815260200160002060009054906101000a900473ffffffffffffffffffffffffffffffffffffffff169050919050565b600033905090565b610ea38383836001611785565b505050565b600080610eb484611748565b9050600073ffffffffffffffffffffffffffffffffffffffff168373ffffffffffffffffffffffffffffffffffffffff1614610ef657610ef581848661194a565b5b600073ffffffffffffffffffffffffffffffffffffffff168173ffffffffffffffffffffffffffffffffffffffff1614610f8757610f38600085600080611785565b6001600360008373ffffffffffffffffffffffffffffffffffffffff1673ffffffffffffffffffffffffffffffffffffffff168152602001908152602001600020600082825403925050819055505b600073ffffffffffffffffffffffffffffffffffffffff168573ffffffffffffffffffffffffffffffffffffffff161461100a576001600360008773ffffffffffffffffffffffffffffffffffffffff1673ffffffffffffffffffffffffffffffffffffffff168152602001908152602001600020600082825401925050819055505b846002600086815260200190815260200160002060006101000a81548173ffffffffffffffffffffffffffffffffffffffff021916908373ffffffffffffffffffffffffffffffffffffffff160217905550838573ffffffffffffffffffffffffffffffffffffffff168273ffffffffffffffffffffffffffffffffffffffff167fddf252ad1be2c89b69c2b068fc378daa952ba7f163c4a11628f55a4df523b3ef60405160405180910390a4809150509392505050565b6110ca610e8e565b73ffffffffffffffffffffffffffffffffffffffff166110e86109c3565b73ffffffffffffffffffffffffffffffffffffffff16146111475761110b610e8e565b6040517f118cdaa700000000000000000000000000000000000000000000000000000000815260040161113e919061228a565b60405180910390fd5b565b6000600760009054906101000a900473ffffffffffffffffffffffffffffffffffffffff16905081600760006101000a81548173ffffffffffffffffffffffffffffffffffffffff021916908373ffffffffffffffffffffffffffffffffffffffff1602179055508173ffffffffffffffffffffffffffffffffffffffff168173ffffffffffffffffffffffffffffffffffffffff167f8be0079c531659141344cd1fd0a4f28419497f9722a3daafe3b4186f6b6457e060405160405180910390a35050565b600073ffffffffffffffffffffffffffffffffffffffff168273ffffffffffffffffffffffffffffffffffffffff160361128057816040517f5b08ba18000000000000000000000000000000000000000000000000000000008152600401611277919061228a565b60405180910390fd5b80600560008573ffffffffffffffffffffffffffffffffffffffff1673ffffffffffffffffffffffffffffffffffffffff16815260200190815260200160002060008473ffffffffffffffffffffffffffffffffffffffff1673ffffffffffffffffffffffffffffffffffffffff16815260200190815260200160002060006101000a81548160ff0219169083151502179055508173ffffffffffffffffffffffffffffffffffffffff168373ffffffffffffffffffffffffffffffffffffffff167f17307eab39ab6107e8899845ad3d59bd9653f200f220920489ca2b5937696c31836040516113719190611f87565b60405180910390a3505050565b60008373ffffffffffffffffffffffffffffffffffffffff163b1115611528578273ffffffffffffffffffffffffffffffffffffffff1663150b7a02868685856040518563ffffffff1660e01b81526004016113dd9493929190612b44565b6020604051808303816000875af192505050801561141957506040513d601f19601f820116820180604052508101906114169190612ba5565b60015b61149d573d8060008114611449576040519150601f19603f3d011682016040523d82523d6000602084013e61144e565b606091505b50600081510361149557836040517f64a0ae9200000000000000000000000000000000000000000000000000000000815260040161148c919061228a565b60405180910390fd5b805181602001fd5b63150b7a0260e01b7bffffffffffffffffffffffffffffffffffffffffffffffffffffffff1916817bffffffffffffffffffffffffffffffffffffffffffffffffffffffff19161461152657836040517f64a0ae9200000000000000000000000000000000000000000000000000000000815260040161151d919061228a565b60405180910390fd5b505b5050505050565b606061153a82610dc9565b50600060066000848152602001908152602001600020805461155b9061279d565b80601f01602080910402602001604051908101604052809291908181526020018280546115879061279d565b80156115d45780601f106115a9576101008083540402835291602001916115d4565b820191906000526020600020905b8154815290600101906020018083116115b757829003601f168201915b5050505050905060006115e5611a0e565b905060008151036115fa57819250505061163d565b60008251111561162f578082604051602001611617929190612c0e565b6040516020818303038152906040529250505061163d565b61163884611a25565b925050505b919050565b60007f80ac58cd000000000000000000000000000000000000000000000000000000007bffffffffffffffffffffffffffffffffffffffffffffffffffffffff1916827bffffffffffffffffffffffffffffffffffffffffffffffffffffffff1916148061170d57507f5b5e139f000000000000000000000000000000000000000000000000000000007bffffffffffffffffffffffffffffffffffffffffffffffffffffffff1916827bffffffffffffffffffffffffffffffffffffffffffffffffffffffff1916145b8061171d575061171c82611a8e565b5b9050919050565b61172e8383611af8565b611743611739610e8e565b600085858561137e565b505050565b60006002600083815260200190815260200160002060009054906101000a900473ffffffffffffffffffffffffffffffffffffffff169050919050565b80806117be5750600073ffffffffffffffffffffffffffffffffffffffff168273ffffffffffffffffffffffffffffffffffffffff1614155b156118f25760006117ce84610dc9565b9050600073ffffffffffffffffffffffffffffffffffffffff168373ffffffffffffffffffffffffffffffffffffffff161415801561183957508273ffffffffffffffffffffffffffffffffffffffff168173ffffffffffffffffffffffffffffffffffffffff1614155b801561184c575061184a8184610aec565b155b1561188e57826040517fa9fbf51f000000000000000000000000000000000000000000000000000000008152600401611885919061228a565b60405180910390fd5b81156118f057838573ffffffffffffffffffffffffffffffffffffffff168273ffffffffffffffffffffffffffffffffffffffff167f8c5be1e5ebec7d5bd14f71427d1e84f3dd0314c0f7b2291e5b200ac8c7c3b92560405160405180910390a45b505b836004600085815260200190815260200160002060006101000a81548173ffffffffffffffffffffffffffffffffffffffff021916908373ffffffffffffffffffffffffffffffffffffffff16021790555050505050565b611955838383611bf1565b611a0957600073ffffffffffffffffffffffffffffffffffffffff168373ffffffffffffffffffffffffffffffffffffffff16036119ca57806040517f7e2732890000000000000000000000000000000000000000000000000000000081526004016119c1919061240e565b60405180910390fd5b81816040517f177e802f000000000000000000000000000000000000000000000000000000008152600401611a00929190612c32565b60405180910390fd5b505050565b606060405180602001604052806000815250905090565b6060611a3082610dc9565b506000611a3b611a0e565b90506000815111611a5b5760405180602001604052806000815250611a86565b80611a6584611cb2565b604051602001611a76929190612c0e565b6040516020818303038152906040525b915050919050565b60007f01ffc9a7000000000000000000000000000000000000000000000000000000007bffffffffffffffffffffffffffffffffffffffffffffffffffffffff1916827bffffffffffffffffffffffffffffffffffffffffffffffffffffffff1916149050919050565b600073ffffffffffffffffffffffffffffffffffffffff168273ffffffffffffffffffffffffffffffffffffffff1603611b6a5760006040517f64a0ae92000000000000000000000000000000000000000000000000000000008152600401611b61919061228a565b60405180910390fd5b6000611b7883836000610ea8565b9050600073ffffffffffffffffffffffffffffffffffffffff168173ffffffffffffffffffffffffffffffffffffffff1614611bec5760006040517f73c6ac6e000000000000000000000000000000000000000000000000000000008152600401611be3919061228a565b60405180910390fd5b505050565b60008073ffffffffffffffffffffffffffffffffffffffff168373ffffffffffffffffffffffffffffffffffffffff1614158015611ca957508273ffffffffffffffffffffffffffffffffffffffff168473ffffffffffffffffffffffffffffffffffffffff161480611c6a5750611c698484610aec565b5b80611ca857508273ffffffffffffffffffffffffffffffffffffffff16611c9083610e51565b73ffffffffffffffffffffffffffffffffffffffff16145b5b90509392505050565b606060006001611cc184611d80565b01905060008167ffffffffffffffff811115611ce057611cdf612040565b5b6040519080825280601f01601f191660200182016040528015611d125781602001600182028036833780820191505090505b509050600082602001820190505b600115611d75578080600190039150507f3031323334353637383961626364656600000000000000000000000000000000600a86061a8153600a8581611d6957611d68612c5b565b5b04945060008503611d20575b819350505050919050565b600080600090507a184f03e93ff9f4daa797ed6e38ed64bf6a1f0100000000000000008310611dde577a184f03e93ff9f4daa797ed6e38ed64bf6a1f0100000000000000008381611dd457611dd3612c5b565b5b0492506040810190505b6d04ee2d6d415b85acef81000000008310611e1b576d04ee2d6d415b85acef81000000008381611e1157611e10612c5b565b5b0492506020810190505b662386f26fc100008310611e4a57662386f26fc100008381611e4057611e3f612c5b565b5b0492506010810190505b6305f5e1008310611e73576305f5e1008381611e6957611e68612c5b565b5b0492506008810190505b6127108310611e98576127108381611e8e57611e8d612c5b565b5b0492506004810190505b60648310611ebb5760648381611eb157611eb0612c5b565b5b0492506002810190505b600a8310611eca576001810190505b80915050919050565b6000604051905090565b600080fd5b600080fd5b60007fffffffff0000000000000000000000000000000000000000000000000000000082169050919050565b611f1c81611ee7565b8114611f2757600080fd5b50565b600081359050611f3981611f13565b92915050565b600060208284031215611f5557611f54611edd565b5b6000611f6384828501611f2a565b91505092915050565b60008115159050919050565b611f8181611f6c565b82525050565b6000602082019050611f9c6000830184611f78565b92915050565b600073ffffffffffffffffffffffffffffffffffffffff82169050919050565b6000611fcd82611fa2565b9050919050565b611fdd81611fc2565b8114611fe857600080fd5b50565b600081359050611ffa81611fd4565b92915050565b6004811061200d57600080fd5b50565b60008135905061201f81612000565b92915050565b600080fd5b600080fd5b6000601f19601f8301169050919050565b7f4e487b7100000000000000000000000000000000000000000000000000000000600052604160045260246000fd5b6120788261202f565b810181811067ffffffffffffffff8211171561209757612096612040565b5b80604052505050565b60006120aa611ed3565b90506120b6828261206f565b919050565b600067ffffffffffffffff8211156120d6576120d5612040565b5b6120df8261202f565b9050602081019050919050565b82818337600083830152505050565b600061210e612109846120bb565b6120a0565b90508281526020810184848401111561212a5761212961202a565b5b6121358482856120ec565b509392505050565b600082601f83011261215257612151612025565b5b81356121628482602086016120fb565b91505092915050565b60008060006060848603121561218457612183611edd565b5b600061219286828701611feb565b93505060206121a386828701612010565b925050604084013567ffffffffffffffff8111156121c4576121c3611ee2565b5b6121d08682870161213d565b9150509250925092565b600081519050919050565b600082825260208201905092915050565b60005b838110156122145780820151818401526020810190506121f9565b60008484015250505050565b600061222b826121da565b61223581856121e5565b93506122458185602086016121f6565b61224e8161202f565b840191505092915050565b600060208201905081810360008301526122738184612220565b905092915050565b61228481611fc2565b82525050565b600060208201905061229f600083018461227b565b92915050565b6000819050919050565b6122b8816122a5565b81146122c357600080fd5b50565b6000813590506122d5816122af565b92915050565b6000602082840312156122f1576122f0611edd565b5b60006122ff848285016122c6565b91505092915050565b6000806040838503121561231f5761231e611edd565b5b600061232d85828601611feb565b925050602061233e858286016122c6565b9150509250929050565b60008060006060848603121561236157612360611edd565b5b600061236f86828701611feb565b935050602061238086828701611feb565b9250506040612391868287016122c6565b9150509250925092565b600060ff82169050919050565b6123b18161239b565b82525050565b60006020820190506123cc60008301846123a8565b92915050565b6000602082840312156123e8576123e7611edd565b5b60006123f684828501611feb565b91505092915050565b612408816122a5565b82525050565b600060208201905061242360008301846123ff565b92915050565b61243281611f6c565b811461243d57600080fd5b50565b60008135905061244f81612429565b92915050565b6000806040838503121561246c5761246b611edd565b5b600061247a85828601611feb565b925050602061248b85828601612440565b9150509250929050565b7f4e487b7100000000000000000000000000000000000000000000000000000000600052602160045260246000fd5b600481106124d5576124d4612495565b5b50565b60008190506124e6826124c4565b919050565b60006124f6826124d8565b9050919050565b612506816124eb565b82525050565b600060208201905061252160008301846124fd565b92915050565b600067ffffffffffffffff82111561254257612541612040565b5b61254b8261202f565b9050602081019050919050565b600061256b61256684612527565b6120a0565b9050828152602081018484840111156125875761258661202a565b5b6125928482856120ec565b509392505050565b600082601f8301126125af576125ae612025565b5b81356125bf848260208601612558565b91505092915050565b600080600080608085870312156125e2576125e1611edd565b5b60006125f087828801611feb565b945050602061260187828801611feb565b9350506040612612878288016122c6565b925050606085013567ffffffffffffffff81111561263357612632611ee2565b5b61263f8782880161259a565b91505092959194509250565b6000806040838503121561266257612661611edd565b5b600061267085828601611feb565b925050602061268185828601611feb565b9150509250929050565b7f4e6f7420617574686f72697a6564000000000000000000000000000000000000600082015250565b60006126c1600e836121e5565b91506126cc8261268b565b602082019050919050565b600060208201905081810360008301526126f0816126b4565b9050919050565b7f4e487b7100000000000000000000000000000000000000000000000000000000600052601160045260246000fd5b6000612731826122a5565b91507fffffffffffffffffffffffffffffffffffffffffffffffffffffffffffffffff8203612763576127626126f7565b5b600182019050919050565b7f4e487b7100000000000000000000000000000000000000000000000000000000600052602260045260246000fd5b600060028204905060018216806127b557607f821691505b6020821081036127c8576127c761276e565b5b50919050565b60006060820190506127e3600083018661227b565b6127f060208301856123ff565b6127fd604083018461227b565b949350505050565b7f496e76616c696420726172697479000000000000000000000000000000000000600082015250565b600061283b600e836121e5565b915061284682612805565b602082019050919050565b6000602082019050818103600083015261286a8161282e565b9050919050565b60008190508160005260206000209050919050565b60006020601f8301049050919050565b600082821b905092915050565b6000600883026128d37fffffffffffffffffffffffffffffffffffffffffffffffffffffffffffffffff82612896565b6128dd8683612896565b95508019841693508086168417925050509392505050565b6000819050919050565b600061291a612915612910846122a5565b6128f5565b6122a5565b9050919050565b6000819050919050565b612934836128ff565b61294861294082612921565b8484546128a3565b825550505050565b600090565b61295d612950565b61296881848461292b565b505050565b5b8181101561298c57612981600082612955565b60018101905061296e565b5050565b601f8211156129d1576129a281612871565b6129ab84612886565b810160208510156129ba578190505b6129ce6129c685612886565b83018261296d565b50505b505050565b600082821c905092915050565b60006129f4600019846008026129d6565b1980831691505092915050565b6000612a0d83836129e3565b9150826002028217905092915050565b612a26826121da565b67ffffffffffffffff811115612a3f57612a3e612040565b5b612a49825461279d565b612a54828285612990565b600060209050601f831160018114612a875760008415612a75578287015190505b612a7f8582612a01565b865550612ae7565b601f198416612a9586612871565b60005b82811015612abd57848901518255600182019150602085019450602081019050612a98565b86831015612ada5784890151612ad6601f8916826129e3565b8355505b6001600288020188555050505b505050505050565b600081519050919050565b600082825260208201905092915050565b6000612b1682612aef565b612b208185612afa565b9350612b308185602086016121f6565b612b398161202f565b840191505092915050565b6000608082019050612b59600083018761227b565b612b66602083018661227b565b612b7360408301856123ff565b8181036060830152612b858184612b0b565b905095945050505050565b600081519050612b9f81611f13565b92915050565b600060208284031215612bbb57612bba611edd565b5b6000612bc984828501612b90565b91505092915050565b600081905092915050565b6000612be8826121da565b612bf28185612bd2565b9350612c028185602086016121f6565b80840191505092915050565b6000612c1a8285612bdd565b9150612c268284612bdd565b91508190509392505050565b6000604082019050612c47600083018561227b565b612c5460208301846123ff565b9392505050565b7f4e487b7100000000000000000000000000000000000000000000000000000000600052601260045260246000fdfea2646970667358221220ce67aa5d65a2ad35d64f3a25a590919d50695aa8ba78ea3d77928b362391e31764736f6c634300081c0033",
  "linkReferences": {},
  "deployedLinkReferences": {}
}