{
  "_format": "hh-sol-artifact-1",
  "contractName": "GachaMachine",
  "sourceName": "contracts/GachaMachine.sol",
  "abi": [
    {
      "inputs": [
        {
          "internalType": "address",
          "name": "_flappymon",
          "type": "address"
        },
        {
          "internalType": "address",
          "name": "initialOwner",
          "type": "address"
        }
      ],
      "stateMutability": "nonpayable",
      "type": "constructor"
    },
    {
      "inputs": [
        {
          "internalType": "address",
          "name": "owner",
          "type": "address"
        }
      ],
      "name": "OwnableInvalidOwner",
      "type": "error"
    },
    {
      "inputs": [
        {
          "internalType": "address",
          "name": "account",
          "type": "address"
        }
      ],
      "name": "OwnableUnauthorizedAccount",
      "type": "error"
    },
    {
      "anonymous": false,
      "inputs": [
        {
          "indexed": true,
          "internalType": "address",
          "name": "previousOwner",
          "type": "address"
        },
        {
          "indexed": true,
          "internalType": "address",
          "name": "newOwner",
          "type": "address"
        }
      ],
      "name": "OwnershipTransferred",
      "type": "event"
    },
    {
      "inputs": [],
      "name": "flappymon",
      "outputs": [
        {
          "internalType": "contract Flappymon",
          "name": "",
          "type": "address"
        }
      ],
      "stateMutability": "view",
      "type": "function"
    },
    {
      "inputs": [],
      "name": "owner",
      "outputs": [
        {
          "internalType": "address",
          "name": "",
          "type": "address"
        }
      ],
      "stateMutability": "view",
      "type": "function"
    },
    {
      "inputs": [],
      "name": "renounceOwnership",
      "outputs": [],
      "stateMutability": "nonpayable",
      "type": "function"
    },
    {
      "inputs": [],
      "name": "rollGacha",
      "outputs": [
        {
          "internalType": "uint256",
          "name": "",
          "type": "uint256"
        }
      ],
      "stateMutability": "nonpayable",
      "type": "function"
    },
    {
      "inputs": [
        {
          "internalType": "address",
          "name": "newOwner",
          "type": "address"
        }
      ],
      "name": "transferOwnership",
      "outputs": [],
      "stateMutability": "nonpayable",
      "type": "function"
    }
  ],
  "bytecode": "0x60a060405234801561001057600080fd5b50604051610a1e380380610a1e83398181016040528101906100329190610217565b80600073ffffffffffffffffffffffffffffffffffffffff168173ffffffffffffffffffffffffffffffffffffffff16036100a55760006040517f1e4fbdf700000000000000000000000000000000000000000000000000000000815260040161009c9190610266565b60405180910390fd5b6100b4816100f060201b60201c565b508173ffffffffffffffffffffffffffffffffffffffff1660808173ffffffffffffffffffffffffffffffffffffffff16815250505050610281565b60008060009054906101000a900473ffffffffffffffffffffffffffffffffffffffff169050816000806101000a81548173ffffffffffffffffffffffffffffffffffffffff021916908373ffffffffffffffffffffffffffffffffffffffff1602179055508173ffffffffffffffffffffffffffffffffffffffff168173ffffffffffffffffffffffffffffffffffffffff167f8be0079c531659141344cd1fd0a4f28419497f9722a3daafe3b4186f6b6457e060405160405180910390a35050565b600080fd5b600073ffffffffffffffffffffffffffffffffffffffff82169050919050565b60006101e4826101b9565b9050919050565b6101f4816101d9565b81146101ff57600080fd5b50565b600081519050610211816101eb565b92915050565b6000806040838503121561022e5761022d6101b4565b5b600061023c85828601610202565b925050602061024d85828601610202565b9150509250929050565b610260816101d9565b82525050565b600060208201905061027b6000830184610257565b92915050565b60805161077c6102a26000396000818160ed0152610191015261077c6000f3fe608060405234801561001057600080fd5b50600436106100575760003560e01c80630436e5181461005c57806317d4662e1461007a578063715018a6146100985780638da5cb5b146100a2578063f2fde38b146100c0575b600080fd5b6100646100dc565b6040516100719190610464565b60405180910390f35b61008261018f565b60405161008f91906104fe565b60405180910390f35b6100a06101b3565b005b6100aa6101c7565b6040516100b7919061053a565b60405180910390f35b6100da60048036038101906100d59190610586565b6101f0565b005b6000806100e93342610276565b90507f000000000000000000000000000000000000000000000000000000000000000073ffffffffffffffffffffffffffffffffffffffff1663761c4c4033836040518363ffffffff1660e01b81526004016101469291906105cf565b6020604051808303816000875af1158015610165573d6000803e3d6000fd5b505050506040513d601f19601f820116820180604052508101906101899190610624565b91505090565b7f000000000000000000000000000000000000000000000000000000000000000081565b6101bb6102f8565b6101c5600061037f565b565b60008060009054906101000a900473ffffffffffffffffffffffffffffffffffffffff16905090565b6101f86102f8565b600073ffffffffffffffffffffffffffffffffffffffff168173ffffffffffffffffffffffffffffffffffffffff160361026a5760006040517f1e4fbdf7000000000000000000000000000000000000000000000000000000008152600401610261919061053a565b60405180910390fd5b6102738161037f565b50565b6000806064848460405160200161028e9291906106ba565b6040516020818303038152906040528051906020012060001c6102b19190610715565b9050603c8110156102c65760009150506102f2565b60558110156102d95760019150506102f2565b605f8110156102ec5760029150506102f2565b60039150505b92915050565b610300610443565b73ffffffffffffffffffffffffffffffffffffffff1661031e6101c7565b73ffffffffffffffffffffffffffffffffffffffff161461037d57610341610443565b6040517f118cdaa7000000000000000000000000000000000000000000000000000000008152600401610374919061053a565b60405180910390fd5b565b60008060009054906101000a900473ffffffffffffffffffffffffffffffffffffffff169050816000806101000a81548173ffffffffffffffffffffffffffffffffffffffff021916908373ffffffffffffffffffffffffffffffffffffffff1602179055508173ffffffffffffffffffffffffffffffffffffffff168173ffffffffffffffffffffffffffffffffffffffff167f8be0079c531659141344cd1fd0a4f28419497f9722a3daafe3b4186f6b6457e060405160405180910390a35050565b600033905090565b6000819050919050565b61045e8161044b565b82525050565b60006020820190506104796000830184610455565b92915050565b600073ffffffffffffffffffffffffffffffffffffffff82169050919050565b6000819050919050565b60006104c46104bf6104ba8461047f565b61049f565b61047f565b9050919050565b60006104d6826104a9565b9050919050565b60006104e8826104cb565b9050919050565b6104f8816104dd565b82525050565b600060208201905061051360008301846104ef565b92915050565b60006105248261047f565b9050919050565b61053481610519565b82525050565b600060208201905061054f600083018461052b565b92915050565b600080fd5b61056381610519565b811461056e57600080fd5b50565b6000813590506105808161055a565b92915050565b60006020828403121561059c5761059b610555565b5b60006105aa84828501610571565b91505092915050565b600060ff82169050919050565b6105c9816105b3565b82525050565b60006040820190506105e4600083018561052b565b6105f160208301846105c0565b9392505050565b6106018161044b565b811461060c57600080fd5b50565b60008151905061061e816105f8565b92915050565b60006020828403121561063a57610639610555565b5b60006106488482850161060f565b91505092915050565b60008160601b9050919050565b600061066982610651565b9050919050565b600061067b8261065e565b9050919050565b61069361068e82610519565b610670565b82525050565b6000819050919050565b6106b46106af8261044b565b610699565b82525050565b60006106c68285610682565b6014820191506106d682846106a3565b6020820191508190509392505050565b7f4e487b7100000000000000000000000000000000000000000000000000000000600052601260045260246000fd5b60006107208261044b565b915061072b8361044b565b92508261073b5761073a6106e6565b5b82820690509291505056fea264697066735822122041ff11a3aa48448d5a1c5db8fd4756d1897ad91f310305bf00f80a388f42889b64736f6c634300081c0033",
  "linkReferences": {},
  "deployedLinkReferences": {}
}