{
  "_format": "hh-sol-artifact-1",
  "contractName": "GachaMachine",
  "sourceName": "contracts/GachaMachine.sol",
  "abi": [
    {
      "inputs": [
        {
          "internalType": "address",
          "name": "_flappymon",
          "type": "address"
        }
      ],
      "stateMutability": "nonpayable",
      "type": "constructor"
    },
    {
      "anonymous": false,
      "inputs": [
        {
          "indexed": true,
          "internalType": "address",
          "name": "user",
          "type": "address"
        },
        {
          "indexed": false,
          "internalType": "uint256",
          "name": "tokenId",
          "type": "uint256"
        },
        {
          "indexed": false,
          "internalType": "enum Flappymon.Rarity",
          "name": "rarity",
          "type": "uint8"
        }
      ],
      "name": "Pulled",
      "type": "event"
    },
    {
      "inputs": [],
      "name": "flappymon",
      "outputs": [
        {
          "internalType": "contract Flappymon",
          "name": "",
          "type": "address"
        }
      ],
      "stateMutability": "view",
      "type": "function"
    },
    {
      "inputs": [],
      "name": "owner",
      "outputs": [
        {
          "internalType": "address",
          "name": "",
          "type": "address"
        }
      ],
      "stateMutability": "view",
      "type": "function"
    },
    {
      "inputs": [],
      "name": "pull",
      "outputs": [],
      "stateMutability": "nonpayable",
      "type": "function"
    },
    {
      "inputs": [
        {
          "internalType": "address",
          "name": "_new",
          "type": "address"
        }
      ],
      "name": "setFlappymon",
      "outputs": [],
      "stateMutability": "nonpayable",
      "type": "function"
    }
  ],
  "bytecode": "0x608060405234801561001057600080fd5b50604051610c10380380610c108339818101604052810190610032919061011c565b806000806101000a81548173ffffffffffffffffffffffffffffffffffffffff021916908373ffffffffffffffffffffffffffffffffffffffff16021790555033600160006101000a81548173ffffffffffffffffffffffffffffffffffffffff021916908373ffffffffffffffffffffffffffffffffffffffff16021790555050610149565b600080fd5b600073ffffffffffffffffffffffffffffffffffffffff82169050919050565b60006100e9826100be565b9050919050565b6100f9816100de565b811461010457600080fd5b50565b600081519050610116816100f0565b92915050565b600060208284031215610132576101316100b9565b5b600061014084828501610107565b91505092915050565b610ab8806101586000396000f3fe608060405234801561001057600080fd5b506004361061004b5760003560e01c8062a8cf151461005057806317d4662e1461006c578063329eb8391461008a5780638da5cb5b14610094575b600080fd5b61006a600480360381019061006591906105d1565b6100b2565b005b610074610185565b604051610081919061065d565b60405180910390f35b6100926101a9565b005b61009c61033f565b6040516100a99190610687565b60405180910390f35b600160009054906101000a900473ffffffffffffffffffffffffffffffffffffffff1673ffffffffffffffffffffffffffffffffffffffff163373ffffffffffffffffffffffffffffffffffffffff1614610142576040517f08c379a0000000000000000000000000000000000000000000000000000000008152600401610139906106ff565b60405180910390fd5b806000806101000a81548173ffffffffffffffffffffffffffffffffffffffff021916908373ffffffffffffffffffffffffffffffffffffffff16021790555050565b60008054906101000a900473ffffffffffffffffffffffffffffffffffffffff1681565b60006101b3610365565b905060006101c0826103f3565b905060008054906101000a900473ffffffffffffffffffffffffffffffffffffffff1673ffffffffffffffffffffffffffffffffffffffff166302e8a3373384846040518463ffffffff1660e01b815260040161021f93929190610815565b600060405180830381600087803b15801561023957600080fd5b505af115801561024d573d6000803e3d6000fd5b505050503373ffffffffffffffffffffffffffffffffffffffff167f8c75c123a40d5d740b462c4f9b743a220af61da1a826715634891d066b4cb6cc600160008054906101000a900473ffffffffffffffffffffffffffffffffffffffff1673ffffffffffffffffffffffffffffffffffffffff166375794a3c6040518163ffffffff1660e01b8152600401602060405180830381865afa1580156102f6573d6000803e3d6000fd5b505050506040513d601f19601f8201168201806040525081019061031a9190610889565b61032491906108e5565b84604051610333929190610928565b60405180910390a25050565b600160009054906101000a900473ffffffffffffffffffffffffffffffffffffffff1681565b6000806064423360014361037991906108e5565b4060405160200161038c939291906109e5565b6040516020818303038152906040528051906020012060001c6103af9190610a51565b9050603c8110156103c45760009150506103f0565b60558110156103d75760019150506103f0565b60618110156103ea5760029150506103f0565b60039150505b90565b6060600060038111156104095761040861071f565b5b82600381111561041c5761041b61071f565b5b0361045e576040518060400160405280601281526020017f697066733a2f2f636f6d6d6f6e2e6a736f6e00000000000000000000000000008152509050610569565b600160038111156104725761047161071f565b5b8260038111156104855761048461071f565b5b036104c7576040518060400160405280601081526020017f697066733a2f2f726172652e6a736f6e000000000000000000000000000000008152509050610569565b600260038111156104db576104da61071f565b5b8260038111156104ee576104ed61071f565b5b03610530576040518060400160405280601081526020017f697066733a2f2f657069632e6a736f6e000000000000000000000000000000008152509050610569565b6040518060400160405280601581526020017f697066733a2f2f6c6567656e646172792e6a736f6e000000000000000000000081525090505b919050565b600080fd5b600073ffffffffffffffffffffffffffffffffffffffff82169050919050565b600061059e82610573565b9050919050565b6105ae81610593565b81146105b957600080fd5b50565b6000813590506105cb816105a5565b92915050565b6000602082840312156105e7576105e661056e565b5b60006105f5848285016105bc565b91505092915050565b6000819050919050565b600061062361061e61061984610573565b6105fe565b610573565b9050919050565b600061063582610608565b9050919050565b60006106478261062a565b9050919050565b6106578161063c565b82525050565b6000602082019050610672600083018461064e565b92915050565b61068181610593565b82525050565b600060208201905061069c6000830184610678565b92915050565b600082825260208201905092915050565b7f4e6f74206f776e65720000000000000000000000000000000000000000000000600082015250565b60006106e96009836106a2565b91506106f4826106b3565b602082019050919050565b60006020820190508181036000830152610718816106dc565b9050919050565b7f4e487b7100000000000000000000000000000000000000000000000000000000600052602160045260246000fd5b6004811061075f5761075e61071f565b5b50565b60008190506107708261074e565b919050565b600061078082610762565b9050919050565b61079081610775565b82525050565b600081519050919050565b60005b838110156107bf5780820151818401526020810190506107a4565b60008484015250505050565b6000601f19601f8301169050919050565b60006107e782610796565b6107f181856106a2565b93506108018185602086016107a1565b61080a816107cb565b840191505092915050565b600060608201905061082a6000830186610678565b6108376020830185610787565b818103604083015261084981846107dc565b9050949350505050565b6000819050919050565b61086681610853565b811461087157600080fd5b50565b6000815190506108838161085d565b92915050565b60006020828403121561089f5761089e61056e565b5b60006108ad84828501610874565b91505092915050565b7f4e487b7100000000000000000000000000000000000000000000000000000000600052601160045260246000fd5b60006108f082610853565b91506108fb83610853565b9250828203905081811115610913576109126108b6565b5b92915050565b61092281610853565b82525050565b600060408201905061093d6000830185610919565b61094a6020830184610787565b9392505050565b6000819050919050565b61096c61096782610853565b610951565b82525050565b60008160601b9050919050565b600061098a82610972565b9050919050565b600061099c8261097f565b9050919050565b6109b46109af82610593565b610991565b82525050565b6000819050919050565b6000819050919050565b6109df6109da826109ba565b6109c4565b82525050565b60006109f1828661095b565b602082019150610a0182856109a3565b601482019150610a1182846109ce565b602082019150819050949350505050565b7f4e487b7100000000000000000000000000000000000000000000000000000000600052601260045260246000fd5b6000610a5c82610853565b9150610a6783610853565b925082610a7757610a76610a22565b5b82820690509291505056fea26469706673582212205cd7bcdb3575c04664f2be7aa682062c7a1594ef0494ba785d47cad6a747d64e64736f6c634300081c0033",
  "linkReferences": {},
  "deployedLinkReferences": {}
}