{
  "_format": "hh-sol-artifact-1",
  "contractName": "GachaMachine",
  "sourceName": "contracts/GachaMachine.sol",
  "abi": [
    {
      "inputs": [
        {
          "internalType": "address",
          "name": "_flappymon",
          "type": "address"
        },
        {
          "internalType": "address",
          "name": "initialOwner",
          "type": "address"
        }
      ],
      "stateMutability": "nonpayable",
      "type": "constructor"
    },
    {
      "inputs": [
        {
          "internalType": "address",
          "name": "owner",
          "type": "address"
        }
      ],
      "name": "OwnableInvalidOwner",
      "type": "error"
    },
    {
      "inputs": [
        {
          "internalType": "address",
          "name": "account",
          "type": "address"
        }
      ],
      "name": "OwnableUnauthorizedAccount",
      "type": "error"
    },
    {
      "anonymous": false,
      "inputs": [
        {
          "indexed": true,
          "internalType": "address",
          "name": "user",
          "type": "address"
        },
        {
          "indexed": true,
          "internalType": "uint256",
          "name": "tokenId",
          "type": "uint256"
        },
        {
          "indexed": false,
          "internalType": "uint8",
          "name": "rarity",
          "type": "uint8"
        }
      ],
      "name": "GachaRolled",
      "type": "event"
    },
    {
      "anonymous": false,
      "inputs": [
        {
          "indexed": true,
          "internalType": "address",
          "name": "previousOwner",
          "type": "address"
        },
        {
          "indexed": true,
          "internalType": "address",
          "name": "newOwner",
          "type": "address"
        }
      ],
      "name": "OwnershipTransferred",
      "type": "event"
    },
    {
      "inputs": [],
      "name": "flappymon",
      "outputs": [
        {
          "internalType": "contract Flappymon",
          "name": "",
          "type": "address"
        }
      ],
      "stateMutability": "view",
      "type": "function"
    },
    {
      "inputs": [],
      "name": "owner",
      "outputs": [
        {
          "internalType": "address",
          "name": "",
          "type": "address"
        }
      ],
      "stateMutability": "view",
      "type": "function"
    },
    {
      "inputs": [],
      "name": "renounceOwnership",
      "outputs": [],
      "stateMutability": "nonpayable",
      "type": "function"
    },
    {
      "inputs": [],
      "name": "rollGacha",
      "outputs": [],
      "stateMutability": "nonpayable",
      "type": "function"
    },
    {
      "inputs": [
        {
          "internalType": "address",
          "name": "newOwner",
          "type": "address"
        }
      ],
      "name": "transferOwnership",
      "outputs": [],
      "stateMutability": "nonpayable",
      "type": "function"
    }
  ],
  "bytecode": "0x608060405234801561001057600080fd5b50604051610ae4380380610ae483398181016040528101906100329190610224565b80600073ffffffffffffffffffffffffffffffffffffffff168173ffffffffffffffffffffffffffffffffffffffff16036100a55760006040517f1e4fbdf700000000000000000000000000000000000000000000000000000000815260040161009c9190610273565b60405180910390fd5b6100b4816100fd60201b60201c565b5081600160006101000a81548173ffffffffffffffffffffffffffffffffffffffff021916908373ffffffffffffffffffffffffffffffffffffffff160217905550505061028e565b60008060009054906101000a900473ffffffffffffffffffffffffffffffffffffffff169050816000806101000a81548173ffffffffffffffffffffffffffffffffffffffff021916908373ffffffffffffffffffffffffffffffffffffffff1602179055508173ffffffffffffffffffffffffffffffffffffffff168173ffffffffffffffffffffffffffffffffffffffff167f8be0079c531659141344cd1fd0a4f28419497f9722a3daafe3b4186f6b6457e060405160405180910390a35050565b600080fd5b600073ffffffffffffffffffffffffffffffffffffffff82169050919050565b60006101f1826101c6565b9050919050565b610201816101e6565b811461020c57600080fd5b50565b60008151905061021e816101f8565b92915050565b6000806040838503121561023b5761023a6101c1565b5b60006102498582860161020f565b925050602061025a8582860161020f565b9150509250929050565b61026d816101e6565b82525050565b60006020820190506102886000830184610264565b92915050565b6108478061029d6000396000f3fe608060405234801561001057600080fd5b50600436106100575760003560e01c80630436e5181461005c57806317d4662e14610066578063715018a6146100845780638da5cb5b1461008e578063f2fde38b146100ac575b600080fd5b6100646100c8565b005b61006e61024a565b60405161007b9190610505565b60405180910390f35b61008c610270565b005b610096610284565b6040516100a39190610541565b60405180910390f35b6100c660048036038101906100c1919061058d565b6102ad565b005b6000606442336001436100db91906105f3565b406040516020016100ee939291906106bb565b6040516020818303038152906040528051906020012060001c6101119190610727565b9050600060328210156101275760009050610152565b60508210156101395760019050610151565b605f82101561014b5760029050610150565b600390505b5b5b6000600160009054906101000a900473ffffffffffffffffffffffffffffffffffffffff1673ffffffffffffffffffffffffffffffffffffffff1663761c4c4033846040518363ffffffff1660e01b81526004016101b1929190610774565b6020604051808303816000875af11580156101d0573d6000803e3d6000fd5b505050506040513d601f19601f820116820180604052508101906101f491906107c9565b9050803373ffffffffffffffffffffffffffffffffffffffff167f0e2726835d8896727b621dea745a45070aff23d371cb1d2c9cf382df43ff5e728460405161023d91906107f6565b60405180910390a3505050565b600160009054906101000a900473ffffffffffffffffffffffffffffffffffffffff1681565b610278610333565b61028260006103ba565b565b60008060009054906101000a900473ffffffffffffffffffffffffffffffffffffffff16905090565b6102b5610333565b600073ffffffffffffffffffffffffffffffffffffffff168173ffffffffffffffffffffffffffffffffffffffff16036103275760006040517f1e4fbdf700000000000000000000000000000000000000000000000000000000815260040161031e9190610541565b60405180910390fd5b610330816103ba565b50565b61033b61047e565b73ffffffffffffffffffffffffffffffffffffffff16610359610284565b73ffffffffffffffffffffffffffffffffffffffff16146103b85761037c61047e565b6040517f118cdaa70000000000000000000000000000000000000000000000000000000081526004016103af9190610541565b60405180910390fd5b565b60008060009054906101000a900473ffffffffffffffffffffffffffffffffffffffff169050816000806101000a81548173ffffffffffffffffffffffffffffffffffffffff021916908373ffffffffffffffffffffffffffffffffffffffff1602179055508173ffffffffffffffffffffffffffffffffffffffff168173ffffffffffffffffffffffffffffffffffffffff167f8be0079c531659141344cd1fd0a4f28419497f9722a3daafe3b4186f6b6457e060405160405180910390a35050565b600033905090565b600073ffffffffffffffffffffffffffffffffffffffff82169050919050565b6000819050919050565b60006104cb6104c66104c184610486565b6104a6565b610486565b9050919050565b60006104dd826104b0565b9050919050565b60006104ef826104d2565b9050919050565b6104ff816104e4565b82525050565b600060208201905061051a60008301846104f6565b92915050565b600061052b82610486565b9050919050565b61053b81610520565b82525050565b60006020820190506105566000830184610532565b92915050565b600080fd5b61056a81610520565b811461057557600080fd5b50565b60008135905061058781610561565b92915050565b6000602082840312156105a3576105a261055c565b5b60006105b184828501610578565b91505092915050565b6000819050919050565b7f4e487b7100000000000000000000000000000000000000000000000000000000600052601160045260246000fd5b60006105fe826105ba565b9150610609836105ba565b9250828203905081811115610621576106206105c4565b5b92915050565b6000819050919050565b61064261063d826105ba565b610627565b82525050565b60008160601b9050919050565b600061066082610648565b9050919050565b600061067282610655565b9050919050565b61068a61068582610520565b610667565b82525050565b6000819050919050565b6000819050919050565b6106b56106b082610690565b61069a565b82525050565b60006106c78286610631565b6020820191506106d78285610679565b6014820191506106e782846106a4565b602082019150819050949350505050565b7f4e487b7100000000000000000000000000000000000000000000000000000000600052601260045260246000fd5b6000610732826105ba565b915061073d836105ba565b92508261074d5761074c6106f8565b5b828206905092915050565b600060ff82169050919050565b61076e81610758565b82525050565b60006040820190506107896000830185610532565b6107966020830184610765565b9392505050565b6107a6816105ba565b81146107b157600080fd5b50565b6000815190506107c38161079d565b92915050565b6000602082840312156107df576107de61055c565b5b60006107ed848285016107b4565b91505092915050565b600060208201905061080b6000830184610765565b9291505056fea2646970667358221220396134f770ee47bbaa5aa4035eb0d63224be758ba96fb47c6f30489faafb4d1a64736f6c634300081c0033",
  "linkReferences": {},
  "deployedLinkReferences": {}
}