{
  "_format": "hh-sol-artifact-1",
  "contractName": "SkillNFT",
  "sourceName": "contracts/SkillNFT.sol",
  "abi": [
    {
      "inputs": [
        {
          "internalType": "address",
          "name": "initialOwner",
          "type": "address"
        },
        {
          "internalType": "string",
          "name": "_baseTokenURI",
          "type": "string"
        }
      ],
      "stateMutability": "nonpayable",
      "type": "constructor"
    },
    {
      "inputs": [
        {
          "internalType": "address",
          "name": "sender",
          "type": "address"
        },
        {
          "internalType": "uint256",
          "name": "tokenId",
          "type": "uint256"
        },
        {
          "internalType": "address",
          "name": "owner",
          "type": "address"
        }
      ],
      "name": "ERC721IncorrectOwner",
      "type": "error"
    },
    {
      "inputs": [
        {
          "internalType": "address",
          "name": "operator",
          "type": "address"
        },
        {
          "internalType": "uint256",
          "name": "tokenId",
          "type": "uint256"
        }
      ],
      "name": "ERC721InsufficientApproval",
      "type": "error"
    },
    {
      "inputs": [
        {
          "internalType": "address",
          "name": "approver",
          "type": "address"
        }
      ],
      "name": "ERC721InvalidApprover",
      "type": "error"
    },
    {
      "inputs": [
        {
          "internalType": "address",
          "name": "operator",
          "type": "address"
        }
      ],
      "name": "ERC721InvalidOperator",
      "type": "error"
    },
    {
      "inputs": [
        {
          "internalType": "address",
          "name": "owner",
          "type": "address"
        }
      ],
      "name": "ERC721InvalidOwner",
      "type": "error"
    },
    {
      "inputs": [
        {
          "internalType": "address",
          "name": "receiver",
          "type": "address"
        }
      ],
      "name": "ERC721InvalidReceiver",
      "type": "error"
    },
    {
      "inputs": [
        {
          "internalType": "address",
          "name": "sender",
          "type": "address"
        }
      ],
      "name": "ERC721InvalidSender",
      "type": "error"
    },
    {
      "inputs": [
        {
          "internalType": "uint256",
          "name": "tokenId",
          "type": "uint256"
        }
      ],
      "name": "ERC721NonexistentToken",
      "type": "error"
    },
    {
      "inputs": [
        {
          "internalType": "address",
          "name": "owner",
          "type": "address"
        }
      ],
      "name": "OwnableInvalidOwner",
      "type": "error"
    },
    {
      "inputs": [
        {
          "internalType": "address",
          "name": "account",
          "type": "address"
        }
      ],
      "name": "OwnableUnauthorizedAccount",
      "type": "error"
    },
    {
      "anonymous": false,
      "inputs": [
        {
          "indexed": true,
          "internalType": "address",
          "name": "owner",
          "type": "address"
        },
        {
          "indexed": true,
          "internalType": "address",
          "name": "approved",
          "type": "address"
        },
        {
          "indexed": true,
          "internalType": "uint256",
          "name": "tokenId",
          "type": "uint256"
        }
      ],
      "name": "Approval",
      "type": "event"
    },
    {
      "anonymous": false,
      "inputs": [
        {
          "indexed": true,
          "internalType": "address",
          "name": "owner",
          "type": "address"
        },
        {
          "indexed": true,
          "internalType": "address",
          "name": "operator",
          "type": "address"
        },
        {
          "indexed": false,
          "internalType": "bool",
          "name": "approved",
          "type": "bool"
        }
      ],
      "name": "ApprovalForAll",
      "type": "event"
    },
    {
      "anonymous": false,
      "inputs": [
        {
          "indexed": true,
          "internalType": "address",
          "name": "previousOwner",
          "type": "address"
        },
        {
          "indexed": true,
          "internalType": "address",
          "name": "newOwner",
          "type": "address"
        }
      ],
      "name": "OwnershipTransferred",
      "type": "event"
    },
    {
      "anonymous": false,
      "inputs": [
        {
          "indexed": true,
          "internalType": "address",
          "name": "from",
          "type": "address"
        },
        {
          "indexed": true,
          "internalType": "address",
          "name": "to",
          "type": "address"
        },
        {
          "indexed": true,
          "internalType": "uint256",
          "name": "tokenId",
          "type": "uint256"
        }
      ],
      "name": "Transfer",
      "type": "event"
    },
    {
      "inputs": [
        {
          "internalType": "address",
          "name": "to",
          "type": "address"
        },
        {
          "internalType": "uint256",
          "name": "tokenId",
          "type": "uint256"
        }
      ],
      "name": "approve",
      "outputs": [],
      "stateMutability": "nonpayable",
      "type": "function"
    },
    {
      "inputs": [
        {
          "internalType": "address",
          "name": "owner",
          "type": "address"
        }
      ],
      "name": "balanceOf",
      "outputs": [
        {
          "internalType": "uint256",
          "name": "",
          "type": "uint256"
        }
      ],
      "stateMutability": "view",
      "type": "function"
    },
    {
      "inputs": [],
      "name": "baseTokenURI",
      "outputs": [
        {
          "internalType": "string",
          "name": "",
          "type": "string"
        }
      ],
      "stateMutability": "view",
      "type": "function"
    },
    {
      "inputs": [
        {
          "internalType": "uint256",
          "name": "tokenId",
          "type": "uint256"
        }
      ],
      "name": "getApproved",
      "outputs": [
        {
          "internalType": "address",
          "name": "",
          "type": "address"
        }
      ],
      "stateMutability": "view",
      "type": "function"
    },
    {
      "inputs": [
        {
          "internalType": "uint256",
          "name": "tokenId",
          "type": "uint256"
        }
      ],
      "name": "getSkillData",
      "outputs": [
        {
          "internalType": "uint8",
          "name": "",
          "type": "uint8"
        },
        {
          "internalType": "uint8",
          "name": "",
          "type": "uint8"
        }
      ],
      "stateMutability": "view",
      "type": "function"
    },
    {
      "inputs": [
        {
          "internalType": "address",
          "name": "owner",
          "type": "address"
        },
        {
          "internalType": "address",
          "name": "operator",
          "type": "address"
        }
      ],
      "name": "isApprovedForAll",
      "outputs": [
        {
          "internalType": "bool",
          "name": "",
          "type": "bool"
        }
      ],
      "stateMutability": "view",
      "type": "function"
    },
    {
      "inputs": [],
      "name": "name",
      "outputs": [
        {
          "internalType": "string",
          "name": "",
          "type": "string"
        }
      ],
      "stateMutability": "view",
      "type": "function"
    },
    {
      "inputs": [],
      "name": "nextTokenId",
      "outputs": [
        {
          "internalType": "uint256",
          "name": "",
          "type": "uint256"
        }
      ],
      "stateMutability": "view",
      "type": "function"
    },
    {
      "inputs": [],
      "name": "owner",
      "outputs": [
        {
          "internalType": "address",
          "name": "",
          "type": "address"
        }
      ],
      "stateMutability": "view",
      "type": "function"
    },
    {
      "inputs": [
        {
          "internalType": "uint256",
          "name": "tokenId",
          "type": "uint256"
        }
      ],
      "name": "ownerOf",
      "outputs": [
        {
          "internalType": "address",
          "name": "",
          "type": "address"
        }
      ],
      "stateMutability": "view",
      "type": "function"
    },
    {
      "inputs": [],
      "name": "renounceOwnership",
      "outputs": [],
      "stateMutability": "nonpayable",
      "type": "function"
    },
    {
      "inputs": [
        {
          "internalType": "address",
          "name": "to",
          "type": "address"
        },
        {
          "internalType": "uint8",
          "name": "_type",
          "type": "uint8"
        },
        {
          "internalType": "uint8",
          "name": "_level",
          "type": "uint8"
        }
      ],
      "name": "safeMint",
      "outputs": [
        {
          "internalType": "uint256",
          "name": "",
          "type": "uint256"
        }
      ],
      "stateMutability": "nonpayable",
      "type": "function"
    },
    {
      "inputs": [
        {
          "internalType": "address",
          "name": "from",
          "type": "address"
        },
        {
          "internalType": "address",
          "name": "to",
          "type": "address"
        },
        {
          "internalType": "uint256",
          "name": "tokenId",
          "type": "uint256"
        }
      ],
      "name": "safeTransferFrom",
      "outputs": [],
      "stateMutability": "nonpayable",
      "type": "function"
    },
    {
      "inputs": [
        {
          "internalType": "address",
          "name": "from",
          "type": "address"
        },
        {
          "internalType": "address",
          "name": "to",
          "type": "address"
        },
        {
          "internalType": "uint256",
          "name": "tokenId",
          "type": "uint256"
        },
        {
          "internalType": "bytes",
          "name": "data",
          "type": "bytes"
        }
      ],
      "name": "safeTransferFrom",
      "outputs": [],
      "stateMutability": "nonpayable",
      "type": "function"
    },
    {
      "inputs": [
        {
          "internalType": "address",
          "name": "operator",
          "type": "address"
        },
        {
          "internalType": "bool",
          "name": "approved",
          "type": "bool"
        }
      ],
      "name": "setApprovalForAll",
      "outputs": [],
      "stateMutability": "nonpayable",
      "type": "function"
    },
    {
      "inputs": [
        {
          "internalType": "uint256",
          "name": "",
          "type": "uint256"
        }
      ],
      "name": "skillLevel",
      "outputs": [
        {
          "internalType": "uint8",
          "name": "",
          "type": "uint8"
        }
      ],
      "stateMutability": "view",
      "type": "function"
    },
    {
      "inputs": [
        {
          "internalType": "uint256",
          "name": "",
          "type": "uint256"
        }
      ],
      "name": "skillType",
      "outputs": [
        {
          "internalType": "uint8",
          "name": "",
          "type": "uint8"
        }
      ],
      "stateMutability": "view",
      "type": "function"
    },
    {
      "inputs": [
        {
          "internalType": "bytes4",
          "name": "interfaceId",
          "type": "bytes4"
        }
      ],
      "name": "supportsInterface",
      "outputs": [
        {
          "internalType": "bool",
          "name": "",
          "type": "bool"
        }
      ],
      "stateMutability": "view",
      "type": "function"
    },
    {
      "inputs": [],
      "name": "symbol",
      "outputs": [
        {
          "internalType": "string",
          "name": "",
          "type": "string"
        }
      ],
      "stateMutability": "view",
      "type": "function"
    },
    {
      "inputs": [
        {
          "internalType": "uint256",
          "name": "tokenId",
          "type": "uint256"
        }
      ],
      "name": "tokenURI",
      "outputs": [
        {
          "internalType": "string",
          "name": "",
          "type": "string"
        }
      ],
      "stateMutability": "view",
      "type": "function"
    },
    {
      "inputs": [
        {
          "internalType": "address",
          "name": "from",
          "type": "address"
        },
        {
          "internalType": "address",
          "name": "to",
          "type": "address"
        },
        {
          "internalType": "uint256",
          "name": "tokenId",
          "type": "uint256"
        }
      ],
      "name": "transferFrom",
      "outputs": [],
      "stateMutability": "nonpayable",
      "type": "function"
    },
    {
      "inputs": [
        {
          "internalType": "address",
          "name": "newOwner",
          "type": "address"
        }
      ],
      "name": "transferOwnership",
      "outputs": [],
      "stateMutability": "nonpayable",
      "type": "function"
    }
  ],
  "bytecode": "0x608060405234801561001057600080fd5b50604051612ee2380380612ee2833981810160405281019061003291906103f3565b816040518060400160405280600e81526020017f466c617070796d6f6e536b696c6c0000000000000000000000000000000000008152506040518060400160405280600581526020017f534b494c4c00000000000000000000000000000000000000000000000000000081525081600090816100ae9190610670565b5080600190816100be9190610670565b505050600073ffffffffffffffffffffffffffffffffffffffff168173ffffffffffffffffffffffffffffffffffffffff16036101335760006040517f1e4fbdf700000000000000000000000000000000000000000000000000000000815260040161012a9190610751565b60405180910390fd5b6101428161015a60201b60201c565b5080600890816101529190610670565b50505061076c565b6000600660009054906101000a900473ffffffffffffffffffffffffffffffffffffffff16905081600660006101000a81548173ffffffffffffffffffffffffffffffffffffffff021916908373ffffffffffffffffffffffffffffffffffffffff1602179055508173ffffffffffffffffffffffffffffffffffffffff168173ffffffffffffffffffffffffffffffffffffffff167f8be0079c531659141344cd1fd0a4f28419497f9722a3daafe3b4186f6b6457e060405160405180910390a35050565b6000604051905090565b600080fd5b600080fd5b600073ffffffffffffffffffffffffffffffffffffffff82169050919050565b600061025f82610234565b9050919050565b61026f81610254565b811461027a57600080fd5b50565b60008151905061028c81610266565b92915050565b600080fd5b600080fd5b6000601f19601f8301169050919050565b7f4e487b7100000000000000000000000000000000000000000000000000000000600052604160045260246000fd5b6102e58261029c565b810181811067ffffffffffffffff82111715610304576103036102ad565b5b80604052505050565b6000610317610220565b905061032382826102dc565b919050565b600067ffffffffffffffff821115610343576103426102ad565b5b61034c8261029c565b9050602081019050919050565b60005b8381101561037757808201518184015260208101905061035c565b60008484015250505050565b600061039661039184610328565b61030d565b9050828152602081018484840111156103b2576103b1610297565b5b6103bd848285610359565b509392505050565b600082601f8301126103da576103d9610292565b5b81516103ea848260208601610383565b91505092915050565b6000806040838503121561040a5761040961022a565b5b60006104188582860161027d565b925050602083015167ffffffffffffffff8111156104395761043861022f565b5b610445858286016103c5565b9150509250929050565b600081519050919050565b7f4e487b7100000000000000000000000000000000000000000000000000000000600052602260045260246000fd5b600060028204905060018216806104a157607f821691505b6020821081036104b4576104b361045a565b5b50919050565b60008190508160005260206000209050919050565b60006020601f8301049050919050565b600082821b905092915050565b60006008830261051c7fffffffffffffffffffffffffffffffffffffffffffffffffffffffffffffffff826104df565b61052686836104df565b95508019841693508086168417925050509392505050565b6000819050919050565b6000819050919050565b600061056d6105686105638461053e565b610548565b61053e565b9050919050565b6000819050919050565b61058783610552565b61059b61059382610574565b8484546104ec565b825550505050565b600090565b6105b06105a3565b6105bb81848461057e565b505050565b5b818110156105df576105d46000826105a8565b6001810190506105c1565b5050565b601f821115610624576105f5816104ba565b6105fe846104cf565b8101602085101561060d578190505b610621610619856104cf565b8301826105c0565b50505b505050565b600082821c905092915050565b600061064760001984600802610629565b1980831691505092915050565b60006106608383610636565b9150826002028217905092915050565b6106798261044f565b67ffffffffffffffff811115610692576106916102ad565b5b61069c8254610489565b6106a78282856105e3565b600060209050601f8311600181146106da57600084156106c8578287015190505b6106d28582610654565b86555061073a565b601f1984166106e8866104ba565b60005b82811015610710578489015182556001820191506020850194506020810190506106eb565b8683101561072d5784890151610729601f891682610636565b8355505b6001600288020188555050505b505050505050565b61074b81610254565b82525050565b60006020820190506107666000830184610742565b92915050565b6127678061077b6000396000f3fe608060405234801561001057600080fd5b50600436106101425760003560e01c80638da5cb5b116100b8578063c87b56dd1161007c578063c87b56dd14610376578063d547cfb7146103a6578063d81a2133146103c4578063e985e9c5146103f4578063efe3933114610424578063f2fde38b1461045457610142565b80638da5cb5b146102d157806395d89b41146102ef57806399cdee981461030d578063a22cb4651461033e578063b88d4fde1461035a57610142565b80632a8a91761161010a5780632a8a9176146101fd57806342842e0e1461022d5780636352211e1461024957806370a0823114610279578063715018a6146102a957806375794a3c146102b357610142565b806301ffc9a71461014757806306fdde0314610177578063081812fc14610195578063095ea7b3146101c557806323b872dd146101e1575b600080fd5b610161600480360381019061015c9190611c30565b610470565b60405161016e9190611c78565b60405180910390f35b61017f610552565b60405161018c9190611d23565b60405180910390f35b6101af60048036038101906101aa9190611d7b565b6105e4565b6040516101bc9190611de9565b60405180910390f35b6101df60048036038101906101da9190611e30565b610600565b005b6101fb60048036038101906101f69190611e70565b610616565b005b61021760048036038101906102129190611d7b565b610718565b6040516102249190611edf565b60405180910390f35b61024760048036038101906102429190611e70565b610738565b005b610263600480360381019061025e9190611d7b565b610758565b6040516102709190611de9565b60405180910390f35b610293600480360381019061028e9190611efa565b61076a565b6040516102a09190611f36565b60405180910390f35b6102b1610824565b005b6102bb610838565b6040516102c89190611f36565b60405180910390f35b6102d961083e565b6040516102e69190611de9565b60405180910390f35b6102f7610868565b6040516103049190611d23565b60405180910390f35b61032760048036038101906103229190611d7b565b6108fa565b604051610335929190611f51565b60405180910390f35b61035860048036038101906103539190611fa6565b6109bf565b005b610374600480360381019061036f919061211b565b6109d5565b005b610390600480360381019061038b9190611d7b565b6109fa565b60405161039d9190611d23565b60405180910390f35b6103ae610af5565b6040516103bb9190611d23565b60405180910390f35b6103de60048036038101906103d991906121ca565b610b83565b6040516103eb9190611f36565b60405180910390f35b61040e6004803603810190610409919061221d565b610c19565b60405161041b9190611c78565b60405180910390f35b61043e60048036038101906104399190611d7b565b610cad565b60405161044b9190611edf565b60405180910390f35b61046e60048036038101906104699190611efa565b610ccd565b005b60007f80ac58cd000000000000000000000000000000000000000000000000000000007bffffffffffffffffffffffffffffffffffffffffffffffffffffffff1916827bffffffffffffffffffffffffffffffffffffffffffffffffffffffff1916148061053b57507f5b5e139f000000000000000000000000000000000000000000000000000000007bffffffffffffffffffffffffffffffffffffffffffffffffffffffff1916827bffffffffffffffffffffffffffffffffffffffffffffffffffffffff1916145b8061054b575061054a82610d53565b5b9050919050565b6060600080546105619061228c565b80601f016020809104026020016040519081016040528092919081815260200182805461058d9061228c565b80156105da5780601f106105af576101008083540402835291602001916105da565b820191906000526020600020905b8154815290600101906020018083116105bd57829003601f168201915b5050505050905090565b60006105ef82610dbd565b506105f982610e45565b9050919050565b610612828261060d610e82565b610e8a565b5050565b600073ffffffffffffffffffffffffffffffffffffffff168273ffffffffffffffffffffffffffffffffffffffff16036106885760006040517f64a0ae9200000000000000000000000000000000000000000000000000000000815260040161067f9190611de9565b60405180910390fd5b600061069c8383610697610e82565b610e9c565b90508373ffffffffffffffffffffffffffffffffffffffff168173ffffffffffffffffffffffffffffffffffffffff1614610712578382826040517f64283d7b000000000000000000000000000000000000000000000000000000008152600401610709939291906122bd565b60405180910390fd5b50505050565b60096020528060005260406000206000915054906101000a900460ff1681565b610753838383604051806020016040528060008152506109d5565b505050565b600061076382610dbd565b9050919050565b60008073ffffffffffffffffffffffffffffffffffffffff168273ffffffffffffffffffffffffffffffffffffffff16036107dd5760006040517f89c62b640000000000000000000000000000000000000000000000000000000081526004016107d49190611de9565b60405180910390fd5b600360008373ffffffffffffffffffffffffffffffffffffffff1673ffffffffffffffffffffffffffffffffffffffff168152602001908152602001600020549050919050565b61082c6110b6565b610836600061113d565b565b60075481565b6000600660009054906101000a900473ffffffffffffffffffffffffffffffffffffffff16905090565b6060600180546108779061228c565b80601f01602080910402602001604051908101604052809291908181526020018280546108a39061228c565b80156108f05780601f106108c5576101008083540402835291602001916108f0565b820191906000526020600020905b8154815290600101906020018083116108d357829003601f168201915b5050505050905090565b600080600073ffffffffffffffffffffffffffffffffffffffff1661091e84611203565b73ffffffffffffffffffffffffffffffffffffffff1603610974576040517f08c379a000000000000000000000000000000000000000000000000000000000815260040161096b90612340565b60405180910390fd5b6009600084815260200190815260200160002060009054906101000a900460ff16600a600085815260200190815260200160002060009054906101000a900460ff1691509150915091565b6109d16109ca610e82565b8383611240565b5050565b6109e0848484610616565b6109f46109eb610e82565b858585856113af565b50505050565b6060600073ffffffffffffffffffffffffffffffffffffffff16610a1d83611203565b73ffffffffffffffffffffffffffffffffffffffff1603610a73576040517f08c379a0000000000000000000000000000000000000000000000000000000008152600401610a6a906123ac565b60405180910390fd5b6008610aa16009600085815260200190815260200160002060009054906101000a900460ff1660ff16611560565b610acd600a600086815260200190815260200160002060009054906101000a900460ff1660ff16611560565b604051602001610adf93929190612538565b6040516020818303038152906040529050919050565b60088054610b029061228c565b80601f0160208091040260200160405190810160405280929190818152602001828054610b2e9061228c565b8015610b7b5780601f10610b5057610100808354040283529160200191610b7b565b820191906000526020600020905b815481529060010190602001808311610b5e57829003601f168201915b505050505081565b6000610b8d6110b6565b6000600754905060076000815480929190610ba7906125ae565b9190505550610bb6858261162e565b836009600083815260200190815260200160002060006101000a81548160ff021916908360ff16021790555082600a600083815260200190815260200160002060006101000a81548160ff021916908360ff160217905550809150509392505050565b6000600560008473ffffffffffffffffffffffffffffffffffffffff1673ffffffffffffffffffffffffffffffffffffffff16815260200190815260200160002060008373ffffffffffffffffffffffffffffffffffffffff1673ffffffffffffffffffffffffffffffffffffffff16815260200190815260200160002060009054906101000a900460ff16905092915050565b600a6020528060005260406000206000915054906101000a900460ff1681565b610cd56110b6565b600073ffffffffffffffffffffffffffffffffffffffff168173ffffffffffffffffffffffffffffffffffffffff1603610d475760006040517f1e4fbdf7000000000000000000000000000000000000000000000000000000008152600401610d3e9190611de9565b60405180910390fd5b610d508161113d565b50565b60007f01ffc9a7000000000000000000000000000000000000000000000000000000007bffffffffffffffffffffffffffffffffffffffffffffffffffffffff1916827bffffffffffffffffffffffffffffffffffffffffffffffffffffffff1916149050919050565b600080610dc983611203565b9050600073ffffffffffffffffffffffffffffffffffffffff168173ffffffffffffffffffffffffffffffffffffffff1603610e3c57826040517f7e273289000000000000000000000000000000000000000000000000000000008152600401610e339190611f36565b60405180910390fd5b80915050919050565b60006004600083815260200190815260200160002060009054906101000a900473ffffffffffffffffffffffffffffffffffffffff169050919050565b600033905090565b610e978383836001611727565b505050565b600080610ea884611203565b9050600073ffffffffffffffffffffffffffffffffffffffff168373ffffffffffffffffffffffffffffffffffffffff1614610eea57610ee98184866118ec565b5b600073ffffffffffffffffffffffffffffffffffffffff168173ffffffffffffffffffffffffffffffffffffffff1614610f7b57610f2c600085600080611727565b6001600360008373ffffffffffffffffffffffffffffffffffffffff1673ffffffffffffffffffffffffffffffffffffffff168152602001908152602001600020600082825403925050819055505b600073ffffffffffffffffffffffffffffffffffffffff168573ffffffffffffffffffffffffffffffffffffffff1614610ffe576001600360008773ffffffffffffffffffffffffffffffffffffffff1673ffffffffffffffffffffffffffffffffffffffff168152602001908152602001600020600082825401925050819055505b846002600086815260200190815260200160002060006101000a81548173ffffffffffffffffffffffffffffffffffffffff021916908373ffffffffffffffffffffffffffffffffffffffff160217905550838573ffffffffffffffffffffffffffffffffffffffff168273ffffffffffffffffffffffffffffffffffffffff167fddf252ad1be2c89b69c2b068fc378daa952ba7f163c4a11628f55a4df523b3ef60405160405180910390a4809150509392505050565b6110be610e82565b73ffffffffffffffffffffffffffffffffffffffff166110dc61083e565b73ffffffffffffffffffffffffffffffffffffffff161461113b576110ff610e82565b6040517f118cdaa70000000000000000000000000000000000000000000000000000000081526004016111329190611de9565b60405180910390fd5b565b6000600660009054906101000a900473ffffffffffffffffffffffffffffffffffffffff16905081600660006101000a81548173ffffffffffffffffffffffffffffffffffffffff021916908373ffffffffffffffffffffffffffffffffffffffff1602179055508173ffffffffffffffffffffffffffffffffffffffff168173ffffffffffffffffffffffffffffffffffffffff167f8be0079c531659141344cd1fd0a4f28419497f9722a3daafe3b4186f6b6457e060405160405180910390a35050565b60006002600083815260200190815260200160002060009054906101000a900473ffffffffffffffffffffffffffffffffffffffff169050919050565b600073ffffffffffffffffffffffffffffffffffffffff168273ffffffffffffffffffffffffffffffffffffffff16036112b157816040517f5b08ba180000000000000000000000000000000000000000000000000000000081526004016112a89190611de9565b60405180910390fd5b80600560008573ffffffffffffffffffffffffffffffffffffffff1673ffffffffffffffffffffffffffffffffffffffff16815260200190815260200160002060008473ffffffffffffffffffffffffffffffffffffffff1673ffffffffffffffffffffffffffffffffffffffff16815260200190815260200160002060006101000a81548160ff0219169083151502179055508173ffffffffffffffffffffffffffffffffffffffff168373ffffffffffffffffffffffffffffffffffffffff167f17307eab39ab6107e8899845ad3d59bd9653f200f220920489ca2b5937696c31836040516113a29190611c78565b60405180910390a3505050565b60008373ffffffffffffffffffffffffffffffffffffffff163b1115611559578273ffffffffffffffffffffffffffffffffffffffff1663150b7a02868685856040518563ffffffff1660e01b815260040161140e949392919061264b565b6020604051808303816000875af192505050801561144a57506040513d601f19601f8201168201806040525081019061144791906126ac565b60015b6114ce573d806000811461147a576040519150601f19603f3d011682016040523d82523d6000602084013e61147f565b606091505b5060008151036114c657836040517f64a0ae920000000000000000000000000000000000000000000000000000000081526004016114bd9190611de9565b60405180910390fd5b805181602001fd5b63150b7a0260e01b7bffffffffffffffffffffffffffffffffffffffffffffffffffffffff1916817bffffffffffffffffffffffffffffffffffffffffffffffffffffffff19161461155757836040517f64a0ae9200000000000000000000000000000000000000000000000000000000815260040161154e9190611de9565b60405180910390fd5b505b5050505050565b60606000600161156f846119b0565b01905060008167ffffffffffffffff81111561158e5761158d611ff0565b5b6040519080825280601f01601f1916602001820160405280156115c05781602001600182028036833780820191505090505b509050600082602001820190505b600115611623578080600190039150507f3031323334353637383961626364656600000000000000000000000000000000600a86061a8153600a8581611617576116166126d9565b5b049450600085036115ce575b819350505050919050565b600073ffffffffffffffffffffffffffffffffffffffff168273ffffffffffffffffffffffffffffffffffffffff16036116a05760006040517f64a0ae920000000000000000000000000000000000000000000000000000000081526004016116979190611de9565b60405180910390fd5b60006116ae83836000610e9c565b9050600073ffffffffffffffffffffffffffffffffffffffff168173ffffffffffffffffffffffffffffffffffffffff16146117225760006040517f73c6ac6e0000000000000000000000000000000000000000000000000000000081526004016117199190611de9565b60405180910390fd5b505050565b80806117605750600073ffffffffffffffffffffffffffffffffffffffff168273ffffffffffffffffffffffffffffffffffffffff1614155b1561189457600061177084610dbd565b9050600073ffffffffffffffffffffffffffffffffffffffff168373ffffffffffffffffffffffffffffffffffffffff16141580156117db57508273ffffffffffffffffffffffffffffffffffffffff168173ffffffffffffffffffffffffffffffffffffffff1614155b80156117ee57506117ec8184610c19565b155b1561183057826040517fa9fbf51f0000000000000000000000000000000000000000000000000000000081526004016118279190611de9565b60405180910390fd5b811561189257838573ffffffffffffffffffffffffffffffffffffffff168273ffffffffffffffffffffffffffffffffffffffff167f8c5be1e5ebec7d5bd14f71427d1e84f3dd0314c0f7b2291e5b200ac8c7c3b92560405160405180910390a45b505b836004600085815260200190815260200160002060006101000a81548173ffffffffffffffffffffffffffffffffffffffff021916908373ffffffffffffffffffffffffffffffffffffffff16021790555050505050565b6118f7838383611b03565b6119ab57600073ffffffffffffffffffffffffffffffffffffffff168373ffffffffffffffffffffffffffffffffffffffff160361196c57806040517f7e2732890000000000000000000000000000000000000000000000000000000081526004016119639190611f36565b60405180910390fd5b81816040517f177e802f0000000000000000000000000000000000000000000000000000000081526004016119a2929190612708565b60405180910390fd5b505050565b600080600090507a184f03e93ff9f4daa797ed6e38ed64bf6a1f0100000000000000008310611a0e577a184f03e93ff9f4daa797ed6e38ed64bf6a1f0100000000000000008381611a0457611a036126d9565b5b0492506040810190505b6d04ee2d6d415b85acef81000000008310611a4b576d04ee2d6d415b85acef81000000008381611a4157611a406126d9565b5b0492506020810190505b662386f26fc100008310611a7a57662386f26fc100008381611a7057611a6f6126d9565b5b0492506010810190505b6305f5e1008310611aa3576305f5e1008381611a9957611a986126d9565b5b0492506008810190505b6127108310611ac8576127108381611abe57611abd6126d9565b5b0492506004810190505b60648310611aeb5760648381611ae157611ae06126d9565b5b0492506002810190505b600a8310611afa576001810190505b80915050919050565b60008073ffffffffffffffffffffffffffffffffffffffff168373ffffffffffffffffffffffffffffffffffffffff1614158015611bbb57508273ffffffffffffffffffffffffffffffffffffffff168473ffffffffffffffffffffffffffffffffffffffff161480611b7c5750611b7b8484610c19565b5b80611bba57508273ffffffffffffffffffffffffffffffffffffffff16611ba283610e45565b73ffffffffffffffffffffffffffffffffffffffff16145b5b90509392505050565b6000604051905090565b600080fd5b600080fd5b60007fffffffff0000000000000000000000000000000000000000000000000000000082169050919050565b611c0d81611bd8565b8114611c1857600080fd5b50565b600081359050611c2a81611c04565b92915050565b600060208284031215611c4657611c45611bce565b5b6000611c5484828501611c1b565b91505092915050565b60008115159050919050565b611c7281611c5d565b82525050565b6000602082019050611c8d6000830184611c69565b92915050565b600081519050919050565b600082825260208201905092915050565b60005b83811015611ccd578082015181840152602081019050611cb2565b60008484015250505050565b6000601f19601f8301169050919050565b6000611cf582611c93565b611cff8185611c9e565b9350611d0f818560208601611caf565b611d1881611cd9565b840191505092915050565b60006020820190508181036000830152611d3d8184611cea565b905092915050565b6000819050919050565b611d5881611d45565b8114611d6357600080fd5b50565b600081359050611d7581611d4f565b92915050565b600060208284031215611d9157611d90611bce565b5b6000611d9f84828501611d66565b91505092915050565b600073ffffffffffffffffffffffffffffffffffffffff82169050919050565b6000611dd382611da8565b9050919050565b611de381611dc8565b82525050565b6000602082019050611dfe6000830184611dda565b92915050565b611e0d81611dc8565b8114611e1857600080fd5b50565b600081359050611e2a81611e04565b92915050565b60008060408385031215611e4757611e46611bce565b5b6000611e5585828601611e1b565b9250506020611e6685828601611d66565b9150509250929050565b600080600060608486031215611e8957611e88611bce565b5b6000611e9786828701611e1b565b9350506020611ea886828701611e1b565b9250506040611eb986828701611d66565b9150509250925092565b600060ff82169050919050565b611ed981611ec3565b82525050565b6000602082019050611ef46000830184611ed0565b92915050565b600060208284031215611f1057611f0f611bce565b5b6000611f1e84828501611e1b565b91505092915050565b611f3081611d45565b82525050565b6000602082019050611f4b6000830184611f27565b92915050565b6000604082019050611f666000830185611ed0565b611f736020830184611ed0565b9392505050565b611f8381611c5d565b8114611f8e57600080fd5b50565b600081359050611fa081611f7a565b92915050565b60008060408385031215611fbd57611fbc611bce565b5b6000611fcb85828601611e1b565b9250506020611fdc85828601611f91565b9150509250929050565b600080fd5b600080fd5b7f4e487b7100000000000000000000000000000000000000000000000000000000600052604160045260246000fd5b61202882611cd9565b810181811067ffffffffffffffff8211171561204757612046611ff0565b5b80604052505050565b600061205a611bc4565b9050612066828261201f565b919050565b600067ffffffffffffffff82111561208657612085611ff0565b5b61208f82611cd9565b9050602081019050919050565b82818337600083830152505050565b60006120be6120b98461206b565b612050565b9050828152602081018484840111156120da576120d9611feb565b5b6120e584828561209c565b509392505050565b600082601f83011261210257612101611fe6565b5b81356121128482602086016120ab565b91505092915050565b6000806000806080858703121561213557612134611bce565b5b600061214387828801611e1b565b945050602061215487828801611e1b565b935050604061216587828801611d66565b925050606085013567ffffffffffffffff81111561218657612185611bd3565b5b612192878288016120ed565b91505092959194509250565b6121a781611ec3565b81146121b257600080fd5b50565b6000813590506121c48161219e565b92915050565b6000806000606084860312156121e3576121e2611bce565b5b60006121f186828701611e1b565b9350506020612202868287016121b5565b9250506040612213868287016121b5565b9150509250925092565b6000806040838503121561223457612233611bce565b5b600061224285828601611e1b565b925050602061225385828601611e1b565b9150509250929050565b7f4e487b7100000000000000000000000000000000000000000000000000000000600052602260045260246000fd5b600060028204905060018216806122a457607f821691505b6020821081036122b7576122b661225d565b5b50919050565b60006060820190506122d26000830186611dda565b6122df6020830185611f27565b6122ec6040830184611dda565b949350505050565b7f546f6b656e20646f6573206e6f74206578697374000000000000000000000000600082015250565b600061232a601483611c9e565b9150612335826122f4565b602082019050919050565b600060208201905081810360008301526123598161231d565b9050919050565b7f4e6f74206d696e74656400000000000000000000000000000000000000000000600082015250565b6000612396600a83611c9e565b91506123a182612360565b602082019050919050565b600060208201905081810360008301526123c581612389565b9050919050565b600081905092915050565b60008190508160005260206000209050919050565b600081546123f98161228c565b61240381866123cc565b9450600182166000811461241e576001811461243357612466565b60ff1983168652811515820286019350612466565b61243c856123d7565b60005b8381101561245e5781548189015260018201915060208101905061243f565b838801955050505b50505092915050565b600061247a82611c93565b61248481856123cc565b9350612494818560208601611caf565b80840191505092915050565b7f5f6c766c00000000000000000000000000000000000000000000000000000000600082015250565b60006124d66004836123cc565b91506124e1826124a0565b600482019050919050565b7f2e6a736f6e000000000000000000000000000000000000000000000000000000600082015250565b60006125226005836123cc565b915061252d826124ec565b600582019050919050565b600061254482866123ec565b9150612550828561246f565b915061255b826124c9565b9150612567828461246f565b915061257282612515565b9150819050949350505050565b7f4e487b7100000000000000000000000000000000000000000000000000000000600052601160045260246000fd5b60006125b982611d45565b91507fffffffffffffffffffffffffffffffffffffffffffffffffffffffffffffffff82036125eb576125ea61257f565b5b600182019050919050565b600081519050919050565b600082825260208201905092915050565b600061261d826125f6565b6126278185612601565b9350612637818560208601611caf565b61264081611cd9565b840191505092915050565b60006080820190506126606000830187611dda565b61266d6020830186611dda565b61267a6040830185611f27565b818103606083015261268c8184612612565b905095945050505050565b6000815190506126a681611c04565b92915050565b6000602082840312156126c2576126c1611bce565b5b60006126d084828501612697565b91505092915050565b7f4e487b7100000000000000000000000000000000000000000000000000000000600052601260045260246000fd5b600060408201905061271d6000830185611dda565b61272a6020830184611f27565b939250505056fea2646970667358221220c354e24906eae3046dc15d18d0415643f57f9acc04a5a853b6a3b4a6ef6915b564736f6c634300081c0033",
  "linkReferences": {},
  "deployedLinkReferences": {}
}