{
  "_format": "hh-sol-artifact-1",
  "contractName": "SkillMarketplace",
  "sourceName": "contracts/SkillMarketplace.sol",
  "abi": [
    {
      "inputs": [
        {
          "internalType": "address",
          "name": "_skillNFT",
          "type": "address"
        },
        {
          "internalType": "address",
          "name": "_flapToken",
          "type": "address"
        }
      ],
      "stateMutability": "nonpayable",
      "type": "constructor"
    },
    {
      "inputs": [],
      "name": "ReentrancyGuardReentrantCall",
      "type": "error"
    },
    {
      "anonymous": false,
      "inputs": [
        {
          "indexed": true,
          "internalType": "address",
          "name": "seller",
          "type": "address"
        },
        {
          "indexed": true,
          "internalType": "uint256",
          "name": "tokenId",
          "type": "uint256"
        }
      ],
      "name": "Cancelled",
      "type": "event"
    },
    {
      "anonymous": false,
      "inputs": [
        {
          "indexed": true,
          "internalType": "address",
          "name": "seller",
          "type": "address"
        },
        {
          "indexed": true,
          "internalType": "uint256",
          "name": "tokenId",
          "type": "uint256"
        },
        {
          "indexed": false,
          "internalType": "uint256",
          "name": "price",
          "type": "uint256"
        }
      ],
      "name": "Listed",
      "type": "event"
    },
    {
      "anonymous": false,
      "inputs": [
        {
          "indexed": true,
          "internalType": "address",
          "name": "buyer",
          "type": "address"
        },
        {
          "indexed": true,
          "internalType": "address",
          "name": "seller",
          "type": "address"
        },
        {
          "indexed": true,
          "internalType": "uint256",
          "name": "tokenId",
          "type": "uint256"
        },
        {
          "indexed": false,
          "internalType": "uint256",
          "name": "price",
          "type": "uint256"
        }
      ],
      "name": "Purchased",
      "type": "event"
    },
    {
      "anonymous": false,
      "inputs": [
        {
          "indexed": true,
          "internalType": "address",
          "name": "seller",
          "type": "address"
        },
        {
          "indexed": true,
          "internalType": "uint256",
          "name": "tokenId",
          "type": "uint256"
        },
        {
          "indexed": false,
          "internalType": "uint256",
          "name": "price",
          "type": "uint256"
        }
      ],
      "name": "SkillListed",
      "type": "event"
    },
    {
      "inputs": [
        {
          "internalType": "uint256",
          "name": "tokenId",
          "type": "uint256"
        }
      ],
      "name": "buySkill",
      "outputs": [],
      "stateMutability": "nonpayable",
      "type": "function"
    },
    {
      "inputs": [
        {
          "internalType": "uint256",
          "name": "tokenId",
          "type": "uint256"
        }
      ],
      "name": "cancelListing",
      "outputs": [],
      "stateMutability": "nonpayable",
      "type": "function"
    },
    {
      "inputs": [],
      "name": "flapToken",
      "outputs": [
        {
          "internalType": "contract IERC20",
          "name": "",
          "type": "address"
        }
      ],
      "stateMutability": "view",
      "type": "function"
    },
    {
      "inputs": [
        {
          "internalType": "uint256",
          "name": "tokenId",
          "type": "uint256"
        }
      ],
      "name": "getListing",
      "outputs": [
        {
          "internalType": "address",
          "name": "seller",
          "type": "address"
        },
        {
          "internalType": "uint256",
          "name": "price",
          "type": "uint256"
        }
      ],
      "stateMutability": "view",
      "type": "function"
    },
    {
      "inputs": [
        {
          "internalType": "uint256",
          "name": "tokenId",
          "type": "uint256"
        },
        {
          "internalType": "uint256",
          "name": "price",
          "type": "uint256"
        }
      ],
      "name": "listSkill",
      "outputs": [],
      "stateMutability": "nonpayable",
      "type": "function"
    },
    {
      "inputs": [
        {
          "internalType": "uint256",
          "name": "",
          "type": "uint256"
        }
      ],
      "name": "listings",
      "outputs": [
        {
          "internalType": "address",
          "name": "seller",
          "type": "address"
        },
        {
          "internalType": "uint256",
          "name": "price",
          "type": "uint256"
        }
      ],
      "stateMutability": "view",
      "type": "function"
    },
    {
      "inputs": [],
      "name": "skillNFT",
      "outputs": [
        {
          "internalType": "contract IERC721",
          "name": "",
          "type": "address"
        }
      ],
      "stateMutability": "view",
      "type": "function"
    }
  ],
  "bytecode": "0x60c060405234801561001057600080fd5b5060405161120d38038061120d8339818101604052810190610032919061010c565b60016000819055508173ffffffffffffffffffffffffffffffffffffffff1660808173ffffffffffffffffffffffffffffffffffffffff16815250508073ffffffffffffffffffffffffffffffffffffffff1660a08173ffffffffffffffffffffffffffffffffffffffff1681525050505061014c565b600080fd5b600073ffffffffffffffffffffffffffffffffffffffff82169050919050565b60006100d9826100ae565b9050919050565b6100e9816100ce565b81146100f457600080fd5b50565b600081519050610106816100e0565b92915050565b60008060408385031215610123576101226100a9565b5b6000610131858286016100f7565b9250506020610142858286016100f7565b9150509250929050565b60805160a05161107261019b6000396000818161020f01526103040152600081816103eb015281816106be015281816106f9015281816107b0015281816107ec015261090301526110726000f3fe608060405234801561001057600080fd5b506004361061007d5760003560e01c8063305a67a81161005b578063305a67a8146100ed57806392ca4bb914610109578063c84c671214610127578063de74e57b146101435761007d565b8063107a274a146100825780632be64d85146100b35780632d0674c7146100d1575b600080fd5b61009c60048036038101906100979190610ba6565b610174565b6040516100aa929190610c23565b60405180910390f35b6100bb61020d565b6040516100c89190610cab565b60405180910390f35b6100eb60048036038101906100e69190610ba6565b610231565b005b61010760048036038101906101029190610ba6565b61053b565b005b6101116106bc565b60405161011e9190610ce7565b60405180910390f35b610141600480360381019061013c9190610d02565b6106e0565b005b61015d60048036038101906101589190610ba6565b610ad7565b60405161016b929190610c23565b60405180910390f35b6000806000600160008581526020019081526020016000206040518060400160405290816000820160009054906101000a900473ffffffffffffffffffffffffffffffffffffffff1673ffffffffffffffffffffffffffffffffffffffff1673ffffffffffffffffffffffffffffffffffffffff1681526020016001820154815250509050806000015181602001519250925050915091565b7f000000000000000000000000000000000000000000000000000000000000000081565b610239610b1b565b6000600160008381526020019081526020016000206040518060400160405290816000820160009054906101000a900473ffffffffffffffffffffffffffffffffffffffff1673ffffffffffffffffffffffffffffffffffffffff1673ffffffffffffffffffffffffffffffffffffffff16815260200160018201548152505090506000816020015111610302576040517f08c379a00000000000000000000000000000000000000000000000000000000081526004016102f990610d9f565b60405180910390fd5b7f000000000000000000000000000000000000000000000000000000000000000073ffffffffffffffffffffffffffffffffffffffff166323b872dd33836000015184602001516040518463ffffffff1660e01b815260040161036793929190610dbf565b6020604051808303816000875af1158015610386573d6000803e3d6000fd5b505050506040513d601f19601f820116820180604052508101906103aa9190610e2e565b6103e9576040517f08c379a00000000000000000000000000000000000000000000000000000000081526004016103e090610ea7565b60405180910390fd5b7f000000000000000000000000000000000000000000000000000000000000000073ffffffffffffffffffffffffffffffffffffffff166342842e0e826000015133856040518463ffffffff1660e01b815260040161044a93929190610dbf565b600060405180830381600087803b15801561046457600080fd5b505af1158015610478573d6000803e3d6000fd5b5050505060016000838152602001908152602001600020600080820160006101000a81549073ffffffffffffffffffffffffffffffffffffffff02191690556001820160009055505081816000015173ffffffffffffffffffffffffffffffffffffffff163373ffffffffffffffffffffffffffffffffffffffff167fa326259ec721617acd3cb2a00bcbeac91eefe409880e49aa2bbf473ed648da4984602001516040516105279190610ec7565b60405180910390a450610538610b61565b50565b6000600160008381526020019081526020016000206040518060400160405290816000820160009054906101000a900473ffffffffffffffffffffffffffffffffffffffff1673ffffffffffffffffffffffffffffffffffffffff1673ffffffffffffffffffffffffffffffffffffffff16815260200160018201548152505090503373ffffffffffffffffffffffffffffffffffffffff16816000015173ffffffffffffffffffffffffffffffffffffffff161461062f576040517f08c379a000000000000000000000000000000000000000000000000000000000815260040161062690610f2e565b60405180910390fd5b60016000838152602001908152602001600020600080820160006101000a81549073ffffffffffffffffffffffffffffffffffffffff021916905560018201600090555050813373ffffffffffffffffffffffffffffffffffffffff167f36ea5cd5608625e789af0282eecdb4eae1cb7c1cf6d0ec3f9a84f35be850260b60405160405180910390a35050565b7f000000000000000000000000000000000000000000000000000000000000000081565b3373ffffffffffffffffffffffffffffffffffffffff167f000000000000000000000000000000000000000000000000000000000000000073ffffffffffffffffffffffffffffffffffffffff16636352211e846040518263ffffffff1660e01b81526004016107509190610ec7565b602060405180830381865afa15801561076d573d6000803e3d6000fd5b505050506040513d601f19601f820116820180604052508101906107919190610f7a565b73ffffffffffffffffffffffffffffffffffffffff1614806108e457507f000000000000000000000000000000000000000000000000000000000000000073ffffffffffffffffffffffffffffffffffffffff1663e985e9c57f000000000000000000000000000000000000000000000000000000000000000073ffffffffffffffffffffffffffffffffffffffff16636352211e856040518263ffffffff1660e01b81526004016108439190610ec7565b602060405180830381865afa158015610860573d6000803e3d6000fd5b505050506040513d601f19601f820116820180604052508101906108849190610f7a565b336040518363ffffffff1660e01b81526004016108a2929190610fa7565b602060405180830381865afa1580156108bf573d6000803e3d6000fd5b505050506040513d601f19601f820116820180604052508101906108e39190610e2e565b5b806109b357503373ffffffffffffffffffffffffffffffffffffffff167f000000000000000000000000000000000000000000000000000000000000000073ffffffffffffffffffffffffffffffffffffffff1663081812fc846040518263ffffffff1660e01b815260040161095a9190610ec7565b602060405180830381865afa158015610977573d6000803e3d6000fd5b505050506040513d601f19601f8201168201806040525081019061099b9190610f7a565b73ffffffffffffffffffffffffffffffffffffffff16145b6109f2576040517f08c379a00000000000000000000000000000000000000000000000000000000081526004016109e99061101c565b60405180910390fd5b60405180604001604052803373ffffffffffffffffffffffffffffffffffffffff168152602001828152506001600084815260200190815260200160002060008201518160000160006101000a81548173ffffffffffffffffffffffffffffffffffffffff021916908373ffffffffffffffffffffffffffffffffffffffff16021790555060208201518160010155905050813373ffffffffffffffffffffffffffffffffffffffff167f5075d85cfb7d5a531bbcf02991b27744b0ac3ce66c735fd9e7ed17786881704a83604051610acb9190610ec7565b60405180910390a35050565b60016020528060005260406000206000915090508060000160009054906101000a900473ffffffffffffffffffffffffffffffffffffffff16908060010154905082565b600260005403610b57576040517f3ee5aeb500000000000000000000000000000000000000000000000000000000815260040160405180910390fd5b6002600081905550565b6001600081905550565b600080fd5b6000819050919050565b610b8381610b70565b8114610b8e57600080fd5b50565b600081359050610ba081610b7a565b92915050565b600060208284031215610bbc57610bbb610b6b565b5b6000610bca84828501610b91565b91505092915050565b600073ffffffffffffffffffffffffffffffffffffffff82169050919050565b6000610bfe82610bd3565b9050919050565b610c0e81610bf3565b82525050565b610c1d81610b70565b82525050565b6000604082019050610c386000830185610c05565b610c456020830184610c14565b9392505050565b6000819050919050565b6000610c71610c6c610c6784610bd3565b610c4c565b610bd3565b9050919050565b6000610c8382610c56565b9050919050565b6000610c9582610c78565b9050919050565b610ca581610c8a565b82525050565b6000602082019050610cc06000830184610c9c565b92915050565b6000610cd182610c78565b9050919050565b610ce181610cc6565b82525050565b6000602082019050610cfc6000830184610cd8565b92915050565b60008060408385031215610d1957610d18610b6b565b5b6000610d2785828601610b91565b9250506020610d3885828601610b91565b9150509250929050565b600082825260208201905092915050565b7f4e6f74206c697374656400000000000000000000000000000000000000000000600082015250565b6000610d89600a83610d42565b9150610d9482610d53565b602082019050919050565b60006020820190508181036000830152610db881610d7c565b9050919050565b6000606082019050610dd46000830186610c05565b610de16020830185610c05565b610dee6040830184610c14565b949350505050565b60008115159050919050565b610e0b81610df6565b8114610e1657600080fd5b50565b600081519050610e2881610e02565b92915050565b600060208284031215610e4457610e43610b6b565b5b6000610e5284828501610e19565b91505092915050565b7f464c4150207472616e73666572206661696c6564000000000000000000000000600082015250565b6000610e91601483610d42565b9150610e9c82610e5b565b602082019050919050565b60006020820190508181036000830152610ec081610e84565b9050919050565b6000602082019050610edc6000830184610c14565b92915050565b7f4e6f7420796f7572206c697374696e6700000000000000000000000000000000600082015250565b6000610f18601083610d42565b9150610f2382610ee2565b602082019050919050565b60006020820190508181036000830152610f4781610f0b565b9050919050565b610f5781610bf3565b8114610f6257600080fd5b50565b600081519050610f7481610f4e565b92915050565b600060208284031215610f9057610f8f610b6b565b5b6000610f9e84828501610f65565b91505092915050565b6000604082019050610fbc6000830185610c05565b610fc96020830184610c05565b9392505050565b7f4e6f7420796f7572204e46540000000000000000000000000000000000000000600082015250565b6000611006600c83610d42565b915061101182610fd0565b602082019050919050565b6000602082019050818103600083015261103581610ff9565b905091905056fea26469706673582212208d921474f82b4aa664458cd2aa1bd594e6dc18d25e3f6137e16690422a2a646a64736f6c634300081c0033",
  "linkReferences": {},
  "deployedLinkReferences": {}
}