{
  "_format": "hh-sol-artifact-1",
  "contractName": "SkillMarketplace",
  "sourceName": "contracts/SkillMarketplace.sol",
  "abi": [
    {
      "inputs": [
        {
          "internalType": "address",
          "name": "_skillNFT",
          "type": "address"
        },
        {
          "internalType": "address",
          "name": "_flapToken",
          "type": "address"
        }
      ],
      "stateMutability": "nonpayable",
      "type": "constructor"
    },
    {
      "inputs": [],
      "name": "ReentrancyGuardReentrantCall",
      "type": "error"
    },
    {
      "anonymous": false,
      "inputs": [
        {
          "indexed": true,
          "internalType": "address",
          "name": "seller",
          "type": "address"
        },
        {
          "indexed": true,
          "internalType": "uint256",
          "name": "tokenId",
          "type": "uint256"
        }
      ],
      "name": "Cancelled",
      "type": "event"
    },
    {
      "anonymous": false,
      "inputs": [
        {
          "indexed": true,
          "internalType": "address",
          "name": "seller",
          "type": "address"
        },
        {
          "indexed": true,
          "internalType": "uint256",
          "name": "tokenId",
          "type": "uint256"
        },
        {
          "indexed": false,
          "internalType": "uint256",
          "name": "price",
          "type": "uint256"
        }
      ],
      "name": "Listed",
      "type": "event"
    },
    {
      "anonymous": false,
      "inputs": [
        {
          "indexed": true,
          "internalType": "address",
          "name": "buyer",
          "type": "address"
        },
        {
          "indexed": true,
          "internalType": "address",
          "name": "seller",
          "type": "address"
        },
        {
          "indexed": true,
          "internalType": "uint256",
          "name": "tokenId",
          "type": "uint256"
        },
        {
          "indexed": false,
          "internalType": "uint256",
          "name": "price",
          "type": "uint256"
        }
      ],
      "name": "Purchased",
      "type": "event"
    },
    {
      "anonymous": false,
      "inputs": [
        {
          "indexed": true,
          "internalType": "address",
          "name": "seller",
          "type": "address"
        },
        {
          "indexed": true,
          "internalType": "uint256",
          "name": "tokenId",
          "type": "uint256"
        },
        {
          "indexed": false,
          "internalType": "uint256",
          "name": "price",
          "type": "uint256"
        }
      ],
      "name": "SkillListed",
      "type": "event"
    },
    {
      "inputs": [
        {
          "internalType": "uint256",
          "name": "tokenId",
          "type": "uint256"
        }
      ],
      "name": "buySkill",
      "outputs": [],
      "stateMutability": "nonpayable",
      "type": "function"
    },
    {
      "inputs": [
        {
          "internalType": "uint256",
          "name": "tokenId",
          "type": "uint256"
        }
      ],
      "name": "cancelListing",
      "outputs": [],
      "stateMutability": "nonpayable",
      "type": "function"
    },
    {
      "inputs": [],
      "name": "flapToken",
      "outputs": [
        {
          "internalType": "contract IERC20",
          "name": "",
          "type": "address"
        }
      ],
      "stateMutability": "view",
      "type": "function"
    },
    {
      "inputs": [
        {
          "internalType": "uint256",
          "name": "tokenId",
          "type": "uint256"
        }
      ],
      "name": "getListing",
      "outputs": [
        {
          "internalType": "address",
          "name": "seller",
          "type": "address"
        },
        {
          "internalType": "uint256",
          "name": "price",
          "type": "uint256"
        }
      ],
      "stateMutability": "view",
      "type": "function"
    },
    {
      "inputs": [
        {
          "internalType": "address",
          "name": "seller",
          "type": "address"
        },
        {
          "internalType": "uint256",
          "name": "tokenId",
          "type": "uint256"
        },
        {
          "internalType": "uint256",
          "name": "price",
          "type": "uint256"
        }
      ],
      "name": "listSkill",
      "outputs": [],
      "stateMutability": "nonpayable",
      "type": "function"
    },
    {
      "inputs": [
        {
          "internalType": "uint256",
          "name": "",
          "type": "uint256"
        }
      ],
      "name": "listings",
      "outputs": [
        {
          "internalType": "address",
          "name": "seller",
          "type": "address"
        },
        {
          "internalType": "uint256",
          "name": "price",
          "type": "uint256"
        }
      ],
      "stateMutability": "view",
      "type": "function"
    },
    {
      "inputs": [],
      "name": "skillNFT",
      "outputs": [
        {
          "internalType": "contract IERC721",
          "name": "",
          "type": "address"
        }
      ],
      "stateMutability": "view",
      "type": "function"
    }
  ],
  "bytecode": "0x60c060405234801561001057600080fd5b506040516112363803806112368339818101604052810190610032919061010c565b60016000819055508173ffffffffffffffffffffffffffffffffffffffff1660808173ffffffffffffffffffffffffffffffffffffffff16815250508073ffffffffffffffffffffffffffffffffffffffff1660a08173ffffffffffffffffffffffffffffffffffffffff1681525050505061014c565b600080fd5b600073ffffffffffffffffffffffffffffffffffffffff82169050919050565b60006100d9826100ae565b9050919050565b6100e9816100ce565b81146100f457600080fd5b50565b600081519050610106816100e0565b92915050565b60008060408385031215610123576101226100a9565b5b6000610131858286016100f7565b9250506020610142858286016100f7565b9150509250929050565b60805160a05161109b61019b6000396000818161020f01526103040152600081816103eb015281816106be015281816106f9015281816107b0015281816107ec0152610903015261109b6000f3fe608060405234801561001057600080fd5b506004361061007d5760003560e01c8063305a67a81161005b578063305a67a8146100ed57806392ca4bb914610109578063c3b8820c14610127578063de74e57b146101435761007d565b8063107a274a146100825780632be64d85146100b35780632d0674c7146100d1575b600080fd5b61009c60048036038101906100979190610ba7565b610174565b6040516100aa929190610c24565b60405180910390f35b6100bb61020d565b6040516100c89190610cac565b60405180910390f35b6100eb60048036038101906100e69190610ba7565b610231565b005b61010760048036038101906101029190610ba7565b61053b565b005b6101116106bc565b60405161011e9190610ce8565b60405180910390f35b610141600480360381019061013c9190610d2f565b6106e0565b005b61015d60048036038101906101589190610ba7565b610ad8565b60405161016b929190610c24565b60405180910390f35b6000806000600160008581526020019081526020016000206040518060400160405290816000820160009054906101000a900473ffffffffffffffffffffffffffffffffffffffff1673ffffffffffffffffffffffffffffffffffffffff1673ffffffffffffffffffffffffffffffffffffffff1681526020016001820154815250509050806000015181602001519250925050915091565b7f000000000000000000000000000000000000000000000000000000000000000081565b610239610b1c565b6000600160008381526020019081526020016000206040518060400160405290816000820160009054906101000a900473ffffffffffffffffffffffffffffffffffffffff1673ffffffffffffffffffffffffffffffffffffffff1673ffffffffffffffffffffffffffffffffffffffff16815260200160018201548152505090506000816020015111610302576040517f08c379a00000000000000000000000000000000000000000000000000000000081526004016102f990610ddf565b60405180910390fd5b7f000000000000000000000000000000000000000000000000000000000000000073ffffffffffffffffffffffffffffffffffffffff166323b872dd33836000015184602001516040518463ffffffff1660e01b815260040161036793929190610dff565b6020604051808303816000875af1158015610386573d6000803e3d6000fd5b505050506040513d601f19601f820116820180604052508101906103aa9190610e6e565b6103e9576040517f08c379a00000000000000000000000000000000000000000000000000000000081526004016103e090610ee7565b60405180910390fd5b7f000000000000000000000000000000000000000000000000000000000000000073ffffffffffffffffffffffffffffffffffffffff166342842e0e826000015133856040518463ffffffff1660e01b815260040161044a93929190610dff565b600060405180830381600087803b15801561046457600080fd5b505af1158015610478573d6000803e3d6000fd5b5050505060016000838152602001908152602001600020600080820160006101000a81549073ffffffffffffffffffffffffffffffffffffffff02191690556001820160009055505081816000015173ffffffffffffffffffffffffffffffffffffffff163373ffffffffffffffffffffffffffffffffffffffff167fa326259ec721617acd3cb2a00bcbeac91eefe409880e49aa2bbf473ed648da4984602001516040516105279190610f07565b60405180910390a450610538610b62565b50565b6000600160008381526020019081526020016000206040518060400160405290816000820160009054906101000a900473ffffffffffffffffffffffffffffffffffffffff1673ffffffffffffffffffffffffffffffffffffffff1673ffffffffffffffffffffffffffffffffffffffff16815260200160018201548152505090503373ffffffffffffffffffffffffffffffffffffffff16816000015173ffffffffffffffffffffffffffffffffffffffff161461062f576040517f08c379a000000000000000000000000000000000000000000000000000000000815260040161062690610f6e565b60405180910390fd5b60016000838152602001908152602001600020600080820160006101000a81549073ffffffffffffffffffffffffffffffffffffffff021916905560018201600090555050813373ffffffffffffffffffffffffffffffffffffffff167f36ea5cd5608625e789af0282eecdb4eae1cb7c1cf6d0ec3f9a84f35be850260b60405160405180910390a35050565b7f000000000000000000000000000000000000000000000000000000000000000081565b8273ffffffffffffffffffffffffffffffffffffffff167f000000000000000000000000000000000000000000000000000000000000000073ffffffffffffffffffffffffffffffffffffffff16636352211e846040518263ffffffff1660e01b81526004016107509190610f07565b602060405180830381865afa15801561076d573d6000803e3d6000fd5b505050506040513d601f19601f820116820180604052508101906107919190610fa3565b73ffffffffffffffffffffffffffffffffffffffff1614806108e457507f000000000000000000000000000000000000000000000000000000000000000073ffffffffffffffffffffffffffffffffffffffff1663e985e9c57f000000000000000000000000000000000000000000000000000000000000000073ffffffffffffffffffffffffffffffffffffffff16636352211e856040518263ffffffff1660e01b81526004016108439190610f07565b602060405180830381865afa158015610860573d6000803e3d6000fd5b505050506040513d601f19601f820116820180604052508101906108849190610fa3565b336040518363ffffffff1660e01b81526004016108a2929190610fd0565b602060405180830381865afa1580156108bf573d6000803e3d6000fd5b505050506040513d601f19601f820116820180604052508101906108e39190610e6e565b5b806109b357503373ffffffffffffffffffffffffffffffffffffffff167f000000000000000000000000000000000000000000000000000000000000000073ffffffffffffffffffffffffffffffffffffffff1663081812fc846040518263ffffffff1660e01b815260040161095a9190610f07565b602060405180830381865afa158015610977573d6000803e3d6000fd5b505050506040513d601f19601f8201168201806040525081019061099b9190610fa3565b73ffffffffffffffffffffffffffffffffffffffff16145b6109f2576040517f08c379a00000000000000000000000000000000000000000000000000000000081526004016109e990611045565b60405180910390fd5b60405180604001604052808473ffffffffffffffffffffffffffffffffffffffff168152602001828152506001600084815260200190815260200160002060008201518160000160006101000a81548173ffffffffffffffffffffffffffffffffffffffff021916908373ffffffffffffffffffffffffffffffffffffffff16021790555060208201518160010155905050818373ffffffffffffffffffffffffffffffffffffffff167f5075d85cfb7d5a531bbcf02991b27744b0ac3ce66c735fd9e7ed17786881704a83604051610acb9190610f07565b60405180910390a3505050565b60016020528060005260406000206000915090508060000160009054906101000a900473ffffffffffffffffffffffffffffffffffffffff16908060010154905082565b600260005403610b58576040517f3ee5aeb500000000000000000000000000000000000000000000000000000000815260040160405180910390fd5b6002600081905550565b6001600081905550565b600080fd5b6000819050919050565b610b8481610b71565b8114610b8f57600080fd5b50565b600081359050610ba181610b7b565b92915050565b600060208284031215610bbd57610bbc610b6c565b5b6000610bcb84828501610b92565b91505092915050565b600073ffffffffffffffffffffffffffffffffffffffff82169050919050565b6000610bff82610bd4565b9050919050565b610c0f81610bf4565b82525050565b610c1e81610b71565b82525050565b6000604082019050610c396000830185610c06565b610c466020830184610c15565b9392505050565b6000819050919050565b6000610c72610c6d610c6884610bd4565b610c4d565b610bd4565b9050919050565b6000610c8482610c57565b9050919050565b6000610c9682610c79565b9050919050565b610ca681610c8b565b82525050565b6000602082019050610cc16000830184610c9d565b92915050565b6000610cd282610c79565b9050919050565b610ce281610cc7565b82525050565b6000602082019050610cfd6000830184610cd9565b92915050565b610d0c81610bf4565b8114610d1757600080fd5b50565b600081359050610d2981610d03565b92915050565b600080600060608486031215610d4857610d47610b6c565b5b6000610d5686828701610d1a565b9350506020610d6786828701610b92565b9250506040610d7886828701610b92565b9150509250925092565b600082825260208201905092915050565b7f4e6f74206c697374656400000000000000000000000000000000000000000000600082015250565b6000610dc9600a83610d82565b9150610dd482610d93565b602082019050919050565b60006020820190508181036000830152610df881610dbc565b9050919050565b6000606082019050610e146000830186610c06565b610e216020830185610c06565b610e2e6040830184610c15565b949350505050565b60008115159050919050565b610e4b81610e36565b8114610e5657600080fd5b50565b600081519050610e6881610e42565b92915050565b600060208284031215610e8457610e83610b6c565b5b6000610e9284828501610e59565b91505092915050565b7f464c4150207472616e73666572206661696c6564000000000000000000000000600082015250565b6000610ed1601483610d82565b9150610edc82610e9b565b602082019050919050565b60006020820190508181036000830152610f0081610ec4565b9050919050565b6000602082019050610f1c6000830184610c15565b92915050565b7f4e6f7420796f7572206c697374696e6700000000000000000000000000000000600082015250565b6000610f58601083610d82565b9150610f6382610f22565b602082019050919050565b60006020820190508181036000830152610f8781610f4b565b9050919050565b600081519050610f9d81610d03565b92915050565b600060208284031215610fb957610fb8610b6c565b5b6000610fc784828501610f8e565b91505092915050565b6000604082019050610fe56000830185610c06565b610ff26020830184610c06565b9392505050565b7f4e6f7420796f7572204e46540000000000000000000000000000000000000000600082015250565b600061102f600c83610d82565b915061103a82610ff9565b602082019050919050565b6000602082019050818103600083015261105e81611022565b905091905056fea2646970667358221220432f32bd2ff4c8a2efabdbc39f426bf922315e4faee47e9b24250bc192a95bf064736f6c634300081c0033",
  "linkReferences": {},
  "deployedLinkReferences": {}
}