{
  "_format": "hh-sol-artifact-1",
  "contractName": "SkillNFT",
  "sourceName": "contracts/SkillNFT.sol",
  "abi": [
    {
      "inputs": [
        {
          "internalType": "address",
          "name": "initialOwner",
          "type": "address"
        },
        {
          "internalType": "string",
          "name": "_baseTokenURI",
          "type": "string"
        }
      ],
      "stateMutability": "nonpayable",
      "type": "constructor"
    },
    {
      "inputs": [
        {
          "internalType": "address",
          "name": "sender",
          "type": "address"
        },
        {
          "internalType": "uint256",
          "name": "tokenId",
          "type": "uint256"
        },
        {
          "internalType": "address",
          "name": "owner",
          "type": "address"
        }
      ],
      "name": "ERC721IncorrectOwner",
      "type": "error"
    },
    {
      "inputs": [
        {
          "internalType": "address",
          "name": "operator",
          "type": "address"
        },
        {
          "internalType": "uint256",
          "name": "tokenId",
          "type": "uint256"
        }
      ],
      "name": "ERC721InsufficientApproval",
      "type": "error"
    },
    {
      "inputs": [
        {
          "internalType": "address",
          "name": "approver",
          "type": "address"
        }
      ],
      "name": "ERC721InvalidApprover",
      "type": "error"
    },
    {
      "inputs": [
        {
          "internalType": "address",
          "name": "operator",
          "type": "address"
        }
      ],
      "name": "ERC721InvalidOperator",
      "type": "error"
    },
    {
      "inputs": [
        {
          "internalType": "address",
          "name": "owner",
          "type": "address"
        }
      ],
      "name": "ERC721InvalidOwner",
      "type": "error"
    },
    {
      "inputs": [
        {
          "internalType": "address",
          "name": "receiver",
          "type": "address"
        }
      ],
      "name": "ERC721InvalidReceiver",
      "type": "error"
    },
    {
      "inputs": [
        {
          "internalType": "address",
          "name": "sender",
          "type": "address"
        }
      ],
      "name": "ERC721InvalidSender",
      "type": "error"
    },
    {
      "inputs": [
        {
          "internalType": "uint256",
          "name": "tokenId",
          "type": "uint256"
        }
      ],
      "name": "ERC721NonexistentToken",
      "type": "error"
    },
    {
      "inputs": [
        {
          "internalType": "address",
          "name": "owner",
          "type": "address"
        }
      ],
      "name": "OwnableInvalidOwner",
      "type": "error"
    },
    {
      "inputs": [
        {
          "internalType": "address",
          "name": "account",
          "type": "address"
        }
      ],
      "name": "OwnableUnauthorizedAccount",
      "type": "error"
    },
    {
      "anonymous": false,
      "inputs": [
        {
          "indexed": true,
          "internalType": "address",
          "name": "owner",
          "type": "address"
        },
        {
          "indexed": true,
          "internalType": "address",
          "name": "approved",
          "type": "address"
        },
        {
          "indexed": true,
          "internalType": "uint256",
          "name": "tokenId",
          "type": "uint256"
        }
      ],
      "name": "Approval",
      "type": "event"
    },
    {
      "anonymous": false,
      "inputs": [
        {
          "indexed": true,
          "internalType": "address",
          "name": "owner",
          "type": "address"
        },
        {
          "indexed": true,
          "internalType": "address",
          "name": "operator",
          "type": "address"
        },
        {
          "indexed": false,
          "internalType": "bool",
          "name": "approved",
          "type": "bool"
        }
      ],
      "name": "ApprovalForAll",
      "type": "event"
    },
    {
      "anonymous": false,
      "inputs": [
        {
          "indexed": true,
          "internalType": "address",
          "name": "previousOwner",
          "type": "address"
        },
        {
          "indexed": true,
          "internalType": "address",
          "name": "newOwner",
          "type": "address"
        }
      ],
      "name": "OwnershipTransferred",
      "type": "event"
    },
    {
      "anonymous": false,
      "inputs": [
        {
          "indexed": true,
          "internalType": "address",
          "name": "from",
          "type": "address"
        },
        {
          "indexed": true,
          "internalType": "address",
          "name": "to",
          "type": "address"
        },
        {
          "indexed": true,
          "internalType": "uint256",
          "name": "tokenId",
          "type": "uint256"
        }
      ],
      "name": "Transfer",
      "type": "event"
    },
    {
      "inputs": [
        {
          "internalType": "address",
          "name": "to",
          "type": "address"
        },
        {
          "internalType": "uint256",
          "name": "tokenId",
          "type": "uint256"
        }
      ],
      "name": "approve",
      "outputs": [],
      "stateMutability": "nonpayable",
      "type": "function"
    },
    {
      "inputs": [
        {
          "internalType": "address",
          "name": "owner",
          "type": "address"
        }
      ],
      "name": "balanceOf",
      "outputs": [
        {
          "internalType": "uint256",
          "name": "",
          "type": "uint256"
        }
      ],
      "stateMutability": "view",
      "type": "function"
    },
    {
      "inputs": [],
      "name": "baseTokenURI",
      "outputs": [
        {
          "internalType": "string",
          "name": "",
          "type": "string"
        }
      ],
      "stateMutability": "view",
      "type": "function"
    },
    {
      "inputs": [
        {
          "internalType": "uint256",
          "name": "tokenId",
          "type": "uint256"
        }
      ],
      "name": "getApproved",
      "outputs": [
        {
          "internalType": "address",
          "name": "",
          "type": "address"
        }
      ],
      "stateMutability": "view",
      "type": "function"
    },
    {
      "inputs": [
        {
          "internalType": "address",
          "name": "owner",
          "type": "address"
        },
        {
          "internalType": "address",
          "name": "operator",
          "type": "address"
        }
      ],
      "name": "isApprovedForAll",
      "outputs": [
        {
          "internalType": "bool",
          "name": "",
          "type": "bool"
        }
      ],
      "stateMutability": "view",
      "type": "function"
    },
    {
      "inputs": [],
      "name": "name",
      "outputs": [
        {
          "internalType": "string",
          "name": "",
          "type": "string"
        }
      ],
      "stateMutability": "view",
      "type": "function"
    },
    {
      "inputs": [],
      "name": "nextTokenId",
      "outputs": [
        {
          "internalType": "uint256",
          "name": "",
          "type": "uint256"
        }
      ],
      "stateMutability": "view",
      "type": "function"
    },
    {
      "inputs": [],
      "name": "owner",
      "outputs": [
        {
          "internalType": "address",
          "name": "",
          "type": "address"
        }
      ],
      "stateMutability": "view",
      "type": "function"
    },
    {
      "inputs": [
        {
          "internalType": "uint256",
          "name": "tokenId",
          "type": "uint256"
        }
      ],
      "name": "ownerOf",
      "outputs": [
        {
          "internalType": "address",
          "name": "",
          "type": "address"
        }
      ],
      "stateMutability": "view",
      "type": "function"
    },
    {
      "inputs": [],
      "name": "renounceOwnership",
      "outputs": [],
      "stateMutability": "nonpayable",
      "type": "function"
    },
    {
      "inputs": [
        {
          "internalType": "address",
          "name": "to",
          "type": "address"
        },
        {
          "internalType": "uint8",
          "name": "_type",
          "type": "uint8"
        },
        {
          "internalType": "uint8",
          "name": "_level",
          "type": "uint8"
        }
      ],
      "name": "safeMint",
      "outputs": [
        {
          "internalType": "uint256",
          "name": "",
          "type": "uint256"
        }
      ],
      "stateMutability": "nonpayable",
      "type": "function"
    },
    {
      "inputs": [
        {
          "internalType": "address",
          "name": "from",
          "type": "address"
        },
        {
          "internalType": "address",
          "name": "to",
          "type": "address"
        },
        {
          "internalType": "uint256",
          "name": "tokenId",
          "type": "uint256"
        }
      ],
      "name": "safeTransferFrom",
      "outputs": [],
      "stateMutability": "nonpayable",
      "type": "function"
    },
    {
      "inputs": [
        {
          "internalType": "address",
          "name": "from",
          "type": "address"
        },
        {
          "internalType": "address",
          "name": "to",
          "type": "address"
        },
        {
          "internalType": "uint256",
          "name": "tokenId",
          "type": "uint256"
        },
        {
          "internalType": "bytes",
          "name": "data",
          "type": "bytes"
        }
      ],
      "name": "safeTransferFrom",
      "outputs": [],
      "stateMutability": "nonpayable",
      "type": "function"
    },
    {
      "inputs": [
        {
          "internalType": "address",
          "name": "operator",
          "type": "address"
        },
        {
          "internalType": "bool",
          "name": "approved",
          "type": "bool"
        }
      ],
      "name": "setApprovalForAll",
      "outputs": [],
      "stateMutability": "nonpayable",
      "type": "function"
    },
    {
      "inputs": [
        {
          "internalType": "uint256",
          "name": "",
          "type": "uint256"
        }
      ],
      "name": "skillLevel",
      "outputs": [
        {
          "internalType": "uint8",
          "name": "",
          "type": "uint8"
        }
      ],
      "stateMutability": "view",
      "type": "function"
    },
    {
      "inputs": [
        {
          "internalType": "uint256",
          "name": "",
          "type": "uint256"
        }
      ],
      "name": "skillType",
      "outputs": [
        {
          "internalType": "uint8",
          "name": "",
          "type": "uint8"
        }
      ],
      "stateMutability": "view",
      "type": "function"
    },
    {
      "inputs": [
        {
          "internalType": "bytes4",
          "name": "interfaceId",
          "type": "bytes4"
        }
      ],
      "name": "supportsInterface",
      "outputs": [
        {
          "internalType": "bool",
          "name": "",
          "type": "bool"
        }
      ],
      "stateMutability": "view",
      "type": "function"
    },
    {
      "inputs": [],
      "name": "symbol",
      "outputs": [
        {
          "internalType": "string",
          "name": "",
          "type": "string"
        }
      ],
      "stateMutability": "view",
      "type": "function"
    },
    {
      "inputs": [
        {
          "internalType": "uint256",
          "name": "tokenId",
          "type": "uint256"
        }
      ],
      "name": "tokenURI",
      "outputs": [
        {
          "internalType": "string",
          "name": "",
          "type": "string"
        }
      ],
      "stateMutability": "view",
      "type": "function"
    },
    {
      "inputs": [
        {
          "internalType": "address",
          "name": "from",
          "type": "address"
        },
        {
          "internalType": "address",
          "name": "to",
          "type": "address"
        },
        {
          "internalType": "uint256",
          "name": "tokenId",
          "type": "uint256"
        }
      ],
      "name": "transferFrom",
      "outputs": [],
      "stateMutability": "nonpayable",
      "type": "function"
    },
    {
      "inputs": [
        {
          "internalType": "address",
          "name": "newOwner",
          "type": "address"
        }
      ],
      "name": "transferOwnership",
      "outputs": [],
      "stateMutability": "nonpayable",
      "type": "function"
    }
  ],
  "bytecode": "0x608060405234801561001057600080fd5b50604051612d4c380380612d4c833981810160405281019061003291906103f3565b816040518060400160405280600e81526020017f466c617070796d6f6e536b696c6c0000000000000000000000000000000000008152506040518060400160405280600581526020017f534b494c4c00000000000000000000000000000000000000000000000000000081525081600090816100ae9190610670565b5080600190816100be9190610670565b505050600073ffffffffffffffffffffffffffffffffffffffff168173ffffffffffffffffffffffffffffffffffffffff16036101335760006040517f1e4fbdf700000000000000000000000000000000000000000000000000000000815260040161012a9190610751565b60405180910390fd5b6101428161015a60201b60201c565b5080600890816101529190610670565b50505061076c565b6000600660009054906101000a900473ffffffffffffffffffffffffffffffffffffffff16905081600660006101000a81548173ffffffffffffffffffffffffffffffffffffffff021916908373ffffffffffffffffffffffffffffffffffffffff1602179055508173ffffffffffffffffffffffffffffffffffffffff168173ffffffffffffffffffffffffffffffffffffffff167f8be0079c531659141344cd1fd0a4f28419497f9722a3daafe3b4186f6b6457e060405160405180910390a35050565b6000604051905090565b600080fd5b600080fd5b600073ffffffffffffffffffffffffffffffffffffffff82169050919050565b600061025f82610234565b9050919050565b61026f81610254565b811461027a57600080fd5b50565b60008151905061028c81610266565b92915050565b600080fd5b600080fd5b6000601f19601f8301169050919050565b7f4e487b7100000000000000000000000000000000000000000000000000000000600052604160045260246000fd5b6102e58261029c565b810181811067ffffffffffffffff82111715610304576103036102ad565b5b80604052505050565b6000610317610220565b905061032382826102dc565b919050565b600067ffffffffffffffff821115610343576103426102ad565b5b61034c8261029c565b9050602081019050919050565b60005b8381101561037757808201518184015260208101905061035c565b60008484015250505050565b600061039661039184610328565b61030d565b9050828152602081018484840111156103b2576103b1610297565b5b6103bd848285610359565b509392505050565b600082601f8301126103da576103d9610292565b5b81516103ea848260208601610383565b91505092915050565b6000806040838503121561040a5761040961022a565b5b60006104188582860161027d565b925050602083015167ffffffffffffffff8111156104395761043861022f565b5b610445858286016103c5565b9150509250929050565b600081519050919050565b7f4e487b7100000000000000000000000000000000000000000000000000000000600052602260045260246000fd5b600060028204905060018216806104a157607f821691505b6020821081036104b4576104b361045a565b5b50919050565b60008190508160005260206000209050919050565b60006020601f8301049050919050565b600082821b905092915050565b60006008830261051c7fffffffffffffffffffffffffffffffffffffffffffffffffffffffffffffffff826104df565b61052686836104df565b95508019841693508086168417925050509392505050565b6000819050919050565b6000819050919050565b600061056d6105686105638461053e565b610548565b61053e565b9050919050565b6000819050919050565b61058783610552565b61059b61059382610574565b8484546104ec565b825550505050565b600090565b6105b06105a3565b6105bb81848461057e565b505050565b5b818110156105df576105d46000826105a8565b6001810190506105c1565b5050565b601f821115610624576105f5816104ba565b6105fe846104cf565b8101602085101561060d578190505b610621610619856104cf565b8301826105c0565b50505b505050565b600082821c905092915050565b600061064760001984600802610629565b1980831691505092915050565b60006106608383610636565b9150826002028217905092915050565b6106798261044f565b67ffffffffffffffff811115610692576106916102ad565b5b61069c8254610489565b6106a78282856105e3565b600060209050601f8311600181146106da57600084156106c8578287015190505b6106d28582610654565b86555061073a565b601f1984166106e8866104ba565b60005b82811015610710578489015182556001820191506020850194506020810190506106eb565b8683101561072d5784890151610729601f891682610636565b8355505b6001600288020188555050505b505050505050565b61074b81610254565b82525050565b60006020820190506107666000830184610742565b92915050565b6125d18061077b6000396000f3fe608060405234801561001057600080fd5b50600436106101375760003560e01c806375794a3c116100b8578063c87b56dd1161007c578063c87b56dd1461033a578063d547cfb71461036a578063d81a213314610388578063e985e9c5146103b8578063efe39331146103e8578063f2fde38b1461041857610137565b806375794a3c146102a85780638da5cb5b146102c657806395d89b41146102e4578063a22cb46514610302578063b88d4fde1461031e57610137565b80632a8a9176116100ff5780632a8a9176146101f257806342842e0e146102225780636352211e1461023e57806370a082311461026e578063715018a61461029e57610137565b806301ffc9a71461013c57806306fdde031461016c578063081812fc1461018a578063095ea7b3146101ba57806323b872dd146101d6575b600080fd5b61015660048036038101906101519190611b2f565b610434565b6040516101639190611b77565b60405180910390f35b610174610516565b6040516101819190611c22565b60405180910390f35b6101a4600480360381019061019f9190611c7a565b6105a8565b6040516101b19190611ce8565b60405180910390f35b6101d460048036038101906101cf9190611d2f565b6105c4565b005b6101f060048036038101906101eb9190611d6f565b6105da565b005b61020c60048036038101906102079190611c7a565b6106dc565b6040516102199190611dde565b60405180910390f35b61023c60048036038101906102379190611d6f565b6106fc565b005b61025860048036038101906102539190611c7a565b61071c565b6040516102659190611ce8565b60405180910390f35b61028860048036038101906102839190611df9565b61072e565b6040516102959190611e35565b60405180910390f35b6102a66107e8565b005b6102b06107fc565b6040516102bd9190611e35565b60405180910390f35b6102ce610802565b6040516102db9190611ce8565b60405180910390f35b6102ec61082c565b6040516102f99190611c22565b60405180910390f35b61031c60048036038101906103179190611e7c565b6108be565b005b61033860048036038101906103339190611ff1565b6108d4565b005b610354600480360381019061034f9190611c7a565b6108f9565b6040516103619190611c22565b60405180910390f35b6103726109f4565b60405161037f9190611c22565b60405180910390f35b6103a2600480360381019061039d91906120a0565b610a82565b6040516103af9190611e35565b60405180910390f35b6103d260048036038101906103cd91906120f3565b610b18565b6040516103df9190611b77565b60405180910390f35b61040260048036038101906103fd9190611c7a565b610bac565b60405161040f9190611dde565b60405180910390f35b610432600480360381019061042d9190611df9565b610bcc565b005b60007f80ac58cd000000000000000000000000000000000000000000000000000000007bffffffffffffffffffffffffffffffffffffffffffffffffffffffff1916827bffffffffffffffffffffffffffffffffffffffffffffffffffffffff191614806104ff57507f5b5e139f000000000000000000000000000000000000000000000000000000007bffffffffffffffffffffffffffffffffffffffffffffffffffffffff1916827bffffffffffffffffffffffffffffffffffffffffffffffffffffffff1916145b8061050f575061050e82610c52565b5b9050919050565b60606000805461052590612162565b80601f016020809104026020016040519081016040528092919081815260200182805461055190612162565b801561059e5780601f106105735761010080835404028352916020019161059e565b820191906000526020600020905b81548152906001019060200180831161058157829003601f168201915b5050505050905090565b60006105b382610cbc565b506105bd82610d44565b9050919050565b6105d682826105d1610d81565b610d89565b5050565b600073ffffffffffffffffffffffffffffffffffffffff168273ffffffffffffffffffffffffffffffffffffffff160361064c5760006040517f64a0ae920000000000000000000000000000000000000000000000000000000081526004016106439190611ce8565b60405180910390fd5b6000610660838361065b610d81565b610d9b565b90508373ffffffffffffffffffffffffffffffffffffffff168173ffffffffffffffffffffffffffffffffffffffff16146106d6578382826040517f64283d7b0000000000000000000000000000000000000000000000000000000081526004016106cd93929190612193565b60405180910390fd5b50505050565b60096020528060005260406000206000915054906101000a900460ff1681565b610717838383604051806020016040528060008152506108d4565b505050565b600061072782610cbc565b9050919050565b60008073ffffffffffffffffffffffffffffffffffffffff168273ffffffffffffffffffffffffffffffffffffffff16036107a15760006040517f89c62b640000000000000000000000000000000000000000000000000000000081526004016107989190611ce8565b60405180910390fd5b600360008373ffffffffffffffffffffffffffffffffffffffff1673ffffffffffffffffffffffffffffffffffffffff168152602001908152602001600020549050919050565b6107f0610fb5565b6107fa600061103c565b565b60075481565b6000600660009054906101000a900473ffffffffffffffffffffffffffffffffffffffff16905090565b60606001805461083b90612162565b80601f016020809104026020016040519081016040528092919081815260200182805461086790612162565b80156108b45780601f10610889576101008083540402835291602001916108b4565b820191906000526020600020905b81548152906001019060200180831161089757829003601f168201915b5050505050905090565b6108d06108c9610d81565b8383611102565b5050565b6108df8484846105da565b6108f36108ea610d81565b85858585611271565b50505050565b6060600073ffffffffffffffffffffffffffffffffffffffff1661091c83611422565b73ffffffffffffffffffffffffffffffffffffffff1603610972576040517f08c379a000000000000000000000000000000000000000000000000000000000815260040161096990612216565b60405180910390fd5b60086109a06009600085815260200190815260200160002060009054906101000a900460ff1660ff1661145f565b6109cc600a600086815260200190815260200160002060009054906101000a900460ff1660ff1661145f565b6040516020016109de939291906123a2565b6040516020818303038152906040529050919050565b60088054610a0190612162565b80601f0160208091040260200160405190810160405280929190818152602001828054610a2d90612162565b8015610a7a5780601f10610a4f57610100808354040283529160200191610a7a565b820191906000526020600020905b815481529060010190602001808311610a5d57829003601f168201915b505050505081565b6000610a8c610fb5565b6000600754905060076000815480929190610aa690612418565b9190505550610ab5858261152d565b836009600083815260200190815260200160002060006101000a81548160ff021916908360ff16021790555082600a600083815260200190815260200160002060006101000a81548160ff021916908360ff160217905550809150509392505050565b6000600560008473ffffffffffffffffffffffffffffffffffffffff1673ffffffffffffffffffffffffffffffffffffffff16815260200190815260200160002060008373ffffffffffffffffffffffffffffffffffffffff1673ffffffffffffffffffffffffffffffffffffffff16815260200190815260200160002060009054906101000a900460ff16905092915050565b600a6020528060005260406000206000915054906101000a900460ff1681565b610bd4610fb5565b600073ffffffffffffffffffffffffffffffffffffffff168173ffffffffffffffffffffffffffffffffffffffff1603610c465760006040517f1e4fbdf7000000000000000000000000000000000000000000000000000000008152600401610c3d9190611ce8565b60405180910390fd5b610c4f8161103c565b50565b60007f01ffc9a7000000000000000000000000000000000000000000000000000000007bffffffffffffffffffffffffffffffffffffffffffffffffffffffff1916827bffffffffffffffffffffffffffffffffffffffffffffffffffffffff1916149050919050565b600080610cc883611422565b9050600073ffffffffffffffffffffffffffffffffffffffff168173ffffffffffffffffffffffffffffffffffffffff1603610d3b57826040517f7e273289000000000000000000000000000000000000000000000000000000008152600401610d329190611e35565b60405180910390fd5b80915050919050565b60006004600083815260200190815260200160002060009054906101000a900473ffffffffffffffffffffffffffffffffffffffff169050919050565b600033905090565b610d968383836001611626565b505050565b600080610da784611422565b9050600073ffffffffffffffffffffffffffffffffffffffff168373ffffffffffffffffffffffffffffffffffffffff1614610de957610de88184866117eb565b5b600073ffffffffffffffffffffffffffffffffffffffff168173ffffffffffffffffffffffffffffffffffffffff1614610e7a57610e2b600085600080611626565b6001600360008373ffffffffffffffffffffffffffffffffffffffff1673ffffffffffffffffffffffffffffffffffffffff168152602001908152602001600020600082825403925050819055505b600073ffffffffffffffffffffffffffffffffffffffff168573ffffffffffffffffffffffffffffffffffffffff1614610efd576001600360008773ffffffffffffffffffffffffffffffffffffffff1673ffffffffffffffffffffffffffffffffffffffff168152602001908152602001600020600082825401925050819055505b846002600086815260200190815260200160002060006101000a81548173ffffffffffffffffffffffffffffffffffffffff021916908373ffffffffffffffffffffffffffffffffffffffff160217905550838573ffffffffffffffffffffffffffffffffffffffff168273ffffffffffffffffffffffffffffffffffffffff167fddf252ad1be2c89b69c2b068fc378daa952ba7f163c4a11628f55a4df523b3ef60405160405180910390a4809150509392505050565b610fbd610d81565b73ffffffffffffffffffffffffffffffffffffffff16610fdb610802565b73ffffffffffffffffffffffffffffffffffffffff161461103a57610ffe610d81565b6040517f118cdaa70000000000000000000000000000000000000000000000000000000081526004016110319190611ce8565b60405180910390fd5b565b6000600660009054906101000a900473ffffffffffffffffffffffffffffffffffffffff16905081600660006101000a81548173ffffffffffffffffffffffffffffffffffffffff021916908373ffffffffffffffffffffffffffffffffffffffff1602179055508173ffffffffffffffffffffffffffffffffffffffff168173ffffffffffffffffffffffffffffffffffffffff167f8be0079c531659141344cd1fd0a4f28419497f9722a3daafe3b4186f6b6457e060405160405180910390a35050565b600073ffffffffffffffffffffffffffffffffffffffff168273ffffffffffffffffffffffffffffffffffffffff160361117357816040517f5b08ba1800000000000000000000000000000000000000000000000000000000815260040161116a9190611ce8565b60405180910390fd5b80600560008573ffffffffffffffffffffffffffffffffffffffff1673ffffffffffffffffffffffffffffffffffffffff16815260200190815260200160002060008473ffffffffffffffffffffffffffffffffffffffff1673ffffffffffffffffffffffffffffffffffffffff16815260200190815260200160002060006101000a81548160ff0219169083151502179055508173ffffffffffffffffffffffffffffffffffffffff168373ffffffffffffffffffffffffffffffffffffffff167f17307eab39ab6107e8899845ad3d59bd9653f200f220920489ca2b5937696c31836040516112649190611b77565b60405180910390a3505050565b60008373ffffffffffffffffffffffffffffffffffffffff163b111561141b578273ffffffffffffffffffffffffffffffffffffffff1663150b7a02868685856040518563ffffffff1660e01b81526004016112d094939291906124b5565b6020604051808303816000875af192505050801561130c57506040513d601f19601f820116820180604052508101906113099190612516565b60015b611390573d806000811461133c576040519150601f19603f3d011682016040523d82523d6000602084013e611341565b606091505b50600081510361138857836040517f64a0ae9200000000000000000000000000000000000000000000000000000000815260040161137f9190611ce8565b60405180910390fd5b805181602001fd5b63150b7a0260e01b7bffffffffffffffffffffffffffffffffffffffffffffffffffffffff1916817bffffffffffffffffffffffffffffffffffffffffffffffffffffffff19161461141957836040517f64a0ae920000000000000000000000000000000000000000000000000000000081526004016114109190611ce8565b60405180910390fd5b505b5050505050565b60006002600083815260200190815260200160002060009054906101000a900473ffffffffffffffffffffffffffffffffffffffff169050919050565b60606000600161146e846118af565b01905060008167ffffffffffffffff81111561148d5761148c611ec6565b5b6040519080825280601f01601f1916602001820160405280156114bf5781602001600182028036833780820191505090505b509050600082602001820190505b600115611522578080600190039150507f3031323334353637383961626364656600000000000000000000000000000000600a86061a8153600a858161151657611515612543565b5b049450600085036114cd575b819350505050919050565b600073ffffffffffffffffffffffffffffffffffffffff168273ffffffffffffffffffffffffffffffffffffffff160361159f5760006040517f64a0ae920000000000000000000000000000000000000000000000000000000081526004016115969190611ce8565b60405180910390fd5b60006115ad83836000610d9b565b9050600073ffffffffffffffffffffffffffffffffffffffff168173ffffffffffffffffffffffffffffffffffffffff16146116215760006040517f73c6ac6e0000000000000000000000000000000000000000000000000000000081526004016116189190611ce8565b60405180910390fd5b505050565b808061165f5750600073ffffffffffffffffffffffffffffffffffffffff168273ffffffffffffffffffffffffffffffffffffffff1614155b1561179357600061166f84610cbc565b9050600073ffffffffffffffffffffffffffffffffffffffff168373ffffffffffffffffffffffffffffffffffffffff16141580156116da57508273ffffffffffffffffffffffffffffffffffffffff168173ffffffffffffffffffffffffffffffffffffffff1614155b80156116ed57506116eb8184610b18565b155b1561172f57826040517fa9fbf51f0000000000000000000000000000000000000000000000000000000081526004016117269190611ce8565b60405180910390fd5b811561179157838573ffffffffffffffffffffffffffffffffffffffff168273ffffffffffffffffffffffffffffffffffffffff167f8c5be1e5ebec7d5bd14f71427d1e84f3dd0314c0f7b2291e5b200ac8c7c3b92560405160405180910390a45b505b836004600085815260200190815260200160002060006101000a81548173ffffffffffffffffffffffffffffffffffffffff021916908373ffffffffffffffffffffffffffffffffffffffff16021790555050505050565b6117f6838383611a02565b6118aa57600073ffffffffffffffffffffffffffffffffffffffff168373ffffffffffffffffffffffffffffffffffffffff160361186b57806040517f7e2732890000000000000000000000000000000000000000000000000000000081526004016118629190611e35565b60405180910390fd5b81816040517f177e802f0000000000000000000000000000000000000000000000000000000081526004016118a1929190612572565b60405180910390fd5b505050565b600080600090507a184f03e93ff9f4daa797ed6e38ed64bf6a1f010000000000000000831061190d577a184f03e93ff9f4daa797ed6e38ed64bf6a1f010000000000000000838161190357611902612543565b5b0492506040810190505b6d04ee2d6d415b85acef8100000000831061194a576d04ee2d6d415b85acef810000000083816119405761193f612543565b5b0492506020810190505b662386f26fc10000831061197957662386f26fc10000838161196f5761196e612543565b5b0492506010810190505b6305f5e10083106119a2576305f5e100838161199857611997612543565b5b0492506008810190505b61271083106119c75761271083816119bd576119bc612543565b5b0492506004810190505b606483106119ea57606483816119e0576119df612543565b5b0492506002810190505b600a83106119f9576001810190505b80915050919050565b60008073ffffffffffffffffffffffffffffffffffffffff168373ffffffffffffffffffffffffffffffffffffffff1614158015611aba57508273ffffffffffffffffffffffffffffffffffffffff168473ffffffffffffffffffffffffffffffffffffffff161480611a7b5750611a7a8484610b18565b5b80611ab957508273ffffffffffffffffffffffffffffffffffffffff16611aa183610d44565b73ffffffffffffffffffffffffffffffffffffffff16145b5b90509392505050565b6000604051905090565b600080fd5b600080fd5b60007fffffffff0000000000000000000000000000000000000000000000000000000082169050919050565b611b0c81611ad7565b8114611b1757600080fd5b50565b600081359050611b2981611b03565b92915050565b600060208284031215611b4557611b44611acd565b5b6000611b5384828501611b1a565b91505092915050565b60008115159050919050565b611b7181611b5c565b82525050565b6000602082019050611b8c6000830184611b68565b92915050565b600081519050919050565b600082825260208201905092915050565b60005b83811015611bcc578082015181840152602081019050611bb1565b60008484015250505050565b6000601f19601f8301169050919050565b6000611bf482611b92565b611bfe8185611b9d565b9350611c0e818560208601611bae565b611c1781611bd8565b840191505092915050565b60006020820190508181036000830152611c3c8184611be9565b905092915050565b6000819050919050565b611c5781611c44565b8114611c6257600080fd5b50565b600081359050611c7481611c4e565b92915050565b600060208284031215611c9057611c8f611acd565b5b6000611c9e84828501611c65565b91505092915050565b600073ffffffffffffffffffffffffffffffffffffffff82169050919050565b6000611cd282611ca7565b9050919050565b611ce281611cc7565b82525050565b6000602082019050611cfd6000830184611cd9565b92915050565b611d0c81611cc7565b8114611d1757600080fd5b50565b600081359050611d2981611d03565b92915050565b60008060408385031215611d4657611d45611acd565b5b6000611d5485828601611d1a565b9250506020611d6585828601611c65565b9150509250929050565b600080600060608486031215611d8857611d87611acd565b5b6000611d9686828701611d1a565b9350506020611da786828701611d1a565b9250506040611db886828701611c65565b9150509250925092565b600060ff82169050919050565b611dd881611dc2565b82525050565b6000602082019050611df36000830184611dcf565b92915050565b600060208284031215611e0f57611e0e611acd565b5b6000611e1d84828501611d1a565b91505092915050565b611e2f81611c44565b82525050565b6000602082019050611e4a6000830184611e26565b92915050565b611e5981611b5c565b8114611e6457600080fd5b50565b600081359050611e7681611e50565b92915050565b60008060408385031215611e9357611e92611acd565b5b6000611ea185828601611d1a565b9250506020611eb285828601611e67565b9150509250929050565b600080fd5b600080fd5b7f4e487b7100000000000000000000000000000000000000000000000000000000600052604160045260246000fd5b611efe82611bd8565b810181811067ffffffffffffffff82111715611f1d57611f1c611ec6565b5b80604052505050565b6000611f30611ac3565b9050611f3c8282611ef5565b919050565b600067ffffffffffffffff821115611f5c57611f5b611ec6565b5b611f6582611bd8565b9050602081019050919050565b82818337600083830152505050565b6000611f94611f8f84611f41565b611f26565b905082815260208101848484011115611fb057611faf611ec1565b5b611fbb848285611f72565b509392505050565b600082601f830112611fd857611fd7611ebc565b5b8135611fe8848260208601611f81565b91505092915050565b6000806000806080858703121561200b5761200a611acd565b5b600061201987828801611d1a565b945050602061202a87828801611d1a565b935050604061203b87828801611c65565b925050606085013567ffffffffffffffff81111561205c5761205b611ad2565b5b61206887828801611fc3565b91505092959194509250565b61207d81611dc2565b811461208857600080fd5b50565b60008135905061209a81612074565b92915050565b6000806000606084860312156120b9576120b8611acd565b5b60006120c786828701611d1a565b93505060206120d88682870161208b565b92505060406120e98682870161208b565b9150509250925092565b6000806040838503121561210a57612109611acd565b5b600061211885828601611d1a565b925050602061212985828601611d1a565b9150509250929050565b7f4e487b7100000000000000000000000000000000000000000000000000000000600052602260045260246000fd5b6000600282049050600182168061217a57607f821691505b60208210810361218d5761218c612133565b5b50919050565b60006060820190506121a86000830186611cd9565b6121b56020830185611e26565b6121c26040830184611cd9565b949350505050565b7f4e6f74206d696e74656400000000000000000000000000000000000000000000600082015250565b6000612200600a83611b9d565b915061220b826121ca565b602082019050919050565b6000602082019050818103600083015261222f816121f3565b9050919050565b600081905092915050565b60008190508160005260206000209050919050565b6000815461226381612162565b61226d8186612236565b94506001821660008114612288576001811461229d576122d0565b60ff19831686528115158202860193506122d0565b6122a685612241565b60005b838110156122c8578154818901526001820191506020810190506122a9565b838801955050505b50505092915050565b60006122e482611b92565b6122ee8185612236565b93506122fe818560208601611bae565b80840191505092915050565b7f5f6c766c00000000000000000000000000000000000000000000000000000000600082015250565b6000612340600483612236565b915061234b8261230a565b600482019050919050565b7f2e6a736f6e000000000000000000000000000000000000000000000000000000600082015250565b600061238c600583612236565b915061239782612356565b600582019050919050565b60006123ae8286612256565b91506123ba82856122d9565b91506123c582612333565b91506123d182846122d9565b91506123dc8261237f565b9150819050949350505050565b7f4e487b7100000000000000000000000000000000000000000000000000000000600052601160045260246000fd5b600061242382611c44565b91507fffffffffffffffffffffffffffffffffffffffffffffffffffffffffffffffff8203612455576124546123e9565b5b600182019050919050565b600081519050919050565b600082825260208201905092915050565b600061248782612460565b612491818561246b565b93506124a1818560208601611bae565b6124aa81611bd8565b840191505092915050565b60006080820190506124ca6000830187611cd9565b6124d76020830186611cd9565b6124e46040830185611e26565b81810360608301526124f6818461247c565b905095945050505050565b60008151905061251081611b03565b92915050565b60006020828403121561252c5761252b611acd565b5b600061253a84828501612501565b91505092915050565b7f4e487b7100000000000000000000000000000000000000000000000000000000600052601260045260246000fd5b60006040820190506125876000830185611cd9565b6125946020830184611e26565b939250505056fea26469706673582212204bfae3ffb603d3a6d3110f83bd154bf5fd9f992f29e6e99894d5e670ae21e61764736f6c634300081c0033",
  "linkReferences": {},
  "deployedLinkReferences": {}
}