{
  "_format": "hh-sol-artifact-1",
  "contractName": "SkillNFT",
  "sourceName": "contracts/SkillNFT.sol",
  "abi": [
    {
      "inputs": [
        {
          "internalType": "address",
          "name": "initialOwner",
          "type": "address"
        },
        {
          "internalType": "string",
          "name": "_baseTokenURI",
          "type": "string"
        }
      ],
      "stateMutability": "nonpayable",
      "type": "constructor"
    },
    {
      "inputs": [
        {
          "internalType": "address",
          "name": "sender",
          "type": "address"
        },
        {
          "internalType": "uint256",
          "name": "tokenId",
          "type": "uint256"
        },
        {
          "internalType": "address",
          "name": "owner",
          "type": "address"
        }
      ],
      "name": "ERC721IncorrectOwner",
      "type": "error"
    },
    {
      "inputs": [
        {
          "internalType": "address",
          "name": "operator",
          "type": "address"
        },
        {
          "internalType": "uint256",
          "name": "tokenId",
          "type": "uint256"
        }
      ],
      "name": "ERC721InsufficientApproval",
      "type": "error"
    },
    {
      "inputs": [
        {
          "internalType": "address",
          "name": "approver",
          "type": "address"
        }
      ],
      "name": "ERC721InvalidApprover",
      "type": "error"
    },
    {
      "inputs": [
        {
          "internalType": "address",
          "name": "operator",
          "type": "address"
        }
      ],
      "name": "ERC721InvalidOperator",
      "type": "error"
    },
    {
      "inputs": [
        {
          "internalType": "address",
          "name": "owner",
          "type": "address"
        }
      ],
      "name": "ERC721InvalidOwner",
      "type": "error"
    },
    {
      "inputs": [
        {
          "internalType": "address",
          "name": "receiver",
          "type": "address"
        }
      ],
      "name": "ERC721InvalidReceiver",
      "type": "error"
    },
    {
      "inputs": [
        {
          "internalType": "address",
          "name": "sender",
          "type": "address"
        }
      ],
      "name": "ERC721InvalidSender",
      "type": "error"
    },
    {
      "inputs": [
        {
          "internalType": "uint256",
          "name": "tokenId",
          "type": "uint256"
        }
      ],
      "name": "ERC721NonexistentToken",
      "type": "error"
    },
    {
      "inputs": [
        {
          "internalType": "address",
          "name": "owner",
          "type": "address"
        }
      ],
      "name": "OwnableInvalidOwner",
      "type": "error"
    },
    {
      "inputs": [
        {
          "internalType": "address",
          "name": "account",
          "type": "address"
        }
      ],
      "name": "OwnableUnauthorizedAccount",
      "type": "error"
    },
    {
      "anonymous": false,
      "inputs": [
        {
          "indexed": true,
          "internalType": "address",
          "name": "owner",
          "type": "address"
        },
        {
          "indexed": true,
          "internalType": "address",
          "name": "approved",
          "type": "address"
        },
        {
          "indexed": true,
          "internalType": "uint256",
          "name": "tokenId",
          "type": "uint256"
        }
      ],
      "name": "Approval",
      "type": "event"
    },
    {
      "anonymous": false,
      "inputs": [
        {
          "indexed": true,
          "internalType": "address",
          "name": "owner",
          "type": "address"
        },
        {
          "indexed": true,
          "internalType": "address",
          "name": "operator",
          "type": "address"
        },
        {
          "indexed": false,
          "internalType": "bool",
          "name": "approved",
          "type": "bool"
        }
      ],
      "name": "ApprovalForAll",
      "type": "event"
    },
    {
      "anonymous": false,
      "inputs": [
        {
          "indexed": true,
          "internalType": "address",
          "name": "previousOwner",
          "type": "address"
        },
        {
          "indexed": true,
          "internalType": "address",
          "name": "newOwner",
          "type": "address"
        }
      ],
      "name": "OwnershipTransferred",
      "type": "event"
    },
    {
      "anonymous": false,
      "inputs": [
        {
          "indexed": true,
          "internalType": "address",
          "name": "from",
          "type": "address"
        },
        {
          "indexed": true,
          "internalType": "address",
          "name": "to",
          "type": "address"
        },
        {
          "indexed": true,
          "internalType": "uint256",
          "name": "tokenId",
          "type": "uint256"
        }
      ],
      "name": "Transfer",
      "type": "event"
    },
    {
      "inputs": [
        {
          "internalType": "address",
          "name": "to",
          "type": "address"
        },
        {
          "internalType": "uint256",
          "name": "tokenId",
          "type": "uint256"
        }
      ],
      "name": "approve",
      "outputs": [],
      "stateMutability": "nonpayable",
      "type": "function"
    },
    {
      "inputs": [
        {
          "internalType": "address",
          "name": "owner",
          "type": "address"
        }
      ],
      "name": "balanceOf",
      "outputs": [
        {
          "internalType": "uint256",
          "name": "",
          "type": "uint256"
        }
      ],
      "stateMutability": "view",
      "type": "function"
    },
    {
      "inputs": [],
      "name": "baseTokenURI",
      "outputs": [
        {
          "internalType": "string",
          "name": "",
          "type": "string"
        }
      ],
      "stateMutability": "view",
      "type": "function"
    },
    {
      "inputs": [
        {
          "internalType": "uint256",
          "name": "tokenId",
          "type": "uint256"
        }
      ],
      "name": "burn",
      "outputs": [],
      "stateMutability": "nonpayable",
      "type": "function"
    },
    {
      "inputs": [
        {
          "internalType": "uint256",
          "name": "tokenId",
          "type": "uint256"
        }
      ],
      "name": "getApproved",
      "outputs": [
        {
          "internalType": "address",
          "name": "",
          "type": "address"
        }
      ],
      "stateMutability": "view",
      "type": "function"
    },
    {
      "inputs": [
        {
          "internalType": "uint256",
          "name": "tokenId",
          "type": "uint256"
        }
      ],
      "name": "getSkillData",
      "outputs": [
        {
          "internalType": "uint8",
          "name": "",
          "type": "uint8"
        },
        {
          "internalType": "uint8",
          "name": "",
          "type": "uint8"
        }
      ],
      "stateMutability": "view",
      "type": "function"
    },
    {
      "inputs": [
        {
          "internalType": "address",
          "name": "owner",
          "type": "address"
        },
        {
          "internalType": "address",
          "name": "operator",
          "type": "address"
        }
      ],
      "name": "isApprovedForAll",
      "outputs": [
        {
          "internalType": "bool",
          "name": "",
          "type": "bool"
        }
      ],
      "stateMutability": "view",
      "type": "function"
    },
    {
      "inputs": [],
      "name": "name",
      "outputs": [
        {
          "internalType": "string",
          "name": "",
          "type": "string"
        }
      ],
      "stateMutability": "view",
      "type": "function"
    },
    {
      "inputs": [],
      "name": "nextTokenId",
      "outputs": [
        {
          "internalType": "uint256",
          "name": "",
          "type": "uint256"
        }
      ],
      "stateMutability": "view",
      "type": "function"
    },
    {
      "inputs": [],
      "name": "owner",
      "outputs": [
        {
          "internalType": "address",
          "name": "",
          "type": "address"
        }
      ],
      "stateMutability": "view",
      "type": "function"
    },
    {
      "inputs": [
        {
          "internalType": "uint256",
          "name": "tokenId",
          "type": "uint256"
        }
      ],
      "name": "ownerOf",
      "outputs": [
        {
          "internalType": "address",
          "name": "",
          "type": "address"
        }
      ],
      "stateMutability": "view",
      "type": "function"
    },
    {
      "inputs": [],
      "name": "renounceOwnership",
      "outputs": [],
      "stateMutability": "nonpayable",
      "type": "function"
    },
    {
      "inputs": [
        {
          "internalType": "address",
          "name": "to",
          "type": "address"
        },
        {
          "internalType": "uint8",
          "name": "_type",
          "type": "uint8"
        },
        {
          "internalType": "uint8",
          "name": "_level",
          "type": "uint8"
        }
      ],
      "name": "safeMint",
      "outputs": [
        {
          "internalType": "uint256",
          "name": "",
          "type": "uint256"
        }
      ],
      "stateMutability": "nonpayable",
      "type": "function"
    },
    {
      "inputs": [
        {
          "internalType": "address",
          "name": "from",
          "type": "address"
        },
        {
          "internalType": "address",
          "name": "to",
          "type": "address"
        },
        {
          "internalType": "uint256",
          "name": "tokenId",
          "type": "uint256"
        }
      ],
      "name": "safeTransferFrom",
      "outputs": [],
      "stateMutability": "nonpayable",
      "type": "function"
    },
    {
      "inputs": [
        {
          "internalType": "address",
          "name": "from",
          "type": "address"
        },
        {
          "internalType": "address",
          "name": "to",
          "type": "address"
        },
        {
          "internalType": "uint256",
          "name": "tokenId",
          "type": "uint256"
        },
        {
          "internalType": "bytes",
          "name": "data",
          "type": "bytes"
        }
      ],
      "name": "safeTransferFrom",
      "outputs": [],
      "stateMutability": "nonpayable",
      "type": "function"
    },
    {
      "inputs": [
        {
          "internalType": "address",
          "name": "operator",
          "type": "address"
        },
        {
          "internalType": "bool",
          "name": "approved",
          "type": "bool"
        }
      ],
      "name": "setApprovalForAll",
      "outputs": [],
      "stateMutability": "nonpayable",
      "type": "function"
    },
    {
      "inputs": [
        {
          "internalType": "uint256",
          "name": "",
          "type": "uint256"
        }
      ],
      "name": "skillLevel",
      "outputs": [
        {
          "internalType": "uint8",
          "name": "",
          "type": "uint8"
        }
      ],
      "stateMutability": "view",
      "type": "function"
    },
    {
      "inputs": [
        {
          "internalType": "uint256",
          "name": "",
          "type": "uint256"
        }
      ],
      "name": "skillType",
      "outputs": [
        {
          "internalType": "uint8",
          "name": "",
          "type": "uint8"
        }
      ],
      "stateMutability": "view",
      "type": "function"
    },
    {
      "inputs": [
        {
          "internalType": "bytes4",
          "name": "interfaceId",
          "type": "bytes4"
        }
      ],
      "name": "supportsInterface",
      "outputs": [
        {
          "internalType": "bool",
          "name": "",
          "type": "bool"
        }
      ],
      "stateMutability": "view",
      "type": "function"
    },
    {
      "inputs": [],
      "name": "symbol",
      "outputs": [
        {
          "internalType": "string",
          "name": "",
          "type": "string"
        }
      ],
      "stateMutability": "view",
      "type": "function"
    },
    {
      "inputs": [
        {
          "internalType": "uint256",
          "name": "tokenId",
          "type": "uint256"
        }
      ],
      "name": "tokenURI",
      "outputs": [
        {
          "internalType": "string",
          "name": "",
          "type": "string"
        }
      ],
      "stateMutability": "view",
      "type": "function"
    },
    {
      "inputs": [
        {
          "internalType": "address",
          "name": "from",
          "type": "address"
        },
        {
          "internalType": "address",
          "name": "to",
          "type": "address"
        },
        {
          "internalType": "uint256",
          "name": "tokenId",
          "type": "uint256"
        }
      ],
      "name": "transferFrom",
      "outputs": [],
      "stateMutability": "nonpayable",
      "type": "function"
    },
    {
      "inputs": [
        {
          "internalType": "address",
          "name": "newOwner",
          "type": "address"
        }
      ],
      "name": "transferOwnership",
      "outputs": [],
      "stateMutability": "nonpayable",
      "type": "function"
    }
  ],
  "bytecode": "0x608060405234801561001057600080fd5b50604051612f20380380612f20833981810160405281019061003291906103f3565b816040518060400160405280600e81526020017f466c617070796d6f6e536b696c6c0000000000000000000000000000000000008152506040518060400160405280600581526020017f534b494c4c00000000000000000000000000000000000000000000000000000081525081600090816100ae9190610670565b5080600190816100be9190610670565b505050600073ffffffffffffffffffffffffffffffffffffffff168173ffffffffffffffffffffffffffffffffffffffff16036101335760006040517f1e4fbdf700000000000000000000000000000000000000000000000000000000815260040161012a9190610751565b60405180910390fd5b6101428161015a60201b60201c565b5080600890816101529190610670565b50505061076c565b6000600660009054906101000a900473ffffffffffffffffffffffffffffffffffffffff16905081600660006101000a81548173ffffffffffffffffffffffffffffffffffffffff021916908373ffffffffffffffffffffffffffffffffffffffff1602179055508173ffffffffffffffffffffffffffffffffffffffff168173ffffffffffffffffffffffffffffffffffffffff167f8be0079c531659141344cd1fd0a4f28419497f9722a3daafe3b4186f6b6457e060405160405180910390a35050565b6000604051905090565b600080fd5b600080fd5b600073ffffffffffffffffffffffffffffffffffffffff82169050919050565b600061025f82610234565b9050919050565b61026f81610254565b811461027a57600080fd5b50565b60008151905061028c81610266565b92915050565b600080fd5b600080fd5b6000601f19601f8301169050919050565b7f4e487b7100000000000000000000000000000000000000000000000000000000600052604160045260246000fd5b6102e58261029c565b810181811067ffffffffffffffff82111715610304576103036102ad565b5b80604052505050565b6000610317610220565b905061032382826102dc565b919050565b600067ffffffffffffffff821115610343576103426102ad565b5b61034c8261029c565b9050602081019050919050565b60005b8381101561037757808201518184015260208101905061035c565b60008484015250505050565b600061039661039184610328565b61030d565b9050828152602081018484840111156103b2576103b1610297565b5b6103bd848285610359565b509392505050565b600082601f8301126103da576103d9610292565b5b81516103ea848260208601610383565b91505092915050565b6000806040838503121561040a5761040961022a565b5b60006104188582860161027d565b925050602083015167ffffffffffffffff8111156104395761043861022f565b5b610445858286016103c5565b9150509250929050565b600081519050919050565b7f4e487b7100000000000000000000000000000000000000000000000000000000600052602260045260246000fd5b600060028204905060018216806104a157607f821691505b6020821081036104b4576104b361045a565b5b50919050565b60008190508160005260206000209050919050565b60006020601f8301049050919050565b600082821b905092915050565b60006008830261051c7fffffffffffffffffffffffffffffffffffffffffffffffffffffffffffffffff826104df565b61052686836104df565b95508019841693508086168417925050509392505050565b6000819050919050565b6000819050919050565b600061056d6105686105638461053e565b610548565b61053e565b9050919050565b6000819050919050565b61058783610552565b61059b61059382610574565b8484546104ec565b825550505050565b600090565b6105b06105a3565b6105bb81848461057e565b505050565b5b818110156105df576105d46000826105a8565b6001810190506105c1565b5050565b601f821115610624576105f5816104ba565b6105fe846104cf565b8101602085101561060d578190505b610621610619856104cf565b8301826105c0565b50505b505050565b600082821c905092915050565b600061064760001984600802610629565b1980831691505092915050565b60006106608383610636565b9150826002028217905092915050565b6106798261044f565b67ffffffffffffffff811115610692576106916102ad565b5b61069c8254610489565b6106a78282856105e3565b600060209050601f8311600181146106da57600084156106c8578287015190505b6106d28582610654565b86555061073a565b601f1984166106e8866104ba565b60005b82811015610710578489015182556001820191506020850194506020810190506106eb565b8683101561072d5784890151610729601f891682610636565b8355505b6001600288020188555050505b505050505050565b61074b81610254565b82525050565b60006020820190506107666000830184610742565b92915050565b6127a58061077b6000396000f3fe608060405234801561001057600080fd5b506004361061014d5760003560e01c806375794a3c116100c3578063c87b56dd1161007c578063c87b56dd1461039d578063d547cfb7146103cd578063d81a2133146103eb578063e985e9c51461041b578063efe393311461044b578063f2fde38b1461047b5761014d565b806375794a3c146102da5780638da5cb5b146102f857806395d89b411461031657806399cdee9814610334578063a22cb46514610365578063b88d4fde146103815761014d565b80632a8a9176116101155780632a8a91761461020857806342842e0e1461023857806342966c68146102545780636352211e1461027057806370a08231146102a0578063715018a6146102d05761014d565b806301ffc9a71461015257806306fdde0314610182578063081812fc146101a0578063095ea7b3146101d057806323b872dd146101ec575b600080fd5b61016c60048036038101906101679190611c6e565b610497565b6040516101799190611cb6565b60405180910390f35b61018a610579565b6040516101979190611d61565b60405180910390f35b6101ba60048036038101906101b59190611db9565b61060b565b6040516101c79190611e27565b60405180910390f35b6101ea60048036038101906101e59190611e6e565b610627565b005b61020660048036038101906102019190611eae565b61063d565b005b610222600480360381019061021d9190611db9565b61073f565b60405161022f9190611f1d565b60405180910390f35b610252600480360381019061024d9190611eae565b61075f565b005b61026e60048036038101906102699190611db9565b61077f565b005b61028a60048036038101906102859190611db9565b610796565b6040516102979190611e27565b60405180910390f35b6102ba60048036038101906102b59190611f38565b6107a8565b6040516102c79190611f74565b60405180910390f35b6102d8610862565b005b6102e2610876565b6040516102ef9190611f74565b60405180910390f35b61030061087c565b60405161030d9190611e27565b60405180910390f35b61031e6108a6565b60405161032b9190611d61565b60405180910390f35b61034e60048036038101906103499190611db9565b610938565b60405161035c929190611f8f565b60405180910390f35b61037f600480360381019061037a9190611fe4565b6109fd565b005b61039b60048036038101906103969190612159565b610a13565b005b6103b760048036038101906103b29190611db9565b610a38565b6040516103c49190611d61565b60405180910390f35b6103d5610b33565b6040516103e29190611d61565b60405180910390f35b61040560048036038101906104009190612208565b610bc1565b6040516104129190611f74565b60405180910390f35b6104356004803603810190610430919061225b565b610c57565b6040516104429190611cb6565b60405180910390f35b61046560048036038101906104609190611db9565b610ceb565b6040516104729190611f1d565b60405180910390f35b61049560048036038101906104909190611f38565b610d0b565b005b60007f80ac58cd000000000000000000000000000000000000000000000000000000007bffffffffffffffffffffffffffffffffffffffffffffffffffffffff1916827bffffffffffffffffffffffffffffffffffffffffffffffffffffffff1916148061056257507f5b5e139f000000000000000000000000000000000000000000000000000000007bffffffffffffffffffffffffffffffffffffffffffffffffffffffff1916827bffffffffffffffffffffffffffffffffffffffffffffffffffffffff1916145b80610572575061057182610d91565b5b9050919050565b606060008054610588906122ca565b80601f01602080910402602001604051908101604052809291908181526020018280546105b4906122ca565b80156106015780601f106105d657610100808354040283529160200191610601565b820191906000526020600020905b8154815290600101906020018083116105e457829003601f168201915b5050505050905090565b600061061682610dfb565b5061062082610e83565b9050919050565b6106398282610634610ec0565b610ec8565b5050565b600073ffffffffffffffffffffffffffffffffffffffff168273ffffffffffffffffffffffffffffffffffffffff16036106af5760006040517f64a0ae920000000000000000000000000000000000000000000000000000000081526004016106a69190611e27565b60405180910390fd5b60006106c383836106be610ec0565b610eda565b90508373ffffffffffffffffffffffffffffffffffffffff168173ffffffffffffffffffffffffffffffffffffffff1614610739578382826040517f64283d7b000000000000000000000000000000000000000000000000000000008152600401610730939291906122fb565b60405180910390fd5b50505050565b60096020528060005260406000206000915054906101000a900460ff1681565b61077a83838360405180602001604052806000815250610a13565b505050565b61079260008261078d610ec0565b610eda565b5050565b60006107a182610dfb565b9050919050565b60008073ffffffffffffffffffffffffffffffffffffffff168273ffffffffffffffffffffffffffffffffffffffff160361081b5760006040517f89c62b640000000000000000000000000000000000000000000000000000000081526004016108129190611e27565b60405180910390fd5b600360008373ffffffffffffffffffffffffffffffffffffffff1673ffffffffffffffffffffffffffffffffffffffff168152602001908152602001600020549050919050565b61086a6110f4565b610874600061117b565b565b60075481565b6000600660009054906101000a900473ffffffffffffffffffffffffffffffffffffffff16905090565b6060600180546108b5906122ca565b80601f01602080910402602001604051908101604052809291908181526020018280546108e1906122ca565b801561092e5780601f106109035761010080835404028352916020019161092e565b820191906000526020600020905b81548152906001019060200180831161091157829003601f168201915b5050505050905090565b600080600073ffffffffffffffffffffffffffffffffffffffff1661095c84611241565b73ffffffffffffffffffffffffffffffffffffffff16036109b2576040517f08c379a00000000000000000000000000000000000000000000000000000000081526004016109a99061237e565b60405180910390fd5b6009600084815260200190815260200160002060009054906101000a900460ff16600a600085815260200190815260200160002060009054906101000a900460ff1691509150915091565b610a0f610a08610ec0565b838361127e565b5050565b610a1e84848461063d565b610a32610a29610ec0565b858585856113ed565b50505050565b6060600073ffffffffffffffffffffffffffffffffffffffff16610a5b83611241565b73ffffffffffffffffffffffffffffffffffffffff1603610ab1576040517f08c379a0000000000000000000000000000000000000000000000000000000008152600401610aa8906123ea565b60405180910390fd5b6008610adf6009600085815260200190815260200160002060009054906101000a900460ff1660ff1661159e565b610b0b600a600086815260200190815260200160002060009054906101000a900460ff1660ff1661159e565b604051602001610b1d93929190612576565b6040516020818303038152906040529050919050565b60088054610b40906122ca565b80601f0160208091040260200160405190810160405280929190818152602001828054610b6c906122ca565b8015610bb95780601f10610b8e57610100808354040283529160200191610bb9565b820191906000526020600020905b815481529060010190602001808311610b9c57829003601f168201915b505050505081565b6000610bcb6110f4565b6000600754905060076000815480929190610be5906125ec565b9190505550610bf4858261166c565b836009600083815260200190815260200160002060006101000a81548160ff021916908360ff16021790555082600a600083815260200190815260200160002060006101000a81548160ff021916908360ff160217905550809150509392505050565b6000600560008473ffffffffffffffffffffffffffffffffffffffff1673ffffffffffffffffffffffffffffffffffffffff16815260200190815260200160002060008373ffffffffffffffffffffffffffffffffffffffff1673ffffffffffffffffffffffffffffffffffffffff16815260200190815260200160002060009054906101000a900460ff16905092915050565b600a6020528060005260406000206000915054906101000a900460ff1681565b610d136110f4565b600073ffffffffffffffffffffffffffffffffffffffff168173ffffffffffffffffffffffffffffffffffffffff1603610d855760006040517f1e4fbdf7000000000000000000000000000000000000000000000000000000008152600401610d7c9190611e27565b60405180910390fd5b610d8e8161117b565b50565b60007f01ffc9a7000000000000000000000000000000000000000000000000000000007bffffffffffffffffffffffffffffffffffffffffffffffffffffffff1916827bffffffffffffffffffffffffffffffffffffffffffffffffffffffff1916149050919050565b600080610e0783611241565b9050600073ffffffffffffffffffffffffffffffffffffffff168173ffffffffffffffffffffffffffffffffffffffff1603610e7a57826040517f7e273289000000000000000000000000000000000000000000000000000000008152600401610e719190611f74565b60405180910390fd5b80915050919050565b60006004600083815260200190815260200160002060009054906101000a900473ffffffffffffffffffffffffffffffffffffffff169050919050565b600033905090565b610ed58383836001611765565b505050565b600080610ee684611241565b9050600073ffffffffffffffffffffffffffffffffffffffff168373ffffffffffffffffffffffffffffffffffffffff1614610f2857610f2781848661192a565b5b600073ffffffffffffffffffffffffffffffffffffffff168173ffffffffffffffffffffffffffffffffffffffff1614610fb957610f6a600085600080611765565b6001600360008373ffffffffffffffffffffffffffffffffffffffff1673ffffffffffffffffffffffffffffffffffffffff168152602001908152602001600020600082825403925050819055505b600073ffffffffffffffffffffffffffffffffffffffff168573ffffffffffffffffffffffffffffffffffffffff161461103c576001600360008773ffffffffffffffffffffffffffffffffffffffff1673ffffffffffffffffffffffffffffffffffffffff168152602001908152602001600020600082825401925050819055505b846002600086815260200190815260200160002060006101000a81548173ffffffffffffffffffffffffffffffffffffffff021916908373ffffffffffffffffffffffffffffffffffffffff160217905550838573ffffffffffffffffffffffffffffffffffffffff168273ffffffffffffffffffffffffffffffffffffffff167fddf252ad1be2c89b69c2b068fc378daa952ba7f163c4a11628f55a4df523b3ef60405160405180910390a4809150509392505050565b6110fc610ec0565b73ffffffffffffffffffffffffffffffffffffffff1661111a61087c565b73ffffffffffffffffffffffffffffffffffffffff16146111795761113d610ec0565b6040517f118cdaa70000000000000000000000000000000000000000000000000000000081526004016111709190611e27565b60405180910390fd5b565b6000600660009054906101000a900473ffffffffffffffffffffffffffffffffffffffff16905081600660006101000a81548173ffffffffffffffffffffffffffffffffffffffff021916908373ffffffffffffffffffffffffffffffffffffffff1602179055508173ffffffffffffffffffffffffffffffffffffffff168173ffffffffffffffffffffffffffffffffffffffff167f8be0079c531659141344cd1fd0a4f28419497f9722a3daafe3b4186f6b6457e060405160405180910390a35050565b60006002600083815260200190815260200160002060009054906101000a900473ffffffffffffffffffffffffffffffffffffffff169050919050565b600073ffffffffffffffffffffffffffffffffffffffff168273ffffffffffffffffffffffffffffffffffffffff16036112ef57816040517f5b08ba180000000000000000000000000000000000000000000000000000000081526004016112e69190611e27565b60405180910390fd5b80600560008573ffffffffffffffffffffffffffffffffffffffff1673ffffffffffffffffffffffffffffffffffffffff16815260200190815260200160002060008473ffffffffffffffffffffffffffffffffffffffff1673ffffffffffffffffffffffffffffffffffffffff16815260200190815260200160002060006101000a81548160ff0219169083151502179055508173ffffffffffffffffffffffffffffffffffffffff168373ffffffffffffffffffffffffffffffffffffffff167f17307eab39ab6107e8899845ad3d59bd9653f200f220920489ca2b5937696c31836040516113e09190611cb6565b60405180910390a3505050565b60008373ffffffffffffffffffffffffffffffffffffffff163b1115611597578273ffffffffffffffffffffffffffffffffffffffff1663150b7a02868685856040518563ffffffff1660e01b815260040161144c9493929190612689565b6020604051808303816000875af192505050801561148857506040513d601f19601f8201168201806040525081019061148591906126ea565b60015b61150c573d80600081146114b8576040519150601f19603f3d011682016040523d82523d6000602084013e6114bd565b606091505b50600081510361150457836040517f64a0ae920000000000000000000000000000000000000000000000000000000081526004016114fb9190611e27565b60405180910390fd5b805181602001fd5b63150b7a0260e01b7bffffffffffffffffffffffffffffffffffffffffffffffffffffffff1916817bffffffffffffffffffffffffffffffffffffffffffffffffffffffff19161461159557836040517f64a0ae9200000000000000000000000000000000000000000000000000000000815260040161158c9190611e27565b60405180910390fd5b505b5050505050565b6060600060016115ad846119ee565b01905060008167ffffffffffffffff8111156115cc576115cb61202e565b5b6040519080825280601f01601f1916602001820160405280156115fe5781602001600182028036833780820191505090505b509050600082602001820190505b600115611661578080600190039150507f3031323334353637383961626364656600000000000000000000000000000000600a86061a8153600a858161165557611654612717565b5b0494506000850361160c575b819350505050919050565b600073ffffffffffffffffffffffffffffffffffffffff168273ffffffffffffffffffffffffffffffffffffffff16036116de5760006040517f64a0ae920000000000000000000000000000000000000000000000000000000081526004016116d59190611e27565b60405180910390fd5b60006116ec83836000610eda565b9050600073ffffffffffffffffffffffffffffffffffffffff168173ffffffffffffffffffffffffffffffffffffffff16146117605760006040517f73c6ac6e0000000000000000000000000000000000000000000000000000000081526004016117579190611e27565b60405180910390fd5b505050565b808061179e5750600073ffffffffffffffffffffffffffffffffffffffff168273ffffffffffffffffffffffffffffffffffffffff1614155b156118d25760006117ae84610dfb565b9050600073ffffffffffffffffffffffffffffffffffffffff168373ffffffffffffffffffffffffffffffffffffffff161415801561181957508273ffffffffffffffffffffffffffffffffffffffff168173ffffffffffffffffffffffffffffffffffffffff1614155b801561182c575061182a8184610c57565b155b1561186e57826040517fa9fbf51f0000000000000000000000000000000000000000000000000000000081526004016118659190611e27565b60405180910390fd5b81156118d057838573ffffffffffffffffffffffffffffffffffffffff168273ffffffffffffffffffffffffffffffffffffffff167f8c5be1e5ebec7d5bd14f71427d1e84f3dd0314c0f7b2291e5b200ac8c7c3b92560405160405180910390a45b505b836004600085815260200190815260200160002060006101000a81548173ffffffffffffffffffffffffffffffffffffffff021916908373ffffffffffffffffffffffffffffffffffffffff16021790555050505050565b611935838383611b41565b6119e957600073ffffffffffffffffffffffffffffffffffffffff168373ffffffffffffffffffffffffffffffffffffffff16036119aa57806040517f7e2732890000000000000000000000000000000000000000000000000000000081526004016119a19190611f74565b60405180910390fd5b81816040517f177e802f0000000000000000000000000000000000000000000000000000000081526004016119e0929190612746565b60405180910390fd5b505050565b600080600090507a184f03e93ff9f4daa797ed6e38ed64bf6a1f0100000000000000008310611a4c577a184f03e93ff9f4daa797ed6e38ed64bf6a1f0100000000000000008381611a4257611a41612717565b5b0492506040810190505b6d04ee2d6d415b85acef81000000008310611a89576d04ee2d6d415b85acef81000000008381611a7f57611a7e612717565b5b0492506020810190505b662386f26fc100008310611ab857662386f26fc100008381611aae57611aad612717565b5b0492506010810190505b6305f5e1008310611ae1576305f5e1008381611ad757611ad6612717565b5b0492506008810190505b6127108310611b06576127108381611afc57611afb612717565b5b0492506004810190505b60648310611b295760648381611b1f57611b1e612717565b5b0492506002810190505b600a8310611b38576001810190505b80915050919050565b60008073ffffffffffffffffffffffffffffffffffffffff168373ffffffffffffffffffffffffffffffffffffffff1614158015611bf957508273ffffffffffffffffffffffffffffffffffffffff168473ffffffffffffffffffffffffffffffffffffffff161480611bba5750611bb98484610c57565b5b80611bf857508273ffffffffffffffffffffffffffffffffffffffff16611be083610e83565b73ffffffffffffffffffffffffffffffffffffffff16145b5b90509392505050565b6000604051905090565b600080fd5b600080fd5b60007fffffffff0000000000000000000000000000000000000000000000000000000082169050919050565b611c4b81611c16565b8114611c5657600080fd5b50565b600081359050611c6881611c42565b92915050565b600060208284031215611c8457611c83611c0c565b5b6000611c9284828501611c59565b91505092915050565b60008115159050919050565b611cb081611c9b565b82525050565b6000602082019050611ccb6000830184611ca7565b92915050565b600081519050919050565b600082825260208201905092915050565b60005b83811015611d0b578082015181840152602081019050611cf0565b60008484015250505050565b6000601f19601f8301169050919050565b6000611d3382611cd1565b611d3d8185611cdc565b9350611d4d818560208601611ced565b611d5681611d17565b840191505092915050565b60006020820190508181036000830152611d7b8184611d28565b905092915050565b6000819050919050565b611d9681611d83565b8114611da157600080fd5b50565b600081359050611db381611d8d565b92915050565b600060208284031215611dcf57611dce611c0c565b5b6000611ddd84828501611da4565b91505092915050565b600073ffffffffffffffffffffffffffffffffffffffff82169050919050565b6000611e1182611de6565b9050919050565b611e2181611e06565b82525050565b6000602082019050611e3c6000830184611e18565b92915050565b611e4b81611e06565b8114611e5657600080fd5b50565b600081359050611e6881611e42565b92915050565b60008060408385031215611e8557611e84611c0c565b5b6000611e9385828601611e59565b9250506020611ea485828601611da4565b9150509250929050565b600080600060608486031215611ec757611ec6611c0c565b5b6000611ed586828701611e59565b9350506020611ee686828701611e59565b9250506040611ef786828701611da4565b9150509250925092565b600060ff82169050919050565b611f1781611f01565b82525050565b6000602082019050611f326000830184611f0e565b92915050565b600060208284031215611f4e57611f4d611c0c565b5b6000611f5c84828501611e59565b91505092915050565b611f6e81611d83565b82525050565b6000602082019050611f896000830184611f65565b92915050565b6000604082019050611fa46000830185611f0e565b611fb16020830184611f0e565b9392505050565b611fc181611c9b565b8114611fcc57600080fd5b50565b600081359050611fde81611fb8565b92915050565b60008060408385031215611ffb57611ffa611c0c565b5b600061200985828601611e59565b925050602061201a85828601611fcf565b9150509250929050565b600080fd5b600080fd5b7f4e487b7100000000000000000000000000000000000000000000000000000000600052604160045260246000fd5b61206682611d17565b810181811067ffffffffffffffff821117156120855761208461202e565b5b80604052505050565b6000612098611c02565b90506120a4828261205d565b919050565b600067ffffffffffffffff8211156120c4576120c361202e565b5b6120cd82611d17565b9050602081019050919050565b82818337600083830152505050565b60006120fc6120f7846120a9565b61208e565b90508281526020810184848401111561211857612117612029565b5b6121238482856120da565b509392505050565b600082601f8301126121405761213f612024565b5b81356121508482602086016120e9565b91505092915050565b6000806000806080858703121561217357612172611c0c565b5b600061218187828801611e59565b945050602061219287828801611e59565b93505060406121a387828801611da4565b925050606085013567ffffffffffffffff8111156121c4576121c3611c11565b5b6121d08782880161212b565b91505092959194509250565b6121e581611f01565b81146121f057600080fd5b50565b600081359050612202816121dc565b92915050565b60008060006060848603121561222157612220611c0c565b5b600061222f86828701611e59565b9350506020612240868287016121f3565b9250506040612251868287016121f3565b9150509250925092565b6000806040838503121561227257612271611c0c565b5b600061228085828601611e59565b925050602061229185828601611e59565b9150509250929050565b7f4e487b7100000000000000000000000000000000000000000000000000000000600052602260045260246000fd5b600060028204905060018216806122e257607f821691505b6020821081036122f5576122f461229b565b5b50919050565b60006060820190506123106000830186611e18565b61231d6020830185611f65565b61232a6040830184611e18565b949350505050565b7f546f6b656e20646f6573206e6f74206578697374000000000000000000000000600082015250565b6000612368601483611cdc565b915061237382612332565b602082019050919050565b600060208201905081810360008301526123978161235b565b9050919050565b7f4e6f74206d696e74656400000000000000000000000000000000000000000000600082015250565b60006123d4600a83611cdc565b91506123df8261239e565b602082019050919050565b60006020820190508181036000830152612403816123c7565b9050919050565b600081905092915050565b60008190508160005260206000209050919050565b60008154612437816122ca565b612441818661240a565b9450600182166000811461245c5760018114612471576124a4565b60ff19831686528115158202860193506124a4565b61247a85612415565b60005b8381101561249c5781548189015260018201915060208101905061247d565b838801955050505b50505092915050565b60006124b882611cd1565b6124c2818561240a565b93506124d2818560208601611ced565b80840191505092915050565b7f5f6c766c00000000000000000000000000000000000000000000000000000000600082015250565b600061251460048361240a565b915061251f826124de565b600482019050919050565b7f2e6a736f6e000000000000000000000000000000000000000000000000000000600082015250565b600061256060058361240a565b915061256b8261252a565b600582019050919050565b6000612582828661242a565b915061258e82856124ad565b915061259982612507565b91506125a582846124ad565b91506125b082612553565b9150819050949350505050565b7f4e487b7100000000000000000000000000000000000000000000000000000000600052601160045260246000fd5b60006125f782611d83565b91507fffffffffffffffffffffffffffffffffffffffffffffffffffffffffffffffff8203612629576126286125bd565b5b600182019050919050565b600081519050919050565b600082825260208201905092915050565b600061265b82612634565b612665818561263f565b9350612675818560208601611ced565b61267e81611d17565b840191505092915050565b600060808201905061269e6000830187611e18565b6126ab6020830186611e18565b6126b86040830185611f65565b81810360608301526126ca8184612650565b905095945050505050565b6000815190506126e481611c42565b92915050565b600060208284031215612700576126ff611c0c565b5b600061270e848285016126d5565b91505092915050565b7f4e487b7100000000000000000000000000000000000000000000000000000000600052601260045260246000fd5b600060408201905061275b6000830185611e18565b6127686020830184611f65565b939250505056fea264697066735822122035269d647a7f7d229be9a0d428db7a2784849ec4d1f6843502a76cfad106555764736f6c634300081c0033",
  "linkReferences": {},
  "deployedLinkReferences": {}
}